{
  "_format": "hh-sol-artifact-1",
  "contractName": "NeedStorage",
  "sourceName": "contracts/needModule/NeedStorage.sol",
  "abi": [
    {
      "inputs": [
        {
          "internalType": "address",
          "name": "_timeLockAddress",
          "type": "address"
        }
      ],
      "stateMutability": "nonpayable",
      "type": "constructor"
    },
    {
      "inputs": [
        {
          "internalType": "uint256",
          "name": "swShare",
          "type": "uint256"
        },
        {
          "internalType": "uint256",
          "name": "svShare",
          "type": "uint256"
        },
        {
          "internalType": "uint256",
          "name": "cShare",
          "type": "uint256"
        }
      ],
      "name": "_updateNeedContribution",
      "outputs": [],
      "stateMutability": "nonpayable",
      "type": "function"
    },
    {
      "inputs": [
        {
          "internalType": "uint256",
          "name": "newRatio",
          "type": "uint256"
        }
      ],
      "name": "_updateNeedRatio",
      "outputs": [],
      "stateMutability": "nonpayable",
      "type": "function"
    },
    {
      "inputs": [],
      "name": "contributorShare",
      "outputs": [
        {
          "internalType": "uint256",
          "name": "",
          "type": "uint256"
        }
      ],
      "stateMutability": "view",
      "type": "function"
    },
    {
      "inputs": [],
      "name": "socialWorkerShare",
      "outputs": [
        {
          "internalType": "uint256",
          "name": "",
          "type": "uint256"
        }
      ],
      "stateMutability": "view",
      "type": "function"
    },
    {
      "inputs": [],
      "name": "supervisor",
      "outputs": [
        {
          "internalType": "uint256",
          "name": "",
          "type": "uint256"
        }
      ],
      "stateMutability": "view",
      "type": "function"
    },
    {
      "inputs": [],
      "name": "targetNeedRatio",
      "outputs": [
        {
          "internalType": "uint256",
          "name": "",
          "type": "uint256"
        }
      ],
      "stateMutability": "view",
      "type": "function"
    },
    {
      "inputs": [],
      "name": "timeLockAddress",
      "outputs": [
        {
          "internalType": "address",
          "name": "",
          "type": "address"
        }
      ],
      "stateMutability": "view",
      "type": "function"
    },
    {
      "inputs": [],
      "name": "treasuryAddress",
      "outputs": [
        {
          "internalType": "address",
          "name": "",
          "type": "address"
        }
      ],
      "stateMutability": "view",
      "type": "function"
    },
    {
      "inputs": [
        {
          "internalType": "address",
          "name": "_treasuryAddress",
          "type": "address"
        }
      ],
      "name": "updateTrasury",
      "outputs": [],
      "stateMutability": "nonpayable",
      "type": "function"
    }
  ],
  "bytecode": "0x60806040526001805534801561001457600080fd5b5060405161037d38038061037d83398101604081905261003391610058565b600280546001600160a01b0319166001600160a01b0392909216919091179055610088565b60006020828403121561006a57600080fd5b81516001600160a01b038116811461008157600080fd5b9392505050565b6102e6806100976000396000f3fe608060405234801561001057600080fd5b50600436106100935760003560e01c8063696f07c611610066578063696f07c6146100db57806377106bc4146100e4578063b16c1720146100f7578063c5f956af14610122578063da86bac41461013557600080fd5b80631d970f14146100985780633a5cbed7146100b457806341e77d6d146100c957806356e4b68b146100d2575b600080fd5b6100a160015481565b6040519081526020015b60405180910390f35b6100c76100c2366004610204565b610148565b005b6100a160035481565b6100a160045481565b6100a160055481565b6100c76100f2366004610234565b61019d565b60025461010a906001600160a01b031681565b6040516001600160a01b0390911681526020016100ab565b60005461010a906001600160a01b031681565b6100c761014336600461024d565b6101cc565b6002546001600160a01b0316331461017b5760405162461bcd60e51b815260040161017290610279565b60405180910390fd5b600080546001600160a01b0319166001600160a01b0392909216919091179055565b6002546001600160a01b031633146101c75760405162461bcd60e51b815260040161017290610279565b600155565b6002546001600160a01b031633146101f65760405162461bcd60e51b815260040161017290610279565b600392909255600455600555565b60006020828403121561021657600080fd5b81356001600160a01b038116811461022d57600080fd5b9392505050565b60006020828403121561024657600080fd5b5035919050565b60008060006060848603121561026257600080fd5b505081359360208301359350604090920135919050565b6020808252601b908201527f4f6e6c7920746865206f776e65722063616e20646f20746869732e000000000060408201526060019056fea26469706673582212207c5f7403eb7814b93df95766a06bab642a695a21d2ba1984545a129cbe8b792764736f6c63430008090033",
  "linkReferences": {},
  "deployedLinkReferences": {}
}