{
  "_format": "hh-sol-artifact-1",
  "contractName": "GovernanceToken",
  "sourceName": "contracts/governance/GovernanceToken.sol",
  "abi": [
    {
      "inputs": [],
      "stateMutability": "nonpayable",
      "type": "constructor"
    },
    {
      "anonymous": false,
      "inputs": [
        {
          "indexed": true,
          "internalType": "address",
          "name": "owner",
          "type": "address"
        },
        {
          "indexed": true,
          "internalType": "address",
          "name": "spender",
          "type": "address"
        },
        {
          "indexed": false,
          "internalType": "uint256",
          "name": "value",
          "type": "uint256"
        }
      ],
      "name": "Approval",
      "type": "event"
    },
    {
      "anonymous": false,
      "inputs": [
        {
          "indexed": true,
          "internalType": "address",
          "name": "delegator",
          "type": "address"
        },
        {
          "indexed": true,
          "internalType": "address",
          "name": "fromDelegate",
          "type": "address"
        },
        {
          "indexed": true,
          "internalType": "address",
          "name": "toDelegate",
          "type": "address"
        }
      ],
      "name": "DelegateChanged",
      "type": "event"
    },
    {
      "anonymous": false,
      "inputs": [
        {
          "indexed": true,
          "internalType": "address",
          "name": "delegate",
          "type": "address"
        },
        {
          "indexed": false,
          "internalType": "uint256",
          "name": "previousBalance",
          "type": "uint256"
        },
        {
          "indexed": false,
          "internalType": "uint256",
          "name": "newBalance",
          "type": "uint256"
        }
      ],
      "name": "DelegateVotesChanged",
      "type": "event"
    },
    {
      "anonymous": false,
      "inputs": [
        {
          "indexed": false,
          "internalType": "address",
          "name": "account",
          "type": "address"
        }
      ],
      "name": "Paused",
      "type": "event"
    },
    {
      "anonymous": false,
      "inputs": [
        {
          "indexed": true,
          "internalType": "bytes32",
          "name": "role",
          "type": "bytes32"
        },
        {
          "indexed": true,
          "internalType": "bytes32",
          "name": "previousAdminRole",
          "type": "bytes32"
        },
        {
          "indexed": true,
          "internalType": "bytes32",
          "name": "newAdminRole",
          "type": "bytes32"
        }
      ],
      "name": "RoleAdminChanged",
      "type": "event"
    },
    {
      "anonymous": false,
      "inputs": [
        {
          "indexed": true,
          "internalType": "bytes32",
          "name": "role",
          "type": "bytes32"
        },
        {
          "indexed": true,
          "internalType": "address",
          "name": "account",
          "type": "address"
        },
        {
          "indexed": true,
          "internalType": "address",
          "name": "sender",
          "type": "address"
        }
      ],
      "name": "RoleGranted",
      "type": "event"
    },
    {
      "anonymous": false,
      "inputs": [
        {
          "indexed": true,
          "internalType": "bytes32",
          "name": "role",
          "type": "bytes32"
        },
        {
          "indexed": true,
          "internalType": "address",
          "name": "account",
          "type": "address"
        },
        {
          "indexed": true,
          "internalType": "address",
          "name": "sender",
          "type": "address"
        }
      ],
      "name": "RoleRevoked",
      "type": "event"
    },
    {
      "anonymous": false,
      "inputs": [
        {
          "indexed": true,
          "internalType": "address",
          "name": "from",
          "type": "address"
        },
        {
          "indexed": true,
          "internalType": "address",
          "name": "to",
          "type": "address"
        },
        {
          "indexed": false,
          "internalType": "uint256",
          "name": "value",
          "type": "uint256"
        }
      ],
      "name": "Transfer",
      "type": "event"
    },
    {
      "anonymous": false,
      "inputs": [
        {
          "indexed": false,
          "internalType": "address",
          "name": "account",
          "type": "address"
        }
      ],
      "name": "Unpaused",
      "type": "event"
    },
    {
      "inputs": [],
      "name": "DEFAULT_ADMIN_ROLE",
      "outputs": [
        {
          "internalType": "bytes32",
          "name": "",
          "type": "bytes32"
        }
      ],
      "stateMutability": "view",
      "type": "function"
    },
    {
      "inputs": [],
      "name": "DOMAIN_SEPARATOR",
      "outputs": [
        {
          "internalType": "bytes32",
          "name": "",
          "type": "bytes32"
        }
      ],
      "stateMutability": "view",
      "type": "function"
    },
    {
      "inputs": [],
      "name": "MINTER_ROLE",
      "outputs": [
        {
          "internalType": "bytes32",
          "name": "",
          "type": "bytes32"
        }
      ],
      "stateMutability": "view",
      "type": "function"
    },
    {
      "inputs": [],
      "name": "PAUSER_ROLE",
      "outputs": [
        {
          "internalType": "bytes32",
          "name": "",
          "type": "bytes32"
        }
      ],
      "stateMutability": "view",
      "type": "function"
    },
    {
      "inputs": [
        {
          "internalType": "address",
          "name": "owner",
          "type": "address"
        },
        {
          "internalType": "address",
          "name": "spender",
          "type": "address"
        }
      ],
      "name": "allowance",
      "outputs": [
        {
          "internalType": "uint256",
          "name": "",
          "type": "uint256"
        }
      ],
      "stateMutability": "view",
      "type": "function"
    },
    {
      "inputs": [
        {
          "internalType": "address",
          "name": "spender",
          "type": "address"
        },
        {
          "internalType": "uint256",
          "name": "amount",
          "type": "uint256"
        }
      ],
      "name": "approve",
      "outputs": [
        {
          "internalType": "bool",
          "name": "",
          "type": "bool"
        }
      ],
      "stateMutability": "nonpayable",
      "type": "function"
    },
    {
      "inputs": [
        {
          "internalType": "address",
          "name": "account",
          "type": "address"
        }
      ],
      "name": "balanceOf",
      "outputs": [
        {
          "internalType": "uint256",
          "name": "",
          "type": "uint256"
        }
      ],
      "stateMutability": "view",
      "type": "function"
    },
    {
      "inputs": [
        {
          "internalType": "uint256",
          "name": "amount",
          "type": "uint256"
        }
      ],
      "name": "burn",
      "outputs": [],
      "stateMutability": "nonpayable",
      "type": "function"
    },
    {
      "inputs": [
        {
          "internalType": "address",
          "name": "account",
          "type": "address"
        },
        {
          "internalType": "uint256",
          "name": "amount",
          "type": "uint256"
        }
      ],
      "name": "burnFrom",
      "outputs": [],
      "stateMutability": "nonpayable",
      "type": "function"
    },
    {
      "inputs": [
        {
          "internalType": "address",
          "name": "account",
          "type": "address"
        },
        {
          "internalType": "uint32",
          "name": "pos",
          "type": "uint32"
        }
      ],
      "name": "checkpoints",
      "outputs": [
        {
          "components": [
            {
              "internalType": "uint32",
              "name": "fromBlock",
              "type": "uint32"
            },
            {
              "internalType": "uint224",
              "name": "votes",
              "type": "uint224"
            }
          ],
          "internalType": "struct ERC20Votes.Checkpoint",
          "name": "",
          "type": "tuple"
        }
      ],
      "stateMutability": "view",
      "type": "function"
    },
    {
      "inputs": [],
      "name": "decimals",
      "outputs": [
        {
          "internalType": "uint8",
          "name": "",
          "type": "uint8"
        }
      ],
      "stateMutability": "view",
      "type": "function"
    },
    {
      "inputs": [
        {
          "internalType": "address",
          "name": "spender",
          "type": "address"
        },
        {
          "internalType": "uint256",
          "name": "subtractedValue",
          "type": "uint256"
        }
      ],
      "name": "decreaseAllowance",
      "outputs": [
        {
          "internalType": "bool",
          "name": "",
          "type": "bool"
        }
      ],
      "stateMutability": "nonpayable",
      "type": "function"
    },
    {
      "inputs": [
        {
          "internalType": "address",
          "name": "delegatee",
          "type": "address"
        }
      ],
      "name": "delegate",
      "outputs": [],
      "stateMutability": "nonpayable",
      "type": "function"
    },
    {
      "inputs": [
        {
          "internalType": "address",
          "name": "delegatee",
          "type": "address"
        },
        {
          "internalType": "uint256",
          "name": "nonce",
          "type": "uint256"
        },
        {
          "internalType": "uint256",
          "name": "expiry",
          "type": "uint256"
        },
        {
          "internalType": "uint8",
          "name": "v",
          "type": "uint8"
        },
        {
          "internalType": "bytes32",
          "name": "r",
          "type": "bytes32"
        },
        {
          "internalType": "bytes32",
          "name": "s",
          "type": "bytes32"
        }
      ],
      "name": "delegateBySig",
      "outputs": [],
      "stateMutability": "nonpayable",
      "type": "function"
    },
    {
      "inputs": [
        {
          "internalType": "address",
          "name": "account",
          "type": "address"
        }
      ],
      "name": "delegates",
      "outputs": [
        {
          "internalType": "address",
          "name": "",
          "type": "address"
        }
      ],
      "stateMutability": "view",
      "type": "function"
    },
    {
      "inputs": [
        {
          "internalType": "uint256",
          "name": "blockNumber",
          "type": "uint256"
        }
      ],
      "name": "getPastTotalSupply",
      "outputs": [
        {
          "internalType": "uint256",
          "name": "",
          "type": "uint256"
        }
      ],
      "stateMutability": "view",
      "type": "function"
    },
    {
      "inputs": [
        {
          "internalType": "address",
          "name": "account",
          "type": "address"
        },
        {
          "internalType": "uint256",
          "name": "blockNumber",
          "type": "uint256"
        }
      ],
      "name": "getPastVotes",
      "outputs": [
        {
          "internalType": "uint256",
          "name": "",
          "type": "uint256"
        }
      ],
      "stateMutability": "view",
      "type": "function"
    },
    {
      "inputs": [
        {
          "internalType": "bytes32",
          "name": "role",
          "type": "bytes32"
        }
      ],
      "name": "getRoleAdmin",
      "outputs": [
        {
          "internalType": "bytes32",
          "name": "",
          "type": "bytes32"
        }
      ],
      "stateMutability": "view",
      "type": "function"
    },
    {
      "inputs": [
        {
          "internalType": "address",
          "name": "account",
          "type": "address"
        }
      ],
      "name": "getVotes",
      "outputs": [
        {
          "internalType": "uint256",
          "name": "",
          "type": "uint256"
        }
      ],
      "stateMutability": "view",
      "type": "function"
    },
    {
      "inputs": [
        {
          "internalType": "bytes32",
          "name": "role",
          "type": "bytes32"
        },
        {
          "internalType": "address",
          "name": "account",
          "type": "address"
        }
      ],
      "name": "grantRole",
      "outputs": [],
      "stateMutability": "nonpayable",
      "type": "function"
    },
    {
      "inputs": [
        {
          "internalType": "bytes32",
          "name": "role",
          "type": "bytes32"
        },
        {
          "internalType": "address",
          "name": "account",
          "type": "address"
        }
      ],
      "name": "hasRole",
      "outputs": [
        {
          "internalType": "bool",
          "name": "",
          "type": "bool"
        }
      ],
      "stateMutability": "view",
      "type": "function"
    },
    {
      "inputs": [
        {
          "internalType": "address",
          "name": "spender",
          "type": "address"
        },
        {
          "internalType": "uint256",
          "name": "addedValue",
          "type": "uint256"
        }
      ],
      "name": "increaseAllowance",
      "outputs": [
        {
          "internalType": "bool",
          "name": "",
          "type": "bool"
        }
      ],
      "stateMutability": "nonpayable",
      "type": "function"
    },
    {
      "inputs": [
        {
          "internalType": "address",
          "name": "to",
          "type": "address"
        },
        {
          "internalType": "uint256",
          "name": "amount",
          "type": "uint256"
        }
      ],
      "name": "mint",
      "outputs": [],
      "stateMutability": "nonpayable",
      "type": "function"
    },
    {
      "inputs": [],
      "name": "name",
      "outputs": [
        {
          "internalType": "string",
          "name": "",
          "type": "string"
        }
      ],
      "stateMutability": "view",
      "type": "function"
    },
    {
      "inputs": [
        {
          "internalType": "address",
          "name": "owner",
          "type": "address"
        }
      ],
      "name": "nonces",
      "outputs": [
        {
          "internalType": "uint256",
          "name": "",
          "type": "uint256"
        }
      ],
      "stateMutability": "view",
      "type": "function"
    },
    {
      "inputs": [
        {
          "internalType": "address",
          "name": "account",
          "type": "address"
        }
      ],
      "name": "numCheckpoints",
      "outputs": [
        {
          "internalType": "uint32",
          "name": "",
          "type": "uint32"
        }
      ],
      "stateMutability": "view",
      "type": "function"
    },
    {
      "inputs": [],
      "name": "pause",
      "outputs": [],
      "stateMutability": "nonpayable",
      "type": "function"
    },
    {
      "inputs": [],
      "name": "paused",
      "outputs": [
        {
          "internalType": "bool",
          "name": "",
          "type": "bool"
        }
      ],
      "stateMutability": "view",
      "type": "function"
    },
    {
      "inputs": [
        {
          "internalType": "address",
          "name": "owner",
          "type": "address"
        },
        {
          "internalType": "address",
          "name": "spender",
          "type": "address"
        },
        {
          "internalType": "uint256",
          "name": "value",
          "type": "uint256"
        },
        {
          "internalType": "uint256",
          "name": "deadline",
          "type": "uint256"
        },
        {
          "internalType": "uint8",
          "name": "v",
          "type": "uint8"
        },
        {
          "internalType": "bytes32",
          "name": "r",
          "type": "bytes32"
        },
        {
          "internalType": "bytes32",
          "name": "s",
          "type": "bytes32"
        }
      ],
      "name": "permit",
      "outputs": [],
      "stateMutability": "nonpayable",
      "type": "function"
    },
    {
      "inputs": [
        {
          "internalType": "bytes32",
          "name": "role",
          "type": "bytes32"
        },
        {
          "internalType": "address",
          "name": "account",
          "type": "address"
        }
      ],
      "name": "renounceRole",
      "outputs": [],
      "stateMutability": "nonpayable",
      "type": "function"
    },
    {
      "inputs": [
        {
          "internalType": "bytes32",
          "name": "role",
          "type": "bytes32"
        },
        {
          "internalType": "address",
          "name": "account",
          "type": "address"
        }
      ],
      "name": "revokeRole",
      "outputs": [],
      "stateMutability": "nonpayable",
      "type": "function"
    },
    {
      "inputs": [
        {
          "internalType": "bytes4",
          "name": "interfaceId",
          "type": "bytes4"
        }
      ],
      "name": "supportsInterface",
      "outputs": [
        {
          "internalType": "bool",
          "name": "",
          "type": "bool"
        }
      ],
      "stateMutability": "view",
      "type": "function"
    },
    {
      "inputs": [],
      "name": "symbol",
      "outputs": [
        {
          "internalType": "string",
          "name": "",
          "type": "string"
        }
      ],
      "stateMutability": "view",
      "type": "function"
    },
    {
      "inputs": [],
      "name": "totalSupply",
      "outputs": [
        {
          "internalType": "uint256",
          "name": "",
          "type": "uint256"
        }
      ],
      "stateMutability": "view",
      "type": "function"
    },
    {
      "inputs": [
        {
          "internalType": "address",
          "name": "to",
          "type": "address"
        },
        {
          "internalType": "uint256",
          "name": "amount",
          "type": "uint256"
        }
      ],
      "name": "transfer",
      "outputs": [
        {
          "internalType": "bool",
          "name": "",
          "type": "bool"
        }
      ],
      "stateMutability": "nonpayable",
      "type": "function"
    },
    {
      "inputs": [
        {
          "internalType": "address",
          "name": "from",
          "type": "address"
        },
        {
          "internalType": "address",
          "name": "to",
          "type": "address"
        },
        {
          "internalType": "uint256",
          "name": "amount",
          "type": "uint256"
        }
      ],
      "name": "transferFrom",
      "outputs": [
        {
          "internalType": "bool",
          "name": "",
          "type": "bool"
        }
      ],
      "stateMutability": "nonpayable",
      "type": "function"
    },
    {
      "inputs": [],
      "name": "unpause",
      "outputs": [],
      "stateMutability": "nonpayable",
      "type": "function"
    }
  ],
  "bytecode": "0x6101406040523480156200001257600080fd5b506040518060400160405280600f81526020016e23b7bb32b93730b731b2aa37b5b2b760891b81525080604051806040016040528060018152602001603160f81b8152506040518060400160405280600f81526020016e23b7bb32b93730b731b2aa37b5b2b760891b815250604051806040016040528060048152602001636753415960e01b8152508160039080519060200190620000b392919062000276565b508051620000c990600490602084019062000276565b50506005805460ff1916905550815160209283012081519183019190912060e08290526101008190524660a0818152604080517f8b73c3c69bb8fe3d512ecc4cf759cc79239f7b179b0ffacaa9a75d522b39400f818801819052818301969096526060810194909452608080850193909352308483018190528151808603909301835260c094850190915281519190950120905291909152610120525062000173600033620001d1565b6200019f7f65d7a28e3265b37a6474929f336521b332c1681b933f6cb9f3376673440d862a33620001d1565b620001cb7f9f2df0fed2c77648de5860a4cc508cd0818c85b8b8a1ab4ceeef8d981c8956a633620001d1565b62000359565b60008281526006602090815260408083206001600160a01b038516845290915290205460ff16620002725760008281526006602090815260408083206001600160a01b03851684529091529020805460ff19166001179055620002313390565b6001600160a01b0316816001600160a01b0316837f2f8788117e7eff1d82e926ec794901d17c78024a50270940304540a733656f0d60405160405180910390a45b5050565b82805462000284906200031c565b90600052602060002090601f016020900481019282620002a85760008555620002f3565b82601f10620002c357805160ff1916838001178555620002f3565b82800160010185558215620002f3579182015b82811115620002f3578251825591602001919060010190620002d6565b506200030192915062000305565b5090565b5b8082111562000301576000815560010162000306565b600181811c908216806200033157607f821691505b602082108114156200035357634e487b7160e01b600052602260045260246000fd5b50919050565b60805160a05160c05160e0516101005161012051612760620003a96000396000611260015260006112af0152600061128a015260006111e30152600061120d0152600061123701526127606000f3fe608060405234801561001057600080fd5b50600436106102275760003560e01c80636fcfff4511610130578063a217fddf116100b8578063d53913931161007c578063d5391393146104cd578063d547741f146104f4578063dd62ed3e14610507578063e63ab1e91461051a578063f1127ed81461054157600080fd5b8063a217fddf14610479578063a457c2d714610481578063a9059cbb14610494578063c3cda520146104a7578063d505accf146104ba57600080fd5b80638456cb59116100ff5780638456cb59146104305780638e539e8c1461043857806391d148541461044b57806395d89b411461045e5780639ab24eb01461046657600080fd5b80636fcfff45146103b957806370a08231146103e157806379cc67901461040a5780637ecebe001461041d57600080fd5b806336568abe116101b357806340c10f191161018257806340c10f191461033157806342966c6814610344578063587cde1e146103575780635c19a95c1461039b5780635c975abb146103ae57600080fd5b806336568abe146102f057806339509351146103035780633a46b1a8146103165780633f4ba83a1461032957600080fd5b806323b872dd116101fa57806323b872dd1461028e578063248a9ca3146102a15780632f2ff15d146102c4578063313ce567146102d95780633644e515146102e857600080fd5b806301ffc9a71461022c57806306fdde0314610254578063095ea7b31461026957806318160ddd1461027c575b600080fd5b61023f61023a3660046122e3565b61057e565b60405190151581526020015b60405180910390f35b61025c6105b5565b60405161024b9190612339565b61023f610277366004612388565b610647565b6002545b60405190815260200161024b565b61023f61029c3660046123b2565b61065f565b6102806102af3660046123ee565b60009081526006602052604090206001015490565b6102d76102d2366004612407565b610683565b005b6040516012815260200161024b565b6102806106ad565b6102d76102fe366004612407565b6106bc565b61023f610311366004612388565b61073f565b610280610324366004612388565b610761565b6102d76107db565b6102d761033f366004612388565b610810565b6102d76103523660046123ee565b610844565b610383610365366004612433565b6001600160a01b039081166000908152600960205260409020541690565b6040516001600160a01b03909116815260200161024b565b6102d76103a9366004612433565b61084e565b60055460ff1661023f565b6103cc6103c7366004612433565b610858565b60405163ffffffff909116815260200161024b565b6102806103ef366004612433565b6001600160a01b031660009081526020819052604090205490565b6102d7610418366004612388565b61087a565b61028061042b366004612433565b61088f565b6102d76108ad565b6102806104463660046123ee565b6108df565b61023f610459366004612407565b61093b565b61025c610966565b610280610474366004612433565b610975565b610280600081565b61023f61048f366004612388565b6109fc565b61023f6104a2366004612388565b610a77565b6102d76104b536600461245f565b610a85565b6102d76104c83660046124b7565b610bbb565b6102807f9f2df0fed2c77648de5860a4cc508cd0818c85b8b8a1ab4ceeef8d981c8956a681565b6102d7610502366004612407565b610d1f565b610280610515366004612521565b610d44565b6102807f65d7a28e3265b37a6474929f336521b332c1681b933f6cb9f3376673440d862a81565b61055461054f36600461254b565b610d6f565b60408051825163ffffffff1681526020928301516001600160e01b0316928101929092520161024b565b60006001600160e01b03198216637965db0b60e01b14806105af57506301ffc9a760e01b6001600160e01b03198316145b92915050565b6060600380546105c49061258b565b80601f01602080910402602001604051908101604052809291908181526020018280546105f09061258b565b801561063d5780601f106106125761010080835404028352916020019161063d565b820191906000526020600020905b81548152906001019060200180831161062057829003601f168201915b5050505050905090565b600033610655818585610df3565b5060019392505050565b60003361066d858285610f17565b610678858585610f91565b506001949350505050565b60008281526006602052604090206001015461069e81611146565b6106a88383611150565b505050565b60006106b76111d6565b905090565b6001600160a01b03811633146107315760405162461bcd60e51b815260206004820152602f60248201527f416363657373436f6e74726f6c3a2063616e206f6e6c792072656e6f756e636560448201526e103937b632b9903337b91039b2b63360891b60648201526084015b60405180910390fd5b61073b82826112fd565b5050565b6000336106558185856107528383610d44565b61075c91906125d6565b610df3565b60004382106107b25760405162461bcd60e51b815260206004820152601f60248201527f4552433230566f7465733a20626c6f636b206e6f7420796574206d696e6564006044820152606401610728565b6001600160a01b0383166000908152600a602052604090206107d49083611364565b9392505050565b7f65d7a28e3265b37a6474929f336521b332c1681b933f6cb9f3376673440d862a61080581611146565b61080d61145b565b50565b7f9f2df0fed2c77648de5860a4cc508cd0818c85b8b8a1ab4ceeef8d981c8956a661083a81611146565b6106a883836114ad565b61080d33826114b7565b61080d33826114c1565b6001600160a01b0381166000908152600a60205260408120546105af9061153a565b610885823383610f17565b61073b82826114b7565b6001600160a01b0381166000908152600760205260408120546105af565b7f65d7a28e3265b37a6474929f336521b332c1681b933f6cb9f3376673440d862a6108d781611146565b61080d6115a3565b60004382106109305760405162461bcd60e51b815260206004820152601f60248201527f4552433230566f7465733a20626c6f636b206e6f7420796574206d696e6564006044820152606401610728565b6105af600b83611364565b60009182526006602090815260408084206001600160a01b0393909316845291905290205460ff1690565b6060600480546105c49061258b565b6001600160a01b0381166000908152600a602052604081205480156109e9576001600160a01b0383166000908152600a602052604090206109b76001836125ee565b815481106109c7576109c7612605565b60009182526020909120015464010000000090046001600160e01b03166109ec565b60005b6001600160e01b03169392505050565b60003381610a0a8286610d44565b905083811015610a6a5760405162461bcd60e51b815260206004820152602560248201527f45524332303a2064656372656173656420616c6c6f77616e63652062656c6f77604482015264207a65726f60d81b6064820152608401610728565b6106788286868403610df3565b600033610655818585610f91565b83421115610ad55760405162461bcd60e51b815260206004820152601d60248201527f4552433230566f7465733a207369676e617475726520657870697265640000006044820152606401610728565b604080517fe48329057bfd03d55e49b547132e39cffd9c1820ad7b9d4c5307691425d15adf60208201526001600160a01b038816918101919091526060810186905260808101859052600090610b4f90610b479060a001604051602081830303815290604052805190602001206115e0565b85858561162e565b9050610b5a81611656565b8614610ba85760405162461bcd60e51b815260206004820152601960248201527f4552433230566f7465733a20696e76616c6964206e6f6e6365000000000000006044820152606401610728565b610bb281886114c1565b50505050505050565b83421115610c0b5760405162461bcd60e51b815260206004820152601d60248201527f45524332305065726d69743a206578706972656420646561646c696e650000006044820152606401610728565b60007f6e71edae12b1b97f4d1f60370fef10105fa2faae0126114a169c64845d6126c9888888610c3a8c611656565b6040805160208101969096526001600160a01b0394851690860152929091166060840152608083015260a082015260c0810186905260e0016040516020818303038152906040528051906020012090506000610c95826115e0565b90506000610ca58287878761162e565b9050896001600160a01b0316816001600160a01b031614610d085760405162461bcd60e51b815260206004820152601e60248201527f45524332305065726d69743a20696e76616c6964207369676e617475726500006044820152606401610728565b610d138a8a8a610df3565b50505050505050505050565b600082815260066020526040902060010154610d3a81611146565b6106a883836112fd565b6001600160a01b03918216600090815260016020908152604080832093909416825291909152205490565b60408051808201909152600080825260208201526001600160a01b0383166000908152600a60205260409020805463ffffffff8416908110610db357610db3612605565b60009182526020918290206040805180820190915291015463ffffffff8116825264010000000090046001600160e01b0316918101919091529392505050565b6001600160a01b038316610e555760405162461bcd60e51b8152602060048201526024808201527f45524332303a20617070726f76652066726f6d20746865207a65726f206164646044820152637265737360e01b6064820152608401610728565b6001600160a01b038216610eb65760405162461bcd60e51b815260206004820152602260248201527f45524332303a20617070726f766520746f20746865207a65726f206164647265604482015261737360f01b6064820152608401610728565b6001600160a01b0383811660008181526001602090815260408083209487168084529482529182902085905590518481527f8c5be1e5ebec7d5bd14f71427d1e84f3dd0314c0f7b2291e5b200ac8c7c3b925910160405180910390a3505050565b6000610f238484610d44565b90506000198114610f8b5781811015610f7e5760405162461bcd60e51b815260206004820152601d60248201527f45524332303a20696e73756666696369656e7420616c6c6f77616e63650000006044820152606401610728565b610f8b8484848403610df3565b50505050565b6001600160a01b038316610ff55760405162461bcd60e51b815260206004820152602560248201527f45524332303a207472616e736665722066726f6d20746865207a65726f206164604482015264647265737360d81b6064820152608401610728565b6001600160a01b0382166110575760405162461bcd60e51b815260206004820152602360248201527f45524332303a207472616e7366657220746f20746865207a65726f206164647260448201526265737360e81b6064820152608401610728565b61106283838361167e565b6001600160a01b038316600090815260208190526040902054818110156110da5760405162461bcd60e51b815260206004820152602660248201527f45524332303a207472616e7366657220616d6f756e7420657863656564732062604482015265616c616e636560d01b6064820152608401610728565b6001600160a01b03848116600081815260208181526040808320878703905593871680835291849020805487019055925185815290927fddf252ad1be2c89b69c2b068fc378daa952ba7f163c4a11628f55a4df523b3ef910160405180910390a3610f8b848484611686565b61080d8133611691565b61115a828261093b565b61073b5760008281526006602090815260408083206001600160a01b03851684529091529020805460ff191660011790556111923390565b6001600160a01b0316816001600160a01b0316837f2f8788117e7eff1d82e926ec794901d17c78024a50270940304540a733656f0d60405160405180910390a45050565b6000306001600160a01b037f00000000000000000000000000000000000000000000000000000000000000001614801561122f57507f000000000000000000000000000000000000000000000000000000000000000046145b1561125957507f000000000000000000000000000000000000000000000000000000000000000090565b50604080517f00000000000000000000000000000000000000000000000000000000000000006020808301919091527f0000000000000000000000000000000000000000000000000000000000000000828401527f000000000000000000000000000000000000000000000000000000000000000060608301524660808301523060a0808401919091528351808403909101815260c0909201909252805191012090565b611307828261093b565b1561073b5760008281526006602090815260408083206001600160a01b0385168085529252808320805460ff1916905551339285917ff6391f5c32d9c69d2a47ea670b442974b53935d1edc7fd64eb21e047a839171b9190a45050565b8154600090818160058111156113be57600061137f846116ea565b61138990856125ee565b600088815260209020909150869082015463ffffffff1611156113ae578091506113bc565b6113b98160016125d6565b92505b505b8082101561140b5760006113d283836117cf565b600088815260209020909150869082015463ffffffff1611156113f757809150611405565b6114028160016125d6565b92505b506113be565b80156114455761142e866114206001846125ee565b600091825260209091200190565b5464010000000090046001600160e01b0316611448565b60005b6001600160e01b03169695505050505050565b6114636117ea565b6005805460ff191690557f5db9ee0a495bf2e6ff9c91a7834c1ba4fdd244a5e8aa4e537bd38aeae4b073aa335b6040516001600160a01b03909116815260200160405180910390a1565b61073b8282611835565b61073b82826118bf565b6001600160a01b038281166000818152600960208181526040808420805485845282862054949093528787166001600160a01b03198416811790915590519190951694919391928592917f3134e8a2e6d97e929a7e54011ea5485d7d196dd5f0ba4d4ef95803e8e3fc257f9190a4610f8b8284836118d7565b600063ffffffff82111561159f5760405162461bcd60e51b815260206004820152602660248201527f53616665436173743a2076616c756520646f65736e27742066697420696e203360448201526532206269747360d01b6064820152608401610728565b5090565b6115ab611a14565b6005805460ff191660011790557f62e78cea01bee320cd4e420270b5ea74000d11b0c9f74754ebdbfc544b05a2586114903390565b60006105af6115ed6111d6565b8360405161190160f01b6020820152602281018390526042810182905260009060620160405160208183030381529060405280519060200120905092915050565b600080600061163f87878787611a5a565b9150915061164c81611b1e565b5095945050505050565b6001600160a01b03811660009081526007602052604090208054600181018255905b50919050565b6106a8611a14565b6106a8838383611c6c565b61169b828261093b565b61073b576116a881611c9e565b6116b3836020611cb0565b6040516020016116c492919061261b565b60408051601f198184030181529082905262461bcd60e51b825261072891600401612339565b6000816116f957506000919050565b6000600161170684611e4c565b901c6001901b9050600181848161171f5761171f612690565b048201901c9050600181848161173757611737612690565b048201901c9050600181848161174f5761174f612690565b048201901c9050600181848161176757611767612690565b048201901c9050600181848161177f5761177f612690565b048201901c9050600181848161179757611797612690565b048201901c905060018184816117af576117af612690565b048201901c90506107d4818285816117c9576117c9612690565b04611ee0565b60006117de60028484186126a6565b6107d4908484166125d6565b60055460ff166118335760405162461bcd60e51b815260206004820152601460248201527314185d5cd8589b194e881b9bdd081c185d5cd95960621b6044820152606401610728565b565b61183f8282611ef6565b6002546001600160e01b0310156118b15760405162461bcd60e51b815260206004820152603060248201527f4552433230566f7465733a20746f74616c20737570706c79207269736b73206f60448201526f766572666c6f77696e6720766f74657360801b6064820152608401610728565b610f8b600b611fc983611fd5565b6118c98282612129565b610f8b600b61226e83611fd5565b816001600160a01b0316836001600160a01b0316141580156118f95750600081115b156106a8576001600160a01b03831615611987576001600160a01b0383166000908152600a6020526040812081906119349061226e85611fd5565b91509150846001600160a01b03167fdec2bacdd2f05b59de34da9b523dff8be42e5e38e818c82fdb0bae774387a724838360405161197c929190918252602082015260400190565b60405180910390a250505b6001600160a01b038216156106a8576001600160a01b0382166000908152600a6020526040812081906119bd90611fc985611fd5565b91509150836001600160a01b03167fdec2bacdd2f05b59de34da9b523dff8be42e5e38e818c82fdb0bae774387a7248383604051611a05929190918252602082015260400190565b60405180910390a25050505050565b60055460ff16156118335760405162461bcd60e51b815260206004820152601060248201526f14185d5cd8589b194e881c185d5cd95960821b6044820152606401610728565b6000807f7fffffffffffffffffffffffffffffff5d576e7357a4501ddfe92f46681b20a0831115611a915750600090506003611b15565b6040805160008082526020820180845289905260ff881692820192909252606081018690526080810185905260019060a0016020604051602081039080840390855afa158015611ae5573d6000803e3d6000fd5b5050604051601f1901519150506001600160a01b038116611b0e57600060019250925050611b15565b9150600090505b94509492505050565b6000816004811115611b3257611b326126c8565b1415611b3b5750565b6001816004811115611b4f57611b4f6126c8565b1415611b9d5760405162461bcd60e51b815260206004820152601860248201527f45434453413a20696e76616c6964207369676e617475726500000000000000006044820152606401610728565b6002816004811115611bb157611bb16126c8565b1415611bff5760405162461bcd60e51b815260206004820152601f60248201527f45434453413a20696e76616c6964207369676e6174757265206c656e677468006044820152606401610728565b6003816004811115611c1357611c136126c8565b141561080d5760405162461bcd60e51b815260206004820152602260248201527f45434453413a20696e76616c6964207369676e6174757265202773272076616c604482015261756560f01b6064820152608401610728565b6001600160a01b038381166000908152600960205260408082205485841683529120546106a8929182169116836118d7565b60606105af6001600160a01b03831660145b60606000611cbf8360026126de565b611cca9060026125d6565b67ffffffffffffffff811115611ce257611ce26126fd565b6040519080825280601f01601f191660200182016040528015611d0c576020820181803683370190505b509050600360fc1b81600081518110611d2757611d27612605565b60200101906001600160f81b031916908160001a905350600f60fb1b81600181518110611d5657611d56612605565b60200101906001600160f81b031916908160001a9053506000611d7a8460026126de565b611d859060016125d6565b90505b6001811115611dfd576f181899199a1a9b1b9c1cb0b131b232b360811b85600f1660108110611db957611db9612605565b1a60f81b828281518110611dcf57611dcf612605565b60200101906001600160f81b031916908160001a90535060049490941c93611df681612713565b9050611d88565b5083156107d45760405162461bcd60e51b815260206004820181905260248201527f537472696e67733a20686578206c656e67746820696e73756666696369656e746044820152606401610728565b600080608083901c15611e6157608092831c92015b604083901c15611e7357604092831c92015b602083901c15611e8557602092831c92015b601083901c15611e9757601092831c92015b600883901c15611ea957600892831c92015b600483901c15611ebb57600492831c92015b600283901c15611ecd57600292831c92015b600183901c156105af5760010192915050565b6000818310611eef57816107d4565b5090919050565b6001600160a01b038216611f4c5760405162461bcd60e51b815260206004820152601f60248201527f45524332303a206d696e7420746f20746865207a65726f2061646472657373006044820152606401610728565b611f586000838361167e565b8060026000828254611f6a91906125d6565b90915550506001600160a01b038216600081815260208181526040808320805486019055518481527fddf252ad1be2c89b69c2b068fc378daa952ba7f163c4a11628f55a4df523b3ef910160405180910390a361073b60008383611686565b60006107d482846125d6565b8254600090819081811561202257611ff2876114206001856125ee565b60408051808201909152905463ffffffff8116825264010000000090046001600160e01b03166020820152612037565b60408051808201909152600080825260208201525b905080602001516001600160e01b0316935061205784868863ffffffff16565b925060008211801561206f5750805163ffffffff1643145b156120b45761207d8361227a565b61208c886114206001866125ee565b80546001600160e01b03929092166401000000000263ffffffff90921691909117905561211f565b8660405180604001604052806120c94361153a565b63ffffffff1681526020016120dd8661227a565b6001600160e01b0390811690915282546001810184556000938452602093849020835194909301519091166401000000000263ffffffff909316929092179101555b5050935093915050565b6001600160a01b0382166121895760405162461bcd60e51b815260206004820152602160248201527f45524332303a206275726e2066726f6d20746865207a65726f206164647265736044820152607360f81b6064820152608401610728565b6121958260008361167e565b6001600160a01b038216600090815260208190526040902054818110156122095760405162461bcd60e51b815260206004820152602260248201527f45524332303a206275726e20616d6f756e7420657863656564732062616c616e604482015261636560f01b6064820152608401610728565b6001600160a01b0383166000818152602081815260408083208686039055600280548790039055518581529192917fddf252ad1be2c89b69c2b068fc378daa952ba7f163c4a11628f55a4df523b3ef910160405180910390a36106a883600084611686565b60006107d482846125ee565b60006001600160e01b0382111561159f5760405162461bcd60e51b815260206004820152602760248201527f53616665436173743a2076616c756520646f65736e27742066697420696e20326044820152663234206269747360c81b6064820152608401610728565b6000602082840312156122f557600080fd5b81356001600160e01b0319811681146107d457600080fd5b60005b83811015612328578181015183820152602001612310565b83811115610f8b5750506000910152565b602081526000825180602084015261235881604085016020870161230d565b601f01601f19169190910160400192915050565b80356001600160a01b038116811461238357600080fd5b919050565b6000806040838503121561239b57600080fd5b6123a48361236c565b946020939093013593505050565b6000806000606084860312156123c757600080fd5b6123d08461236c565b92506123de6020850161236c565b9150604084013590509250925092565b60006020828403121561240057600080fd5b5035919050565b6000806040838503121561241a57600080fd5b8235915061242a6020840161236c565b90509250929050565b60006020828403121561244557600080fd5b6107d48261236c565b803560ff8116811461238357600080fd5b60008060008060008060c0878903121561247857600080fd5b6124818761236c565b9550602087013594506040870135935061249d6060880161244e565b92506080870135915060a087013590509295509295509295565b600080600080600080600060e0888a0312156124d257600080fd5b6124db8861236c565b96506124e96020890161236c565b955060408801359450606088013593506125056080890161244e565b925060a0880135915060c0880135905092959891949750929550565b6000806040838503121561253457600080fd5b61253d8361236c565b915061242a6020840161236c565b6000806040838503121561255e57600080fd5b6125678361236c565b9150602083013563ffffffff8116811461258057600080fd5b809150509250929050565b600181811c9082168061259f57607f821691505b6020821081141561167857634e487b7160e01b600052602260045260246000fd5b634e487b7160e01b600052601160045260246000fd5b600082198211156125e9576125e96125c0565b500190565b600082821015612600576126006125c0565b500390565b634e487b7160e01b600052603260045260246000fd5b7f416363657373436f6e74726f6c3a206163636f756e742000000000000000000081526000835161265381601785016020880161230d565b7001034b99036b4b9b9b4b733903937b6329607d1b601791840191820152835161268481602884016020880161230d565b01602801949350505050565b634e487b7160e01b600052601260045260246000fd5b6000826126c357634e487b7160e01b600052601260045260246000fd5b500490565b634e487b7160e01b600052602160045260246000fd5b60008160001904831182151516156126f8576126f86125c0565b500290565b634e487b7160e01b600052604160045260246000fd5b600081612722576127226125c0565b50600019019056fea2646970667358221220ce2a405c045cffc8804a289eb94605cebda603358e4332de056a0d21e109d6b964736f6c63430008090033",
  "linkReferences": {},
  "deployedLinkReferences": {}
}