{
  "_format": "hh-sol-artifact-1",
  "contractName": "CommitteeTimeLock",
  "sourceName": "contracts/governance/commette/CommitteeTimeLock.sol",
  "abi": [
    {
      "inputs": [
        {
          "internalType": "uint256",
          "name": "minDelay",
          "type": "uint256"
        },
        {
          "internalType": "address[]",
          "name": "proposers",
          "type": "address[]"
        },
        {
          "internalType": "address[]",
          "name": "executors",
          "type": "address[]"
        },
        {
          "internalType": "address",
          "name": "admin",
          "type": "address"
        }
      ],
      "stateMutability": "nonpayable",
      "type": "constructor"
    },
    {
      "anonymous": false,
      "inputs": [
        {
          "indexed": true,
          "internalType": "bytes32",
          "name": "id",
          "type": "bytes32"
        },
        {
          "indexed": true,
          "internalType": "uint256",
          "name": "index",
          "type": "uint256"
        },
        {
          "indexed": false,
          "internalType": "address",
          "name": "target",
          "type": "address"
        },
        {
          "indexed": false,
          "internalType": "uint256",
          "name": "value",
          "type": "uint256"
        },
        {
          "indexed": false,
          "internalType": "bytes",
          "name": "data",
          "type": "bytes"
        }
      ],
      "name": "CallExecuted",
      "type": "event"
    },
    {
      "anonymous": false,
      "inputs": [
        {
          "indexed": true,
          "internalType": "bytes32",
          "name": "id",
          "type": "bytes32"
        },
        {
          "indexed": true,
          "internalType": "uint256",
          "name": "index",
          "type": "uint256"
        },
        {
          "indexed": false,
          "internalType": "address",
          "name": "target",
          "type": "address"
        },
        {
          "indexed": false,
          "internalType": "uint256",
          "name": "value",
          "type": "uint256"
        },
        {
          "indexed": false,
          "internalType": "bytes",
          "name": "data",
          "type": "bytes"
        },
        {
          "indexed": false,
          "internalType": "bytes32",
          "name": "predecessor",
          "type": "bytes32"
        },
        {
          "indexed": false,
          "internalType": "uint256",
          "name": "delay",
          "type": "uint256"
        }
      ],
      "name": "CallScheduled",
      "type": "event"
    },
    {
      "anonymous": false,
      "inputs": [
        {
          "indexed": true,
          "internalType": "bytes32",
          "name": "id",
          "type": "bytes32"
        }
      ],
      "name": "Cancelled",
      "type": "event"
    },
    {
      "anonymous": false,
      "inputs": [
        {
          "indexed": false,
          "internalType": "uint256",
          "name": "",
          "type": "uint256"
        },
        {
          "indexed": false,
          "internalType": "address",
          "name": "",
          "type": "address"
        }
      ],
      "name": "CommitteeTokenReceived",
      "type": "event"
    },
    {
      "anonymous": false,
      "inputs": [
        {
          "indexed": false,
          "internalType": "uint256",
          "name": "oldDuration",
          "type": "uint256"
        },
        {
          "indexed": false,
          "internalType": "uint256",
          "name": "newDuration",
          "type": "uint256"
        }
      ],
      "name": "MinDelayChange",
      "type": "event"
    },
    {
      "anonymous": false,
      "inputs": [
        {
          "indexed": true,
          "internalType": "bytes32",
          "name": "role",
          "type": "bytes32"
        },
        {
          "indexed": true,
          "internalType": "bytes32",
          "name": "previousAdminRole",
          "type": "bytes32"
        },
        {
          "indexed": true,
          "internalType": "bytes32",
          "name": "newAdminRole",
          "type": "bytes32"
        }
      ],
      "name": "RoleAdminChanged",
      "type": "event"
    },
    {
      "anonymous": false,
      "inputs": [
        {
          "indexed": true,
          "internalType": "bytes32",
          "name": "role",
          "type": "bytes32"
        },
        {
          "indexed": true,
          "internalType": "address",
          "name": "account",
          "type": "address"
        },
        {
          "indexed": true,
          "internalType": "address",
          "name": "sender",
          "type": "address"
        }
      ],
      "name": "RoleGranted",
      "type": "event"
    },
    {
      "anonymous": false,
      "inputs": [
        {
          "indexed": true,
          "internalType": "bytes32",
          "name": "role",
          "type": "bytes32"
        },
        {
          "indexed": true,
          "internalType": "address",
          "name": "account",
          "type": "address"
        },
        {
          "indexed": true,
          "internalType": "address",
          "name": "sender",
          "type": "address"
        }
      ],
      "name": "RoleRevoked",
      "type": "event"
    },
    {
      "inputs": [],
      "name": "CANCELLER_ROLE",
      "outputs": [
        {
          "internalType": "bytes32",
          "name": "",
          "type": "bytes32"
        }
      ],
      "stateMutability": "view",
      "type": "function"
    },
    {
      "inputs": [],
      "name": "DEFAULT_ADMIN_ROLE",
      "outputs": [
        {
          "internalType": "bytes32",
          "name": "",
          "type": "bytes32"
        }
      ],
      "stateMutability": "view",
      "type": "function"
    },
    {
      "inputs": [],
      "name": "EXECUTOR_ROLE",
      "outputs": [
        {
          "internalType": "bytes32",
          "name": "",
          "type": "bytes32"
        }
      ],
      "stateMutability": "view",
      "type": "function"
    },
    {
      "inputs": [],
      "name": "PROPOSER_ROLE",
      "outputs": [
        {
          "internalType": "bytes32",
          "name": "",
          "type": "bytes32"
        }
      ],
      "stateMutability": "view",
      "type": "function"
    },
    {
      "inputs": [],
      "name": "TIMELOCK_ADMIN_ROLE",
      "outputs": [
        {
          "internalType": "bytes32",
          "name": "",
          "type": "bytes32"
        }
      ],
      "stateMutability": "view",
      "type": "function"
    },
    {
      "inputs": [
        {
          "internalType": "bytes32",
          "name": "id",
          "type": "bytes32"
        }
      ],
      "name": "cancel",
      "outputs": [],
      "stateMutability": "nonpayable",
      "type": "function"
    },
    {
      "inputs": [
        {
          "internalType": "address",
          "name": "target",
          "type": "address"
        },
        {
          "internalType": "uint256",
          "name": "value",
          "type": "uint256"
        },
        {
          "internalType": "bytes",
          "name": "payload",
          "type": "bytes"
        },
        {
          "internalType": "bytes32",
          "name": "predecessor",
          "type": "bytes32"
        },
        {
          "internalType": "bytes32",
          "name": "salt",
          "type": "bytes32"
        }
      ],
      "name": "execute",
      "outputs": [],
      "stateMutability": "payable",
      "type": "function"
    },
    {
      "inputs": [
        {
          "internalType": "address[]",
          "name": "targets",
          "type": "address[]"
        },
        {
          "internalType": "uint256[]",
          "name": "values",
          "type": "uint256[]"
        },
        {
          "internalType": "bytes[]",
          "name": "payloads",
          "type": "bytes[]"
        },
        {
          "internalType": "bytes32",
          "name": "predecessor",
          "type": "bytes32"
        },
        {
          "internalType": "bytes32",
          "name": "salt",
          "type": "bytes32"
        }
      ],
      "name": "executeBatch",
      "outputs": [],
      "stateMutability": "payable",
      "type": "function"
    },
    {
      "inputs": [],
      "name": "getMinDelay",
      "outputs": [
        {
          "internalType": "uint256",
          "name": "duration",
          "type": "uint256"
        }
      ],
      "stateMutability": "view",
      "type": "function"
    },
    {
      "inputs": [
        {
          "internalType": "bytes32",
          "name": "role",
          "type": "bytes32"
        }
      ],
      "name": "getRoleAdmin",
      "outputs": [
        {
          "internalType": "bytes32",
          "name": "",
          "type": "bytes32"
        }
      ],
      "stateMutability": "view",
      "type": "function"
    },
    {
      "inputs": [
        {
          "internalType": "bytes32",
          "name": "id",
          "type": "bytes32"
        }
      ],
      "name": "getTimestamp",
      "outputs": [
        {
          "internalType": "uint256",
          "name": "timestamp",
          "type": "uint256"
        }
      ],
      "stateMutability": "view",
      "type": "function"
    },
    {
      "inputs": [
        {
          "internalType": "bytes32",
          "name": "role",
          "type": "bytes32"
        },
        {
          "internalType": "address",
          "name": "account",
          "type": "address"
        }
      ],
      "name": "grantRole",
      "outputs": [],
      "stateMutability": "nonpayable",
      "type": "function"
    },
    {
      "inputs": [
        {
          "internalType": "bytes32",
          "name": "role",
          "type": "bytes32"
        },
        {
          "internalType": "address",
          "name": "account",
          "type": "address"
        }
      ],
      "name": "hasRole",
      "outputs": [
        {
          "internalType": "bool",
          "name": "",
          "type": "bool"
        }
      ],
      "stateMutability": "view",
      "type": "function"
    },
    {
      "inputs": [
        {
          "internalType": "address",
          "name": "target",
          "type": "address"
        },
        {
          "internalType": "uint256",
          "name": "value",
          "type": "uint256"
        },
        {
          "internalType": "bytes",
          "name": "data",
          "type": "bytes"
        },
        {
          "internalType": "bytes32",
          "name": "predecessor",
          "type": "bytes32"
        },
        {
          "internalType": "bytes32",
          "name": "salt",
          "type": "bytes32"
        }
      ],
      "name": "hashOperation",
      "outputs": [
        {
          "internalType": "bytes32",
          "name": "hash",
          "type": "bytes32"
        }
      ],
      "stateMutability": "pure",
      "type": "function"
    },
    {
      "inputs": [
        {
          "internalType": "address[]",
          "name": "targets",
          "type": "address[]"
        },
        {
          "internalType": "uint256[]",
          "name": "values",
          "type": "uint256[]"
        },
        {
          "internalType": "bytes[]",
          "name": "payloads",
          "type": "bytes[]"
        },
        {
          "internalType": "bytes32",
          "name": "predecessor",
          "type": "bytes32"
        },
        {
          "internalType": "bytes32",
          "name": "salt",
          "type": "bytes32"
        }
      ],
      "name": "hashOperationBatch",
      "outputs": [
        {
          "internalType": "bytes32",
          "name": "hash",
          "type": "bytes32"
        }
      ],
      "stateMutability": "pure",
      "type": "function"
    },
    {
      "inputs": [
        {
          "internalType": "bytes32",
          "name": "id",
          "type": "bytes32"
        }
      ],
      "name": "isOperation",
      "outputs": [
        {
          "internalType": "bool",
          "name": "registered",
          "type": "bool"
        }
      ],
      "stateMutability": "view",
      "type": "function"
    },
    {
      "inputs": [
        {
          "internalType": "bytes32",
          "name": "id",
          "type": "bytes32"
        }
      ],
      "name": "isOperationDone",
      "outputs": [
        {
          "internalType": "bool",
          "name": "done",
          "type": "bool"
        }
      ],
      "stateMutability": "view",
      "type": "function"
    },
    {
      "inputs": [
        {
          "internalType": "bytes32",
          "name": "id",
          "type": "bytes32"
        }
      ],
      "name": "isOperationPending",
      "outputs": [
        {
          "internalType": "bool",
          "name": "pending",
          "type": "bool"
        }
      ],
      "stateMutability": "view",
      "type": "function"
    },
    {
      "inputs": [
        {
          "internalType": "bytes32",
          "name": "id",
          "type": "bytes32"
        }
      ],
      "name": "isOperationReady",
      "outputs": [
        {
          "internalType": "bool",
          "name": "ready",
          "type": "bool"
        }
      ],
      "stateMutability": "view",
      "type": "function"
    },
    {
      "inputs": [
        {
          "internalType": "address",
          "name": "",
          "type": "address"
        },
        {
          "internalType": "address",
          "name": "",
          "type": "address"
        },
        {
          "internalType": "uint256[]",
          "name": "",
          "type": "uint256[]"
        },
        {
          "internalType": "uint256[]",
          "name": "",
          "type": "uint256[]"
        },
        {
          "internalType": "bytes",
          "name": "",
          "type": "bytes"
        }
      ],
      "name": "onERC1155BatchReceived",
      "outputs": [
        {
          "internalType": "bytes4",
          "name": "",
          "type": "bytes4"
        }
      ],
      "stateMutability": "nonpayable",
      "type": "function"
    },
    {
      "inputs": [
        {
          "internalType": "address",
          "name": "",
          "type": "address"
        },
        {
          "internalType": "address",
          "name": "",
          "type": "address"
        },
        {
          "internalType": "uint256",
          "name": "",
          "type": "uint256"
        },
        {
          "internalType": "uint256",
          "name": "",
          "type": "uint256"
        },
        {
          "internalType": "bytes",
          "name": "",
          "type": "bytes"
        }
      ],
      "name": "onERC1155Received",
      "outputs": [
        {
          "internalType": "bytes4",
          "name": "",
          "type": "bytes4"
        }
      ],
      "stateMutability": "nonpayable",
      "type": "function"
    },
    {
      "inputs": [
        {
          "internalType": "address",
          "name": "operator",
          "type": "address"
        },
        {
          "internalType": "address",
          "name": "from",
          "type": "address"
        },
        {
          "internalType": "uint256",
          "name": "tokenId",
          "type": "uint256"
        },
        {
          "internalType": "bytes",
          "name": "data",
          "type": "bytes"
        }
      ],
      "name": "onERC721Received",
      "outputs": [
        {
          "internalType": "bytes4",
          "name": "",
          "type": "bytes4"
        }
      ],
      "stateMutability": "nonpayable",
      "type": "function"
    },
    {
      "inputs": [
        {
          "internalType": "bytes32",
          "name": "role",
          "type": "bytes32"
        },
        {
          "internalType": "address",
          "name": "account",
          "type": "address"
        }
      ],
      "name": "renounceRole",
      "outputs": [],
      "stateMutability": "nonpayable",
      "type": "function"
    },
    {
      "inputs": [
        {
          "internalType": "bytes32",
          "name": "role",
          "type": "bytes32"
        },
        {
          "internalType": "address",
          "name": "account",
          "type": "address"
        }
      ],
      "name": "revokeRole",
      "outputs": [],
      "stateMutability": "nonpayable",
      "type": "function"
    },
    {
      "inputs": [
        {
          "internalType": "address",
          "name": "target",
          "type": "address"
        },
        {
          "internalType": "uint256",
          "name": "value",
          "type": "uint256"
        },
        {
          "internalType": "bytes",
          "name": "data",
          "type": "bytes"
        },
        {
          "internalType": "bytes32",
          "name": "predecessor",
          "type": "bytes32"
        },
        {
          "internalType": "bytes32",
          "name": "salt",
          "type": "bytes32"
        },
        {
          "internalType": "uint256",
          "name": "delay",
          "type": "uint256"
        }
      ],
      "name": "schedule",
      "outputs": [],
      "stateMutability": "nonpayable",
      "type": "function"
    },
    {
      "inputs": [
        {
          "internalType": "address[]",
          "name": "targets",
          "type": "address[]"
        },
        {
          "internalType": "uint256[]",
          "name": "values",
          "type": "uint256[]"
        },
        {
          "internalType": "bytes[]",
          "name": "payloads",
          "type": "bytes[]"
        },
        {
          "internalType": "bytes32",
          "name": "predecessor",
          "type": "bytes32"
        },
        {
          "internalType": "bytes32",
          "name": "salt",
          "type": "bytes32"
        },
        {
          "internalType": "uint256",
          "name": "delay",
          "type": "uint256"
        }
      ],
      "name": "scheduleBatch",
      "outputs": [],
      "stateMutability": "nonpayable",
      "type": "function"
    },
    {
      "inputs": [
        {
          "internalType": "bytes4",
          "name": "interfaceId",
          "type": "bytes4"
        }
      ],
      "name": "supportsInterface",
      "outputs": [
        {
          "internalType": "bool",
          "name": "",
          "type": "bool"
        }
      ],
      "stateMutability": "view",
      "type": "function"
    },
    {
      "inputs": [
        {
          "internalType": "uint256",
          "name": "newDelay",
          "type": "uint256"
        }
      ],
      "name": "updateDelay",
      "outputs": [],
      "stateMutability": "nonpayable",
      "type": "function"
    },
    {
      "stateMutability": "payable",
      "type": "receive"
    }
  ],
  "bytecode": "0x60806040523480156200001157600080fd5b506040516200238038038062002380833981016040819052620000349162000410565b8383838362000053600080516020620023008339815191528062000235565b6200007d600080516020620023208339815191526000805160206200230083398151915262000235565b620000a7600080516020620023408339815191526000805160206200230083398151915262000235565b620000d1600080516020620023608339815191526000805160206200230083398151915262000235565b620000ec600080516020620023008339815191523062000280565b6001600160a01b03811615620001175762000117600080516020620023008339815191528262000280565b60005b83518110156200019d5762000161600080516020620023208339815191528583815181106200014d576200014d62000497565b60200260200101516200028060201b60201c565b6200018a600080516020620023608339815191528583815181106200014d576200014d62000497565b6200019581620004ad565b90506200011a565b5060005b8251811015620001e757620001d4600080516020620023408339815191528483815181106200014d576200014d62000497565b620001df81620004ad565b9050620001a1565b5060028490556040805160008152602081018690527f11c24f4ead16507c69ac467fbd5e4eed5fb5c699626d2cc6d66421df253886d5910160405180910390a15050505050505050620004d7565b600082815260208190526040808220600101805490849055905190918391839186917fbd79b86ffe0ab8e8776151514217cd7cacd52c909f66475c3af44e129f0b00ff9190a4505050565b6200028c828262000290565b5050565b6000828152602081815260408083206001600160a01b038516845290915290205460ff166200028c576000828152602081815260408083206001600160a01b03851684529091529020805460ff19166001179055620002ec3390565b6001600160a01b0316816001600160a01b0316837f2f8788117e7eff1d82e926ec794901d17c78024a50270940304540a733656f0d60405160405180910390a45050565b634e487b7160e01b600052604160045260246000fd5b80516001600160a01b03811681146200035e57600080fd5b919050565b600082601f8301126200037557600080fd5b815160206001600160401b038083111562000394576200039462000330565b8260051b604051601f19603f83011681018181108482111715620003bc57620003bc62000330565b604052938452858101830193838101925087851115620003db57600080fd5b83870191505b848210156200040557620003f58262000346565b83529183019190830190620003e1565b979650505050505050565b600080600080608085870312156200042757600080fd5b845160208601519094506001600160401b03808211156200044757600080fd5b620004558883890162000363565b945060408701519150808211156200046c57600080fd5b506200047b8782880162000363565b9250506200048c6060860162000346565b905092959194509250565b634e487b7160e01b600052603260045260246000fd5b6000600019821415620004d057634e487b7160e01b600052601160045260246000fd5b5060010190565b611e1980620004e76000396000f3fe6080604052600436106101bb5760003560e01c80638065657f116100ec578063bc197c811161008a578063d547741f11610064578063d547741f14610577578063e38335e514610597578063f23a6e61146105aa578063f27a0c92146105d657600080fd5b8063bc197c81146104fe578063c4d252f51461052a578063d45c44351461054a57600080fd5b806391d14854116100c657806391d1485414610475578063a217fddf14610495578063b08e51c0146104aa578063b1c5f427146104de57600080fd5b80638065657f146104015780638f2a0bb0146104215780638f61f4f51461044157600080fd5b8063248a9ca31161015957806331d507501161013357806331d507501461038157806336568abe146103a1578063584b153e146103c157806364d62353146103e157600080fd5b8063248a9ca3146103005780632ab0f529146103305780632f2ff15d1461036157600080fd5b80630d3cf6fc116101955780630d3cf6fc14610260578063134008d31461029457806313bc9f20146102a7578063150b7a02146102c757600080fd5b806301d5062a146101c757806301ffc9a7146101e957806307bd02651461021e57600080fd5b366101c257005b600080fd5b3480156101d357600080fd5b506101e76101e236600461140b565b6105eb565b005b3480156101f557600080fd5b5061020961020436600461147f565b610680565b60405190151581526020015b60405180910390f35b34801561022a57600080fd5b506102527fd8aa0f3194971a2a116679f7c2090f6939c8d4e01a2a8d7e41d55e5351469e6381565b604051908152602001610215565b34801561026c57600080fd5b506102527f5f58e3a2316349923ce3780f8d587db2d72378aed66a8261c916544fa6846ca581565b6101e76102a23660046114a9565b6106ab565b3480156102b357600080fd5b506102096102c2366004611514565b610760565b3480156102d357600080fd5b506102e76102e236600461152d565b610786565b6040516001600160e01b03199091168152602001610215565b34801561030c57600080fd5b5061025261031b366004611514565b60009081526020819052604090206001015490565b34801561033c57600080fd5b5061020961034b366004611514565b6000908152600160208190526040909120541490565b34801561036d57600080fd5b506101e761037c36600461159b565b6107dc565b34801561038d57600080fd5b5061020961039c366004611514565b610806565b3480156103ad57600080fd5b506101e76103bc36600461159b565b61081f565b3480156103cd57600080fd5b506102096103dc366004611514565b6108a2565b3480156103ed57600080fd5b506101e76103fc366004611514565b6108b8565b34801561040d57600080fd5b5061025261041c3660046114a9565b61095c565b34801561042d57600080fd5b506101e761043c36600461160b565b61099b565b34801561044d57600080fd5b506102527fb09aa5aeb3702cfd50b6b62bc4532604938f21248a27a1d5ca736082b6819cc181565b34801561048157600080fd5b5061020961049036600461159b565b610aed565b3480156104a157600080fd5b50610252600081565b3480156104b657600080fd5b506102527ffd643c72710c63c0180259aba6b2d05451e3591a24e58b62239378085726f78381565b3480156104ea57600080fd5b506102526104f93660046116bc565b610b16565b34801561050a57600080fd5b506102e7610519366004611898565b63bc197c8160e01b95945050505050565b34801561053657600080fd5b506101e7610545366004611514565b610b5b565b34801561055657600080fd5b50610252610565366004611514565b60009081526001602052604090205490565b34801561058357600080fd5b506101e761059236600461159b565b610c30565b6101e76105a53660046116bc565b610c55565b3480156105b657600080fd5b506102e76105c5366004611941565b63f23a6e6160e01b95945050505050565b3480156105e257600080fd5b50600254610252565b7fb09aa5aeb3702cfd50b6b62bc4532604938f21248a27a1d5ca736082b6819cc161061581610ddf565b600061062589898989898961095c565b90506106318184610dec565b6000817f4cf4410cc57040e44862ef0f45f3dd5a5e02db8eb8add648d4b0e236f1d07dca8b8b8b8b8b8a60405161066d969594939291906119ce565b60405180910390a3505050505050505050565b60006001600160e01b03198216630271189760e51b14806106a557506106a582610edb565b92915050565b7fd8aa0f3194971a2a116679f7c2090f6939c8d4e01a2a8d7e41d55e5351469e636106d7816000610aed565b6106e5576106e58133610f10565b60006106f588888888888861095c565b90506107018185610f69565b61070d88888888611005565b6000817fc2617efa69bab66782fa219543714338489c4e9e178271560a91b82c3f612b588a8a8a8a6040516107459493929190611a0b565b60405180910390a3610756816110d8565b5050505050505050565b60008181526001602052604081205460018111801561077f5750428111155b9392505050565b604080518481526001600160a01b03861660208201526000917f1bf32db6782871db0db03331631d83d40e5164abc01103c60c3f416f07a408ec910160405180910390a150630a85bd0160e11b95945050505050565b6000828152602081905260409020600101546107f781610ddf565b6108018383611111565b505050565b60008181526001602052604081205481905b1192915050565b6001600160a01b03811633146108945760405162461bcd60e51b815260206004820152602f60248201527f416363657373436f6e74726f6c3a2063616e206f6e6c792072656e6f756e636560448201526e103937b632b9903337b91039b2b63360891b60648201526084015b60405180910390fd5b61089e8282611195565b5050565b6000818152600160208190526040822054610818565b33301461091b5760405162461bcd60e51b815260206004820152602b60248201527f54696d656c6f636b436f6e74726f6c6c65723a2063616c6c6572206d7573742060448201526a62652074696d656c6f636b60a81b606482015260840161088b565b60025460408051918252602082018390527f11c24f4ead16507c69ac467fbd5e4eed5fb5c699626d2cc6d66421df253886d5910160405180910390a1600255565b6000868686868686604051602001610979969594939291906119ce565b6040516020818303038152906040528051906020012090509695505050505050565b7fb09aa5aeb3702cfd50b6b62bc4532604938f21248a27a1d5ca736082b6819cc16109c581610ddf565b8887146109e45760405162461bcd60e51b815260040161088b90611a3d565b888514610a035760405162461bcd60e51b815260040161088b90611a3d565b6000610a158b8b8b8b8b8b8b8b610b16565b9050610a218184610dec565b60005b8a811015610adf5780827f4cf4410cc57040e44862ef0f45f3dd5a5e02db8eb8add648d4b0e236f1d07dca8e8e85818110610a6157610a61611a80565b9050602002016020810190610a769190611a96565b8d8d86818110610a8857610a88611a80565b905060200201358c8c87818110610aa157610aa1611a80565b9050602002810190610ab39190611ab1565b8c8b604051610ac7969594939291906119ce565b60405180910390a3610ad881611b0d565b9050610a24565b505050505050505050505050565b6000918252602082815260408084206001600160a01b0393909316845291905290205460ff1690565b60008888888888888888604051602001610b37989796959493929190611bb8565b60405160208183030381529060405280519060200120905098975050505050505050565b7ffd643c72710c63c0180259aba6b2d05451e3591a24e58b62239378085726f783610b8581610ddf565b610b8e826108a2565b610bf45760405162461bcd60e51b815260206004820152603160248201527f54696d656c6f636b436f6e74726f6c6c65723a206f7065726174696f6e2063616044820152701b9b9bdd0818994818d85b98d95b1b1959607a1b606482015260840161088b565b6000828152600160205260408082208290555183917fbaa1eb22f2a492ba1a5fea61b8df4d27c6c8b5f3971e63bb58fa14ff72eedb7091a25050565b600082815260208190526040902060010154610c4b81610ddf565b6108018383611195565b7fd8aa0f3194971a2a116679f7c2090f6939c8d4e01a2a8d7e41d55e5351469e63610c81816000610aed565b610c8f57610c8f8133610f10565b878614610cae5760405162461bcd60e51b815260040161088b90611a3d565b878414610ccd5760405162461bcd60e51b815260040161088b90611a3d565b6000610cdf8a8a8a8a8a8a8a8a610b16565b9050610ceb8185610f69565b60005b89811015610dc95760008b8b83818110610d0a57610d0a611a80565b9050602002016020810190610d1f9190611a96565b905060008a8a84818110610d3557610d35611a80565b9050602002013590503660008a8a86818110610d5357610d53611a80565b9050602002810190610d659190611ab1565b91509150610d7584848484611005565b84867fc2617efa69bab66782fa219543714338489c4e9e178271560a91b82c3f612b5886868686604051610dac9493929190611a0b565b60405180910390a35050505080610dc290611b0d565b9050610cee565b50610dd3816110d8565b50505050505050505050565b610de98133610f10565b50565b610df582610806565b15610e5a5760405162461bcd60e51b815260206004820152602f60248201527f54696d656c6f636b436f6e74726f6c6c65723a206f7065726174696f6e20616c60448201526e1c9958591e481cd8da19591d5b1959608a1b606482015260840161088b565b600254811015610ebb5760405162461bcd60e51b815260206004820152602660248201527f54696d656c6f636b436f6e74726f6c6c65723a20696e73756666696369656e746044820152652064656c617960d01b606482015260840161088b565b610ec58142611c63565b6000928352600160205260409092209190915550565b60006001600160e01b03198216637965db0b60e01b14806106a557506301ffc9a760e01b6001600160e01b03198316146106a5565b610f1a8282610aed565b61089e57610f27816111fa565b610f3283602061120c565b604051602001610f43929190611cab565b60408051601f198184030181529082905262461bcd60e51b825261088b91600401611d20565b610f7282610760565b610f8e5760405162461bcd60e51b815260040161088b90611d53565b801580610faa5750600081815260016020819052604090912054145b61089e5760405162461bcd60e51b815260206004820152602660248201527f54696d656c6f636b436f6e74726f6c6c65723a206d697373696e6720646570656044820152656e64656e637960d01b606482015260840161088b565b6000846001600160a01b0316848484604051611022929190611d9d565b60006040518083038185875af1925050503d806000811461105f576040519150601f19603f3d011682016040523d82523d6000602084013e611064565b606091505b50509050806110d15760405162461bcd60e51b815260206004820152603360248201527f54696d656c6f636b436f6e74726f6c6c65723a20756e6465726c79696e6720746044820152721c985b9cd858dd1a5bdb881c995d995c9d1959606a1b606482015260840161088b565b5050505050565b6110e181610760565b6110fd5760405162461bcd60e51b815260040161088b90611d53565b600090815260016020819052604090912055565b61111b8282610aed565b61089e576000828152602081815260408083206001600160a01b03851684529091529020805460ff191660011790556111513390565b6001600160a01b0316816001600160a01b0316837f2f8788117e7eff1d82e926ec794901d17c78024a50270940304540a733656f0d60405160405180910390a45050565b61119f8282610aed565b1561089e576000828152602081815260408083206001600160a01b0385168085529252808320805460ff1916905551339285917ff6391f5c32d9c69d2a47ea670b442974b53935d1edc7fd64eb21e047a839171b9190a45050565b60606106a56001600160a01b03831660145b6060600061121b836002611dad565b611226906002611c63565b6001600160401b0381111561123d5761123d611764565b6040519080825280601f01601f191660200182016040528015611267576020820181803683370190505b509050600360fc1b8160008151811061128257611282611a80565b60200101906001600160f81b031916908160001a905350600f60fb1b816001815181106112b1576112b1611a80565b60200101906001600160f81b031916908160001a90535060006112d5846002611dad565b6112e0906001611c63565b90505b6001811115611358576f181899199a1a9b1b9c1cb0b131b232b360811b85600f166010811061131457611314611a80565b1a60f81b82828151811061132a5761132a611a80565b60200101906001600160f81b031916908160001a90535060049490941c9361135181611dcc565b90506112e3565b50831561077f5760405162461bcd60e51b815260206004820181905260248201527f537472696e67733a20686578206c656e67746820696e73756666696369656e74604482015260640161088b565b80356001600160a01b03811681146113be57600080fd5b919050565b60008083601f8401126113d557600080fd5b5081356001600160401b038111156113ec57600080fd5b60208301915083602082850101111561140457600080fd5b9250929050565b600080600080600080600060c0888a03121561142657600080fd5b61142f886113a7565b96506020880135955060408801356001600160401b0381111561145157600080fd5b61145d8a828b016113c3565b989b979a50986060810135976080820135975060a09091013595509350505050565b60006020828403121561149157600080fd5b81356001600160e01b03198116811461077f57600080fd5b60008060008060008060a087890312156114c257600080fd5b6114cb876113a7565b95506020870135945060408701356001600160401b038111156114ed57600080fd5b6114f989828a016113c3565b979a9699509760608101359660809091013595509350505050565b60006020828403121561152657600080fd5b5035919050565b60008060008060006080868803121561154557600080fd5b61154e866113a7565b945061155c602087016113a7565b93506040860135925060608601356001600160401b0381111561157e57600080fd5b61158a888289016113c3565b969995985093965092949392505050565b600080604083850312156115ae57600080fd5b823591506115be602084016113a7565b90509250929050565b60008083601f8401126115d957600080fd5b5081356001600160401b038111156115f057600080fd5b6020830191508360208260051b850101111561140457600080fd5b600080600080600080600080600060c08a8c03121561162957600080fd5b89356001600160401b038082111561164057600080fd5b61164c8d838e016115c7565b909b50995060208c013591508082111561166557600080fd5b6116718d838e016115c7565b909950975060408c013591508082111561168a57600080fd5b506116978c828d016115c7565b9a9d999c50979a969997986060880135976080810135975060a0013595509350505050565b60008060008060008060008060a0898b0312156116d857600080fd5b88356001600160401b03808211156116ef57600080fd5b6116fb8c838d016115c7565b909a50985060208b013591508082111561171457600080fd5b6117208c838d016115c7565b909850965060408b013591508082111561173957600080fd5b506117468b828c016115c7565b999c989b509699959896976060870135966080013595509350505050565b634e487b7160e01b600052604160045260246000fd5b604051601f8201601f191681016001600160401b03811182821017156117a2576117a2611764565b604052919050565b600082601f8301126117bb57600080fd5b813560206001600160401b038211156117d6576117d6611764565b8160051b6117e582820161177a565b92835284810182019282810190878511156117ff57600080fd5b83870192505b8483101561181e57823582529183019190830190611805565b979650505050505050565b600082601f83011261183a57600080fd5b81356001600160401b0381111561185357611853611764565b611866601f8201601f191660200161177a565b81815284602083860101111561187b57600080fd5b816020850160208301376000918101602001919091529392505050565b600080600080600060a086880312156118b057600080fd5b6118b9866113a7565b94506118c7602087016113a7565b935060408601356001600160401b03808211156118e357600080fd5b6118ef89838a016117aa565b9450606088013591508082111561190557600080fd5b61191189838a016117aa565b9350608088013591508082111561192757600080fd5b5061193488828901611829565b9150509295509295909350565b600080600080600060a0868803121561195957600080fd5b611962866113a7565b9450611970602087016113a7565b9350604086013592506060860135915060808601356001600160401b0381111561199957600080fd5b61193488828901611829565b81835281816020850137506000828201602090810191909152601f909101601f19169091010190565b60018060a01b038716815285602082015260a0604082015260006119f660a0830186886119a5565b60608301949094525060800152949350505050565b60018060a01b0385168152836020820152606060408201526000611a336060830184866119a5565b9695505050505050565b60208082526023908201527f54696d656c6f636b436f6e74726f6c6c65723a206c656e677468206d69736d616040820152620e8c6d60eb1b606082015260800190565b634e487b7160e01b600052603260045260246000fd5b600060208284031215611aa857600080fd5b61077f826113a7565b6000808335601e19843603018112611ac857600080fd5b8301803591506001600160401b03821115611ae257600080fd5b60200191503681900382131561140457600080fd5b634e487b7160e01b600052601160045260246000fd5b6000600019821415611b2157611b21611af7565b5060010190565b81835260006020808501808196508560051b810191508460005b87811015611bab5782840389528135601e19883603018112611b6357600080fd5b870180356001600160401b03811115611b7b57600080fd5b803603891315611b8a57600080fd5b611b9786828985016119a5565b9a87019a9550505090840190600101611b42565b5091979650505050505050565b60a0808252810188905260008960c08301825b8b811015611bf9576001600160a01b03611be4846113a7565b16825260209283019290910190600101611bcb565b5083810360208501528881526001600160fb1b03891115611c1957600080fd5b8860051b9150818a602083013781810191505060208101600081526020848303016040850152611c4a81888a611b28565b6060850196909652505050608001529695505050505050565b60008219821115611c7657611c76611af7565b500190565b60005b83811015611c96578181015183820152602001611c7e565b83811115611ca5576000848401525b50505050565b7f416363657373436f6e74726f6c3a206163636f756e7420000000000000000000815260008351611ce3816017850160208801611c7b565b7001034b99036b4b9b9b4b733903937b6329607d1b6017918401918201528351611d14816028840160208801611c7b565b01602801949350505050565b6020815260008251806020840152611d3f816040850160208701611c7b565b601f01601f19169190910160400192915050565b6020808252602a908201527f54696d656c6f636b436f6e74726f6c6c65723a206f7065726174696f6e206973604082015269206e6f7420726561647960b01b606082015260800190565b8183823760009101908152919050565b6000816000190483118215151615611dc757611dc7611af7565b500290565b600081611ddb57611ddb611af7565b50600019019056fea26469706673582212202f5bd835a65778c600dc06fd2f364c7b60de67ae0489120bb8552ea6f87043f764736f6c634300080900335f58e3a2316349923ce3780f8d587db2d72378aed66a8261c916544fa6846ca5b09aa5aeb3702cfd50b6b62bc4532604938f21248a27a1d5ca736082b6819cc1d8aa0f3194971a2a116679f7c2090f6939c8d4e01a2a8d7e41d55e5351469e63fd643c72710c63c0180259aba6b2d05451e3591a24e58b62239378085726f783",
  "linkReferences": {},
  "deployedLinkReferences": {}
}