{
  "_format": "hh-sol-artifact-1",
  "contractName": "GovernanceToken",
  "sourceName": "contracts/tokens/ERC721/GovernanceToken.sol",
  "abi": [
    {
      "inputs": [],
      "stateMutability": "nonpayable",
      "type": "constructor"
    },
    {
      "anonymous": false,
      "inputs": [
        {
          "indexed": false,
          "internalType": "address",
          "name": "previousAdmin",
          "type": "address"
        },
        {
          "indexed": false,
          "internalType": "address",
          "name": "newAdmin",
          "type": "address"
        }
      ],
      "name": "AdminChanged",
      "type": "event"
    },
    {
      "anonymous": false,
      "inputs": [
        {
          "indexed": true,
          "internalType": "address",
          "name": "owner",
          "type": "address"
        },
        {
          "indexed": true,
          "internalType": "address",
          "name": "approved",
          "type": "address"
        },
        {
          "indexed": true,
          "internalType": "uint256",
          "name": "tokenId",
          "type": "uint256"
        }
      ],
      "name": "Approval",
      "type": "event"
    },
    {
      "anonymous": false,
      "inputs": [
        {
          "indexed": true,
          "internalType": "address",
          "name": "owner",
          "type": "address"
        },
        {
          "indexed": true,
          "internalType": "address",
          "name": "operator",
          "type": "address"
        },
        {
          "indexed": false,
          "internalType": "bool",
          "name": "approved",
          "type": "bool"
        }
      ],
      "name": "ApprovalForAll",
      "type": "event"
    },
    {
      "anonymous": false,
      "inputs": [
        {
          "indexed": true,
          "internalType": "address",
          "name": "beacon",
          "type": "address"
        }
      ],
      "name": "BeaconUpgraded",
      "type": "event"
    },
    {
      "anonymous": false,
      "inputs": [
        {
          "indexed": true,
          "internalType": "address",
          "name": "delegator",
          "type": "address"
        },
        {
          "indexed": true,
          "internalType": "address",
          "name": "fromDelegate",
          "type": "address"
        },
        {
          "indexed": true,
          "internalType": "address",
          "name": "toDelegate",
          "type": "address"
        }
      ],
      "name": "DelegateChanged",
      "type": "event"
    },
    {
      "anonymous": false,
      "inputs": [
        {
          "indexed": true,
          "internalType": "address",
          "name": "delegate",
          "type": "address"
        },
        {
          "indexed": false,
          "internalType": "uint256",
          "name": "previousBalance",
          "type": "uint256"
        },
        {
          "indexed": false,
          "internalType": "uint256",
          "name": "newBalance",
          "type": "uint256"
        }
      ],
      "name": "DelegateVotesChanged",
      "type": "event"
    },
    {
      "anonymous": false,
      "inputs": [
        {
          "indexed": false,
          "internalType": "uint8",
          "name": "version",
          "type": "uint8"
        }
      ],
      "name": "Initialized",
      "type": "event"
    },
    {
      "anonymous": false,
      "inputs": [
        {
          "indexed": false,
          "internalType": "uint256",
          "name": "needId",
          "type": "uint256"
        },
        {
          "indexed": false,
          "internalType": "uint256",
          "name": "tokenId",
          "type": "uint256"
        },
        {
          "indexed": false,
          "internalType": "uint256",
          "name": "tokenId2",
          "type": "uint256"
        },
        {
          "indexed": false,
          "internalType": "address",
          "name": "familyMember",
          "type": "address"
        },
        {
          "indexed": false,
          "internalType": "address",
          "name": "friend",
          "type": "address"
        }
      ],
      "name": "Minted",
      "type": "event"
    },
    {
      "anonymous": false,
      "inputs": [
        {
          "indexed": true,
          "internalType": "bytes32",
          "name": "role",
          "type": "bytes32"
        },
        {
          "indexed": true,
          "internalType": "bytes32",
          "name": "previousAdminRole",
          "type": "bytes32"
        },
        {
          "indexed": true,
          "internalType": "bytes32",
          "name": "newAdminRole",
          "type": "bytes32"
        }
      ],
      "name": "RoleAdminChanged",
      "type": "event"
    },
    {
      "anonymous": false,
      "inputs": [
        {
          "indexed": true,
          "internalType": "bytes32",
          "name": "role",
          "type": "bytes32"
        },
        {
          "indexed": true,
          "internalType": "address",
          "name": "account",
          "type": "address"
        },
        {
          "indexed": true,
          "internalType": "address",
          "name": "sender",
          "type": "address"
        }
      ],
      "name": "RoleGranted",
      "type": "event"
    },
    {
      "anonymous": false,
      "inputs": [
        {
          "indexed": true,
          "internalType": "bytes32",
          "name": "role",
          "type": "bytes32"
        },
        {
          "indexed": true,
          "internalType": "address",
          "name": "account",
          "type": "address"
        },
        {
          "indexed": true,
          "internalType": "address",
          "name": "sender",
          "type": "address"
        }
      ],
      "name": "RoleRevoked",
      "type": "event"
    },
    {
      "anonymous": false,
      "inputs": [
        {
          "indexed": true,
          "internalType": "address",
          "name": "from",
          "type": "address"
        },
        {
          "indexed": true,
          "internalType": "address",
          "name": "to",
          "type": "address"
        },
        {
          "indexed": true,
          "internalType": "uint256",
          "name": "tokenId",
          "type": "uint256"
        }
      ],
      "name": "Transfer",
      "type": "event"
    },
    {
      "anonymous": false,
      "inputs": [
        {
          "indexed": true,
          "internalType": "address",
          "name": "implementation",
          "type": "address"
        }
      ],
      "name": "Upgraded",
      "type": "event"
    },
    {
      "inputs": [],
      "name": "DEFAULT_ADMIN_ROLE",
      "outputs": [
        {
          "internalType": "bytes32",
          "name": "",
          "type": "bytes32"
        }
      ],
      "stateMutability": "view",
      "type": "function"
    },
    {
      "inputs": [],
      "name": "DOMAIN_SEPARATOR",
      "outputs": [
        {
          "internalType": "bytes32",
          "name": "",
          "type": "bytes32"
        }
      ],
      "stateMutability": "view",
      "type": "function"
    },
    {
      "inputs": [],
      "name": "SAY_ADMIN_ROLE",
      "outputs": [
        {
          "internalType": "bytes32",
          "name": "",
          "type": "bytes32"
        }
      ],
      "stateMutability": "view",
      "type": "function"
    },
    {
      "inputs": [],
      "name": "UPGRADER_ROLE",
      "outputs": [
        {
          "internalType": "bytes32",
          "name": "",
          "type": "bytes32"
        }
      ],
      "stateMutability": "view",
      "type": "function"
    },
    {
      "inputs": [
        {
          "internalType": "address",
          "name": "to",
          "type": "address"
        },
        {
          "internalType": "uint256",
          "name": "tokenId",
          "type": "uint256"
        }
      ],
      "name": "approve",
      "outputs": [],
      "stateMutability": "nonpayable",
      "type": "function"
    },
    {
      "inputs": [
        {
          "internalType": "address",
          "name": "owner",
          "type": "address"
        }
      ],
      "name": "balanceOf",
      "outputs": [
        {
          "internalType": "uint256",
          "name": "",
          "type": "uint256"
        }
      ],
      "stateMutability": "view",
      "type": "function"
    },
    {
      "inputs": [
        {
          "internalType": "address",
          "name": "delegatee",
          "type": "address"
        }
      ],
      "name": "delegate",
      "outputs": [],
      "stateMutability": "nonpayable",
      "type": "function"
    },
    {
      "inputs": [
        {
          "internalType": "address",
          "name": "delegatee",
          "type": "address"
        },
        {
          "internalType": "uint256",
          "name": "nonce",
          "type": "uint256"
        },
        {
          "internalType": "uint256",
          "name": "expiry",
          "type": "uint256"
        },
        {
          "internalType": "uint8",
          "name": "v",
          "type": "uint8"
        },
        {
          "internalType": "bytes32",
          "name": "r",
          "type": "bytes32"
        },
        {
          "internalType": "bytes32",
          "name": "s",
          "type": "bytes32"
        }
      ],
      "name": "delegateBySig",
      "outputs": [],
      "stateMutability": "nonpayable",
      "type": "function"
    },
    {
      "inputs": [
        {
          "internalType": "address",
          "name": "account",
          "type": "address"
        }
      ],
      "name": "delegates",
      "outputs": [
        {
          "internalType": "address",
          "name": "",
          "type": "address"
        }
      ],
      "stateMutability": "view",
      "type": "function"
    },
    {
      "inputs": [
        {
          "internalType": "uint256",
          "name": "tokenId",
          "type": "uint256"
        }
      ],
      "name": "getApproved",
      "outputs": [
        {
          "internalType": "address",
          "name": "",
          "type": "address"
        }
      ],
      "stateMutability": "view",
      "type": "function"
    },
    {
      "inputs": [
        {
          "internalType": "uint256",
          "name": "blockNumber",
          "type": "uint256"
        }
      ],
      "name": "getPastTotalSupply",
      "outputs": [
        {
          "internalType": "uint256",
          "name": "",
          "type": "uint256"
        }
      ],
      "stateMutability": "view",
      "type": "function"
    },
    {
      "inputs": [
        {
          "internalType": "address",
          "name": "account",
          "type": "address"
        },
        {
          "internalType": "uint256",
          "name": "blockNumber",
          "type": "uint256"
        }
      ],
      "name": "getPastVotes",
      "outputs": [
        {
          "internalType": "uint256",
          "name": "",
          "type": "uint256"
        }
      ],
      "stateMutability": "view",
      "type": "function"
    },
    {
      "inputs": [
        {
          "internalType": "bytes32",
          "name": "role",
          "type": "bytes32"
        }
      ],
      "name": "getRoleAdmin",
      "outputs": [
        {
          "internalType": "bytes32",
          "name": "",
          "type": "bytes32"
        }
      ],
      "stateMutability": "view",
      "type": "function"
    },
    {
      "inputs": [
        {
          "internalType": "address",
          "name": "account",
          "type": "address"
        }
      ],
      "name": "getVotes",
      "outputs": [
        {
          "internalType": "uint256",
          "name": "",
          "type": "uint256"
        }
      ],
      "stateMutability": "view",
      "type": "function"
    },
    {
      "inputs": [
        {
          "internalType": "bytes32",
          "name": "role",
          "type": "bytes32"
        },
        {
          "internalType": "address",
          "name": "account",
          "type": "address"
        }
      ],
      "name": "grantRole",
      "outputs": [],
      "stateMutability": "nonpayable",
      "type": "function"
    },
    {
      "inputs": [
        {
          "internalType": "bytes32",
          "name": "role",
          "type": "bytes32"
        },
        {
          "internalType": "address",
          "name": "account",
          "type": "address"
        }
      ],
      "name": "hasRole",
      "outputs": [
        {
          "internalType": "bool",
          "name": "",
          "type": "bool"
        }
      ],
      "stateMutability": "view",
      "type": "function"
    },
    {
      "inputs": [
        {
          "internalType": "address",
          "name": "sayAdmin",
          "type": "address"
        },
        {
          "internalType": "address",
          "name": "voucherContract",
          "type": "address"
        }
      ],
      "name": "initialize",
      "outputs": [],
      "stateMutability": "nonpayable",
      "type": "function"
    },
    {
      "inputs": [
        {
          "internalType": "address",
          "name": "owner",
          "type": "address"
        },
        {
          "internalType": "address",
          "name": "operator",
          "type": "address"
        }
      ],
      "name": "isApprovedForAll",
      "outputs": [
        {
          "internalType": "bool",
          "name": "",
          "type": "bool"
        }
      ],
      "stateMutability": "view",
      "type": "function"
    },
    {
      "inputs": [],
      "name": "name",
      "outputs": [
        {
          "internalType": "string",
          "name": "",
          "type": "string"
        }
      ],
      "stateMutability": "view",
      "type": "function"
    },
    {
      "inputs": [
        {
          "internalType": "address",
          "name": "owner",
          "type": "address"
        }
      ],
      "name": "nonces",
      "outputs": [
        {
          "internalType": "uint256",
          "name": "",
          "type": "uint256"
        }
      ],
      "stateMutability": "view",
      "type": "function"
    },
    {
      "inputs": [
        {
          "internalType": "uint256",
          "name": "tokenId",
          "type": "uint256"
        }
      ],
      "name": "ownerOf",
      "outputs": [
        {
          "internalType": "address",
          "name": "",
          "type": "address"
        }
      ],
      "stateMutability": "view",
      "type": "function"
    },
    {
      "inputs": [],
      "name": "proxiableUUID",
      "outputs": [
        {
          "internalType": "bytes32",
          "name": "",
          "type": "bytes32"
        }
      ],
      "stateMutability": "view",
      "type": "function"
    },
    {
      "inputs": [
        {
          "internalType": "bytes32",
          "name": "role",
          "type": "bytes32"
        },
        {
          "internalType": "address",
          "name": "account",
          "type": "address"
        }
      ],
      "name": "renounceRole",
      "outputs": [],
      "stateMutability": "nonpayable",
      "type": "function"
    },
    {
      "inputs": [
        {
          "internalType": "bytes32",
          "name": "role",
          "type": "bytes32"
        },
        {
          "internalType": "address",
          "name": "account",
          "type": "address"
        }
      ],
      "name": "revokeRole",
      "outputs": [],
      "stateMutability": "nonpayable",
      "type": "function"
    },
    {
      "inputs": [
        {
          "internalType": "uint256",
          "name": "_needId",
          "type": "uint256"
        },
        {
          "internalType": "address",
          "name": "_needContract",
          "type": "address"
        },
        {
          "components": [
            {
              "internalType": "uint256",
              "name": "needId",
              "type": "uint256"
            },
            {
              "internalType": "uint256",
              "name": "mintValue",
              "type": "uint256"
            },
            {
              "internalType": "string",
              "name": "tokenUri",
              "type": "string"
            },
            {
              "internalType": "string",
              "name": "content",
              "type": "string"
            },
            {
              "internalType": "bytes",
              "name": "signature",
              "type": "bytes"
            }
          ],
          "internalType": "struct Voucher",
          "name": "_voucher",
          "type": "tuple"
        }
      ],
      "name": "safeFamilyMint",
      "outputs": [],
      "stateMutability": "payable",
      "type": "function"
    },
    {
      "inputs": [],
      "name": "safeSocialWorkerMint",
      "outputs": [],
      "stateMutability": "payable",
      "type": "function"
    },
    {
      "inputs": [
        {
          "internalType": "address",
          "name": "from",
          "type": "address"
        },
        {
          "internalType": "address",
          "name": "to",
          "type": "address"
        },
        {
          "internalType": "uint256",
          "name": "tokenId",
          "type": "uint256"
        }
      ],
      "name": "safeTransferFrom",
      "outputs": [],
      "stateMutability": "nonpayable",
      "type": "function"
    },
    {
      "inputs": [
        {
          "internalType": "address",
          "name": "from",
          "type": "address"
        },
        {
          "internalType": "address",
          "name": "to",
          "type": "address"
        },
        {
          "internalType": "uint256",
          "name": "tokenId",
          "type": "uint256"
        },
        {
          "internalType": "bytes",
          "name": "data",
          "type": "bytes"
        }
      ],
      "name": "safeTransferFrom",
      "outputs": [],
      "stateMutability": "nonpayable",
      "type": "function"
    },
    {
      "inputs": [
        {
          "internalType": "address",
          "name": "operator",
          "type": "address"
        },
        {
          "internalType": "bool",
          "name": "approved",
          "type": "bool"
        }
      ],
      "name": "setApprovalForAll",
      "outputs": [],
      "stateMutability": "nonpayable",
      "type": "function"
    },
    {
      "inputs": [
        {
          "internalType": "address",
          "name": "newAddress",
          "type": "address"
        }
      ],
      "name": "setVoucherVerifier",
      "outputs": [],
      "stateMutability": "nonpayable",
      "type": "function"
    },
    {
      "inputs": [
        {
          "internalType": "bytes4",
          "name": "interfaceId",
          "type": "bytes4"
        }
      ],
      "name": "supportsInterface",
      "outputs": [
        {
          "internalType": "bool",
          "name": "",
          "type": "bool"
        }
      ],
      "stateMutability": "view",
      "type": "function"
    },
    {
      "inputs": [],
      "name": "symbol",
      "outputs": [
        {
          "internalType": "string",
          "name": "",
          "type": "string"
        }
      ],
      "stateMutability": "view",
      "type": "function"
    },
    {
      "inputs": [
        {
          "internalType": "uint256",
          "name": "tokenId",
          "type": "uint256"
        }
      ],
      "name": "tokenURI",
      "outputs": [
        {
          "internalType": "string",
          "name": "",
          "type": "string"
        }
      ],
      "stateMutability": "view",
      "type": "function"
    },
    {
      "inputs": [
        {
          "internalType": "address",
          "name": "from",
          "type": "address"
        },
        {
          "internalType": "address",
          "name": "to",
          "type": "address"
        },
        {
          "internalType": "uint256",
          "name": "tokenId",
          "type": "uint256"
        }
      ],
      "name": "transferFrom",
      "outputs": [],
      "stateMutability": "nonpayable",
      "type": "function"
    },
    {
      "inputs": [
        {
          "internalType": "address",
          "name": "newImplementation",
          "type": "address"
        }
      ],
      "name": "upgradeTo",
      "outputs": [],
      "stateMutability": "nonpayable",
      "type": "function"
    },
    {
      "inputs": [
        {
          "internalType": "address",
          "name": "newImplementation",
          "type": "address"
        },
        {
          "internalType": "bytes",
          "name": "data",
          "type": "bytes"
        }
      ],
      "name": "upgradeToAndCall",
      "outputs": [],
      "stateMutability": "payable",
      "type": "function"
    },
    {
      "inputs": [],
      "name": "voucherAddress",
      "outputs": [
        {
          "internalType": "address",
          "name": "",
          "type": "address"
        }
      ],
      "stateMutability": "view",
      "type": "function"
    }
  ],
  "bytecode": "0x60a0604052306080523480156200001557600080fd5b506200002062000026565b620000e8565b600054610100900460ff1615620000935760405162461bcd60e51b815260206004820152602760248201527f496e697469616c697a61626c653a20636f6e747261637420697320696e697469604482015266616c697a696e6760c81b606482015260840160405180910390fd5b60005460ff9081161015620000e6576000805460ff191660ff9081179091556040519081527f7f26b83ff96e1f2b6a682f133852f6798a09c465da95921460cefb38474024989060200160405180910390a15b565b60805161393a62000120600039600081816109ee01528181610a2e01528181610d3601528181610d760152610e05015261393a6000f3fe60806040526004361061021a5760003560e01c80636199719411610123578063a22cb465116100ab578063d547741f1161006f578063d547741f14610642578063d9b6304114610662578063e985e9c514610696578063ea191013146106df578063f72c0d8b146106e757600080fd5b8063a22cb465146105a2578063b88d4fde146105c2578063c3cda520146105e2578063c87b56dd14610602578063d402f02f1461062257600080fd5b80638e539e8c116100f25780638e539e8c1461051857806391d148541461053857806395d89b41146105585780639ab24eb01461056d578063a217fddf1461058d57600080fd5b806361997194146104a55780636352211e146104b857806370a08231146104d85780637ecebe00146104f857600080fd5b806336568abe116101a6578063485cc95511610175578063485cc955146104045780634f1ef2861461042457806352d1902d14610437578063587cde1e1461044c5780635c19a95c1461048557600080fd5b806336568abe146103845780633659cfe6146103a45780633a46b1a8146103c457806342842e0e146103e457600080fd5b8063100575b2116101ed578063100575b2146102d057806323b872dd146102f1578063248a9ca3146103115780632f2ff15d1461034f5780633644e5151461036f57600080fd5b806301ffc9a71461021f57806306fdde0314610254578063081812fc14610276578063095ea7b3146102ae575b600080fd5b34801561022b57600080fd5b5061023f61023a366004612fa4565b61071b565b60405190151581526020015b60405180910390f35b34801561026057600080fd5b5061026961072c565b60405161024b9190613019565b34801561028257600080fd5b5061029661029136600461302c565b6107be565b6040516001600160a01b03909116815260200161024b565b3480156102ba57600080fd5b506102ce6102c936600461305a565b6107e5565b005b3480156102dc57600080fd5b506101c654610296906001600160a01b031681565b3480156102fd57600080fd5b506102ce61030c366004613086565b610900565b34801561031d57600080fd5b5061034161032c36600461302c565b60009081526097602052604090206001015490565b60405190815260200161024b565b34801561035b57600080fd5b506102ce61036a3660046130c7565b610931565b34801561037b57600080fd5b50610341610956565b34801561039057600080fd5b506102ce61039f3660046130c7565b610965565b3480156103b057600080fd5b506102ce6103bf3660046130f7565b6109e3565b3480156103d057600080fd5b506103416103df36600461305a565b610ac3565b3480156103f057600080fd5b506102ce6103ff366004613086565b610aec565b34801561041057600080fd5b506102ce61041f366004613114565b610b07565b6102ce6104323660046131e5565b610d2b565b34801561044357600080fd5b50610341610df8565b34801561045857600080fd5b506102966104673660046130f7565b6001600160a01b03908116600090815260fd60205260409020541690565b34801561049157600080fd5b506102ce6104a03660046130f7565b610eab565b6102ce6104b3366004613235565b610eb6565b3480156104c457600080fd5b506102966104d336600461302c565b61111c565b3480156104e457600080fd5b506103416104f33660046130f7565b61117c565b34801561050457600080fd5b506103416105133660046130f7565b611202565b34801561052457600080fd5b5061034161053336600461302c565b611221565b34801561054457600080fd5b5061023f6105533660046130c7565b61127d565b34801561056457600080fd5b506102696112a8565b34801561057957600080fd5b506103416105883660046130f7565b6112b7565b34801561059957600080fd5b50610341600081565b3480156105ae57600080fd5b506102ce6105bd3660046132a3565b6112d8565b3480156105ce57600080fd5b506102ce6105dd3660046132d1565b6112e3565b3480156105ee57600080fd5b506102ce6105fd36600461333d565b61131b565b34801561060e57600080fd5b5061026961061d36600461302c565b61143f565b34801561062e57600080fd5b506102ce61063d3660046130f7565b61144a565b34801561064e57600080fd5b506102ce61065d3660046130c7565b611498565b34801561066e57600080fd5b506103417ffa4ac835fcfa16c9e62e7bb10d9c714aa0ffb94fecd1dff14e1970e78abf919581565b3480156106a257600080fd5b5061023f6106b1366004613114565b6001600160a01b039182166000908152606a6020908152604080832093909416825291909152205460ff1690565b6102ce6114bd565b3480156106f357600080fd5b506103417f189ab7a9244df0848122154315af71fe140f3db0fe014031783b0946b8c9d2e381565b6000610726826114d8565b92915050565b60606065805461073b9061339f565b80601f01602080910402602001604051908101604052809291908181526020018280546107679061339f565b80156107b45780601f10610789576101008083540402835291602001916107b4565b820191906000526020600020905b81548152906001019060200180831161079757829003601f168201915b5050505050905090565b60006107c9826114fd565b506000908152606960205260409020546001600160a01b031690565b60006107f08261111c565b9050806001600160a01b0316836001600160a01b031614156108635760405162461bcd60e51b815260206004820152602160248201527f4552433732313a20617070726f76616c20746f2063757272656e74206f776e656044820152603960f91b60648201526084015b60405180910390fd5b336001600160a01b038216148061087f575061087f81336106b1565b6108f15760405162461bcd60e51b815260206004820152603e60248201527f4552433732313a20617070726f76652063616c6c6572206973206e6f7420746f60448201527f6b656e206f776e6572206e6f7220617070726f76656420666f7220616c6c0000606482015260840161085a565b6108fb838361155c565b505050565b61090a33826115ca565b6109265760405162461bcd60e51b815260040161085a906133d4565b6108fb838383611649565b60008281526097602052604090206001015461094c816117eb565b6108fb83836117f5565b600061096061187b565b905090565b6001600160a01b03811633146109d55760405162461bcd60e51b815260206004820152602f60248201527f416363657373436f6e74726f6c3a2063616e206f6e6c792072656e6f756e636560448201526e103937b632b9903337b91039b2b63360891b606482015260840161085a565b6109df82826118f6565b5050565b306001600160a01b037f0000000000000000000000000000000000000000000000000000000000000000161415610a2c5760405162461bcd60e51b815260040161085a90613422565b7f00000000000000000000000000000000000000000000000000000000000000006001600160a01b0316610a756000805160206138be833981519152546001600160a01b031690565b6001600160a01b031614610a9b5760405162461bcd60e51b815260040161085a9061346e565b610aa48161195d565b60408051600080825260208201909252610ac091839190611987565b50565b6001600160a01b038216600090815260fe60205260408120610ae59083611b01565b9392505050565b6108fb838383604051806020016040528060008152506112e3565b600054610100900460ff1615808015610b275750600054600160ff909116105b80610b415750303b158015610b41575060005460ff166001145b610ba45760405162461bcd60e51b815260206004820152602e60248201527f496e697469616c697a61626c653a20636f6e747261637420697320616c72656160448201526d191e481a5b9a5d1a585b1a5e995960921b606482015260840161085a565b6000805460ff191660011790558015610bc7576000805461ff0019166101001790555b610c146040518060400160405280600f81526020016e23b7bb32b93730b731b2aa37b5b2b760891b815250604051806040016040528060048152602001636753415960e01b815250611c10565b610c56604051806040016040528060078152602001665341592d44414f60c81b815250604051806040016040528060018152602001603160f81b815250611c41565b610c5e611c72565b610c66611c72565b610c716000336117f5565b610c9b7f189ab7a9244df0848122154315af71fe140f3db0fe014031783b0946b8c9d2e3336117f5565b610cc57ffa4ac835fcfa16c9e62e7bb10d9c714aa0ffb94fecd1dff14e1970e78abf9195846117f5565b6101c680546001600160a01b0319166001600160a01b03841617905580156108fb576000805461ff0019169055604051600181527f7f26b83ff96e1f2b6a682f133852f6798a09c465da95921460cefb38474024989060200160405180910390a1505050565b306001600160a01b037f0000000000000000000000000000000000000000000000000000000000000000161415610d745760405162461bcd60e51b815260040161085a90613422565b7f00000000000000000000000000000000000000000000000000000000000000006001600160a01b0316610dbd6000805160206138be833981519152546001600160a01b031690565b6001600160a01b031614610de35760405162461bcd60e51b815260040161085a9061346e565b610dec8261195d565b6109df82826001611987565b6000306001600160a01b037f00000000000000000000000000000000000000000000000000000000000000001614610e985760405162461bcd60e51b815260206004820152603860248201527f555550535570677261646561626c653a206d757374206e6f742062652063616c60448201527f6c6564207468726f7567682064656c656761746563616c6c0000000000000000606482015260840161085a565b506000805160206138be83398151915290565b336109df8183611c9b565b604051639e60e75360e01b8152600481018490528390839081906000906001600160a01b03831690639e60e75390602401602060405180830381600087803b158015610f0157600080fd5b505af1158015610f15573d6000803e3d6000fd5b505050506040513d601f19601f82011682018060405250810190610f3991906134ba565b905080156110cb576101c65460405163cf1e8fa760e01b81526001600160a01b0390911690600090829063cf1e8fa790610f77908a90600401613546565b60206040518083038186803b158015610f8f57600080fd5b505afa158015610fa3573d6000803e3d6000fd5b505050506040513d601f19601f82011682018060405250810190610fc791906135da565b9050348760200135111561101d5760405162461bcd60e51b815260206004820152601e60248201527f596f75206d757374207061792074686520766f75636865722076616c75650000604482015260640161085a565b61102c6101c580546001019055565b60006110386101c55490565b90506110448282611d0d565b6110536101c580546001019055565b600061105f6101c55490565b905061106b3382611d0d565b604080518a358152602081018490529081018290526001600160a01b03841660608201523360808201527fc21247e7e8f72b583ed1500f6fb2de4267948d89cd06c59d50a71bef5431c2d79060a00160405180910390a150505050611113565b60405162461bcd60e51b815260206004820152601b60248201527f54686973204e656564206973206e6f74206d696e617461626c65210000000000604482015260640161085a565b50505050505050565b6000818152606760205260408120546001600160a01b0316806107265760405162461bcd60e51b8152602060048201526018602482015277115490cdcc8c4e881a5b9d985b1a59081d1bdad95b88125160421b604482015260640161085a565b60006001600160a01b0382166111e65760405162461bcd60e51b815260206004820152602960248201527f4552433732313a2061646472657373207a65726f206973206e6f7420612076616044820152683634b21037bbb732b960b91b606482015260840161085a565b506001600160a01b031660009081526068602052604090205490565b6001600160a01b03811660009081526101006020526040812054610726565b60004382106112725760405162461bcd60e51b815260206004820152601a60248201527f566f7465733a20626c6f636b206e6f7420796574206d696e6564000000000000604482015260640161085a565b61072660ff83611b01565b60009182526097602090815260408084206001600160a01b0393909316845291905290205460ff1690565b60606066805461073b9061339f565b6001600160a01b038116600090815260fe6020526040812061072690611d27565b6109df338383611d83565b6112ed33836115ca565b6113095760405162461bcd60e51b815260040161085a906133d4565b61131584848484611e52565b50505050565b8342111561136b5760405162461bcd60e51b815260206004820152601860248201527f566f7465733a207369676e617475726520657870697265640000000000000000604482015260640161085a565b604080517fe48329057bfd03d55e49b547132e39cffd9c1820ad7b9d4c5307691425d15adf60208201526001600160a01b0388169181019190915260608101869052608081018590526000906113e5906113dd9060a00160405160208183030381529060405280519060200120611e85565b858585611ed3565b90506113f081611efb565b86146114355760405162461bcd60e51b8152602060048201526014602482015273566f7465733a20696e76616c6964206e6f6e636560601b604482015260640161085a565b6111138188611c9b565b606061072682611f24565b7ffa4ac835fcfa16c9e62e7bb10d9c714aa0ffb94fecd1dff14e1970e78abf9195611474816117eb565b506101c680546001600160a01b0319166001600160a01b0392909216919091179055565b6000828152609760205260409020600101546114b3816117eb565b6108fb83836118f6565b6114cc6101c580546001019055565b60006109df6101c55490565b60006001600160e01b03198216637965db0b60e01b1480610726575061072682611f97565b6000818152606760205260409020546001600160a01b0316610ac05760405162461bcd60e51b8152602060048201526018602482015277115490cdcc8c4e881a5b9d985b1a59081d1bdad95b88125160421b604482015260640161085a565b600081815260696020526040902080546001600160a01b0319166001600160a01b03841690811790915581906115918261111c565b6001600160a01b03167f8c5be1e5ebec7d5bd14f71427d1e84f3dd0314c0f7b2291e5b200ac8c7c3b92560405160405180910390a45050565b6000806115d68361111c565b9050806001600160a01b0316846001600160a01b0316148061161d57506001600160a01b038082166000908152606a602090815260408083209388168352929052205460ff165b806116415750836001600160a01b0316611636846107be565b6001600160a01b0316145b949350505050565b826001600160a01b031661165c8261111c565b6001600160a01b0316146116c05760405162461bcd60e51b815260206004820152602560248201527f4552433732313a207472616e736665722066726f6d20696e636f72726563742060448201526437bbb732b960d91b606482015260840161085a565b6001600160a01b0382166117225760405162461bcd60e51b8152602060048201526024808201527f4552433732313a207472616e7366657220746f20746865207a65726f206164646044820152637265737360e01b606482015260840161085a565b61172d60008261155c565b6001600160a01b038316600090815260686020526040812080546001929061175690849061360d565b90915550506001600160a01b0382166000908152606860205260408120805460019290611784908490613624565b909155505060008181526067602052604080822080546001600160a01b0319166001600160a01b0386811691821790925591518493918716917fddf252ad1be2c89b69c2b068fc378daa952ba7f163c4a11628f55a4df523b3ef91a46108fb838383611fe7565b610ac08133611ff2565b6117ff828261127d565b6109df5760008281526097602090815260408083206001600160a01b03851684529091529020805460ff191660011790556118373390565b6001600160a01b0316816001600160a01b0316837f2f8788117e7eff1d82e926ec794901d17c78024a50270940304540a733656f0d60405160405180910390a45050565b60006109607f8b73c3c69bb8fe3d512ecc4cf759cc79239f7b179b0ffacaa9a75d522b39400f6118aa60c95490565b60ca546040805160208101859052908101839052606081018290524660808201523060a082015260009060c0016040516020818303038152906040528051906020012090509392505050565b611900828261127d565b156109df5760008281526097602090815260408083206001600160a01b0385168085529252808320805460ff1916905551339285917ff6391f5c32d9c69d2a47ea670b442974b53935d1edc7fd64eb21e047a839171b9190a45050565b7f189ab7a9244df0848122154315af71fe140f3db0fe014031783b0946b8c9d2e36109df816117eb565b7f4910fdfa16fed3260ed0e7147f7cc6da11a60208b5b9406d12a635614ffd91435460ff16156119ba576108fb83612056565b826001600160a01b03166352d1902d6040518163ffffffff1660e01b815260040160206040518083038186803b1580156119f357600080fd5b505afa925050508015611a23575060408051601f3d908101601f19168201909252611a209181019061363c565b60015b611a865760405162461bcd60e51b815260206004820152602e60248201527f45524331393637557067726164653a206e657720696d706c656d656e7461746960448201526d6f6e206973206e6f74205555505360901b606482015260840161085a565b6000805160206138be8339815191528114611af55760405162461bcd60e51b815260206004820152602960248201527f45524331393637557067726164653a20756e737570706f727465642070726f786044820152681a58589b195555525160ba1b606482015260840161085a565b506108fb8383836120f2565b6000438210611b525760405162461bcd60e51b815260206004820181905260248201527f436865636b706f696e74733a20626c6f636b206e6f7420796574206d696e6564604482015260640161085a565b825460005b81811015611bb7576000611b6b8284612117565b905084866000018281548110611b8357611b83613655565b60009182526020909120015463ffffffff161115611ba357809250611bb1565b611bae816001613624565b91505b50611b57565b8115611bfb5784611bc960018461360d565b81548110611bd957611bd9613655565b60009182526020909120015464010000000090046001600160e01b0316611bfe565b60005b6001600160e01b031695945050505050565b600054610100900460ff16611c375760405162461bcd60e51b815260040161085a9061366b565b6109df8282612132565b600054610100900460ff16611c685760405162461bcd60e51b815260040161085a9061366b565b6109df8282612180565b600054610100900460ff16611c995760405162461bcd60e51b815260040161085a9061366b565b565b6001600160a01b03828116600081815260fd602052604080822080548686166001600160a01b0319821681179092559151919094169392849290917f3134e8a2e6d97e929a7e54011ea5485d7d196dd5f0ba4d4ef95803e8e3fc257f9190a46108fb8183611d08866121c1565b6121cc565b6109df828260405180602001604052806000815250612309565b80546000908015611d705782611d3e60018361360d565b81548110611d4e57611d4e613655565b60009182526020909120015464010000000090046001600160e01b0316611d73565b60005b6001600160e01b03169392505050565b816001600160a01b0316836001600160a01b03161415611de55760405162461bcd60e51b815260206004820152601960248201527f4552433732313a20617070726f766520746f2063616c6c657200000000000000604482015260640161085a565b6001600160a01b038381166000818152606a6020908152604080832094871680845294825291829020805460ff191686151590811790915591519182527f17307eab39ab6107e8899845ad3d59bd9653f200f220920489ca2b5937696c31910160405180910390a3505050565b611e5d848484611649565b611e698484848461233c565b6113155760405162461bcd60e51b815260040161085a906136b6565b6000610726611e9261187b565b8360405161190160f01b6020820152602281018390526042810182905260009060620160405160208183030381529060405280519060200120905092915050565b6000806000611ee487878787612446565b91509150611ef181612533565b5095945050505050565b6001600160a01b0381166000908152610100602052604090208054600181018255905b50919050565b6060611f2f826114fd565b6000611f4660408051602081019091526000815290565b90506000815111611f665760405180602001604052806000815250610ae5565b80611f70846126ee565b604051602001611f81929190613708565b6040516020818303038152906040529392505050565b60006001600160e01b031982166380ac58cd60e01b1480611fc857506001600160e01b03198216635b5e139f60e01b145b8061072657506301ffc9a760e01b6001600160e01b0319831614610726565b6108fb8383836127ec565b611ffc828261127d565b6109df57612014816001600160a01b031660146127f8565b61201f8360206127f8565b604051602001612030929190613737565b60408051601f198184030181529082905262461bcd60e51b825261085a91600401613019565b6001600160a01b0381163b6120c35760405162461bcd60e51b815260206004820152602d60248201527f455243313936373a206e657720696d706c656d656e746174696f6e206973206e60448201526c1bdd08184818dbdb9d1c9858dd609a1b606482015260840161085a565b6000805160206138be83398151915280546001600160a01b0319166001600160a01b0392909216919091179055565b6120fb83612994565b6000825111806121085750805b156108fb5761131583836129d4565b600061212660028484186137c2565b610ae590848416613624565b600054610100900460ff166121595760405162461bcd60e51b815260040161085a9061366b565b815161216c906065906020850190612efe565b5080516108fb906066906020840190612efe565b600054610100900460ff166121a75760405162461bcd60e51b815260040161085a9061366b565b81516020928301208151919092012060c99190915560ca55565b60006107268261117c565b816001600160a01b0316836001600160a01b0316141580156121ee5750600081115b156108fb576001600160a01b0383161561227c576001600160a01b038316600090815260fe60205260408120819061222990612ac885612ad4565b91509150846001600160a01b03167fdec2bacdd2f05b59de34da9b523dff8be42e5e38e818c82fdb0bae774387a7248383604051612271929190918252602082015260400190565b60405180910390a250505b6001600160a01b038216156108fb576001600160a01b038216600090815260fe6020526040812081906122b290612b0285612ad4565b91509150836001600160a01b03167fdec2bacdd2f05b59de34da9b523dff8be42e5e38e818c82fdb0bae774387a72483836040516122fa929190918252602082015260400190565b60405180910390a25050505050565b6123138383612b0e565b612320600084848461233c565b6108fb5760405162461bcd60e51b815260040161085a906136b6565b60006001600160a01b0384163b1561243e57604051630a85bd0160e11b81526001600160a01b0385169063150b7a02906123809033908990889088906004016137d6565b602060405180830381600087803b15801561239a57600080fd5b505af19250505080156123ca575060408051601f3d908101601f191682019092526123c791810190613809565b60015b612424573d8080156123f8576040519150601f19603f3d011682016040523d82523d6000602084013e6123fd565b606091505b50805161241c5760405162461bcd60e51b815260040161085a906136b6565b805181602001fd5b6001600160e01b031916630a85bd0160e11b149050611641565b506001611641565b6000807f7fffffffffffffffffffffffffffffff5d576e7357a4501ddfe92f46681b20a083111561247d575060009050600361252a565b8460ff16601b1415801561249557508460ff16601c14155b156124a6575060009050600461252a565b6040805160008082526020820180845289905260ff881692820192909252606081018690526080810185905260019060a0016020604051602081039080840390855afa1580156124fa573d6000803e3d6000fd5b5050604051601f1901519150506001600160a01b0381166125235760006001925092505061252a565b9150600090505b94509492505050565b600081600481111561254757612547613826565b14156125505750565b600181600481111561256457612564613826565b14156125b25760405162461bcd60e51b815260206004820152601860248201527f45434453413a20696e76616c6964207369676e61747572650000000000000000604482015260640161085a565b60028160048111156125c6576125c6613826565b14156126145760405162461bcd60e51b815260206004820152601f60248201527f45434453413a20696e76616c6964207369676e6174757265206c656e67746800604482015260640161085a565b600381600481111561262857612628613826565b14156126815760405162461bcd60e51b815260206004820152602260248201527f45434453413a20696e76616c6964207369676e6174757265202773272076616c604482015261756560f01b606482015260840161085a565b600481600481111561269557612695613826565b1415610ac05760405162461bcd60e51b815260206004820152602260248201527f45434453413a20696e76616c6964207369676e6174757265202776272076616c604482015261756560f01b606482015260840161085a565b6060816127125750506040805180820190915260018152600360fc1b602082015290565b8160005b811561273c57806127268161383c565b91506127359050600a836137c2565b9150612716565b60008167ffffffffffffffff81111561275757612757613142565b6040519080825280601f01601f191660200182016040528015612781576020820181803683370190505b5090505b84156116415761279660018361360d565b91506127a3600a86613857565b6127ae906030613624565b60f81b8183815181106127c3576127c3613655565b60200101906001600160f81b031916908160001a9053506127e5600a866137c2565b9450612785565b6108fb83836001612c58565b6060600061280783600261386b565b612812906002613624565b67ffffffffffffffff81111561282a5761282a613142565b6040519080825280601f01601f191660200182016040528015612854576020820181803683370190505b509050600360fc1b8160008151811061286f5761286f613655565b60200101906001600160f81b031916908160001a905350600f60fb1b8160018151811061289e5761289e613655565b60200101906001600160f81b031916908160001a90535060006128c284600261386b565b6128cd906001613624565b90505b6001811115612945576f181899199a1a9b1b9c1cb0b131b232b360811b85600f166010811061290157612901613655565b1a60f81b82828151811061291757612917613655565b60200101906001600160f81b031916908160001a90535060049490941c9361293e8161388a565b90506128d0565b508315610ae55760405162461bcd60e51b815260206004820181905260248201527f537472696e67733a20686578206c656e67746820696e73756666696369656e74604482015260640161085a565b61299d81612056565b6040516001600160a01b038216907fbc7cd75a20ee27fd9adebab32041f755214dbc6bffa90cc0225b39da2e5c2d3b90600090a250565b60606001600160a01b0383163b612a3c5760405162461bcd60e51b815260206004820152602660248201527f416464726573733a2064656c65676174652063616c6c20746f206e6f6e2d636f6044820152651b9d1c9858dd60d21b606482015260840161085a565b600080846001600160a01b031684604051612a5791906138a1565b600060405180830381855af49150503d8060008114612a92576040519150601f19603f3d011682016040523d82523d6000602084013e612a97565b606091505b5091509150612abf82826040518060600160405280602781526020016138de60279139612cc8565b95945050505050565b6000610ae5828461360d565b600080612af685612af1612ae788611d27565b868863ffffffff16565b612d01565b91509150935093915050565b6000610ae58284613624565b6001600160a01b038216612b645760405162461bcd60e51b815260206004820181905260248201527f4552433732313a206d696e7420746f20746865207a65726f2061646472657373604482015260640161085a565b6000818152606760205260409020546001600160a01b031615612bc95760405162461bcd60e51b815260206004820152601c60248201527f4552433732313a20746f6b656e20616c7265616479206d696e74656400000000604482015260640161085a565b6001600160a01b0382166000908152606860205260408120805460019290612bf2908490613624565b909155505060008181526067602052604080822080546001600160a01b0319166001600160a01b03861690811790915590518392907fddf252ad1be2c89b69c2b068fc378daa952ba7f163c4a11628f55a4df523b3ef908290a46109df60008383611fe7565b6001600160a01b038316612c7757612c7460ff612b0283612ad4565b50505b6001600160a01b038216612c9657612c9360ff612ac883612ad4565b50505b6001600160a01b03838116600090815260fd60205260408082205485841683529120546108fb929182169116836121cc565b60608315612cd7575081610ae5565b825115612ce75782518084602001fd5b8160405162461bcd60e51b815260040161085a9190613019565b8154600090819081612d1286611d27565b9050600082118015612d5057504386612d2c60018561360d565b81548110612d3c57612d3c613655565b60009182526020909120015463ffffffff16145b15612db057612d5e85612e2c565b86612d6a60018561360d565b81548110612d7a57612d7a613655565b9060005260206000200160000160046101000a8154816001600160e01b0302191690836001600160e01b03160217905550612e1e565b856000016040518060400160405280612dc843612e99565b63ffffffff168152602001612ddc88612e2c565b6001600160e01b0390811690915282546001810184556000938452602093849020835194909301519091166401000000000263ffffffff909316929092179101555b9250839150505b9250929050565b60006001600160e01b03821115612e955760405162461bcd60e51b815260206004820152602760248201527f53616665436173743a2076616c756520646f65736e27742066697420696e20326044820152663234206269747360c81b606482015260840161085a565b5090565b600063ffffffff821115612e955760405162461bcd60e51b815260206004820152602660248201527f53616665436173743a2076616c756520646f65736e27742066697420696e203360448201526532206269747360d01b606482015260840161085a565b828054612f0a9061339f565b90600052602060002090601f016020900481019282612f2c5760008555612f72565b82601f10612f4557805160ff1916838001178555612f72565b82800160010185558215612f72579182015b82811115612f72578251825591602001919060010190612f57565b50612e959291505b80821115612e955760008155600101612f7a565b6001600160e01b031981168114610ac057600080fd5b600060208284031215612fb657600080fd5b8135610ae581612f8e565b60005b83811015612fdc578181015183820152602001612fc4565b838111156113155750506000910152565b60008151808452613005816020860160208601612fc1565b601f01601f19169290920160200192915050565b602081526000610ae56020830184612fed565b60006020828403121561303e57600080fd5b5035919050565b6001600160a01b0381168114610ac057600080fd5b6000806040838503121561306d57600080fd5b823561307881613045565b946020939093013593505050565b60008060006060848603121561309b57600080fd5b83356130a681613045565b925060208401356130b681613045565b929592945050506040919091013590565b600080604083850312156130da57600080fd5b8235915060208301356130ec81613045565b809150509250929050565b60006020828403121561310957600080fd5b8135610ae581613045565b6000806040838503121561312757600080fd5b823561313281613045565b915060208301356130ec81613045565b634e487b7160e01b600052604160045260246000fd5b600082601f83011261316957600080fd5b813567ffffffffffffffff8082111561318457613184613142565b604051601f8301601f19908116603f011681019082821181831017156131ac576131ac613142565b816040528381528660208588010111156131c557600080fd5b836020870160208301376000602085830101528094505050505092915050565b600080604083850312156131f857600080fd5b823561320381613045565b9150602083013567ffffffffffffffff81111561321f57600080fd5b61322b85828601613158565b9150509250929050565b60008060006060848603121561324a57600080fd5b83359250602084013561325c81613045565b9150604084013567ffffffffffffffff81111561327857600080fd5b840160a0818703121561328a57600080fd5b809150509250925092565b8015158114610ac057600080fd5b600080604083850312156132b657600080fd5b82356132c181613045565b915060208301356130ec81613295565b600080600080608085870312156132e757600080fd5b84356132f281613045565b9350602085013561330281613045565b925060408501359150606085013567ffffffffffffffff81111561332557600080fd5b61333187828801613158565b91505092959194509250565b60008060008060008060c0878903121561335657600080fd5b863561336181613045565b95506020870135945060408701359350606087013560ff8116811461338557600080fd5b9598949750929560808101359460a0909101359350915050565b600181811c908216806133b357607f821691505b60208210811415611f1e57634e487b7160e01b600052602260045260246000fd5b6020808252602e908201527f4552433732313a2063616c6c6572206973206e6f7420746f6b656e206f776e6560408201526d1c881b9bdc88185c1c1c9bdd995960921b606082015260800190565b6020808252602c908201527f46756e6374696f6e206d7573742062652063616c6c6564207468726f7567682060408201526b19195b1959d85d1958d85b1b60a21b606082015260800190565b6020808252602c908201527f46756e6374696f6e206d7573742062652063616c6c6564207468726f7567682060408201526b6163746976652070726f787960a01b606082015260800190565b6000602082840312156134cc57600080fd5b8151610ae581613295565b6000808335601e198436030181126134ee57600080fd5b830160208101925035905067ffffffffffffffff81111561350e57600080fd5b803603831315612e2557600080fd5b81835281816020850137506000828201602090810191909152601f909101601f19169091010190565b602081528135602082015260208201356040820152600061356a60408401846134d7565b60a0606085015261357f60c08501828461351d565b91505061358f60608501856134d7565b601f19808685030160808701526135a784838561351d565b93506135b660808801886134d7565b93509150808685030160a0870152506135d083838361351d565b9695505050505050565b6000602082840312156135ec57600080fd5b8151610ae581613045565b634e487b7160e01b600052601160045260246000fd5b60008282101561361f5761361f6135f7565b500390565b60008219821115613637576136376135f7565b500190565b60006020828403121561364e57600080fd5b5051919050565b634e487b7160e01b600052603260045260246000fd5b6020808252602b908201527f496e697469616c697a61626c653a20636f6e7472616374206973206e6f74206960408201526a6e697469616c697a696e6760a81b606082015260800190565b60208082526032908201527f4552433732313a207472616e7366657220746f206e6f6e20455243373231526560408201527131b2b4bb32b91034b6b83632b6b2b73a32b960711b606082015260800190565b6000835161371a818460208801612fc1565b83519083019061372e818360208801612fc1565b01949350505050565b7f416363657373436f6e74726f6c3a206163636f756e742000000000000000000081526000835161376f816017850160208801612fc1565b7001034b99036b4b9b9b4b733903937b6329607d1b60179184019182015283516137a0816028840160208801612fc1565b01602801949350505050565b634e487b7160e01b600052601260045260246000fd5b6000826137d1576137d16137ac565b500490565b6001600160a01b03858116825284166020820152604081018390526080606082018190526000906135d090830184612fed565b60006020828403121561381b57600080fd5b8151610ae581612f8e565b634e487b7160e01b600052602160045260246000fd5b6000600019821415613850576138506135f7565b5060010190565b600082613866576138666137ac565b500690565b6000816000190483118215151615613885576138856135f7565b500290565b600081613899576138996135f7565b506000190190565b600082516138b3818460208701612fc1565b919091019291505056fe360894a13ba1a3210667c828492db98dca3e2076cc3735a920a3ca505d382bbc416464726573733a206c6f772d6c6576656c2064656c65676174652063616c6c206661696c6564a264697066735822122002fc4a5649f59b294f7c19c769a852bf57d594074c65b2bb3a40d707b8cd732264736f6c63430008090033",
  "linkReferences": {},
  "deployedLinkReferences": {}
}