{
  "_format": "hh-sol-artifact-1",
  "contractName": "VerifyVoucher",
  "sourceName": "contracts/tokens/ERC721/VerifyVoucher.sol",
  "abi": [
    {
      "inputs": [],
      "stateMutability": "nonpayable",
      "type": "constructor"
    },
    {
      "anonymous": false,
      "inputs": [
        {
          "indexed": false,
          "internalType": "address",
          "name": "previousAdmin",
          "type": "address"
        },
        {
          "indexed": false,
          "internalType": "address",
          "name": "newAdmin",
          "type": "address"
        }
      ],
      "name": "AdminChanged",
      "type": "event"
    },
    {
      "anonymous": false,
      "inputs": [
        {
          "indexed": true,
          "internalType": "address",
          "name": "beacon",
          "type": "address"
        }
      ],
      "name": "BeaconUpgraded",
      "type": "event"
    },
    {
      "anonymous": false,
      "inputs": [
        {
          "indexed": false,
          "internalType": "string",
          "name": "msg",
          "type": "string"
        }
      ],
      "name": "FallingBack",
      "type": "event"
    },
    {
      "anonymous": false,
      "inputs": [
        {
          "indexed": false,
          "internalType": "uint8",
          "name": "version",
          "type": "uint8"
        }
      ],
      "name": "Initialized",
      "type": "event"
    },
    {
      "anonymous": false,
      "inputs": [
        {
          "indexed": true,
          "internalType": "address",
          "name": "previousOwner",
          "type": "address"
        },
        {
          "indexed": true,
          "internalType": "address",
          "name": "newOwner",
          "type": "address"
        }
      ],
      "name": "OwnershipTransferred",
      "type": "event"
    },
    {
      "anonymous": false,
      "inputs": [
        {
          "indexed": true,
          "internalType": "address",
          "name": "implementation",
          "type": "address"
        }
      ],
      "name": "Upgraded",
      "type": "event"
    },
    {
      "stateMutability": "nonpayable",
      "type": "fallback"
    },
    {
      "inputs": [
        {
          "components": [
            {
              "internalType": "uint256",
              "name": "needId",
              "type": "uint256"
            },
            {
              "internalType": "uint256",
              "name": "mintValue",
              "type": "uint256"
            },
            {
              "internalType": "string",
              "name": "tokenUri",
              "type": "string"
            },
            {
              "internalType": "string",
              "name": "content",
              "type": "string"
            },
            {
              "internalType": "bytes",
              "name": "signature",
              "type": "bytes"
            }
          ],
          "internalType": "struct VerifyVoucher.Voucher",
          "name": "_voucher",
          "type": "tuple"
        }
      ],
      "name": "_verify",
      "outputs": [
        {
          "internalType": "address",
          "name": "",
          "type": "address"
        }
      ],
      "stateMutability": "view",
      "type": "function"
    },
    {
      "inputs": [],
      "name": "getChainID",
      "outputs": [
        {
          "internalType": "uint256",
          "name": "",
          "type": "uint256"
        }
      ],
      "stateMutability": "view",
      "type": "function"
    },
    {
      "inputs": [],
      "name": "initialize",
      "outputs": [],
      "stateMutability": "nonpayable",
      "type": "function"
    },
    {
      "inputs": [],
      "name": "owner",
      "outputs": [
        {
          "internalType": "address",
          "name": "",
          "type": "address"
        }
      ],
      "stateMutability": "view",
      "type": "function"
    },
    {
      "inputs": [],
      "name": "proxiableUUID",
      "outputs": [
        {
          "internalType": "bytes32",
          "name": "",
          "type": "bytes32"
        }
      ],
      "stateMutability": "view",
      "type": "function"
    },
    {
      "inputs": [],
      "name": "renounceOwnership",
      "outputs": [],
      "stateMutability": "nonpayable",
      "type": "function"
    },
    {
      "inputs": [
        {
          "internalType": "address",
          "name": "newOwner",
          "type": "address"
        }
      ],
      "name": "transferOwnership",
      "outputs": [],
      "stateMutability": "nonpayable",
      "type": "function"
    },
    {
      "inputs": [
        {
          "internalType": "address",
          "name": "newImplementation",
          "type": "address"
        }
      ],
      "name": "upgradeTo",
      "outputs": [],
      "stateMutability": "nonpayable",
      "type": "function"
    },
    {
      "inputs": [
        {
          "internalType": "address",
          "name": "newImplementation",
          "type": "address"
        },
        {
          "internalType": "bytes",
          "name": "data",
          "type": "bytes"
        }
      ],
      "name": "upgradeToAndCall",
      "outputs": [],
      "stateMutability": "payable",
      "type": "function"
    }
  ],
  "bytecode": "0x60a06040523060805234801561001457600080fd5b5061001d610022565b6100e2565b600054610100900460ff161561008e5760405162461bcd60e51b815260206004820152602760248201527f496e697469616c697a61626c653a20636f6e747261637420697320696e697469604482015266616c697a696e6760c81b606482015260840160405180910390fd5b60005460ff90811610156100e0576000805460ff191660ff9081179091556040519081527f7f26b83ff96e1f2b6a682f133852f6798a09c465da95921460cefb38474024989060200160405180910390a15b565b6080516113bc610119600039600081816102050152818161024e015281816102ee0152818161032e01526103c101526113bc6000f3fe6080604052600436106100865760003560e01c8063715018a611610059578063715018a61461015e5780638129fc1c146101735780638da5cb5b14610188578063cf1e8fa7146101ba578063f2fde38b146101da57610086565b80633659cfe6146100ee5780634f1ef2861461011057806352d1902d14610123578063564b81ef1461014b575b34801561009257600080fd5b507f206c3a4747cc015c67ea08c7121dfc4e67a3fd32aa695153c0be7feadd9b415b6040516100e4906020808252600f908201526e53746f72652046616c6c204261636b60881b604082015260600190565b60405180910390a1005b3480156100fa57600080fd5b5061010e61010936600461102d565b6101fa565b005b61010e61011e36600461105e565b6102e3565b34801561012f57600080fd5b506101386103b4565b6040519081526020015b60405180910390f35b34801561015757600080fd5b5046610138565b34801561016a57600080fd5b5061010e610467565b34801561017f57600080fd5b5061010e61047b565b34801561019457600080fd5b506033546001600160a01b03165b6040516001600160a01b039091168152602001610142565b3480156101c657600080fd5b506101a26101d5366004611120565b6105c5565b3480156101e657600080fd5b5061010e6101f536600461102d565b610625565b306001600160a01b037f000000000000000000000000000000000000000000000000000000000000000016141561024c5760405162461bcd60e51b81526004016102439061115b565b60405180910390fd5b7f00000000000000000000000000000000000000000000000000000000000000006001600160a01b0316610295600080516020611340833981519152546001600160a01b031690565b6001600160a01b0316146102bb5760405162461bcd60e51b8152600401610243906111a7565b6102c48161069b565b604080516000808252602082019092526102e0918391906106a3565b50565b306001600160a01b037f000000000000000000000000000000000000000000000000000000000000000016141561032c5760405162461bcd60e51b81526004016102439061115b565b7f00000000000000000000000000000000000000000000000000000000000000006001600160a01b0316610375600080516020611340833981519152546001600160a01b031690565b6001600160a01b03161461039b5760405162461bcd60e51b8152600401610243906111a7565b6103a48261069b565b6103b0828260016106a3565b5050565b6000306001600160a01b037f000000000000000000000000000000000000000000000000000000000000000016146104545760405162461bcd60e51b815260206004820152603860248201527f555550535570677261646561626c653a206d757374206e6f742062652063616c60448201527f6c6564207468726f7567682064656c656761746563616c6c00000000000000006064820152608401610243565b5060008051602061134083398151915290565b61046f610822565b610479600061087c565b565b600054610100900460ff161580801561049b5750600054600160ff909116105b806104b55750303b1580156104b5575060005460ff166001145b6105185760405162461bcd60e51b815260206004820152602e60248201527f496e697469616c697a61626c653a20636f6e747261637420697320616c72656160448201526d191e481a5b9a5d1a585b1a5e995960921b6064820152608401610243565b6000805460ff19166001179055801561053b576000805461ff0019166101001790555b61057d604051806040016040528060078152602001665341592d44414f60c81b815250604051806040016040528060018152602001603160f81b8152506108ce565b80156102e0576000805461ff0019169055604051600181527f7f26b83ff96e1f2b6a682f133852f6798a09c465da95921460cefb38474024989060200160405180910390a150565b6000806105d1836108ff565b905061061e816105e460808601866111f3565b8080601f0160208091040260200160405190810160405280939291908181526020018383808284376000920191909152506109bc92505050565b9392505050565b61062d610822565b6001600160a01b0381166106925760405162461bcd60e51b815260206004820152602660248201527f4f776e61626c653a206e6577206f776e657220697320746865207a65726f206160448201526564647265737360d01b6064820152608401610243565b6102e08161087c565b6102e0610822565b7f4910fdfa16fed3260ed0e7147f7cc6da11a60208b5b9406d12a635614ffd91435460ff16156106db576106d6836109e0565b505050565b826001600160a01b03166352d1902d6040518163ffffffff1660e01b815260040160206040518083038186803b15801561071457600080fd5b505afa925050508015610744575060408051601f3d908101601f191682019092526107419181019061123a565b60015b6107a75760405162461bcd60e51b815260206004820152602e60248201527f45524331393637557067726164653a206e657720696d706c656d656e7461746960448201526d6f6e206973206e6f74205555505360901b6064820152608401610243565b60008051602061134083398151915281146108165760405162461bcd60e51b815260206004820152602960248201527f45524331393637557067726164653a20756e737570706f727465642070726f786044820152681a58589b195555525160ba1b6064820152608401610243565b506106d6838383610a7c565b6033546001600160a01b031633146104795760405162461bcd60e51b815260206004820181905260248201527f4f776e61626c653a2063616c6c6572206973206e6f7420746865206f776e65726044820152606401610243565b603380546001600160a01b038381166001600160a01b0319831681179093556040519116919082907f8be0079c531659141344cd1fd0a4f28419497f9722a3daafe3b4186f6b6457e090600090a35050565b600054610100900460ff166108f55760405162461bcd60e51b815260040161024390611253565b6103b08282610aa7565b60006109b67f21562a3e2d7df6de947c3fcdff6d90b9e05b1e927f611ce05f9e59162b4f5c188335602085013561093960408701876111f3565b60405161094792919061129e565b60405190819003902061095d60608801886111f3565b60405161096b92919061129e565b6040805191829003822060208301969096528101939093526060830191909152608082015260a081019190915260c00160405160208183030381529060405280519060200120610ae8565b92915050565b60008060006109cb8585610b36565b915091506109d881610b7c565b509392505050565b6001600160a01b0381163b610a4d5760405162461bcd60e51b815260206004820152602d60248201527f455243313936373a206e657720696d706c656d656e746174696f6e206973206e60448201526c1bdd08184818dbdb9d1c9858dd609a1b6064820152608401610243565b60008051602061134083398151915280546001600160a01b0319166001600160a01b0392909216919091179055565b610a8583610d37565b600082511180610a925750805b156106d657610aa18383610d77565b50505050565b600054610100900460ff16610ace5760405162461bcd60e51b815260040161024390611253565b815160209283012081519190920120606591909155606655565b60006109b6610af5610e6b565b8360405161190160f01b6020820152602281018390526042810182905260009060620160405160208183030381529060405280519060200120905092915050565b600080825160411415610b6d5760208301516040840151606085015160001a610b6187828585610eeb565b94509450505050610b75565b506000905060025b9250929050565b6000816004811115610b9057610b906112ae565b1415610b995750565b6001816004811115610bad57610bad6112ae565b1415610bfb5760405162461bcd60e51b815260206004820152601860248201527f45434453413a20696e76616c6964207369676e617475726500000000000000006044820152606401610243565b6002816004811115610c0f57610c0f6112ae565b1415610c5d5760405162461bcd60e51b815260206004820152601f60248201527f45434453413a20696e76616c6964207369676e6174757265206c656e677468006044820152606401610243565b6003816004811115610c7157610c716112ae565b1415610cca5760405162461bcd60e51b815260206004820152602260248201527f45434453413a20696e76616c6964207369676e6174757265202773272076616c604482015261756560f01b6064820152608401610243565b6004816004811115610cde57610cde6112ae565b14156102e05760405162461bcd60e51b815260206004820152602260248201527f45434453413a20696e76616c6964207369676e6174757265202776272076616c604482015261756560f01b6064820152608401610243565b610d40816109e0565b6040516001600160a01b038216907fbc7cd75a20ee27fd9adebab32041f755214dbc6bffa90cc0225b39da2e5c2d3b90600090a250565b60606001600160a01b0383163b610ddf5760405162461bcd60e51b815260206004820152602660248201527f416464726573733a2064656c65676174652063616c6c20746f206e6f6e2d636f6044820152651b9d1c9858dd60d21b6064820152608401610243565b600080846001600160a01b031684604051610dfa91906112f0565b600060405180830381855af49150503d8060008114610e35576040519150601f19603f3d011682016040523d82523d6000602084013e610e3a565b606091505b5091509150610e62828260405180606001604052806027815260200161136060279139610fd8565b95945050505050565b6000610ee67f8b73c3c69bb8fe3d512ecc4cf759cc79239f7b179b0ffacaa9a75d522b39400f610e9a60655490565b6066546040805160208101859052908101839052606081018290524660808201523060a082015260009060c0016040516020818303038152906040528051906020012090509392505050565b905090565b6000807f7fffffffffffffffffffffffffffffff5d576e7357a4501ddfe92f46681b20a0831115610f225750600090506003610fcf565b8460ff16601b14158015610f3a57508460ff16601c14155b15610f4b5750600090506004610fcf565b6040805160008082526020820180845289905260ff881692820192909252606081018690526080810185905260019060a0016020604051602081039080840390855afa158015610f9f573d6000803e3d6000fd5b5050604051601f1901519150506001600160a01b038116610fc857600060019250925050610fcf565b9150600090505b94509492505050565b60608315610fe757508161061e565b825115610ff75782518084602001fd5b8160405162461bcd60e51b8152600401610243919061130c565b80356001600160a01b038116811461102857600080fd5b919050565b60006020828403121561103f57600080fd5b61061e82611011565b634e487b7160e01b600052604160045260246000fd5b6000806040838503121561107157600080fd5b61107a83611011565b9150602083013567ffffffffffffffff8082111561109757600080fd5b818501915085601f8301126110ab57600080fd5b8135818111156110bd576110bd611048565b604051601f8201601f19908116603f011681019083821181831017156110e5576110e5611048565b816040528281528860208487010111156110fe57600080fd5b8260208601602083013760006020848301015280955050505050509250929050565b60006020828403121561113257600080fd5b813567ffffffffffffffff81111561114957600080fd5b820160a0818503121561061e57600080fd5b6020808252602c908201527f46756e6374696f6e206d7573742062652063616c6c6564207468726f7567682060408201526b19195b1959d85d1958d85b1b60a21b606082015260800190565b6020808252602c908201527f46756e6374696f6e206d7573742062652063616c6c6564207468726f7567682060408201526b6163746976652070726f787960a01b606082015260800190565b6000808335601e1984360301811261120a57600080fd5b83018035915067ffffffffffffffff82111561122557600080fd5b602001915036819003821315610b7557600080fd5b60006020828403121561124c57600080fd5b5051919050565b6020808252602b908201527f496e697469616c697a61626c653a20636f6e7472616374206973206e6f74206960408201526a6e697469616c697a696e6760a81b606082015260800190565b8183823760009101908152919050565b634e487b7160e01b600052602160045260246000fd5b60005b838110156112df5781810151838201526020016112c7565b83811115610aa15750506000910152565b600082516113028184602087016112c4565b9190910192915050565b602081526000825180602084015261132b8160408501602087016112c4565b601f01601f1916919091016040019291505056fe360894a13ba1a3210667c828492db98dca3e2076cc3735a920a3ca505d382bbc416464726573733a206c6f772d6c6576656c2064656c65676174652063616c6c206661696c6564a2646970667358221220fa58745026775857a6d70256e3cb3f38442d665ab139db419c7758f8efa91e9564736f6c63430008090033",
  "linkReferences": {},
  "deployedLinkReferences": {}
}