{
  "_format": "hh-sol-artifact-1",
  "contractName": "Need",
  "sourceName": "contracts/needModule/Need.sol",
  "abi": [
    {
      "inputs": [],
      "stateMutability": "nonpayable",
      "type": "constructor"
    },
    {
      "anonymous": false,
      "inputs": [
        {
          "indexed": false,
          "internalType": "address",
          "name": "previousAdmin",
          "type": "address"
        },
        {
          "indexed": false,
          "internalType": "address",
          "name": "newAdmin",
          "type": "address"
        }
      ],
      "name": "AdminChanged",
      "type": "event"
    },
    {
      "anonymous": false,
      "inputs": [
        {
          "indexed": true,
          "internalType": "address",
          "name": "beacon",
          "type": "address"
        }
      ],
      "name": "BeaconUpgraded",
      "type": "event"
    },
    {
      "anonymous": false,
      "inputs": [
        {
          "indexed": false,
          "internalType": "uint8",
          "name": "version",
          "type": "uint8"
        }
      ],
      "name": "Initialized",
      "type": "event"
    },
    {
      "anonymous": false,
      "inputs": [
        {
          "indexed": false,
          "internalType": "uint256",
          "name": "needId",
          "type": "uint256"
        },
        {
          "indexed": false,
          "internalType": "address",
          "name": "auditor",
          "type": "address"
        },
        {
          "indexed": false,
          "internalType": "address",
          "name": "familyMember",
          "type": "address"
        },
        {
          "indexed": false,
          "internalType": "address",
          "name": "socialWorker",
          "type": "address"
        },
        {
          "indexed": false,
          "internalType": "uint256",
          "name": "mintAmount",
          "type": "uint256"
        },
        {
          "indexed": false,
          "internalType": "address",
          "name": "friend",
          "type": "address"
        }
      ],
      "name": "Minted",
      "type": "event"
    },
    {
      "anonymous": false,
      "inputs": [
        {
          "indexed": true,
          "internalType": "bytes32",
          "name": "role",
          "type": "bytes32"
        },
        {
          "indexed": true,
          "internalType": "bytes32",
          "name": "previousAdminRole",
          "type": "bytes32"
        },
        {
          "indexed": true,
          "internalType": "bytes32",
          "name": "newAdminRole",
          "type": "bytes32"
        }
      ],
      "name": "RoleAdminChanged",
      "type": "event"
    },
    {
      "anonymous": false,
      "inputs": [
        {
          "indexed": true,
          "internalType": "bytes32",
          "name": "role",
          "type": "bytes32"
        },
        {
          "indexed": true,
          "internalType": "address",
          "name": "account",
          "type": "address"
        },
        {
          "indexed": true,
          "internalType": "address",
          "name": "sender",
          "type": "address"
        }
      ],
      "name": "RoleGranted",
      "type": "event"
    },
    {
      "anonymous": false,
      "inputs": [
        {
          "indexed": true,
          "internalType": "bytes32",
          "name": "role",
          "type": "bytes32"
        },
        {
          "indexed": true,
          "internalType": "address",
          "name": "account",
          "type": "address"
        },
        {
          "indexed": true,
          "internalType": "address",
          "name": "sender",
          "type": "address"
        }
      ],
      "name": "RoleRevoked",
      "type": "event"
    },
    {
      "anonymous": false,
      "inputs": [
        {
          "indexed": true,
          "internalType": "address",
          "name": "implementation",
          "type": "address"
        }
      ],
      "name": "Upgraded",
      "type": "event"
    },
    {
      "inputs": [],
      "name": "DEFAULT_ADMIN_ROLE",
      "outputs": [
        {
          "internalType": "bytes32",
          "name": "",
          "type": "bytes32"
        }
      ],
      "stateMutability": "view",
      "type": "function"
    },
    {
      "inputs": [],
      "name": "TIME_LOCK_ROLE",
      "outputs": [
        {
          "internalType": "bytes32",
          "name": "",
          "type": "bytes32"
        }
      ],
      "stateMutability": "view",
      "type": "function"
    },
    {
      "inputs": [],
      "name": "UPGRADER_ROLE",
      "outputs": [
        {
          "internalType": "bytes32",
          "name": "",
          "type": "bytes32"
        }
      ],
      "stateMutability": "view",
      "type": "function"
    },
    {
      "inputs": [],
      "name": "fetchNeedRatio",
      "outputs": [
        {
          "internalType": "uint256",
          "name": "",
          "type": "uint256"
        }
      ],
      "stateMutability": "view",
      "type": "function"
    },
    {
      "inputs": [
        {
          "internalType": "bytes32",
          "name": "role",
          "type": "bytes32"
        }
      ],
      "name": "getRoleAdmin",
      "outputs": [
        {
          "internalType": "bytes32",
          "name": "",
          "type": "bytes32"
        }
      ],
      "stateMutability": "view",
      "type": "function"
    },
    {
      "inputs": [
        {
          "internalType": "bytes32",
          "name": "role",
          "type": "bytes32"
        },
        {
          "internalType": "address",
          "name": "account",
          "type": "address"
        }
      ],
      "name": "grantRole",
      "outputs": [],
      "stateMutability": "nonpayable",
      "type": "function"
    },
    {
      "inputs": [
        {
          "internalType": "bytes32",
          "name": "role",
          "type": "bytes32"
        },
        {
          "internalType": "address",
          "name": "account",
          "type": "address"
        }
      ],
      "name": "hasRole",
      "outputs": [
        {
          "internalType": "bool",
          "name": "",
          "type": "bool"
        }
      ],
      "stateMutability": "view",
      "type": "function"
    },
    {
      "inputs": [
        {
          "internalType": "address",
          "name": "_needStorageAddress",
          "type": "address"
        },
        {
          "internalType": "address",
          "name": "_voucherAddress",
          "type": "address"
        },
        {
          "internalType": "address",
          "name": "_timeLockAddress",
          "type": "address"
        }
      ],
      "name": "initialize",
      "outputs": [],
      "stateMutability": "nonpayable",
      "type": "function"
    },
    {
      "inputs": [
        {
          "components": [
            {
              "internalType": "uint256",
              "name": "needId",
              "type": "uint256"
            },
            {
              "components": [
                {
                  "internalType": "uint256",
                  "name": "ngoId",
                  "type": "uint256"
                },
                {
                  "internalType": "string",
                  "name": "name",
                  "type": "string"
                },
                {
                  "internalType": "string",
                  "name": "url",
                  "type": "string"
                }
              ],
              "internalType": "struct NeedStorage.NGO",
              "name": "ngo",
              "type": "tuple"
            },
            {
              "components": [
                {
                  "internalType": "uint256",
                  "name": "id",
                  "type": "uint256"
                },
                {
                  "internalType": "enum NeedStorage.ContributorType",
                  "name": "role",
                  "type": "uint8"
                },
                {
                  "components": [
                    {
                      "internalType": "uint256",
                      "name": "ngoId",
                      "type": "uint256"
                    },
                    {
                      "internalType": "string",
                      "name": "name",
                      "type": "string"
                    },
                    {
                      "internalType": "string",
                      "name": "url",
                      "type": "string"
                    }
                  ],
                  "internalType": "struct NeedStorage.NGO",
                  "name": "ngo",
                  "type": "tuple"
                },
                {
                  "internalType": "address",
                  "name": "wallet",
                  "type": "address"
                }
              ],
              "internalType": "struct NeedStorage.Contributor",
              "name": "socialWorker",
              "type": "tuple"
            },
            {
              "components": [
                {
                  "internalType": "uint256",
                  "name": "id",
                  "type": "uint256"
                },
                {
                  "internalType": "enum NeedStorage.ContributorType",
                  "name": "role",
                  "type": "uint8"
                },
                {
                  "components": [
                    {
                      "internalType": "uint256",
                      "name": "ngoId",
                      "type": "uint256"
                    },
                    {
                      "internalType": "string",
                      "name": "name",
                      "type": "string"
                    },
                    {
                      "internalType": "string",
                      "name": "url",
                      "type": "string"
                    }
                  ],
                  "internalType": "struct NeedStorage.NGO",
                  "name": "ngo",
                  "type": "tuple"
                },
                {
                  "internalType": "address",
                  "name": "wallet",
                  "type": "address"
                }
              ],
              "internalType": "struct NeedStorage.Contributor",
              "name": "auditor",
              "type": "tuple"
            },
            {
              "components": [
                {
                  "internalType": "uint256",
                  "name": "id",
                  "type": "uint256"
                },
                {
                  "internalType": "enum NeedStorage.ContributorType",
                  "name": "role",
                  "type": "uint8"
                },
                {
                  "components": [
                    {
                      "internalType": "uint256",
                      "name": "ngoId",
                      "type": "uint256"
                    },
                    {
                      "internalType": "string",
                      "name": "name",
                      "type": "string"
                    },
                    {
                      "internalType": "string",
                      "name": "url",
                      "type": "string"
                    }
                  ],
                  "internalType": "struct NeedStorage.NGO",
                  "name": "ngo",
                  "type": "tuple"
                },
                {
                  "internalType": "address",
                  "name": "wallet",
                  "type": "address"
                }
              ],
              "internalType": "struct NeedStorage.Contributor",
              "name": "purchaser",
              "type": "tuple"
            },
            {
              "components": [
                {
                  "internalType": "address",
                  "name": "wallet",
                  "type": "address"
                }
              ],
              "internalType": "struct NeedStorage.Miner",
              "name": "minter",
              "type": "tuple"
            },
            {
              "components": [
                {
                  "internalType": "string",
                  "name": "SayName",
                  "type": "string"
                },
                {
                  "internalType": "string",
                  "name": "voiceIpfsHash",
                  "type": "string"
                },
                {
                  "internalType": "string",
                  "name": "avatarIpfsHash",
                  "type": "string"
                }
              ],
              "internalType": "struct NeedStorage.TheChild",
              "name": "child",
              "type": "tuple"
            },
            {
              "components": [
                {
                  "internalType": "string",
                  "name": "name",
                  "type": "string"
                },
                {
                  "internalType": "string",
                  "name": "url",
                  "type": "string"
                }
              ],
              "internalType": "struct NeedStorage.ServiceProvider",
              "name": "serviceProvider",
              "type": "tuple"
            },
            {
              "components": [
                {
                  "internalType": "enum NeedStorage.NeedType",
                  "name": "needType",
                  "type": "uint8"
                },
                {
                  "internalType": "enum NeedStorage.NeedDifficulty",
                  "name": "difficulty",
                  "type": "uint8"
                },
                {
                  "internalType": "uint256",
                  "name": "transparency",
                  "type": "uint256"
                },
                {
                  "internalType": "uint256",
                  "name": "socialWorkerShare",
                  "type": "uint256"
                },
                {
                  "internalType": "uint256",
                  "name": "auditorShare",
                  "type": "uint256"
                },
                {
                  "internalType": "uint256",
                  "name": "purchaserShare",
                  "type": "uint256"
                },
                {
                  "internalType": "string[]",
                  "name": "IpfsReceipts",
                  "type": "string[]"
                }
              ],
              "internalType": "struct NeedStorage.NeedDetails",
              "name": "details",
              "type": "tuple"
            }
          ],
          "internalType": "struct NeedStorage.Need",
          "name": "need",
          "type": "tuple"
        },
        {
          "components": [
            {
              "components": [
                {
                  "internalType": "uint256",
                  "name": "needId",
                  "type": "uint256"
                },
                {
                  "components": [
                    {
                      "internalType": "uint256",
                      "name": "ngoId",
                      "type": "uint256"
                    },
                    {
                      "internalType": "string",
                      "name": "name",
                      "type": "string"
                    },
                    {
                      "internalType": "string",
                      "name": "url",
                      "type": "string"
                    }
                  ],
                  "internalType": "struct NeedStorage.NGO",
                  "name": "ngo",
                  "type": "tuple"
                },
                {
                  "components": [
                    {
                      "internalType": "uint256",
                      "name": "id",
                      "type": "uint256"
                    },
                    {
                      "internalType": "enum NeedStorage.ContributorType",
                      "name": "role",
                      "type": "uint8"
                    },
                    {
                      "components": [
                        {
                          "internalType": "uint256",
                          "name": "ngoId",
                          "type": "uint256"
                        },
                        {
                          "internalType": "string",
                          "name": "name",
                          "type": "string"
                        },
                        {
                          "internalType": "string",
                          "name": "url",
                          "type": "string"
                        }
                      ],
                      "internalType": "struct NeedStorage.NGO",
                      "name": "ngo",
                      "type": "tuple"
                    },
                    {
                      "internalType": "address",
                      "name": "wallet",
                      "type": "address"
                    }
                  ],
                  "internalType": "struct NeedStorage.Contributor",
                  "name": "socialWorker",
                  "type": "tuple"
                },
                {
                  "components": [
                    {
                      "internalType": "uint256",
                      "name": "id",
                      "type": "uint256"
                    },
                    {
                      "internalType": "enum NeedStorage.ContributorType",
                      "name": "role",
                      "type": "uint8"
                    },
                    {
                      "components": [
                        {
                          "internalType": "uint256",
                          "name": "ngoId",
                          "type": "uint256"
                        },
                        {
                          "internalType": "string",
                          "name": "name",
                          "type": "string"
                        },
                        {
                          "internalType": "string",
                          "name": "url",
                          "type": "string"
                        }
                      ],
                      "internalType": "struct NeedStorage.NGO",
                      "name": "ngo",
                      "type": "tuple"
                    },
                    {
                      "internalType": "address",
                      "name": "wallet",
                      "type": "address"
                    }
                  ],
                  "internalType": "struct NeedStorage.Contributor",
                  "name": "auditor",
                  "type": "tuple"
                },
                {
                  "components": [
                    {
                      "internalType": "uint256",
                      "name": "id",
                      "type": "uint256"
                    },
                    {
                      "internalType": "enum NeedStorage.ContributorType",
                      "name": "role",
                      "type": "uint8"
                    },
                    {
                      "components": [
                        {
                          "internalType": "uint256",
                          "name": "ngoId",
                          "type": "uint256"
                        },
                        {
                          "internalType": "string",
                          "name": "name",
                          "type": "string"
                        },
                        {
                          "internalType": "string",
                          "name": "url",
                          "type": "string"
                        }
                      ],
                      "internalType": "struct NeedStorage.NGO",
                      "name": "ngo",
                      "type": "tuple"
                    },
                    {
                      "internalType": "address",
                      "name": "wallet",
                      "type": "address"
                    }
                  ],
                  "internalType": "struct NeedStorage.Contributor",
                  "name": "purchaser",
                  "type": "tuple"
                },
                {
                  "components": [
                    {
                      "internalType": "address",
                      "name": "wallet",
                      "type": "address"
                    }
                  ],
                  "internalType": "struct NeedStorage.Miner",
                  "name": "minter",
                  "type": "tuple"
                },
                {
                  "components": [
                    {
                      "internalType": "string",
                      "name": "SayName",
                      "type": "string"
                    },
                    {
                      "internalType": "string",
                      "name": "voiceIpfsHash",
                      "type": "string"
                    },
                    {
                      "internalType": "string",
                      "name": "avatarIpfsHash",
                      "type": "string"
                    }
                  ],
                  "internalType": "struct NeedStorage.TheChild",
                  "name": "child",
                  "type": "tuple"
                },
                {
                  "components": [
                    {
                      "internalType": "string",
                      "name": "name",
                      "type": "string"
                    },
                    {
                      "internalType": "string",
                      "name": "url",
                      "type": "string"
                    }
                  ],
                  "internalType": "struct NeedStorage.ServiceProvider",
                  "name": "serviceProvider",
                  "type": "tuple"
                },
                {
                  "components": [
                    {
                      "internalType": "enum NeedStorage.NeedType",
                      "name": "needType",
                      "type": "uint8"
                    },
                    {
                      "internalType": "enum NeedStorage.NeedDifficulty",
                      "name": "difficulty",
                      "type": "uint8"
                    },
                    {
                      "internalType": "uint256",
                      "name": "transparency",
                      "type": "uint256"
                    },
                    {
                      "internalType": "uint256",
                      "name": "socialWorkerShare",
                      "type": "uint256"
                    },
                    {
                      "internalType": "uint256",
                      "name": "auditorShare",
                      "type": "uint256"
                    },
                    {
                      "internalType": "uint256",
                      "name": "purchaserShare",
                      "type": "uint256"
                    },
                    {
                      "internalType": "string[]",
                      "name": "IpfsReceipts",
                      "type": "string[]"
                    }
                  ],
                  "internalType": "struct NeedStorage.NeedDetails",
                  "name": "details",
                  "type": "tuple"
                }
              ],
              "internalType": "struct NeedStorage.Need",
              "name": "need",
              "type": "tuple"
            },
            {
              "internalType": "bytes",
              "name": "signature",
              "type": "bytes"
            },
            {
              "internalType": "uint256",
              "name": "mintAmount",
              "type": "uint256"
            },
            {
              "internalType": "string",
              "name": "content",
              "type": "string"
            }
          ],
          "internalType": "struct NeedStorage.SocialWorkerVoucher",
          "name": "voucher",
          "type": "tuple"
        }
      ],
      "name": "mint",
      "outputs": [],
      "stateMutability": "payable",
      "type": "function"
    },
    {
      "inputs": [],
      "name": "needStorage",
      "outputs": [
        {
          "internalType": "contract NeedStorage",
          "name": "",
          "type": "address"
        }
      ],
      "stateMutability": "view",
      "type": "function"
    },
    {
      "inputs": [],
      "name": "needStorageAddress",
      "outputs": [
        {
          "internalType": "address",
          "name": "",
          "type": "address"
        }
      ],
      "stateMutability": "view",
      "type": "function"
    },
    {
      "inputs": [],
      "name": "proxiableUUID",
      "outputs": [
        {
          "internalType": "bytes32",
          "name": "",
          "type": "bytes32"
        }
      ],
      "stateMutability": "view",
      "type": "function"
    },
    {
      "inputs": [
        {
          "internalType": "bytes32",
          "name": "role",
          "type": "bytes32"
        },
        {
          "internalType": "address",
          "name": "account",
          "type": "address"
        }
      ],
      "name": "renounceRole",
      "outputs": [],
      "stateMutability": "nonpayable",
      "type": "function"
    },
    {
      "inputs": [
        {
          "internalType": "bytes32",
          "name": "role",
          "type": "bytes32"
        },
        {
          "internalType": "address",
          "name": "account",
          "type": "address"
        }
      ],
      "name": "revokeRole",
      "outputs": [],
      "stateMutability": "nonpayable",
      "type": "function"
    },
    {
      "inputs": [
        {
          "internalType": "bytes4",
          "name": "interfaceId",
          "type": "bytes4"
        }
      ],
      "name": "supportsInterface",
      "outputs": [
        {
          "internalType": "bool",
          "name": "",
          "type": "bool"
        }
      ],
      "stateMutability": "view",
      "type": "function"
    },
    {
      "inputs": [
        {
          "internalType": "uint256",
          "name": "newRatio",
          "type": "uint256"
        }
      ],
      "name": "updateNeedRatio",
      "outputs": [],
      "stateMutability": "nonpayable",
      "type": "function"
    },
    {
      "inputs": [
        {
          "internalType": "address",
          "name": "newImplementation",
          "type": "address"
        }
      ],
      "name": "upgradeTo",
      "outputs": [],
      "stateMutability": "nonpayable",
      "type": "function"
    },
    {
      "inputs": [
        {
          "internalType": "address",
          "name": "newImplementation",
          "type": "address"
        },
        {
          "internalType": "bytes",
          "name": "data",
          "type": "bytes"
        }
      ],
      "name": "upgradeToAndCall",
      "outputs": [],
      "stateMutability": "payable",
      "type": "function"
    },
    {
      "inputs": [],
      "name": "voucherAddress",
      "outputs": [
        {
          "internalType": "address",
          "name": "",
          "type": "address"
        }
      ],
      "stateMutability": "view",
      "type": "function"
    }
  ],
  "bytecode": "0x60a0604052306080523480156200001557600080fd5b506200002062000026565b620000e8565b600054610100900460ff1615620000935760405162461bcd60e51b815260206004820152602760248201527f496e697469616c697a61626c653a20636f6e747261637420697320696e697469604482015266616c697a696e6760c81b606482015260840160405180910390fd5b60005460ff9081161015620000e6576000805460ff191660ff9081179091556040519081527f7f26b83ff96e1f2b6a682f133852f6798a09c465da95921460cefb38474024989060200160405180910390a15b565b60805161257f620001206000396000818161053f0152818161057f0152818161061f0152818161065f01526106ee015261257f6000f3fe6080604052600436106101135760003560e01c80634f1ef286116100a0578063c0c53b8b11610064578063c0c53b8b146102f5578063cda7e7ba14610315578063d547741f14610349578063e2375f2314610369578063f72c0d8b1461037e57600080fd5b80634f1ef2861461028557806352d1902d146102985780635e316633146102ad57806391d14854146102c0578063a217fddf146102e057600080fd5b80632b678b52116100e75780632b678b52146101e35780632f2ff15d146102055780632f5adc521461022557806336568abe146102455780633659cfe61461026557600080fd5b806294b0b91461011857806301ffc9a714610155578063100575b214610185578063248a9ca3146101a5575b600080fd5b34801561012457600080fd5b5060fb54610138906001600160a01b031681565b6040516001600160a01b0390911681526020015b60405180910390f35b34801561016157600080fd5b5061017561017036600461150c565b6103b2565b604051901515815260200161014c565b34801561019157600080fd5b5060fd54610138906001600160a01b031681565b3480156101b157600080fd5b506101d56101c0366004611536565b60009081526065602052604090206001015490565b60405190815260200161014c565b3480156101ef57600080fd5b506102036101fe366004611536565b6103e9565b005b34801561021157600080fd5b50610203610220366004611564565b610487565b34801561023157600080fd5b5060fc54610138906001600160a01b031681565b34801561025157600080fd5b50610203610260366004611564565b6104b1565b34801561027157600080fd5b50610203610280366004611594565b610534565b6102036102933660046116f5565b610614565b3480156102a457600080fd5b506101d56106e1565b6102036102bb366004611c03565b610794565b3480156102cc57600080fd5b506101756102db366004611564565b610b2d565b3480156102ec57600080fd5b506101d5600081565b34801561030157600080fd5b50610203610310366004611c62565b610b58565b34801561032157600080fd5b506101d57f51f7cbaceb42eeb75cf97e030c803852f4c737abd110974f97c5041520a281fd81565b34801561035557600080fd5b50610203610364366004611564565b610d1d565b34801561037557600080fd5b506101d5610d42565b34801561038a57600080fd5b506101d57f189ab7a9244df0848122154315af71fe140f3db0fe014031783b0946b8c9d2e381565b60006001600160e01b03198216637965db0b60e01b14806103e357506301ffc9a760e01b6001600160e01b03198316145b92915050565b7f51f7cbaceb42eeb75cf97e030c803852f4c737abd110974f97c5041520a281fd61041381610dc4565b60fb5460fc80546001600160a01b0319166001600160a01b039092169182179055604051631dc41af160e21b8152600481018490526377106bc490602401600060405180830381600087803b15801561046b57600080fd5b505af115801561047f573d6000803e3d6000fd5b505050505050565b6000828152606560205260409020600101546104a281610dc4565b6104ac8383610dce565b505050565b6001600160a01b03811633146105265760405162461bcd60e51b815260206004820152602f60248201527f416363657373436f6e74726f6c3a2063616e206f6e6c792072656e6f756e636560448201526e103937b632b9903337b91039b2b63360891b60648201526084015b60405180910390fd5b6105308282610e54565b5050565b306001600160a01b037f000000000000000000000000000000000000000000000000000000000000000016141561057d5760405162461bcd60e51b815260040161051d90611cad565b7f00000000000000000000000000000000000000000000000000000000000000006001600160a01b03166105c6600080516020612503833981519152546001600160a01b031690565b6001600160a01b0316146105ec5760405162461bcd60e51b815260040161051d90611cf9565b6105f581610ebb565b6040805160008082526020820190925261061191839190610ee5565b50565b306001600160a01b037f000000000000000000000000000000000000000000000000000000000000000016141561065d5760405162461bcd60e51b815260040161051d90611cad565b7f00000000000000000000000000000000000000000000000000000000000000006001600160a01b03166106a6600080516020612503833981519152546001600160a01b031690565b6001600160a01b0316146106cc5760405162461bcd60e51b815260040161051d90611cf9565b6106d582610ebb565b61053082826001610ee5565b6000306001600160a01b037f000000000000000000000000000000000000000000000000000000000000000016146107815760405162461bcd60e51b815260206004820152603860248201527f555550535570677261646561626c653a206d757374206e6f742062652063616c60448201527f6c6564207468726f7567682064656c656761746563616c6c0000000000000000606482015260840161051d565b5060008051602061250383398151915290565b8161079e82611d45565b81516001146107ef5760405162461bcd60e51b815260206004820152601b60248201527f4f6e6c7920746865206f776e65722063616e20646f20746869732e0000000000604482015260640161051d565b60fd546040516311a011cf60e11b81526001600160a01b03909116906000908290632340239e9061082490889060040161216f565b60206040518083038186803b15801561083c57600080fd5b505afa158015610850573d6000803e3d6000fd5b505050506040513d601f19601f820116820180604052508101906108749190612313565b90506001600160a01b03811661088a8680612330565b610898906040810190612351565b6108a9906080810190606001611594565b6001600160a01b0316146108f75760405162461bcd60e51b81526020600482015260156024820152744e6f74207369676e65642062792066616d696c792160581b604482015260640161051d565b348560400135111561094b5760405162461bcd60e51b815260206004820152601e60248201527f596f75206d757374207061792074686520766f75636865722076616c75650000604482015260640161051d565b60fb546040805163c5f956af60e01b815290516000926001600160a01b03169163c5f956af916004808301926020929190829003018186803b15801561099057600080fd5b505afa1580156109a4573d6000803e3d6000fd5b505050506040513d601f19601f820116820180604052508101906109c89190612313565b9050806001600160a01b0316633772c4996040518163ffffffff1660e01b8152600401602060405180830381600087803b158015610a0557600080fd5b505af1158015610a19573d6000803e3d6000fd5b505050506040513d601f19601f82011682018060405250810190610a3d9190612367565b507f52c73fb5d6c0ed309cde603c1a94ed040d9d3b30f6119654bd5db5f0046d835c610a698780612330565b35610a748880612330565b610a82906060810190612351565b610a93906080810190606001611594565b610a9d8980612330565b610aab906080810190612351565b610abc906080810190606001611594565b610ac68a80612330565b610ad4906040810190612351565b610ae5906080810190606001611594565b604080519485526001600160a01b03938416602086015291831684830152909116606083015288013560808201523360a082015260c00160405180910390a150505050505050565b60009182526065602090815260408084206001600160a01b0393909316845291905290205460ff1690565b600054610100900460ff1615808015610b785750600054600160ff909116105b80610b925750303b158015610b92575060005460ff166001145b610bf55760405162461bcd60e51b815260206004820152602e60248201527f496e697469616c697a61626c653a20636f6e747261637420697320616c72656160448201526d191e481a5b9a5d1a585b1a5e995960921b606482015260840161051d565b6000805460ff191660011790558015610c18576000805461ff0019166101001790555b60fb80546001600160a01b038087166001600160a01b03199283161790925560fd805492861692909116919091179055610c5061105f565b610c5b600033610dce565b610c857f189ab7a9244df0848122154315af71fe140f3db0fe014031783b0946b8c9d2e333610dce565b610caf7f51f7cbaceb42eeb75cf97e030c803852f4c737abd110974f97c5041520a281fd83610dce565b60fb5460fc80546001600160a01b0319166001600160a01b039092169190911790558015610d17576000805461ff0019169055604051600181527f7f26b83ff96e1f2b6a682f133852f6798a09c465da95921460cefb38474024989060200160405180910390a15b50505050565b600082815260656020526040902060010154610d3881610dc4565b6104ac8383610e54565b60fc5460408051630765c3c560e21b815290516000926001600160a01b031691631d970f14916004808301926020929190829003018186803b158015610d8757600080fd5b505afa158015610d9b573d6000803e3d6000fd5b505050506040513d601f19601f82011682018060405250810190610dbf9190612389565b905090565b61061181336110cc565b610dd88282610b2d565b6105305760008281526065602090815260408083206001600160a01b03851684529091529020805460ff19166001179055610e103390565b6001600160a01b0316816001600160a01b0316837f2f8788117e7eff1d82e926ec794901d17c78024a50270940304540a733656f0d60405160405180910390a45050565b610e5e8282610b2d565b156105305760008281526065602090815260408083206001600160a01b0385168085529252808320805460ff1916905551339285917ff6391f5c32d9c69d2a47ea670b442974b53935d1edc7fd64eb21e047a839171b9190a45050565b7f189ab7a9244df0848122154315af71fe140f3db0fe014031783b0946b8c9d2e361053081610dc4565b7f4910fdfa16fed3260ed0e7147f7cc6da11a60208b5b9406d12a635614ffd91435460ff1615610f18576104ac83611125565b826001600160a01b03166352d1902d6040518163ffffffff1660e01b815260040160206040518083038186803b158015610f5157600080fd5b505afa925050508015610f81575060408051601f3d908101601f19168201909252610f7e91810190612389565b60015b610fe45760405162461bcd60e51b815260206004820152602e60248201527f45524331393637557067726164653a206e657720696d706c656d656e7461746960448201526d6f6e206973206e6f74205555505360901b606482015260840161051d565b60008051602061250383398151915281146110535760405162461bcd60e51b815260206004820152602960248201527f45524331393637557067726164653a20756e737570706f727465642070726f786044820152681a58589b195555525160ba1b606482015260840161051d565b506104ac8383836111c1565b600054610100900460ff166110ca5760405162461bcd60e51b815260206004820152602b60248201527f496e697469616c697a61626c653a20636f6e7472616374206973206e6f74206960448201526a6e697469616c697a696e6760a81b606482015260840161051d565b565b6110d68282610b2d565b610530576110e3816111e6565b6110ee8360206111f8565b6040516020016110ff9291906123ce565b60408051601f198184030181529082905262461bcd60e51b825261051d91600401612443565b6001600160a01b0381163b6111925760405162461bcd60e51b815260206004820152602d60248201527f455243313936373a206e657720696d706c656d656e746174696f6e206973206e60448201526c1bdd08184818dbdb9d1c9858dd609a1b606482015260840161051d565b60008051602061250383398151915280546001600160a01b0319166001600160a01b0392909216919091179055565b6111ca8361139a565b6000825111806111d75750805b156104ac57610d1783836113da565b60606103e36001600160a01b03831660145b6060600061120783600261248c565b6112129060026124ab565b6001600160401b03811115611229576112296115b1565b6040519080825280601f01601f191660200182016040528015611253576020820181803683370190505b509050600360fc1b8160008151811061126e5761126e6124c3565b60200101906001600160f81b031916908160001a905350600f60fb1b8160018151811061129d5761129d6124c3565b60200101906001600160f81b031916908160001a90535060006112c184600261248c565b6112cc9060016124ab565b90505b6001811115611344576f181899199a1a9b1b9c1cb0b131b232b360811b85600f1660108110611300576113006124c3565b1a60f81b828281518110611316576113166124c3565b60200101906001600160f81b031916908160001a90535060049490941c9361133d816124d9565b90506112cf565b5083156113935760405162461bcd60e51b815260206004820181905260248201527f537472696e67733a20686578206c656e67746820696e73756666696369656e74604482015260640161051d565b9392505050565b6113a381611125565b6040516001600160a01b038216907fbc7cd75a20ee27fd9adebab32041f755214dbc6bffa90cc0225b39da2e5c2d3b90600090a250565b60606001600160a01b0383163b6114425760405162461bcd60e51b815260206004820152602660248201527f416464726573733a2064656c65676174652063616c6c20746f206e6f6e2d636f6044820152651b9d1c9858dd60d21b606482015260840161051d565b600080846001600160a01b03168460405161145d91906124f0565b600060405180830381855af49150503d8060008114611498576040519150601f19603f3d011682016040523d82523d6000602084013e61149d565b606091505b50915091506114c58282604051806060016040528060278152602001612523602791396114ce565b95945050505050565b606083156114dd575081611393565b61139383838151156114f25781518083602001fd5b8060405162461bcd60e51b815260040161051d9190612443565b60006020828403121561151e57600080fd5b81356001600160e01b03198116811461139357600080fd5b60006020828403121561154857600080fd5b5035919050565b6001600160a01b038116811461061157600080fd5b6000806040838503121561157757600080fd5b8235915060208301356115898161154f565b809150509250929050565b6000602082840312156115a657600080fd5b81356113938161154f565b634e487b7160e01b600052604160045260246000fd5b604051606081016001600160401b03811182821017156115e9576115e96115b1565b60405290565b604051608081016001600160401b03811182821017156115e9576115e96115b1565b60405160e081016001600160401b03811182821017156115e9576115e96115b1565b60405161012081016001600160401b03811182821017156115e9576115e96115b1565b604051601f8201601f191681016001600160401b038111828210171561167e5761167e6115b1565b604052919050565b600082601f83011261169757600080fd5b81356001600160401b038111156116b0576116b06115b1565b6116c3601f8201601f1916602001611656565b8181528460208386010111156116d857600080fd5b816020850160208301376000918101602001919091529392505050565b6000806040838503121561170857600080fd5b82356117138161154f565b915060208301356001600160401b0381111561172e57600080fd5b61173a85828601611686565b9150509250929050565b60006060828403121561175657600080fd5b61175e6115c7565b90508135815260208201356001600160401b038082111561177e57600080fd5b61178a85838601611686565b602084015260408401359150808211156117a357600080fd5b506117b084828501611686565b60408301525092915050565b8035600681106117cb57600080fd5b919050565b6000608082840312156117e257600080fd5b6117ea6115ef565b9050813581526117fc602083016117bc565b602082015260408201356001600160401b0381111561181a57600080fd5b61182684828501611744565b604083015250606082013561183a8161154f565b606082015292915050565b60006020828403121561185757600080fd5b604051602081018181106001600160401b0382111715611879576118796115b1565b604052905080823561188a8161154f565b905292915050565b6000606082840312156118a457600080fd5b6118ac6115c7565b905081356001600160401b03808211156118c557600080fd5b6118d185838601611686565b8352602084013591508082111561177e57600080fd5b6000604082840312156118f957600080fd5b604051604081016001600160401b03828210818311171561191c5761191c6115b1565b81604052829350843591508082111561193457600080fd5b61194086838701611686565b8352602085013591508082111561195657600080fd5b5061196385828601611686565b6020830152505092915050565b8035600281106117cb57600080fd5b8035600381106117cb57600080fd5b600082601f83011261199f57600080fd5b813560206001600160401b03808311156119bb576119bb6115b1565b8260051b6119ca838201611656565b93845285810183019383810190888611156119e457600080fd5b84880192505b85831015611a2057823584811115611a025760008081fd5b611a108a87838c0101611686565b83525091840191908401906119ea565b98975050505050505050565b600060e08284031215611a3e57600080fd5b611a46611611565b9050611a5182611970565b8152611a5f6020830161197f565b602082015260408201356040820152606082013560608201526080820135608082015260a082013560a082015260c08201356001600160401b03811115611aa557600080fd5b611ab18482850161198e565b60c08301525092915050565b60006101208284031215611ad057600080fd5b611ad8611633565b90508135815260208201356001600160401b0380821115611af857600080fd5b611b0485838601611744565b60208401526040840135915080821115611b1d57600080fd5b611b29858386016117d0565b60408401526060840135915080821115611b4257600080fd5b611b4e858386016117d0565b60608401526080840135915080821115611b6757600080fd5b611b73858386016117d0565b6080840152611b858560a08601611845565b60a084015260c0840135915080821115611b9e57600080fd5b611baa85838601611892565b60c084015260e0840135915080821115611bc357600080fd5b611bcf858386016118e7565b60e084015261010091508184013581811115611bea57600080fd5b611bf686828701611a2c565b8385015250505092915050565b60008060408385031215611c1657600080fd5b82356001600160401b0380821115611c2d57600080fd5b611c3986838701611abd565b93506020850135915080821115611c4f57600080fd5b5083016080818603121561158957600080fd5b600080600060608486031215611c7757600080fd5b8335611c828161154f565b92506020840135611c928161154f565b91506040840135611ca28161154f565b809150509250925092565b6020808252602c908201527f46756e6374696f6e206d7573742062652063616c6c6564207468726f7567682060408201526b19195b1959d85d1958d85b1b60a21b606082015260800190565b6020808252602c908201527f46756e6374696f6e206d7573742062652063616c6c6564207468726f7567682060408201526b6163746976652070726f787960a01b606082015260800190565b600060808236031215611d5757600080fd5b611d5f6115ef565b82356001600160401b0380821115611d7657600080fd5b611d8236838701611abd565b83526020850135915080821115611d9857600080fd5b611da436838701611686565b6020840152604085013560408401526060850135915080821115611dc757600080fd5b50611dd436828601611686565b60608301525092915050565b60008235605e19833603018112611df657600080fd5b90910192915050565b6000808335601e19843603018112611e1657600080fd5b83016020810192503590506001600160401b03811115611e3557600080fd5b803603831315611e4457600080fd5b9250929050565b81835281816020850137506000828201602090810191909152601f909101601f19169091010190565b803582526000611e876020830183611dff565b60606020860152611e9c606086018284611e4b565b915050611eac6040840184611dff565b8583036040870152611ebf838284611e4b565b9695505050505050565b60008235607e19833603018112611df657600080fd5b634e487b7160e01b600052602160045260246000fd5b803582526000611f07602083016117bc565b60068110611f1757611f17611edf565b6020840152611f296040830183611de0565b60806040850152611f3d6080850182611e74565b90506060830135611f4d8161154f565b6001600160a01b0316606094909401939093525090919050565b8035611f728161154f565b6001600160a01b031690915250565b6000611f8d8283611dff565b60608552611f9f606086018284611e4b565b915050611faf6020840184611dff565b8583036020870152611fc2838284611e4b565b92505050611eac6040840184611dff565b60008235603e19833603018112611df657600080fd5b6000611ff58283611dff565b60408552612007604086018284611e4b565b9150506120176020840184611dff565b8583036020870152611ebf838284611e4b565b6000823560de19833603018112611df657600080fd5b6000808335601e1984360301811261205757600080fd5b83016020810192503590506001600160401b0381111561207657600080fd5b8060051b3603831315611e4457600080fd5b81835260006020808501808196508560051b810191508460005b878110156120d85782840389526120b98288611dff565b6120c4868284611e4b565b9a87019a95505050908401906001016120a2565b5091979650505050505050565b60006120f082611970565b6002811061210057612100611edf565b835261210e6020830161197f565b6003811061211e5761211e611edf565b8060208501525060408201356040840152606082013560608401526080820135608084015260a082013560a084015261215a60c0830183612040565b60e060c08601526114c560e086018284612088565b602081526000823561011e1984360301811261218a57600080fd5b838101905060806020840152803560a08401526121aa6020820182611de0565b6101208060c08601526121c16101c0860183611e74565b91506121d06040840184611ec9565b609f19808785030160e08801526121e78483611ef5565b93506121f66060860186611ec9565b915061010081888603018189015261220e8584611ef5565b945061221d6080870187611ec9565b92508188860301848901526122328584611ef5565b9450612245610140890160a08801611f67565b61225260c0870187611de0565b935081888603016101608901526122698585611f81565b945061227860e0870187611fd3565b9350818886030161018089015261228f8585611fe9565b945061229d8187018761202a565b95505080878503016101a08801525050506122b881836120e5565b9150506122c86020850185611dff565b601f19808685030160408701526122e0848385611e4b565b9350604087013560608701526122f96060880188611dff565b935091508086850301608087015250611ebf838383611e4b565b60006020828403121561232557600080fd5b81516113938161154f565b6000823561011e1983360301811261234757600080fd5b9190910192915050565b60008235607e1983360301811261234757600080fd5b60006020828403121561237957600080fd5b8151801515811461139357600080fd5b60006020828403121561239b57600080fd5b5051919050565b60005b838110156123bd5781810151838201526020016123a5565b83811115610d175750506000910152565b7f416363657373436f6e74726f6c3a206163636f756e74200000000000000000008152600083516124068160178501602088016123a2565b7001034b99036b4b9b9b4b733903937b6329607d1b60179184019182015283516124378160288401602088016123a2565b01602801949350505050565b60208152600082518060208401526124628160408501602087016123a2565b601f01601f19169190910160400192915050565b634e487b7160e01b600052601160045260246000fd5b60008160001904831182151516156124a6576124a6612476565b500290565b600082198211156124be576124be612476565b500190565b634e487b7160e01b600052603260045260246000fd5b6000816124e8576124e8612476565b506000190190565b600082516123478184602087016123a256fe360894a13ba1a3210667c828492db98dca3e2076cc3735a920a3ca505d382bbc416464726573733a206c6f772d6c6576656c2064656c65676174652063616c6c206661696c6564a2646970667358221220e0201fe9456bbc3acb7e0692a7b563a80e10921f0f15627bc3ae60d49ec969b464736f6c63430008090033",
  "linkReferences": {},
  "deployedLinkReferences": {}
}