{
  "_format": "hh-sol-artifact-1",
  "contractName": "Need",
  "sourceName": "contracts/needModule/Need.sol",
  "abi": [
    {
      "inputs": [],
      "stateMutability": "nonpayable",
      "type": "constructor"
    },
    {
      "anonymous": false,
      "inputs": [
        {
          "indexed": false,
          "internalType": "address",
          "name": "previousAdmin",
          "type": "address"
        },
        {
          "indexed": false,
          "internalType": "address",
          "name": "newAdmin",
          "type": "address"
        }
      ],
      "name": "AdminChanged",
      "type": "event"
    },
    {
      "anonymous": false,
      "inputs": [
        {
          "indexed": true,
          "internalType": "address",
          "name": "beacon",
          "type": "address"
        }
      ],
      "name": "BeaconUpgraded",
      "type": "event"
    },
    {
      "anonymous": false,
      "inputs": [
        {
          "indexed": false,
          "internalType": "uint8",
          "name": "version",
          "type": "uint8"
        }
      ],
      "name": "Initialized",
      "type": "event"
    },
    {
      "anonymous": false,
      "inputs": [
        {
          "indexed": true,
          "internalType": "bytes32",
          "name": "role",
          "type": "bytes32"
        },
        {
          "indexed": true,
          "internalType": "bytes32",
          "name": "previousAdminRole",
          "type": "bytes32"
        },
        {
          "indexed": true,
          "internalType": "bytes32",
          "name": "newAdminRole",
          "type": "bytes32"
        }
      ],
      "name": "RoleAdminChanged",
      "type": "event"
    },
    {
      "anonymous": false,
      "inputs": [
        {
          "indexed": true,
          "internalType": "bytes32",
          "name": "role",
          "type": "bytes32"
        },
        {
          "indexed": true,
          "internalType": "address",
          "name": "account",
          "type": "address"
        },
        {
          "indexed": true,
          "internalType": "address",
          "name": "sender",
          "type": "address"
        }
      ],
      "name": "RoleGranted",
      "type": "event"
    },
    {
      "anonymous": false,
      "inputs": [
        {
          "indexed": true,
          "internalType": "bytes32",
          "name": "role",
          "type": "bytes32"
        },
        {
          "indexed": true,
          "internalType": "address",
          "name": "account",
          "type": "address"
        },
        {
          "indexed": true,
          "internalType": "address",
          "name": "sender",
          "type": "address"
        }
      ],
      "name": "RoleRevoked",
      "type": "event"
    },
    {
      "anonymous": false,
      "inputs": [
        {
          "indexed": true,
          "internalType": "address",
          "name": "implementation",
          "type": "address"
        }
      ],
      "name": "Upgraded",
      "type": "event"
    },
    {
      "inputs": [],
      "name": "DEFAULT_ADMIN_ROLE",
      "outputs": [
        {
          "internalType": "bytes32",
          "name": "",
          "type": "bytes32"
        }
      ],
      "stateMutability": "view",
      "type": "function"
    },
    {
      "inputs": [],
      "name": "TIME_LOCK_ROLE",
      "outputs": [
        {
          "internalType": "bytes32",
          "name": "",
          "type": "bytes32"
        }
      ],
      "stateMutability": "view",
      "type": "function"
    },
    {
      "inputs": [],
      "name": "UPGRADER_ROLE",
      "outputs": [
        {
          "internalType": "bytes32",
          "name": "",
          "type": "bytes32"
        }
      ],
      "stateMutability": "view",
      "type": "function"
    },
    {
      "inputs": [],
      "name": "fetchNeedRatio",
      "outputs": [
        {
          "internalType": "string",
          "name": "",
          "type": "string"
        }
      ],
      "stateMutability": "view",
      "type": "function"
    },
    {
      "inputs": [
        {
          "internalType": "bytes32",
          "name": "role",
          "type": "bytes32"
        }
      ],
      "name": "getRoleAdmin",
      "outputs": [
        {
          "internalType": "bytes32",
          "name": "",
          "type": "bytes32"
        }
      ],
      "stateMutability": "view",
      "type": "function"
    },
    {
      "inputs": [
        {
          "internalType": "bytes32",
          "name": "role",
          "type": "bytes32"
        },
        {
          "internalType": "address",
          "name": "account",
          "type": "address"
        }
      ],
      "name": "grantRole",
      "outputs": [],
      "stateMutability": "nonpayable",
      "type": "function"
    },
    {
      "inputs": [
        {
          "internalType": "bytes32",
          "name": "role",
          "type": "bytes32"
        },
        {
          "internalType": "address",
          "name": "account",
          "type": "address"
        }
      ],
      "name": "hasRole",
      "outputs": [
        {
          "internalType": "bool",
          "name": "",
          "type": "bool"
        }
      ],
      "stateMutability": "view",
      "type": "function"
    },
    {
      "inputs": [
        {
          "internalType": "string",
          "name": "ratio",
          "type": "string"
        },
        {
          "internalType": "address",
          "name": "timeLock",
          "type": "address"
        }
      ],
      "name": "initialize",
      "outputs": [],
      "stateMutability": "nonpayable",
      "type": "function"
    },
    {
      "inputs": [
        {
          "internalType": "uint256",
          "name": "_needId",
          "type": "uint256"
        }
      ],
      "name": "isNeedMintable",
      "outputs": [
        {
          "internalType": "bool",
          "name": "",
          "type": "bool"
        }
      ],
      "stateMutability": "pure",
      "type": "function"
    },
    {
      "inputs": [],
      "name": "proxiableUUID",
      "outputs": [
        {
          "internalType": "bytes32",
          "name": "",
          "type": "bytes32"
        }
      ],
      "stateMutability": "view",
      "type": "function"
    },
    {
      "inputs": [
        {
          "internalType": "bytes32",
          "name": "role",
          "type": "bytes32"
        },
        {
          "internalType": "address",
          "name": "account",
          "type": "address"
        }
      ],
      "name": "renounceRole",
      "outputs": [],
      "stateMutability": "nonpayable",
      "type": "function"
    },
    {
      "inputs": [
        {
          "internalType": "bytes32",
          "name": "role",
          "type": "bytes32"
        },
        {
          "internalType": "address",
          "name": "account",
          "type": "address"
        }
      ],
      "name": "revokeRole",
      "outputs": [],
      "stateMutability": "nonpayable",
      "type": "function"
    },
    {
      "inputs": [
        {
          "internalType": "address",
          "name": "_address",
          "type": "address"
        },
        {
          "internalType": "bool",
          "name": "_isOperator",
          "type": "bool"
        }
      ],
      "name": "setOperator",
      "outputs": [],
      "stateMutability": "nonpayable",
      "type": "function"
    },
    {
      "inputs": [
        {
          "internalType": "bytes4",
          "name": "interfaceId",
          "type": "bytes4"
        }
      ],
      "name": "supportsInterface",
      "outputs": [
        {
          "internalType": "bool",
          "name": "",
          "type": "bool"
        }
      ],
      "stateMutability": "view",
      "type": "function"
    },
    {
      "inputs": [
        {
          "internalType": "string",
          "name": "newRatio",
          "type": "string"
        }
      ],
      "name": "updateNeedRatio",
      "outputs": [],
      "stateMutability": "nonpayable",
      "type": "function"
    },
    {
      "inputs": [
        {
          "internalType": "address",
          "name": "newImplementation",
          "type": "address"
        }
      ],
      "name": "upgradeTo",
      "outputs": [],
      "stateMutability": "nonpayable",
      "type": "function"
    },
    {
      "inputs": [
        {
          "internalType": "address",
          "name": "newImplementation",
          "type": "address"
        },
        {
          "internalType": "bytes",
          "name": "data",
          "type": "bytes"
        }
      ],
      "name": "upgradeToAndCall",
      "outputs": [],
      "stateMutability": "payable",
      "type": "function"
    }
  ],
  "bytecode": "0x60a06040523060805234801561001457600080fd5b5061001d610022565b6100e2565b600054610100900460ff161561008e5760405162461bcd60e51b815260206004820152602760248201527f496e697469616c697a61626c653a20636f6e747261637420697320696e697469604482015266616c697a696e6760c81b606482015260840160405180910390fd5b60005460ff90811610156100e0576000805460ff191660ff9081179091556040519081527f7f26b83ff96e1f2b6a682f133852f6798a09c465da95921460cefb38474024989060200160405180910390a15b565b6080516116976101196000396000818161043d0152818161047d0152818161051d0152818161055d01526105ec01526116976000f3fe6080604052600436106100fe5760003560e01c80637ab4339d11610095578063cda7e7ba11610064578063cda7e7ba14610296578063cebf5c2e146102ca578063d547741f146102ea578063e2375f231461030a578063f72c0d8b1461032c57600080fd5b80637ab4339d1461022057806391d14854146102405780639e60e75314610260578063a217fddf1461028157600080fd5b80633659cfe6116100d15780633659cfe6146101b85780634f1ef286146101d857806352d1902d146101eb578063558a72971461020057600080fd5b806301ffc9a714610103578063248a9ca3146101385780632f2ff15d1461017657806336568abe14610198575b600080fd5b34801561010f57600080fd5b5061012361011e366004611132565b61034e565b60405190151581526020015b60405180910390f35b34801561014457600080fd5b5061016861015336600461115c565b60009081526065602052604090206001015490565b60405190815260200161012f565b34801561018257600080fd5b50610196610191366004611191565b610385565b005b3480156101a457600080fd5b506101966101b3366004611191565b6103af565b3480156101c457600080fd5b506101966101d33660046111bd565b610432565b6101966101e6366004611264565b610512565b3480156101f757600080fd5b506101686105df565b34801561020c57600080fd5b5061019661021b3660046112c6565b610692565b34801561022c57600080fd5b5061019661023b366004611322565b6106d6565b34801561024c57600080fd5b5061012361025b366004611191565b610849565b34801561026c57600080fd5b5061012361027b36600461115c565b50600190565b34801561028d57600080fd5b50610168600081565b3480156102a257600080fd5b506101687f51f7cbaceb42eeb75cf97e030c803852f4c737abd110974f97c5041520a281fd81565b3480156102d657600080fd5b506101966102e5366004611367565b610874565b3480156102f657600080fd5b50610196610305366004611191565b6108b1565b34801561031657600080fd5b5061031f6108d6565b60405161012f91906113d0565b34801561033857600080fd5b506101686000805160206115fb83398151915281565b60006001600160e01b03198216637965db0b60e01b148061037f57506301ffc9a760e01b6001600160e01b03198316145b92915050565b6000828152606560205260409020600101546103a081610968565b6103aa8383610972565b505050565b6001600160a01b03811633146104245760405162461bcd60e51b815260206004820152602f60248201527f416363657373436f6e74726f6c3a2063616e206f6e6c792072656e6f756e636560448201526e103937b632b9903337b91039b2b63360891b60648201526084015b60405180910390fd5b61042e82826109f8565b5050565b306001600160a01b037f000000000000000000000000000000000000000000000000000000000000000016141561047b5760405162461bcd60e51b815260040161041b90611403565b7f00000000000000000000000000000000000000000000000000000000000000006001600160a01b03166104c460008051602061161b833981519152546001600160a01b031690565b6001600160a01b0316146104ea5760405162461bcd60e51b815260040161041b9061144f565b6104f381610a5f565b6040805160008082526020820190925261050f91839190610a77565b50565b306001600160a01b037f000000000000000000000000000000000000000000000000000000000000000016141561055b5760405162461bcd60e51b815260040161041b90611403565b7f00000000000000000000000000000000000000000000000000000000000000006001600160a01b03166105a460008051602061161b833981519152546001600160a01b031690565b6001600160a01b0316146105ca5760405162461bcd60e51b815260040161041b9061144f565b6105d382610a5f565b61042e82826001610a77565b6000306001600160a01b037f0000000000000000000000000000000000000000000000000000000000000000161461067f5760405162461bcd60e51b815260206004820152603860248201527f555550535570677261646561626c653a206d757374206e6f742062652063616c60448201527f6c6564207468726f7567682064656c656761746563616c6c0000000000000000606482015260840161041b565b5060008051602061161b83398151915290565b6000805160206115fb8339815191526106aa81610968565b506001600160a01b0391909116600090815260fd60205260409020805460ff1916911515919091179055565b600054610100900460ff16158080156106f65750600054600160ff909116105b806107105750303b158015610710575060005460ff166001145b6107735760405162461bcd60e51b815260206004820152602e60248201527f496e697469616c697a61626c653a20636f6e747261637420697320616c72656160448201526d191e481a5b9a5d1a585b1a5e995960921b606482015260840161041b565b6000805460ff191660011790558015610796576000805461ff0019166101001790555b61079e610bf1565b6107a9600033610972565b6107c16000805160206115fb83398151915233610972565b6107eb7f51f7cbaceb42eeb75cf97e030c803852f4c737abd110974f97c5041520a281fd83610972565b82516107fe9060fb906020860190611099565b5080156103aa576000805461ff0019169055604051600181527f7f26b83ff96e1f2b6a682f133852f6798a09c465da95921460cefb38474024989060200160405180910390a1505050565b60009182526065602090815260408084206001600160a01b0393909316845291905290205460ff1690565b7f51f7cbaceb42eeb75cf97e030c803852f4c737abd110974f97c5041520a281fd61089e81610968565b81516103aa9060fb906020850190611099565b6000828152606560205260409020600101546108cc81610968565b6103aa83836109f8565b606060fb80546108e59061149b565b80601f01602080910402602001604051908101604052809291908181526020018280546109119061149b565b801561095e5780601f106109335761010080835404028352916020019161095e565b820191906000526020600020905b81548152906001019060200180831161094157829003601f168201915b5050505050905090565b61050f8133610c5e565b61097c8282610849565b61042e5760008281526065602090815260408083206001600160a01b03851684529091529020805460ff191660011790556109b43390565b6001600160a01b0316816001600160a01b0316837f2f8788117e7eff1d82e926ec794901d17c78024a50270940304540a733656f0d60405160405180910390a45050565b610a028282610849565b1561042e5760008281526065602090815260408083206001600160a01b0385168085529252808320805460ff1916905551339285917ff6391f5c32d9c69d2a47ea670b442974b53935d1edc7fd64eb21e047a839171b9190a45050565b6000805160206115fb83398151915261042e81610968565b7f4910fdfa16fed3260ed0e7147f7cc6da11a60208b5b9406d12a635614ffd91435460ff1615610aaa576103aa83610cc2565b826001600160a01b03166352d1902d6040518163ffffffff1660e01b815260040160206040518083038186803b158015610ae357600080fd5b505afa925050508015610b13575060408051601f3d908101601f19168201909252610b10918101906114d6565b60015b610b765760405162461bcd60e51b815260206004820152602e60248201527f45524331393637557067726164653a206e657720696d706c656d656e7461746960448201526d6f6e206973206e6f74205555505360901b606482015260840161041b565b60008051602061161b8339815191528114610be55760405162461bcd60e51b815260206004820152602960248201527f45524331393637557067726164653a20756e737570706f727465642070726f786044820152681a58589b195555525160ba1b606482015260840161041b565b506103aa838383610d5e565b600054610100900460ff16610c5c5760405162461bcd60e51b815260206004820152602b60248201527f496e697469616c697a61626c653a20636f6e7472616374206973206e6f74206960448201526a6e697469616c697a696e6760a81b606482015260840161041b565b565b610c688282610849565b61042e57610c80816001600160a01b03166014610d89565b610c8b836020610d89565b604051602001610c9c9291906114ef565b60408051601f198184030181529082905262461bcd60e51b825261041b916004016113d0565b6001600160a01b0381163b610d2f5760405162461bcd60e51b815260206004820152602d60248201527f455243313936373a206e657720696d706c656d656e746174696f6e206973206e60448201526c1bdd08184818dbdb9d1c9858dd609a1b606482015260840161041b565b60008051602061161b83398151915280546001600160a01b0319166001600160a01b0392909216919091179055565b610d6783610f2c565b600082511180610d745750805b156103aa57610d838383610f6c565b50505050565b60606000610d9883600261157a565b610da3906002611599565b67ffffffffffffffff811115610dbb57610dbb6111d8565b6040519080825280601f01601f191660200182016040528015610de5576020820181803683370190505b509050600360fc1b81600081518110610e0057610e006115b1565b60200101906001600160f81b031916908160001a905350600f60fb1b81600181518110610e2f57610e2f6115b1565b60200101906001600160f81b031916908160001a9053506000610e5384600261157a565b610e5e906001611599565b90505b6001811115610ed6576f181899199a1a9b1b9c1cb0b131b232b360811b85600f1660108110610e9257610e926115b1565b1a60f81b828281518110610ea857610ea86115b1565b60200101906001600160f81b031916908160001a90535060049490941c93610ecf816115c7565b9050610e61565b508315610f255760405162461bcd60e51b815260206004820181905260248201527f537472696e67733a20686578206c656e67746820696e73756666696369656e74604482015260640161041b565b9392505050565b610f3581610cc2565b6040516001600160a01b038216907fbc7cd75a20ee27fd9adebab32041f755214dbc6bffa90cc0225b39da2e5c2d3b90600090a250565b60606001600160a01b0383163b610fd45760405162461bcd60e51b815260206004820152602660248201527f416464726573733a2064656c65676174652063616c6c20746f206e6f6e2d636f6044820152651b9d1c9858dd60d21b606482015260840161041b565b600080846001600160a01b031684604051610fef91906115de565b600060405180830381855af49150503d806000811461102a576040519150601f19603f3d011682016040523d82523d6000602084013e61102f565b606091505b5091509150611057828260405180606001604052806027815260200161163b60279139611060565b95945050505050565b6060831561106f575081610f25565b82511561107f5782518084602001fd5b8160405162461bcd60e51b815260040161041b91906113d0565b8280546110a59061149b565b90600052602060002090601f0160209004810192826110c7576000855561110d565b82601f106110e057805160ff191683800117855561110d565b8280016001018555821561110d579182015b8281111561110d5782518255916020019190600101906110f2565b5061111992915061111d565b5090565b5b80821115611119576000815560010161111e565b60006020828403121561114457600080fd5b81356001600160e01b031981168114610f2557600080fd5b60006020828403121561116e57600080fd5b5035919050565b80356001600160a01b038116811461118c57600080fd5b919050565b600080604083850312156111a457600080fd5b823591506111b460208401611175565b90509250929050565b6000602082840312156111cf57600080fd5b610f2582611175565b634e487b7160e01b600052604160045260246000fd5b600067ffffffffffffffff80841115611209576112096111d8565b604051601f8501601f19908116603f01168101908282118183101715611231576112316111d8565b8160405280935085815286868601111561124a57600080fd5b858560208301376000602087830101525050509392505050565b6000806040838503121561127757600080fd5b61128083611175565b9150602083013567ffffffffffffffff81111561129c57600080fd5b8301601f810185136112ad57600080fd5b6112bc858235602084016111ee565b9150509250929050565b600080604083850312156112d957600080fd5b6112e283611175565b9150602083013580151581146112f757600080fd5b809150509250929050565b600082601f83011261131357600080fd5b610f25838335602085016111ee565b6000806040838503121561133557600080fd5b823567ffffffffffffffff81111561134c57600080fd5b61135885828601611302565b9250506111b460208401611175565b60006020828403121561137957600080fd5b813567ffffffffffffffff81111561139057600080fd5b61139c84828501611302565b949350505050565b60005b838110156113bf5781810151838201526020016113a7565b83811115610d835750506000910152565b60208152600082518060208401526113ef8160408501602087016113a4565b601f01601f19169190910160400192915050565b6020808252602c908201527f46756e6374696f6e206d7573742062652063616c6c6564207468726f7567682060408201526b19195b1959d85d1958d85b1b60a21b606082015260800190565b6020808252602c908201527f46756e6374696f6e206d7573742062652063616c6c6564207468726f7567682060408201526b6163746976652070726f787960a01b606082015260800190565b600181811c908216806114af57607f821691505b602082108114156114d057634e487b7160e01b600052602260045260246000fd5b50919050565b6000602082840312156114e857600080fd5b5051919050565b7f416363657373436f6e74726f6c3a206163636f756e74200000000000000000008152600083516115278160178501602088016113a4565b7001034b99036b4b9b9b4b733903937b6329607d1b60179184019182015283516115588160288401602088016113a4565b01602801949350505050565b634e487b7160e01b600052601160045260246000fd5b600081600019048311821515161561159457611594611564565b500290565b600082198211156115ac576115ac611564565b500190565b634e487b7160e01b600052603260045260246000fd5b6000816115d6576115d6611564565b506000190190565b600082516115f08184602087016113a4565b919091019291505056fe189ab7a9244df0848122154315af71fe140f3db0fe014031783b0946b8c9d2e3360894a13ba1a3210667c828492db98dca3e2076cc3735a920a3ca505d382bbc416464726573733a206c6f772d6c6576656c2064656c65676174652063616c6c206661696c6564a264697066735822122015fadb6195e685c6dcd484af25305e6bbaca6708d40fd99692b95407d60ecd3f64736f6c63430008090033",
  "linkReferences": {},
  "deployedLinkReferences": {}
}