{
  "_format": "hh-sol-artifact-1",
  "contractName": "Helpers",
  "sourceName": "contracts/Helpers.sol",
  "abi": [
    {
      "inputs": [
        {
          "internalType": "address",
          "name": "tokenAddress",
          "type": "address"
        }
      ],
      "name": "getTokenDecimals",
      "outputs": [
        {
          "internalType": "uint8",
          "name": "",
          "type": "uint8"
        }
      ],
      "stateMutability": "view",
      "type": "function"
    },
    {
      "inputs": [
        {
          "internalType": "address",
          "name": "tokenAddress",
          "type": "address"
        }
      ],
      "name": "getTokenSymbol",
      "outputs": [
        {
          "internalType": "string",
          "name": "",
          "type": "string"
        }
      ],
      "stateMutability": "view",
      "type": "function"
    }
  ],
  "bytecode": "0x61041f61003a600b82828239805160001a60731461002d57634e487b7160e01b600052600060045260246000fd5b30600052607381538281f3fe73000000000000000000000000000000000000000030146080604052600436106100405760003560e01c8063785c7cf61461004557806381a73ad51461006f575b600080fd5b610058610053366004610277565b61008f565b60405160ff90911681526020015b60405180910390f35b61008261007d366004610277565b610186565b60405161006691906102d0565b600080829050806001600160a01b031663313ce5676040518163ffffffff1660e01b815260040160206040518083038186803b1580156100ce57600080fd5b505afa9250505080156100fe575060408051601f3d908101601f191682019092526100fb91810190610303565b60015b61017f573d80801561012c576040519150601f19603f3d011682016040523d82523d6000602084013e610131565b606091505b5060405162461bcd60e51b815260206004820152601960248201527f43616e6e6f742067657420746f6b656e20646563696d616c730000000000000060448201526064015b60405180910390fd5b9392505050565b60606000829050806001600160a01b03166395d89b416040518163ffffffff1660e01b815260040160006040518083038186803b1580156101c657600080fd5b505afa9250505080156101fb57506040513d6000823e601f3d908101601f191682016040526101f8919081019061033c565b60015b61017f573d808015610229576040519150601f19603f3d011682016040523d82523d6000602084013e61022e565b606091505b5060405162461bcd60e51b815260206004820152601760248201527f43616e6e6f742067657420746f6b656e2073796d626f6c0000000000000000006044820152606401610176565b60006020828403121561028957600080fd5b81356001600160a01b038116811461017f57600080fd5b60005b838110156102bb5781810151838201526020016102a3565b838111156102ca576000848401525b50505050565b60208152600082518060208401526102ef8160408501602087016102a0565b601f01601f19169190910160400192915050565b60006020828403121561031557600080fd5b815160ff8116811461017f57600080fd5b634e487b7160e01b600052604160045260246000fd5b60006020828403121561034e57600080fd5b815167ffffffffffffffff8082111561036657600080fd5b818401915084601f83011261037a57600080fd5b81518181111561038c5761038c610326565b604051601f8201601f19908116603f011681019083821181831017156103b4576103b4610326565b816040528281528760208487010111156103cd57600080fd5b6103de8360208301602088016102a0565b97965050505050505056fea2646970667358221220d8b1971da380a8b42572287751c134229f3f0417d2ac9305acab177eb7681fcc64736f6c63430008090033",
  "linkReferences": {},
  "deployedLinkReferences": {}
}