{
  "_format": "hh-sol-artifact-1",
  "contractName": "Treasury",
  "sourceName": "contracts/Treasury.sol",
  "abi": [
    {
      "inputs": [
        {
          "internalType": "address",
          "name": "_tokenAddress",
          "type": "address"
        },
        {
          "internalType": "address",
          "name": "_moduleAddress",
          "type": "address"
        }
      ],
      "stateMutability": "nonpayable",
      "type": "constructor"
    },
    {
      "anonymous": false,
      "inputs": [
        {
          "indexed": false,
          "internalType": "address",
          "name": "account",
          "type": "address"
        }
      ],
      "name": "Paused",
      "type": "event"
    },
    {
      "anonymous": false,
      "inputs": [
        {
          "indexed": true,
          "internalType": "bytes32",
          "name": "role",
          "type": "bytes32"
        },
        {
          "indexed": true,
          "internalType": "bytes32",
          "name": "previousAdminRole",
          "type": "bytes32"
        },
        {
          "indexed": true,
          "internalType": "bytes32",
          "name": "newAdminRole",
          "type": "bytes32"
        }
      ],
      "name": "RoleAdminChanged",
      "type": "event"
    },
    {
      "anonymous": false,
      "inputs": [
        {
          "indexed": true,
          "internalType": "bytes32",
          "name": "role",
          "type": "bytes32"
        },
        {
          "indexed": true,
          "internalType": "address",
          "name": "account",
          "type": "address"
        },
        {
          "indexed": true,
          "internalType": "address",
          "name": "sender",
          "type": "address"
        }
      ],
      "name": "RoleGranted",
      "type": "event"
    },
    {
      "anonymous": false,
      "inputs": [
        {
          "indexed": true,
          "internalType": "bytes32",
          "name": "role",
          "type": "bytes32"
        },
        {
          "indexed": true,
          "internalType": "address",
          "name": "account",
          "type": "address"
        },
        {
          "indexed": true,
          "internalType": "address",
          "name": "sender",
          "type": "address"
        }
      ],
      "name": "RoleRevoked",
      "type": "event"
    },
    {
      "anonymous": false,
      "inputs": [
        {
          "indexed": false,
          "internalType": "address",
          "name": "account",
          "type": "address"
        }
      ],
      "name": "Unpaused",
      "type": "event"
    },
    {
      "inputs": [],
      "name": "DEFAULT_ADMIN_ROLE",
      "outputs": [
        {
          "internalType": "bytes32",
          "name": "",
          "type": "bytes32"
        }
      ],
      "stateMutability": "view",
      "type": "function"
    },
    {
      "inputs": [],
      "name": "PAUSER_ROLE",
      "outputs": [
        {
          "internalType": "bytes32",
          "name": "",
          "type": "bytes32"
        }
      ],
      "stateMutability": "view",
      "type": "function"
    },
    {
      "inputs": [],
      "name": "TIME_LOCK",
      "outputs": [
        {
          "internalType": "bytes32",
          "name": "",
          "type": "bytes32"
        }
      ],
      "stateMutability": "view",
      "type": "function"
    },
    {
      "inputs": [],
      "name": "_moduleDeposit",
      "outputs": [],
      "stateMutability": "payable",
      "type": "function"
    },
    {
      "inputs": [
        {
          "internalType": "bytes32",
          "name": "role",
          "type": "bytes32"
        }
      ],
      "name": "getRoleAdmin",
      "outputs": [
        {
          "internalType": "bytes32",
          "name": "",
          "type": "bytes32"
        }
      ],
      "stateMutability": "view",
      "type": "function"
    },
    {
      "inputs": [
        {
          "internalType": "bytes32",
          "name": "role",
          "type": "bytes32"
        },
        {
          "internalType": "address",
          "name": "account",
          "type": "address"
        }
      ],
      "name": "grantRole",
      "outputs": [],
      "stateMutability": "nonpayable",
      "type": "function"
    },
    {
      "inputs": [
        {
          "internalType": "bytes32",
          "name": "role",
          "type": "bytes32"
        },
        {
          "internalType": "address",
          "name": "account",
          "type": "address"
        }
      ],
      "name": "hasRole",
      "outputs": [
        {
          "internalType": "bool",
          "name": "",
          "type": "bool"
        }
      ],
      "stateMutability": "view",
      "type": "function"
    },
    {
      "inputs": [
        {
          "internalType": "address",
          "name": "",
          "type": "address"
        }
      ],
      "name": "modules",
      "outputs": [
        {
          "internalType": "bool",
          "name": "isRegistered",
          "type": "bool"
        },
        {
          "internalType": "uint256",
          "name": "balance",
          "type": "uint256"
        }
      ],
      "stateMutability": "view",
      "type": "function"
    },
    {
      "inputs": [],
      "name": "pause",
      "outputs": [],
      "stateMutability": "nonpayable",
      "type": "function"
    },
    {
      "inputs": [],
      "name": "paused",
      "outputs": [
        {
          "internalType": "bool",
          "name": "",
          "type": "bool"
        }
      ],
      "stateMutability": "view",
      "type": "function"
    },
    {
      "inputs": [
        {
          "internalType": "bytes32",
          "name": "role",
          "type": "bytes32"
        },
        {
          "internalType": "address",
          "name": "account",
          "type": "address"
        }
      ],
      "name": "renounceRole",
      "outputs": [],
      "stateMutability": "nonpayable",
      "type": "function"
    },
    {
      "inputs": [
        {
          "internalType": "bytes32",
          "name": "role",
          "type": "bytes32"
        },
        {
          "internalType": "address",
          "name": "account",
          "type": "address"
        }
      ],
      "name": "revokeRole",
      "outputs": [],
      "stateMutability": "nonpayable",
      "type": "function"
    },
    {
      "inputs": [
        {
          "internalType": "bytes32",
          "name": "_role",
          "type": "bytes32"
        },
        {
          "internalType": "bytes32",
          "name": "_newAdminRole",
          "type": "bytes32"
        }
      ],
      "name": "setRoleAdmin",
      "outputs": [],
      "stateMutability": "nonpayable",
      "type": "function"
    },
    {
      "inputs": [
        {
          "internalType": "bytes4",
          "name": "interfaceId",
          "type": "bytes4"
        }
      ],
      "name": "supportsInterface",
      "outputs": [
        {
          "internalType": "bool",
          "name": "",
          "type": "bool"
        }
      ],
      "stateMutability": "view",
      "type": "function"
    },
    {
      "inputs": [],
      "name": "tokenAddress",
      "outputs": [
        {
          "internalType": "address",
          "name": "",
          "type": "address"
        }
      ],
      "stateMutability": "view",
      "type": "function"
    },
    {
      "inputs": [],
      "name": "unpause",
      "outputs": [],
      "stateMutability": "nonpayable",
      "type": "function"
    }
  ],
  "bytecode": "0x6080604052600060025534801561001557600080fd5b50604051610ecd380380610ecd8339810160408190526100349161019c565b6000805460ff19169055600480546001600160a01b0319166001600160a01b038416908117909155610087907fa0467a8a4dcd69293a9221d8f74fb5c3c21a3bf628d36256bebc311a66beecfc906100f8565b6100b17f65d7a28e3265b37a6474929f336521b332c1681b933f6cb9f3376673440d862a336100f8565b6040805180820182526001808252600060208084018281526001600160a01b0396909616825260039052929092209051815460ff19169015151781559151910155506101cf565b60008281526001602090815260408083206001600160a01b038516845290915290205460ff1661017c5760008281526001602081815260408084206001600160a01b0386168086529252808420805460ff19169093179092559051339285917f2f8788117e7eff1d82e926ec794901d17c78024a50270940304540a733656f0d9190a45b5050565b80516001600160a01b038116811461019757600080fd5b919050565b600080604083850312156101af57600080fd5b6101b883610180565b91506101c660208401610180565b90509250929050565b610cef806101de6000396000f3fe6080604052600436106100f35760003560e01c80638456cb591161008a578063a8ee49fe11610059578063a8ee49fe14610285578063d547741f146102d6578063e0a09c68146102f6578063e63ab1e91461032a57600080fd5b80638456cb591461020357806391d14854146102185780639d76ea5814610238578063a217fddf1461027057600080fd5b806336568abe116100c657806336568abe146101ae5780633772c499146101ce5780633f4ba83a146101d65780635c975abb146101eb57600080fd5b806301ffc9a7146100f85780631e4e00911461012d578063248a9ca31461014f5780632f2ff15d1461018e575b600080fd5b34801561010457600080fd5b50610118610113366004610a67565b61035e565b60405190151581526020015b60405180910390f35b34801561013957600080fd5b5061014d610148366004610a91565b610395565b005b34801561015b57600080fd5b5061018061016a366004610ab3565b6000908152600160208190526040909120015490565b604051908152602001610124565b34801561019a57600080fd5b5061014d6101a9366004610ae8565b6103c0565b3480156101ba57600080fd5b5061014d6101c9366004610ae8565b6103e6565b61014d610469565b3480156101e257600080fd5b5061014d610558565b3480156101f757600080fd5b5060005460ff16610118565b34801561020f57600080fd5b5061014d61058d565b34801561022457600080fd5b50610118610233366004610ae8565b6105bf565b34801561024457600080fd5b50600454610258906001600160a01b031681565b6040516001600160a01b039091168152602001610124565b34801561027c57600080fd5b50610180600081565b34801561029157600080fd5b506102bf6102a0366004610b14565b6003602052600090815260409020805460019091015460ff9091169082565b604080519215158352602083019190915201610124565b3480156102e257600080fd5b5061014d6102f1366004610ae8565b6105ea565b34801561030257600080fd5b506101807fa0467a8a4dcd69293a9221d8f74fb5c3c21a3bf628d36256bebc311a66beecfc81565b34801561033657600080fd5b506101807f65d7a28e3265b37a6474929f336521b332c1681b933f6cb9f3376673440d862a81565b60006001600160e01b03198216637965db0b60e01b148061038f57506301ffc9a760e01b6001600160e01b03198316145b92915050565b600082815260016020819052604090912001546103b181610610565b6103bb838361061a565b505050565b600082815260016020819052604090912001546103dc81610610565b6103bb8383610667565b6001600160a01b038116331461045b5760405162461bcd60e51b815260206004820152602f60248201527f416363657373436f6e74726f6c3a2063616e206f6e6c792072656e6f756e636560448201526e103937b632b9903337b91039b2b63360891b60648201526084015b60405180910390fd5b61046582826106d2565b5050565b7fa0467a8a4dcd69293a9221d8f74fb5c3c21a3bf628d36256bebc311a66beecfc61049381610610565b6004805460405163a9059cbb60e01b815230928101929092523460248301526001600160a01b031690819063a9059cbb90604401602060405180830381600087803b1580156104e157600080fd5b505af11580156104f5573d6000803e3d6000fd5b505050506040513d601f19601f820116820180604052508101906105199190610b2f565b6104655760405162461bcd60e51b815260206004820152601060248201526f5472616e73666572206661696c65642160801b6044820152606401610452565b7f65d7a28e3265b37a6474929f336521b332c1681b933f6cb9f3376673440d862a61058281610610565b61058a610739565b50565b7f65d7a28e3265b37a6474929f336521b332c1681b933f6cb9f3376673440d862a6105b781610610565b61058a61078b565b60009182526001602090815260408084206001600160a01b0393909316845291905290205460ff1690565b6000828152600160208190526040909120015461060681610610565b6103bb83836106d2565b61058a81336107c8565b6000828152600160208190526040808320909101805490849055905190918391839186917fbd79b86ffe0ab8e8776151514217cd7cacd52c909f66475c3af44e129f0b00ff9190a4505050565b61067182826105bf565b6104655760008281526001602081815260408084206001600160a01b0386168086529252808420805460ff19169093179092559051339285917f2f8788117e7eff1d82e926ec794901d17c78024a50270940304540a733656f0d9190a45050565b6106dc82826105bf565b156104655760008281526001602090815260408083206001600160a01b0385168085529252808320805460ff1916905551339285917ff6391f5c32d9c69d2a47ea670b442974b53935d1edc7fd64eb21e047a839171b9190a45050565b610741610821565b6000805460ff191690557f5db9ee0a495bf2e6ff9c91a7834c1ba4fdd244a5e8aa4e537bd38aeae4b073aa335b6040516001600160a01b03909116815260200160405180910390a1565b61079361086c565b6000805460ff191660011790557f62e78cea01bee320cd4e420270b5ea74000d11b0c9f74754ebdbfc544b05a25861076e3390565b6107d282826105bf565b610465576107df816108b2565b6107ea8360206108c4565b6040516020016107fb929190610b81565b60408051601f198184030181529082905262461bcd60e51b825261045291600401610bf6565b60005460ff1661086a5760405162461bcd60e51b815260206004820152601460248201527314185d5cd8589b194e881b9bdd081c185d5cd95960621b6044820152606401610452565b565b60005460ff161561086a5760405162461bcd60e51b815260206004820152601060248201526f14185d5cd8589b194e881c185d5cd95960821b6044820152606401610452565b606061038f6001600160a01b03831660145b606060006108d3836002610c3f565b6108de906002610c5e565b67ffffffffffffffff8111156108f6576108f6610c76565b6040519080825280601f01601f191660200182016040528015610920576020820181803683370190505b509050600360fc1b8160008151811061093b5761093b610c8c565b60200101906001600160f81b031916908160001a905350600f60fb1b8160018151811061096a5761096a610c8c565b60200101906001600160f81b031916908160001a905350600061098e846002610c3f565b610999906001610c5e565b90505b6001811115610a11576f181899199a1a9b1b9c1cb0b131b232b360811b85600f16601081106109cd576109cd610c8c565b1a60f81b8282815181106109e3576109e3610c8c565b60200101906001600160f81b031916908160001a90535060049490941c93610a0a81610ca2565b905061099c565b508315610a605760405162461bcd60e51b815260206004820181905260248201527f537472696e67733a20686578206c656e67746820696e73756666696369656e746044820152606401610452565b9392505050565b600060208284031215610a7957600080fd5b81356001600160e01b031981168114610a6057600080fd5b60008060408385031215610aa457600080fd5b50508035926020909101359150565b600060208284031215610ac557600080fd5b5035919050565b80356001600160a01b0381168114610ae357600080fd5b919050565b60008060408385031215610afb57600080fd5b82359150610b0b60208401610acc565b90509250929050565b600060208284031215610b2657600080fd5b610a6082610acc565b600060208284031215610b4157600080fd5b81518015158114610a6057600080fd5b60005b83811015610b6c578181015183820152602001610b54565b83811115610b7b576000848401525b50505050565b7f416363657373436f6e74726f6c3a206163636f756e7420000000000000000000815260008351610bb9816017850160208801610b51565b7001034b99036b4b9b9b4b733903937b6329607d1b6017918401918201528351610bea816028840160208801610b51565b01602801949350505050565b6020815260008251806020840152610c15816040850160208701610b51565b601f01601f19169190910160400192915050565b634e487b7160e01b600052601160045260246000fd5b6000816000190483118215151615610c5957610c59610c29565b500290565b60008219821115610c7157610c71610c29565b500190565b634e487b7160e01b600052604160045260246000fd5b634e487b7160e01b600052603260045260246000fd5b600081610cb157610cb1610c29565b50600019019056fea26469706673582212206bd2e391ec92c79d88ff3c4f68ad0dddb3a5fcf86d523c39ba2990e4397dbfea64736f6c63430008090033",
  "linkReferences": {},
  "deployedLinkReferences": {}
}