{
  "_format": "hh-sol-artifact-1",
  "contractName": "Treasury",
  "sourceName": "contracts/Treasury.sol",
  "abi": [
    {
      "inputs": [],
      "stateMutability": "nonpayable",
      "type": "constructor"
    },
    {
      "anonymous": false,
      "inputs": [
        {
          "indexed": false,
          "internalType": "address",
          "name": "previousAdmin",
          "type": "address"
        },
        {
          "indexed": false,
          "internalType": "address",
          "name": "newAdmin",
          "type": "address"
        }
      ],
      "name": "AdminChanged",
      "type": "event"
    },
    {
      "anonymous": false,
      "inputs": [
        {
          "indexed": true,
          "internalType": "address",
          "name": "beacon",
          "type": "address"
        }
      ],
      "name": "BeaconUpgraded",
      "type": "event"
    },
    {
      "anonymous": false,
      "inputs": [
        {
          "indexed": false,
          "internalType": "uint8",
          "name": "version",
          "type": "uint8"
        }
      ],
      "name": "Initialized",
      "type": "event"
    },
    {
      "anonymous": false,
      "inputs": [
        {
          "indexed": false,
          "internalType": "address",
          "name": "account",
          "type": "address"
        }
      ],
      "name": "Paused",
      "type": "event"
    },
    {
      "anonymous": false,
      "inputs": [
        {
          "indexed": true,
          "internalType": "bytes32",
          "name": "role",
          "type": "bytes32"
        },
        {
          "indexed": true,
          "internalType": "bytes32",
          "name": "previousAdminRole",
          "type": "bytes32"
        },
        {
          "indexed": true,
          "internalType": "bytes32",
          "name": "newAdminRole",
          "type": "bytes32"
        }
      ],
      "name": "RoleAdminChanged",
      "type": "event"
    },
    {
      "anonymous": false,
      "inputs": [
        {
          "indexed": true,
          "internalType": "bytes32",
          "name": "role",
          "type": "bytes32"
        },
        {
          "indexed": true,
          "internalType": "address",
          "name": "account",
          "type": "address"
        },
        {
          "indexed": true,
          "internalType": "address",
          "name": "sender",
          "type": "address"
        }
      ],
      "name": "RoleGranted",
      "type": "event"
    },
    {
      "anonymous": false,
      "inputs": [
        {
          "indexed": true,
          "internalType": "bytes32",
          "name": "role",
          "type": "bytes32"
        },
        {
          "indexed": true,
          "internalType": "address",
          "name": "account",
          "type": "address"
        },
        {
          "indexed": true,
          "internalType": "address",
          "name": "sender",
          "type": "address"
        }
      ],
      "name": "RoleRevoked",
      "type": "event"
    },
    {
      "anonymous": false,
      "inputs": [
        {
          "indexed": false,
          "internalType": "address",
          "name": "account",
          "type": "address"
        }
      ],
      "name": "Unpaused",
      "type": "event"
    },
    {
      "anonymous": false,
      "inputs": [
        {
          "indexed": true,
          "internalType": "address",
          "name": "implementation",
          "type": "address"
        }
      ],
      "name": "Upgraded",
      "type": "event"
    },
    {
      "inputs": [],
      "name": "DEFAULT_ADMIN_ROLE",
      "outputs": [
        {
          "internalType": "bytes32",
          "name": "",
          "type": "bytes32"
        }
      ],
      "stateMutability": "view",
      "type": "function"
    },
    {
      "inputs": [],
      "name": "PAUSER_ROLE",
      "outputs": [
        {
          "internalType": "bytes32",
          "name": "",
          "type": "bytes32"
        }
      ],
      "stateMutability": "view",
      "type": "function"
    },
    {
      "inputs": [],
      "name": "UPGRADER_ROLE",
      "outputs": [
        {
          "internalType": "bytes32",
          "name": "",
          "type": "bytes32"
        }
      ],
      "stateMutability": "view",
      "type": "function"
    },
    {
      "inputs": [
        {
          "internalType": "bytes32",
          "name": "role",
          "type": "bytes32"
        }
      ],
      "name": "getRoleAdmin",
      "outputs": [
        {
          "internalType": "bytes32",
          "name": "",
          "type": "bytes32"
        }
      ],
      "stateMutability": "view",
      "type": "function"
    },
    {
      "inputs": [
        {
          "internalType": "bytes32",
          "name": "role",
          "type": "bytes32"
        },
        {
          "internalType": "address",
          "name": "account",
          "type": "address"
        }
      ],
      "name": "grantRole",
      "outputs": [],
      "stateMutability": "nonpayable",
      "type": "function"
    },
    {
      "inputs": [
        {
          "internalType": "bytes32",
          "name": "role",
          "type": "bytes32"
        },
        {
          "internalType": "address",
          "name": "account",
          "type": "address"
        }
      ],
      "name": "hasRole",
      "outputs": [
        {
          "internalType": "bool",
          "name": "",
          "type": "bool"
        }
      ],
      "stateMutability": "view",
      "type": "function"
    },
    {
      "inputs": [],
      "name": "initialize",
      "outputs": [],
      "stateMutability": "nonpayable",
      "type": "function"
    },
    {
      "inputs": [],
      "name": "pause",
      "outputs": [],
      "stateMutability": "nonpayable",
      "type": "function"
    },
    {
      "inputs": [],
      "name": "paused",
      "outputs": [
        {
          "internalType": "bool",
          "name": "",
          "type": "bool"
        }
      ],
      "stateMutability": "view",
      "type": "function"
    },
    {
      "inputs": [],
      "name": "proxiableUUID",
      "outputs": [
        {
          "internalType": "bytes32",
          "name": "",
          "type": "bytes32"
        }
      ],
      "stateMutability": "view",
      "type": "function"
    },
    {
      "inputs": [
        {
          "internalType": "bytes32",
          "name": "role",
          "type": "bytes32"
        },
        {
          "internalType": "address",
          "name": "account",
          "type": "address"
        }
      ],
      "name": "renounceRole",
      "outputs": [],
      "stateMutability": "nonpayable",
      "type": "function"
    },
    {
      "inputs": [
        {
          "internalType": "bytes32",
          "name": "role",
          "type": "bytes32"
        },
        {
          "internalType": "address",
          "name": "account",
          "type": "address"
        }
      ],
      "name": "revokeRole",
      "outputs": [],
      "stateMutability": "nonpayable",
      "type": "function"
    },
    {
      "inputs": [
        {
          "internalType": "bytes4",
          "name": "interfaceId",
          "type": "bytes4"
        }
      ],
      "name": "supportsInterface",
      "outputs": [
        {
          "internalType": "bool",
          "name": "",
          "type": "bool"
        }
      ],
      "stateMutability": "view",
      "type": "function"
    },
    {
      "inputs": [],
      "name": "unpause",
      "outputs": [],
      "stateMutability": "nonpayable",
      "type": "function"
    },
    {
      "inputs": [
        {
          "internalType": "address",
          "name": "newImplementation",
          "type": "address"
        }
      ],
      "name": "upgradeTo",
      "outputs": [],
      "stateMutability": "nonpayable",
      "type": "function"
    },
    {
      "inputs": [
        {
          "internalType": "address",
          "name": "newImplementation",
          "type": "address"
        },
        {
          "internalType": "bytes",
          "name": "data",
          "type": "bytes"
        }
      ],
      "name": "upgradeToAndCall",
      "outputs": [],
      "stateMutability": "payable",
      "type": "function"
    }
  ],
  "bytecode": "0x60a06040523060805234801561001457600080fd5b5061001d610022565b6100e2565b600054610100900460ff161561008e5760405162461bcd60e51b815260206004820152602760248201527f496e697469616c697a61626c653a20636f6e747261637420697320696e697469604482015266616c697a696e6760c81b606482015260840160405180910390fd5b60005460ff90811610156100e0576000805460ff191660ff9081179091556040519081527f7f26b83ff96e1f2b6a682f133852f6798a09c465da95921460cefb38474024989060200160405180910390a15b565b608051611538610119600039600081816103e601528181610426015281816104e60152818161052601526105b501526115386000f3fe6080604052600436106100f35760003560e01c80635c975abb1161008a578063a217fddf11610059578063a217fddf1461026c578063d547741f14610281578063e63ab1e9146102a1578063f72c0d8b146102c357600080fd5b80635c975abb1461020a5780638129fc1c146102225780638456cb591461023757806391d148541461024c57600080fd5b80633659cfe6116100c65780633659cfe6146101ad5780633f4ba83a146101cd5780634f1ef286146101e257806352d1902d146101f557600080fd5b806301ffc9a7146100f8578063248a9ca31461012d5780632f2ff15d1461016b57806336568abe1461018d575b600080fd5b34801561010457600080fd5b506101186101133660046110b7565b6102f7565b60405190151581526020015b60405180910390f35b34801561013957600080fd5b5061015d6101483660046110e1565b60009081526097602052604090206001015490565b604051908152602001610124565b34801561017757600080fd5b5061018b610186366004611116565b61032e565b005b34801561019957600080fd5b5061018b6101a8366004611116565b610358565b3480156101b957600080fd5b5061018b6101c8366004611142565b6103db565b3480156101d957600080fd5b5061018b6104bb565b61018b6101f0366004611173565b6104db565b34801561020157600080fd5b5061015d6105a8565b34801561021657600080fd5b5060335460ff16610118565b34801561022e57600080fd5b5061018b61065b565b34801561024357600080fd5b5061018b6107c8565b34801561025857600080fd5b50610118610267366004611116565b6107e8565b34801561027857600080fd5b5061015d600081565b34801561028d57600080fd5b5061018b61029c366004611116565b610813565b3480156102ad57600080fd5b5061015d6000805160206114bc83398151915281565b3480156102cf57600080fd5b5061015d7f189ab7a9244df0848122154315af71fe140f3db0fe014031783b0946b8c9d2e381565b60006001600160e01b03198216637965db0b60e01b148061032857506301ffc9a760e01b6001600160e01b03198316145b92915050565b60008281526097602052604090206001015461034981610838565b6103538383610842565b505050565b6001600160a01b03811633146103cd5760405162461bcd60e51b815260206004820152602f60248201527f416363657373436f6e74726f6c3a2063616e206f6e6c792072656e6f756e636560448201526e103937b632b9903337b91039b2b63360891b60648201526084015b60405180910390fd5b6103d782826108c8565b5050565b306001600160a01b037f00000000000000000000000000000000000000000000000000000000000000001614156104245760405162461bcd60e51b81526004016103c490611235565b7f00000000000000000000000000000000000000000000000000000000000000006001600160a01b031661046d60008051602061149c833981519152546001600160a01b031690565b6001600160a01b0316146104935760405162461bcd60e51b81526004016103c490611281565b61049c8161092f565b604080516000808252602082019092526104b891839190610959565b50565b6000805160206114bc8339815191526104d381610838565b6104b8610ad3565b306001600160a01b037f00000000000000000000000000000000000000000000000000000000000000001614156105245760405162461bcd60e51b81526004016103c490611235565b7f00000000000000000000000000000000000000000000000000000000000000006001600160a01b031661056d60008051602061149c833981519152546001600160a01b031690565b6001600160a01b0316146105935760405162461bcd60e51b81526004016103c490611281565b61059c8261092f565b6103d782826001610959565b6000306001600160a01b037f000000000000000000000000000000000000000000000000000000000000000016146106485760405162461bcd60e51b815260206004820152603860248201527f555550535570677261646561626c653a206d757374206e6f742062652063616c60448201527f6c6564207468726f7567682064656c656761746563616c6c000000000000000060648201526084016103c4565b5060008051602061149c83398151915290565b600054610100900460ff161580801561067b5750600054600160ff909116105b806106955750303b158015610695575060005460ff166001145b6106f85760405162461bcd60e51b815260206004820152602e60248201527f496e697469616c697a61626c653a20636f6e747261637420697320616c72656160448201526d191e481a5b9a5d1a585b1a5e995960921b60648201526084016103c4565b6000805460ff19166001179055801561071b576000805461ff0019166101001790555b610723610b25565b61072b610b56565b610733610b56565b61073e600033610842565b6107566000805160206114bc83398151915233610842565b6107807f189ab7a9244df0848122154315af71fe140f3db0fe014031783b0946b8c9d2e333610842565b80156104b8576000805461ff0019169055604051600181527f7f26b83ff96e1f2b6a682f133852f6798a09c465da95921460cefb38474024989060200160405180910390a150565b6000805160206114bc8339815191526107e081610838565b6104b8610b7d565b60009182526097602090815260408084206001600160a01b0393909316845291905290205460ff1690565b60008281526097602052604090206001015461082e81610838565b61035383836108c8565b6104b88133610bba565b61084c82826107e8565b6103d75760008281526097602090815260408083206001600160a01b03851684529091529020805460ff191660011790556108843390565b6001600160a01b0316816001600160a01b0316837f2f8788117e7eff1d82e926ec794901d17c78024a50270940304540a733656f0d60405160405180910390a45050565b6108d282826107e8565b156103d75760008281526097602090815260408083206001600160a01b0385168085529252808320805460ff1916905551339285917ff6391f5c32d9c69d2a47ea670b442974b53935d1edc7fd64eb21e047a839171b9190a45050565b7f189ab7a9244df0848122154315af71fe140f3db0fe014031783b0946b8c9d2e36103d781610838565b7f4910fdfa16fed3260ed0e7147f7cc6da11a60208b5b9406d12a635614ffd91435460ff161561098c5761035383610c1e565b826001600160a01b03166352d1902d6040518163ffffffff1660e01b815260040160206040518083038186803b1580156109c557600080fd5b505afa9250505080156109f5575060408051601f3d908101601f191682019092526109f2918101906112cd565b60015b610a585760405162461bcd60e51b815260206004820152602e60248201527f45524331393637557067726164653a206e657720696d706c656d656e7461746960448201526d6f6e206973206e6f74205555505360901b60648201526084016103c4565b60008051602061149c8339815191528114610ac75760405162461bcd60e51b815260206004820152602960248201527f45524331393637557067726164653a20756e737570706f727465642070726f786044820152681a58589b195555525160ba1b60648201526084016103c4565b50610353838383610cba565b610adb610ce5565b6033805460ff191690557f5db9ee0a495bf2e6ff9c91a7834c1ba4fdd244a5e8aa4e537bd38aeae4b073aa335b6040516001600160a01b03909116815260200160405180910390a1565b600054610100900460ff16610b4c5760405162461bcd60e51b81526004016103c4906112e6565b610b54610d2e565b565b600054610100900460ff16610b545760405162461bcd60e51b81526004016103c4906112e6565b610b85610d61565b6033805460ff191660011790557f62e78cea01bee320cd4e420270b5ea74000d11b0c9f74754ebdbfc544b05a258610b083390565b610bc482826107e8565b6103d757610bdc816001600160a01b03166014610da7565b610be7836020610da7565b604051602001610bf892919061135d565b60408051601f198184030181529082905262461bcd60e51b82526103c4916004016113d2565b6001600160a01b0381163b610c8b5760405162461bcd60e51b815260206004820152602d60248201527f455243313936373a206e657720696d706c656d656e746174696f6e206973206e60448201526c1bdd08184818dbdb9d1c9858dd609a1b60648201526084016103c4565b60008051602061149c83398151915280546001600160a01b0319166001600160a01b0392909216919091179055565b610cc383610f4a565b600082511180610cd05750805b1561035357610cdf8383610f8a565b50505050565b60335460ff16610b545760405162461bcd60e51b815260206004820152601460248201527314185d5cd8589b194e881b9bdd081c185d5cd95960621b60448201526064016103c4565b600054610100900460ff16610d555760405162461bcd60e51b81526004016103c4906112e6565b6033805460ff19169055565b60335460ff1615610b545760405162461bcd60e51b815260206004820152601060248201526f14185d5cd8589b194e881c185d5cd95960821b60448201526064016103c4565b60606000610db683600261141b565b610dc190600261143a565b67ffffffffffffffff811115610dd957610dd961115d565b6040519080825280601f01601f191660200182016040528015610e03576020820181803683370190505b509050600360fc1b81600081518110610e1e57610e1e611452565b60200101906001600160f81b031916908160001a905350600f60fb1b81600181518110610e4d57610e4d611452565b60200101906001600160f81b031916908160001a9053506000610e7184600261141b565b610e7c90600161143a565b90505b6001811115610ef4576f181899199a1a9b1b9c1cb0b131b232b360811b85600f1660108110610eb057610eb0611452565b1a60f81b828281518110610ec657610ec6611452565b60200101906001600160f81b031916908160001a90535060049490941c93610eed81611468565b9050610e7f565b508315610f435760405162461bcd60e51b815260206004820181905260248201527f537472696e67733a20686578206c656e67746820696e73756666696369656e7460448201526064016103c4565b9392505050565b610f5381610c1e565b6040516001600160a01b038216907fbc7cd75a20ee27fd9adebab32041f755214dbc6bffa90cc0225b39da2e5c2d3b90600090a250565b60606001600160a01b0383163b610ff25760405162461bcd60e51b815260206004820152602660248201527f416464726573733a2064656c65676174652063616c6c20746f206e6f6e2d636f6044820152651b9d1c9858dd60d21b60648201526084016103c4565b600080846001600160a01b03168460405161100d919061147f565b600060405180830381855af49150503d8060008114611048576040519150601f19603f3d011682016040523d82523d6000602084013e61104d565b606091505b509150915061107582826040518060600160405280602781526020016114dc6027913961107e565b95945050505050565b6060831561108d575081610f43565b82511561109d5782518084602001fd5b8160405162461bcd60e51b81526004016103c491906113d2565b6000602082840312156110c957600080fd5b81356001600160e01b031981168114610f4357600080fd5b6000602082840312156110f357600080fd5b5035919050565b80356001600160a01b038116811461111157600080fd5b919050565b6000806040838503121561112957600080fd5b82359150611139602084016110fa565b90509250929050565b60006020828403121561115457600080fd5b610f43826110fa565b634e487b7160e01b600052604160045260246000fd5b6000806040838503121561118657600080fd5b61118f836110fa565b9150602083013567ffffffffffffffff808211156111ac57600080fd5b818501915085601f8301126111c057600080fd5b8135818111156111d2576111d261115d565b604051601f8201601f19908116603f011681019083821181831017156111fa576111fa61115d565b8160405282815288602084870101111561121357600080fd5b8260208601602083013760006020848301015280955050505050509250929050565b6020808252602c908201527f46756e6374696f6e206d7573742062652063616c6c6564207468726f7567682060408201526b19195b1959d85d1958d85b1b60a21b606082015260800190565b6020808252602c908201527f46756e6374696f6e206d7573742062652063616c6c6564207468726f7567682060408201526b6163746976652070726f787960a01b606082015260800190565b6000602082840312156112df57600080fd5b5051919050565b6020808252602b908201527f496e697469616c697a61626c653a20636f6e7472616374206973206e6f74206960408201526a6e697469616c697a696e6760a81b606082015260800190565b60005b8381101561134c578181015183820152602001611334565b83811115610cdf5750506000910152565b7f416363657373436f6e74726f6c3a206163636f756e7420000000000000000000815260008351611395816017850160208801611331565b7001034b99036b4b9b9b4b733903937b6329607d1b60179184019182015283516113c6816028840160208801611331565b01602801949350505050565b60208152600082518060208401526113f1816040850160208701611331565b601f01601f19169190910160400192915050565b634e487b7160e01b600052601160045260246000fd5b600081600019048311821515161561143557611435611405565b500290565b6000821982111561144d5761144d611405565b500190565b634e487b7160e01b600052603260045260246000fd5b60008161147757611477611405565b506000190190565b60008251611491818460208701611331565b919091019291505056fe360894a13ba1a3210667c828492db98dca3e2076cc3735a920a3ca505d382bbc65d7a28e3265b37a6474929f336521b332c1681b933f6cb9f3376673440d862a416464726573733a206c6f772d6c6576656c2064656c65676174652063616c6c206661696c6564a2646970667358221220433ef63230d161708a2e832383eb99c450a94af0fc5b79907deb884ee965dfe464736f6c63430008090033",
  "linkReferences": {},
  "deployedLinkReferences": {}
}