{
  "_format": "hh-sol-artifact-1",
  "contractName": "Roles",
  "sourceName": "contracts/Roles.sol",
  "abi": [
    {
      "inputs": [],
      "stateMutability": "nonpayable",
      "type": "constructor"
    },
    {
      "anonymous": false,
      "inputs": [
        {
          "indexed": false,
          "internalType": "address",
          "name": "previousAdmin",
          "type": "address"
        },
        {
          "indexed": false,
          "internalType": "address",
          "name": "newAdmin",
          "type": "address"
        }
      ],
      "name": "AdminChanged",
      "type": "event"
    },
    {
      "anonymous": false,
      "inputs": [
        {
          "indexed": true,
          "internalType": "address",
          "name": "beacon",
          "type": "address"
        }
      ],
      "name": "BeaconUpgraded",
      "type": "event"
    },
    {
      "anonymous": false,
      "inputs": [
        {
          "indexed": false,
          "internalType": "uint8",
          "name": "version",
          "type": "uint8"
        }
      ],
      "name": "Initialized",
      "type": "event"
    },
    {
      "anonymous": false,
      "inputs": [
        {
          "indexed": true,
          "internalType": "bytes32",
          "name": "role",
          "type": "bytes32"
        },
        {
          "indexed": true,
          "internalType": "bytes32",
          "name": "previousAdminRole",
          "type": "bytes32"
        },
        {
          "indexed": true,
          "internalType": "bytes32",
          "name": "newAdminRole",
          "type": "bytes32"
        }
      ],
      "name": "RoleAdminChanged",
      "type": "event"
    },
    {
      "anonymous": false,
      "inputs": [
        {
          "indexed": true,
          "internalType": "bytes32",
          "name": "role",
          "type": "bytes32"
        },
        {
          "indexed": true,
          "internalType": "address",
          "name": "account",
          "type": "address"
        },
        {
          "indexed": true,
          "internalType": "address",
          "name": "sender",
          "type": "address"
        }
      ],
      "name": "RoleGranted",
      "type": "event"
    },
    {
      "anonymous": false,
      "inputs": [
        {
          "indexed": true,
          "internalType": "bytes32",
          "name": "role",
          "type": "bytes32"
        },
        {
          "indexed": true,
          "internalType": "address",
          "name": "account",
          "type": "address"
        },
        {
          "indexed": true,
          "internalType": "address",
          "name": "sender",
          "type": "address"
        }
      ],
      "name": "RoleRevoked",
      "type": "event"
    },
    {
      "anonymous": false,
      "inputs": [
        {
          "indexed": true,
          "internalType": "address",
          "name": "implementation",
          "type": "address"
        }
      ],
      "name": "Upgraded",
      "type": "event"
    },
    {
      "inputs": [],
      "name": "AUNT_ROLE",
      "outputs": [
        {
          "internalType": "bytes32",
          "name": "",
          "type": "bytes32"
        }
      ],
      "stateMutability": "view",
      "type": "function"
    },
    {
      "inputs": [],
      "name": "DEFAULT_ADMIN_ROLE",
      "outputs": [
        {
          "internalType": "bytes32",
          "name": "",
          "type": "bytes32"
        }
      ],
      "stateMutability": "view",
      "type": "function"
    },
    {
      "inputs": [],
      "name": "FATHER_ROLE",
      "outputs": [
        {
          "internalType": "bytes32",
          "name": "",
          "type": "bytes32"
        }
      ],
      "stateMutability": "view",
      "type": "function"
    },
    {
      "inputs": [],
      "name": "FRIEND_ROLE",
      "outputs": [
        {
          "internalType": "bytes32",
          "name": "",
          "type": "bytes32"
        }
      ],
      "stateMutability": "view",
      "type": "function"
    },
    {
      "inputs": [],
      "name": "MOTHER_ROLE",
      "outputs": [
        {
          "internalType": "bytes32",
          "name": "",
          "type": "bytes32"
        }
      ],
      "stateMutability": "view",
      "type": "function"
    },
    {
      "inputs": [],
      "name": "UNCLE_ROLE",
      "outputs": [
        {
          "internalType": "bytes32",
          "name": "",
          "type": "bytes32"
        }
      ],
      "stateMutability": "view",
      "type": "function"
    },
    {
      "inputs": [],
      "name": "UPGRADER_ROLE",
      "outputs": [
        {
          "internalType": "bytes32",
          "name": "",
          "type": "bytes32"
        }
      ],
      "stateMutability": "view",
      "type": "function"
    },
    {
      "inputs": [
        {
          "internalType": "bytes32",
          "name": "role",
          "type": "bytes32"
        }
      ],
      "name": "getRoleAdmin",
      "outputs": [
        {
          "internalType": "bytes32",
          "name": "",
          "type": "bytes32"
        }
      ],
      "stateMutability": "view",
      "type": "function"
    },
    {
      "inputs": [
        {
          "internalType": "bytes32",
          "name": "role",
          "type": "bytes32"
        },
        {
          "internalType": "address",
          "name": "account",
          "type": "address"
        }
      ],
      "name": "grantRole",
      "outputs": [],
      "stateMutability": "nonpayable",
      "type": "function"
    },
    {
      "inputs": [
        {
          "internalType": "bytes32",
          "name": "role",
          "type": "bytes32"
        },
        {
          "internalType": "address",
          "name": "account",
          "type": "address"
        }
      ],
      "name": "hasRole",
      "outputs": [
        {
          "internalType": "bool",
          "name": "",
          "type": "bool"
        }
      ],
      "stateMutability": "view",
      "type": "function"
    },
    {
      "inputs": [],
      "name": "initialize",
      "outputs": [],
      "stateMutability": "nonpayable",
      "type": "function"
    },
    {
      "inputs": [],
      "name": "proxiableUUID",
      "outputs": [
        {
          "internalType": "bytes32",
          "name": "",
          "type": "bytes32"
        }
      ],
      "stateMutability": "view",
      "type": "function"
    },
    {
      "inputs": [
        {
          "internalType": "bytes32",
          "name": "role",
          "type": "bytes32"
        },
        {
          "internalType": "address",
          "name": "account",
          "type": "address"
        }
      ],
      "name": "renounceRole",
      "outputs": [],
      "stateMutability": "nonpayable",
      "type": "function"
    },
    {
      "inputs": [
        {
          "internalType": "bytes32",
          "name": "role",
          "type": "bytes32"
        },
        {
          "internalType": "address",
          "name": "account",
          "type": "address"
        }
      ],
      "name": "revokeRole",
      "outputs": [],
      "stateMutability": "nonpayable",
      "type": "function"
    },
    {
      "inputs": [
        {
          "internalType": "bytes4",
          "name": "interfaceId",
          "type": "bytes4"
        }
      ],
      "name": "supportsInterface",
      "outputs": [
        {
          "internalType": "bool",
          "name": "",
          "type": "bool"
        }
      ],
      "stateMutability": "view",
      "type": "function"
    },
    {
      "inputs": [
        {
          "internalType": "address",
          "name": "newImplementation",
          "type": "address"
        }
      ],
      "name": "upgradeTo",
      "outputs": [],
      "stateMutability": "nonpayable",
      "type": "function"
    },
    {
      "inputs": [
        {
          "internalType": "address",
          "name": "newImplementation",
          "type": "address"
        },
        {
          "internalType": "bytes",
          "name": "data",
          "type": "bytes"
        }
      ],
      "name": "upgradeToAndCall",
      "outputs": [],
      "stateMutability": "payable",
      "type": "function"
    }
  ],
  "bytecode": "0x60a06040523060805234801561001457600080fd5b5061001d610022565b6100e2565b600054610100900460ff161561008e5760405162461bcd60e51b815260206004820152602760248201527f496e697469616c697a61626c653a20636f6e747261637420697320696e697469604482015266616c697a696e6760c81b606482015260840160405180910390fd5b60005460ff90811610156100e0576000805460ff191660ff9081179091556040519081527f7f26b83ff96e1f2b6a682f133852f6798a09c465da95921460cefb38474024989060200160405180910390a15b565b6080516113dc61011960003960008181610491015281816104d101528181610571015281816105b1015261064001526113dc6000f3fe6080604052600436106100fe5760003560e01c8063654f800511610095578063a007a56211610064578063a007a562146102d1578063a217fddf14610305578063d547741f1461031a578063e16ff37a1461033a578063f72c0d8b1461036e57600080fd5b8063654f8005146102345780638129fc1c1461026857806391d148541461027d5780639857188a1461029d57600080fd5b806336568abe116100d157806336568abe146101cc5780633659cfe6146101ec5780634f1ef2861461020c57806352d1902d1461021f57600080fd5b806301ffc9a714610103578063248a9ca3146101385780632f2ff15d14610176578063328114d114610198575b600080fd5b34801561010f57600080fd5b5061012361011e366004610fc6565b6103a2565b60405190151581526020015b60405180910390f35b34801561014457600080fd5b50610168610153366004610ff0565b60009081526065602052604090206001015490565b60405190815260200161012f565b34801561018257600080fd5b50610196610191366004611025565b6103d9565b005b3480156101a457600080fd5b506101687f977f2acfebd3834a66d449816849ad93a02e1051b3a4e427c02822cc5ea215af81565b3480156101d857600080fd5b506101966101e7366004611025565b610403565b3480156101f857600080fd5b50610196610207366004611051565b610486565b61019661021a366004611082565b610566565b34801561022b57600080fd5b50610168610633565b34801561024057600080fd5b506101687f09659a10f6a1970806c3d4bde16e065e0a1a0b4d91510d1b2bf062b44eff230081565b34801561027457600080fd5b506101966106e6565b34801561028957600080fd5b50610123610298366004611025565b610833565b3480156102a957600080fd5b506101687fe812e839baaf5eb2fe88c817bdd20a3d5962aaddac4e81b2d8238cf94fa1590481565b3480156102dd57600080fd5b506101687fdc601cd343c9e7d418b48b40f3a0ff8434a08eca1bd022ca70b09c036310b0aa81565b34801561031157600080fd5b50610168600081565b34801561032657600080fd5b50610196610335366004611025565b61085e565b34801561034657600080fd5b506101687f388a4c2ec5c0e7cc699edbd50c31462c0f4f59a574529060d4e6b02576c110a381565b34801561037a57600080fd5b506101687f189ab7a9244df0848122154315af71fe140f3db0fe014031783b0946b8c9d2e381565b60006001600160e01b03198216637965db0b60e01b14806103d357506301ffc9a760e01b6001600160e01b03198316145b92915050565b6000828152606560205260409020600101546103f481610883565b6103fe838361088d565b505050565b6001600160a01b03811633146104785760405162461bcd60e51b815260206004820152602f60248201527f416363657373436f6e74726f6c3a2063616e206f6e6c792072656e6f756e636560448201526e103937b632b9903337b91039b2b63360891b60648201526084015b60405180910390fd5b6104828282610913565b5050565b306001600160a01b037f00000000000000000000000000000000000000000000000000000000000000001614156104cf5760405162461bcd60e51b815260040161046f90611144565b7f00000000000000000000000000000000000000000000000000000000000000006001600160a01b0316610518600080516020611360833981519152546001600160a01b031690565b6001600160a01b03161461053e5760405162461bcd60e51b815260040161046f90611190565b6105478161097a565b60408051600080825260208201909252610563918391906109a4565b50565b306001600160a01b037f00000000000000000000000000000000000000000000000000000000000000001614156105af5760405162461bcd60e51b815260040161046f90611144565b7f00000000000000000000000000000000000000000000000000000000000000006001600160a01b03166105f8600080516020611360833981519152546001600160a01b031690565b6001600160a01b03161461061e5760405162461bcd60e51b815260040161046f90611190565b6106278261097a565b610482828260016109a4565b6000306001600160a01b037f000000000000000000000000000000000000000000000000000000000000000016146106d35760405162461bcd60e51b815260206004820152603860248201527f555550535570677261646561626c653a206d757374206e6f742062652063616c60448201527f6c6564207468726f7567682064656c656761746563616c6c0000000000000000606482015260840161046f565b5060008051602061136083398151915290565b600054610100900460ff16158080156107065750600054600160ff909116105b806107205750303b158015610720575060005460ff166001145b6107835760405162461bcd60e51b815260206004820152602e60248201527f496e697469616c697a61626c653a20636f6e747261637420697320616c72656160448201526d191e481a5b9a5d1a585b1a5e995960921b606482015260840161046f565b6000805460ff1916600117905580156107a6576000805461ff0019166101001790555b6107ae610b1e565b6107b6610b1e565b6107c160003361088d565b6107eb7f189ab7a9244df0848122154315af71fe140f3db0fe014031783b0946b8c9d2e33361088d565b8015610563576000805461ff0019169055604051600181527f7f26b83ff96e1f2b6a682f133852f6798a09c465da95921460cefb38474024989060200160405180910390a150565b60009182526065602090815260408084206001600160a01b0393909316845291905290205460ff1690565b60008281526065602052604090206001015461087981610883565b6103fe8383610913565b6105638133610b8b565b6108978282610833565b6104825760008281526065602090815260408083206001600160a01b03851684529091529020805460ff191660011790556108cf3390565b6001600160a01b0316816001600160a01b0316837f2f8788117e7eff1d82e926ec794901d17c78024a50270940304540a733656f0d60405160405180910390a45050565b61091d8282610833565b156104825760008281526065602090815260408083206001600160a01b0385168085529252808320805460ff1916905551339285917ff6391f5c32d9c69d2a47ea670b442974b53935d1edc7fd64eb21e047a839171b9190a45050565b7f189ab7a9244df0848122154315af71fe140f3db0fe014031783b0946b8c9d2e361048281610883565b7f4910fdfa16fed3260ed0e7147f7cc6da11a60208b5b9406d12a635614ffd91435460ff16156109d7576103fe83610bef565b826001600160a01b03166352d1902d6040518163ffffffff1660e01b815260040160206040518083038186803b158015610a1057600080fd5b505afa925050508015610a40575060408051601f3d908101601f19168201909252610a3d918101906111dc565b60015b610aa35760405162461bcd60e51b815260206004820152602e60248201527f45524331393637557067726164653a206e657720696d706c656d656e7461746960448201526d6f6e206973206e6f74205555505360901b606482015260840161046f565b6000805160206113608339815191528114610b125760405162461bcd60e51b815260206004820152602960248201527f45524331393637557067726164653a20756e737570706f727465642070726f786044820152681a58589b195555525160ba1b606482015260840161046f565b506103fe838383610c8b565b600054610100900460ff16610b895760405162461bcd60e51b815260206004820152602b60248201527f496e697469616c697a61626c653a20636f6e7472616374206973206e6f74206960448201526a6e697469616c697a696e6760a81b606482015260840161046f565b565b610b958282610833565b61048257610bad816001600160a01b03166014610cb6565b610bb8836020610cb6565b604051602001610bc9929190611221565b60408051601f198184030181529082905262461bcd60e51b825261046f91600401611296565b6001600160a01b0381163b610c5c5760405162461bcd60e51b815260206004820152602d60248201527f455243313936373a206e657720696d706c656d656e746174696f6e206973206e60448201526c1bdd08184818dbdb9d1c9858dd609a1b606482015260840161046f565b60008051602061136083398151915280546001600160a01b0319166001600160a01b0392909216919091179055565b610c9483610e59565b600082511180610ca15750805b156103fe57610cb08383610e99565b50505050565b60606000610cc58360026112df565b610cd09060026112fe565b67ffffffffffffffff811115610ce857610ce861106c565b6040519080825280601f01601f191660200182016040528015610d12576020820181803683370190505b509050600360fc1b81600081518110610d2d57610d2d611316565b60200101906001600160f81b031916908160001a905350600f60fb1b81600181518110610d5c57610d5c611316565b60200101906001600160f81b031916908160001a9053506000610d808460026112df565b610d8b9060016112fe565b90505b6001811115610e03576f181899199a1a9b1b9c1cb0b131b232b360811b85600f1660108110610dbf57610dbf611316565b1a60f81b828281518110610dd557610dd5611316565b60200101906001600160f81b031916908160001a90535060049490941c93610dfc8161132c565b9050610d8e565b508315610e525760405162461bcd60e51b815260206004820181905260248201527f537472696e67733a20686578206c656e67746820696e73756666696369656e74604482015260640161046f565b9392505050565b610e6281610bef565b6040516001600160a01b038216907fbc7cd75a20ee27fd9adebab32041f755214dbc6bffa90cc0225b39da2e5c2d3b90600090a250565b60606001600160a01b0383163b610f015760405162461bcd60e51b815260206004820152602660248201527f416464726573733a2064656c65676174652063616c6c20746f206e6f6e2d636f6044820152651b9d1c9858dd60d21b606482015260840161046f565b600080846001600160a01b031684604051610f1c9190611343565b600060405180830381855af49150503d8060008114610f57576040519150601f19603f3d011682016040523d82523d6000602084013e610f5c565b606091505b5091509150610f84828260405180606001604052806027815260200161138060279139610f8d565b95945050505050565b60608315610f9c575081610e52565b825115610fac5782518084602001fd5b8160405162461bcd60e51b815260040161046f9190611296565b600060208284031215610fd857600080fd5b81356001600160e01b031981168114610e5257600080fd5b60006020828403121561100257600080fd5b5035919050565b80356001600160a01b038116811461102057600080fd5b919050565b6000806040838503121561103857600080fd5b8235915061104860208401611009565b90509250929050565b60006020828403121561106357600080fd5b610e5282611009565b634e487b7160e01b600052604160045260246000fd5b6000806040838503121561109557600080fd5b61109e83611009565b9150602083013567ffffffffffffffff808211156110bb57600080fd5b818501915085601f8301126110cf57600080fd5b8135818111156110e1576110e161106c565b604051601f8201601f19908116603f011681019083821181831017156111095761110961106c565b8160405282815288602084870101111561112257600080fd5b8260208601602083013760006020848301015280955050505050509250929050565b6020808252602c908201527f46756e6374696f6e206d7573742062652063616c6c6564207468726f7567682060408201526b19195b1959d85d1958d85b1b60a21b606082015260800190565b6020808252602c908201527f46756e6374696f6e206d7573742062652063616c6c6564207468726f7567682060408201526b6163746976652070726f787960a01b606082015260800190565b6000602082840312156111ee57600080fd5b5051919050565b60005b838110156112105781810151838201526020016111f8565b83811115610cb05750506000910152565b7f416363657373436f6e74726f6c3a206163636f756e74200000000000000000008152600083516112598160178501602088016111f5565b7001034b99036b4b9b9b4b733903937b6329607d1b601791840191820152835161128a8160288401602088016111f5565b01602801949350505050565b60208152600082518060208401526112b58160408501602087016111f5565b601f01601f19169190910160400192915050565b634e487b7160e01b600052601160045260246000fd5b60008160001904831182151516156112f9576112f96112c9565b500290565b60008219821115611311576113116112c9565b500190565b634e487b7160e01b600052603260045260246000fd5b60008161133b5761133b6112c9565b506000190190565b600082516113558184602087016111f5565b919091019291505056fe360894a13ba1a3210667c828492db98dca3e2076cc3735a920a3ca505d382bbc416464726573733a206c6f772d6c6576656c2064656c65676174652063616c6c206661696c6564a264697066735822122074a7479d8efd3b53078e57d5df4fc08e5f511bd395895e4cbf60db340a62d84964736f6c63430008090033",
  "linkReferences": {},
  "deployedLinkReferences": {}
}