{
  "_format": "hh-sol-artifact-1",
  "contractName": "CommitteeToken",
  "sourceName": "contracts/governance/commette/committeeToken.sol",
  "abi": [
    {
      "inputs": [
        {
          "internalType": "address",
          "name": "_timeLock",
          "type": "address"
        }
      ],
      "stateMutability": "nonpayable",
      "type": "constructor"
    },
    {
      "anonymous": false,
      "inputs": [
        {
          "indexed": true,
          "internalType": "address",
          "name": "owner",
          "type": "address"
        },
        {
          "indexed": true,
          "internalType": "address",
          "name": "approved",
          "type": "address"
        },
        {
          "indexed": true,
          "internalType": "uint256",
          "name": "tokenId",
          "type": "uint256"
        }
      ],
      "name": "Approval",
      "type": "event"
    },
    {
      "anonymous": false,
      "inputs": [
        {
          "indexed": true,
          "internalType": "address",
          "name": "owner",
          "type": "address"
        },
        {
          "indexed": true,
          "internalType": "address",
          "name": "operator",
          "type": "address"
        },
        {
          "indexed": false,
          "internalType": "bool",
          "name": "approved",
          "type": "bool"
        }
      ],
      "name": "ApprovalForAll",
      "type": "event"
    },
    {
      "anonymous": false,
      "inputs": [
        {
          "indexed": true,
          "internalType": "address",
          "name": "delegator",
          "type": "address"
        },
        {
          "indexed": true,
          "internalType": "address",
          "name": "fromDelegate",
          "type": "address"
        },
        {
          "indexed": true,
          "internalType": "address",
          "name": "toDelegate",
          "type": "address"
        }
      ],
      "name": "DelegateChanged",
      "type": "event"
    },
    {
      "anonymous": false,
      "inputs": [
        {
          "indexed": true,
          "internalType": "address",
          "name": "delegate",
          "type": "address"
        },
        {
          "indexed": false,
          "internalType": "uint256",
          "name": "previousBalance",
          "type": "uint256"
        },
        {
          "indexed": false,
          "internalType": "uint256",
          "name": "newBalance",
          "type": "uint256"
        }
      ],
      "name": "DelegateVotesChanged",
      "type": "event"
    },
    {
      "anonymous": false,
      "inputs": [
        {
          "indexed": true,
          "internalType": "address",
          "name": "previousOwner",
          "type": "address"
        },
        {
          "indexed": true,
          "internalType": "address",
          "name": "newOwner",
          "type": "address"
        }
      ],
      "name": "OwnershipTransferred",
      "type": "event"
    },
    {
      "anonymous": false,
      "inputs": [
        {
          "indexed": false,
          "internalType": "address",
          "name": "account",
          "type": "address"
        }
      ],
      "name": "Paused",
      "type": "event"
    },
    {
      "anonymous": false,
      "inputs": [
        {
          "indexed": true,
          "internalType": "address",
          "name": "from",
          "type": "address"
        },
        {
          "indexed": true,
          "internalType": "address",
          "name": "to",
          "type": "address"
        },
        {
          "indexed": true,
          "internalType": "uint256",
          "name": "tokenId",
          "type": "uint256"
        }
      ],
      "name": "Transfer",
      "type": "event"
    },
    {
      "anonymous": false,
      "inputs": [
        {
          "indexed": false,
          "internalType": "address",
          "name": "account",
          "type": "address"
        }
      ],
      "name": "Unpaused",
      "type": "event"
    },
    {
      "inputs": [],
      "name": "DOMAIN_SEPARATOR",
      "outputs": [
        {
          "internalType": "bytes32",
          "name": "",
          "type": "bytes32"
        }
      ],
      "stateMutability": "view",
      "type": "function"
    },
    {
      "inputs": [
        {
          "internalType": "address",
          "name": "to",
          "type": "address"
        },
        {
          "internalType": "uint256",
          "name": "tokenId",
          "type": "uint256"
        }
      ],
      "name": "approve",
      "outputs": [],
      "stateMutability": "nonpayable",
      "type": "function"
    },
    {
      "inputs": [
        {
          "internalType": "address",
          "name": "owner",
          "type": "address"
        }
      ],
      "name": "balanceOf",
      "outputs": [
        {
          "internalType": "uint256",
          "name": "",
          "type": "uint256"
        }
      ],
      "stateMutability": "view",
      "type": "function"
    },
    {
      "inputs": [
        {
          "internalType": "uint256",
          "name": "tokenId",
          "type": "uint256"
        }
      ],
      "name": "burn",
      "outputs": [],
      "stateMutability": "nonpayable",
      "type": "function"
    },
    {
      "inputs": [
        {
          "internalType": "address",
          "name": "delegatee",
          "type": "address"
        }
      ],
      "name": "delegate",
      "outputs": [],
      "stateMutability": "nonpayable",
      "type": "function"
    },
    {
      "inputs": [
        {
          "internalType": "address",
          "name": "delegatee",
          "type": "address"
        },
        {
          "internalType": "uint256",
          "name": "nonce",
          "type": "uint256"
        },
        {
          "internalType": "uint256",
          "name": "expiry",
          "type": "uint256"
        },
        {
          "internalType": "uint8",
          "name": "v",
          "type": "uint8"
        },
        {
          "internalType": "bytes32",
          "name": "r",
          "type": "bytes32"
        },
        {
          "internalType": "bytes32",
          "name": "s",
          "type": "bytes32"
        }
      ],
      "name": "delegateBySig",
      "outputs": [],
      "stateMutability": "nonpayable",
      "type": "function"
    },
    {
      "inputs": [
        {
          "internalType": "address",
          "name": "account",
          "type": "address"
        }
      ],
      "name": "delegates",
      "outputs": [
        {
          "internalType": "address",
          "name": "",
          "type": "address"
        }
      ],
      "stateMutability": "view",
      "type": "function"
    },
    {
      "inputs": [
        {
          "internalType": "uint256",
          "name": "tokenId",
          "type": "uint256"
        }
      ],
      "name": "getApproved",
      "outputs": [
        {
          "internalType": "address",
          "name": "",
          "type": "address"
        }
      ],
      "stateMutability": "view",
      "type": "function"
    },
    {
      "inputs": [
        {
          "internalType": "uint256",
          "name": "blockNumber",
          "type": "uint256"
        }
      ],
      "name": "getPastTotalSupply",
      "outputs": [
        {
          "internalType": "uint256",
          "name": "",
          "type": "uint256"
        }
      ],
      "stateMutability": "view",
      "type": "function"
    },
    {
      "inputs": [
        {
          "internalType": "address",
          "name": "account",
          "type": "address"
        },
        {
          "internalType": "uint256",
          "name": "blockNumber",
          "type": "uint256"
        }
      ],
      "name": "getPastVotes",
      "outputs": [
        {
          "internalType": "uint256",
          "name": "",
          "type": "uint256"
        }
      ],
      "stateMutability": "view",
      "type": "function"
    },
    {
      "inputs": [
        {
          "internalType": "address",
          "name": "account",
          "type": "address"
        }
      ],
      "name": "getVotes",
      "outputs": [
        {
          "internalType": "uint256",
          "name": "",
          "type": "uint256"
        }
      ],
      "stateMutability": "view",
      "type": "function"
    },
    {
      "inputs": [
        {
          "internalType": "address",
          "name": "owner",
          "type": "address"
        },
        {
          "internalType": "address",
          "name": "operator",
          "type": "address"
        }
      ],
      "name": "isApprovedForAll",
      "outputs": [
        {
          "internalType": "bool",
          "name": "",
          "type": "bool"
        }
      ],
      "stateMutability": "view",
      "type": "function"
    },
    {
      "inputs": [],
      "name": "limitPerMember",
      "outputs": [
        {
          "internalType": "uint16",
          "name": "",
          "type": "uint16"
        }
      ],
      "stateMutability": "view",
      "type": "function"
    },
    {
      "inputs": [
        {
          "internalType": "address",
          "name": "",
          "type": "address"
        }
      ],
      "name": "mintCount",
      "outputs": [
        {
          "internalType": "uint16",
          "name": "",
          "type": "uint16"
        }
      ],
      "stateMutability": "view",
      "type": "function"
    },
    {
      "inputs": [],
      "name": "name",
      "outputs": [
        {
          "internalType": "string",
          "name": "",
          "type": "string"
        }
      ],
      "stateMutability": "view",
      "type": "function"
    },
    {
      "inputs": [
        {
          "internalType": "address",
          "name": "owner",
          "type": "address"
        }
      ],
      "name": "nonces",
      "outputs": [
        {
          "internalType": "uint256",
          "name": "",
          "type": "uint256"
        }
      ],
      "stateMutability": "view",
      "type": "function"
    },
    {
      "inputs": [],
      "name": "owner",
      "outputs": [
        {
          "internalType": "address",
          "name": "",
          "type": "address"
        }
      ],
      "stateMutability": "view",
      "type": "function"
    },
    {
      "inputs": [
        {
          "internalType": "uint256",
          "name": "tokenId",
          "type": "uint256"
        }
      ],
      "name": "ownerOf",
      "outputs": [
        {
          "internalType": "address",
          "name": "",
          "type": "address"
        }
      ],
      "stateMutability": "view",
      "type": "function"
    },
    {
      "inputs": [],
      "name": "pause",
      "outputs": [],
      "stateMutability": "nonpayable",
      "type": "function"
    },
    {
      "inputs": [],
      "name": "paused",
      "outputs": [
        {
          "internalType": "bool",
          "name": "",
          "type": "bool"
        }
      ],
      "stateMutability": "view",
      "type": "function"
    },
    {
      "inputs": [],
      "name": "renounceOwnership",
      "outputs": [],
      "stateMutability": "nonpayable",
      "type": "function"
    },
    {
      "inputs": [
        {
          "internalType": "address",
          "name": "to",
          "type": "address"
        },
        {
          "internalType": "string",
          "name": "uri",
          "type": "string"
        },
        {
          "internalType": "uint256",
          "name": "_TokenId",
          "type": "uint256"
        }
      ],
      "name": "safeMint",
      "outputs": [],
      "stateMutability": "nonpayable",
      "type": "function"
    },
    {
      "inputs": [
        {
          "internalType": "address",
          "name": "from",
          "type": "address"
        },
        {
          "internalType": "address",
          "name": "to",
          "type": "address"
        },
        {
          "internalType": "uint256",
          "name": "tokenId",
          "type": "uint256"
        }
      ],
      "name": "safeTransferFrom",
      "outputs": [],
      "stateMutability": "nonpayable",
      "type": "function"
    },
    {
      "inputs": [
        {
          "internalType": "address",
          "name": "from",
          "type": "address"
        },
        {
          "internalType": "address",
          "name": "to",
          "type": "address"
        },
        {
          "internalType": "uint256",
          "name": "tokenId",
          "type": "uint256"
        },
        {
          "internalType": "bytes",
          "name": "data",
          "type": "bytes"
        }
      ],
      "name": "safeTransferFrom",
      "outputs": [],
      "stateMutability": "nonpayable",
      "type": "function"
    },
    {
      "inputs": [
        {
          "internalType": "address",
          "name": "operator",
          "type": "address"
        },
        {
          "internalType": "bool",
          "name": "approved",
          "type": "bool"
        }
      ],
      "name": "setApprovalForAll",
      "outputs": [],
      "stateMutability": "nonpayable",
      "type": "function"
    },
    {
      "inputs": [
        {
          "internalType": "bytes4",
          "name": "interfaceId",
          "type": "bytes4"
        }
      ],
      "name": "supportsInterface",
      "outputs": [
        {
          "internalType": "bool",
          "name": "",
          "type": "bool"
        }
      ],
      "stateMutability": "view",
      "type": "function"
    },
    {
      "inputs": [],
      "name": "symbol",
      "outputs": [
        {
          "internalType": "string",
          "name": "",
          "type": "string"
        }
      ],
      "stateMutability": "view",
      "type": "function"
    },
    {
      "inputs": [
        {
          "internalType": "uint256",
          "name": "index",
          "type": "uint256"
        }
      ],
      "name": "tokenByIndex",
      "outputs": [
        {
          "internalType": "uint256",
          "name": "",
          "type": "uint256"
        }
      ],
      "stateMutability": "view",
      "type": "function"
    },
    {
      "inputs": [
        {
          "internalType": "address",
          "name": "owner",
          "type": "address"
        },
        {
          "internalType": "uint256",
          "name": "index",
          "type": "uint256"
        }
      ],
      "name": "tokenOfOwnerByIndex",
      "outputs": [
        {
          "internalType": "uint256",
          "name": "",
          "type": "uint256"
        }
      ],
      "stateMutability": "view",
      "type": "function"
    },
    {
      "inputs": [
        {
          "internalType": "uint256",
          "name": "tokenId",
          "type": "uint256"
        }
      ],
      "name": "tokenURI",
      "outputs": [
        {
          "internalType": "string",
          "name": "",
          "type": "string"
        }
      ],
      "stateMutability": "view",
      "type": "function"
    },
    {
      "inputs": [],
      "name": "totalSupply",
      "outputs": [
        {
          "internalType": "uint256",
          "name": "",
          "type": "uint256"
        }
      ],
      "stateMutability": "view",
      "type": "function"
    },
    {
      "inputs": [
        {
          "internalType": "address",
          "name": "from",
          "type": "address"
        },
        {
          "internalType": "address",
          "name": "to",
          "type": "address"
        },
        {
          "internalType": "uint256",
          "name": "tokenId",
          "type": "uint256"
        }
      ],
      "name": "transferFrom",
      "outputs": [],
      "stateMutability": "nonpayable",
      "type": "function"
    },
    {
      "inputs": [
        {
          "internalType": "address",
          "name": "newOwner",
          "type": "address"
        }
      ],
      "name": "transferOwnership",
      "outputs": [],
      "stateMutability": "nonpayable",
      "type": "function"
    },
    {
      "inputs": [],
      "name": "unpause",
      "outputs": [],
      "stateMutability": "nonpayable",
      "type": "function"
    }
  ],
  "bytecode": "0x6101406040526011805461ffff191660021790553480156200002057600080fd5b5060405162004801380380620048018339810160408190526200004391620013b1565b6040518060400160405280600e81526020016d31b7b6b6b4ba3a32b2aa37b5b2b760911b815250604051806040016040528060018152602001603160f81b8152506040518060400160405280600e81526020016d31b7b6b6b4ba3a32b2aa37b5b2b760911b815250604051806040016040528060048152602001636353415960e01b8152508160009080519060200190620000e092919062001315565b508051620000f690600190602084019062001315565b5050600b805460ff19169055506200010e33620001da565b815160208084019190912082518383012060e08290526101008190524660a0818152604080517f8b73c3c69bb8fe3d512ecc4cf759cc79239f7b179b0ffacaa9a75d522b39400f81880181905281830187905260608201869052608082019490945230818401528151808203909301835260c00190528051940193909320919290916080523060c05261012052505060408051808201909152600381526255524960e81b6020820152620001c89250339150600162000234565b620001d3816200035a565b5062001560565b600b80546001600160a01b03838116610100818102610100600160a81b031985161790945560405193909204169182907f8be0079c531659141344cd1fd0a4f28419497f9722a3daafe3b4186f6b6457e090600090a35050565b6200023e620003dd565b60008181526002602052604090205481906001600160a01b03166200026257600080fd5b6000818152600260205260409020546001600160a01b03163381146200028757600080fd5b6000620002a060106200042760201b62000d721760201c565b9050620002b960106200042b60201b62000d761760201c565b6001600160a01b03861660009081526012602052604090205460115461ffff9182169116811115620002ea57600080fd5b620002f6878362000434565b6001600160a01b03871660009081526012602052604081208054600192906200032590849061ffff16620013f2565b92506101000a81548161ffff021916908361ffff1602179055506200035182876200045a60201b60201c565b50505050505050565b62000364620004fd565b6001600160a01b038116620003cf5760405162461bcd60e51b815260206004820152602660248201527f4f776e61626c653a206e6577206f776e657220697320746865207a65726f206160448201526564647265737360d01b60648201526084015b60405180910390fd5b620003da81620001da565b50565b600b5460ff1615620004255760405162461bcd60e51b815260206004820152601060248201526f14185d5cd8589b194e881c185d5cd95960821b6044820152606401620003c6565b565b5490565b80546001019055565b620004568282604051806020016040528060008152506200055f60201b60201c565b5050565b6000828152600260205260409020546001600160a01b0316620004d75760405162461bcd60e51b815260206004820152602e60248201527f45524337323155524953746f726167653a2055524920736574206f66206e6f6e60448201526d32bc34b9ba32b73a103a37b5b2b760911b6064820152608401620003c6565b6000828152600a602090815260409091208251620004f89284019062001315565b505050565b600b546001600160a01b03610100909104163314620004255760405162461bcd60e51b815260206004820181905260248201527f4f776e61626c653a2063616c6c6572206973206e6f7420746865206f776e65726044820152606401620003c6565b6200056b8383620005d2565b6200057a60008484846200077f565b620004f85760405162461bcd60e51b81526020600482015260326024820152600080516020620047c183398151915260448201527131b2b4bb32b91034b6b83632b6b2b73a32b960711b6064820152608401620003c6565b6001600160a01b0382166200062a5760405162461bcd60e51b815260206004820181905260248201527f4552433732313a206d696e7420746f20746865207a65726f20616464726573736044820152606401620003c6565b6000818152600260205260409020546001600160a01b031615620006915760405162461bcd60e51b815260206004820152601c60248201527f4552433732313a20746f6b656e20616c7265616479206d696e746564000000006044820152606401620003c6565b620006a1600083836001620008e8565b6000818152600260205260409020546001600160a01b031615620007085760405162461bcd60e51b815260206004820152601c60248201527f4552433732313a20746f6b656e20616c7265616479206d696e746564000000006044820152606401620003c6565b6001600160a01b038216600081815260036020908152604080832080546001019055848352600290915280822080546001600160a01b0319168417905551839291907fddf252ad1be2c89b69c2b068fc378daa952ba7f163c4a11628f55a4df523b3ef908290a46200045660008383600162000911565b6000620007a0846001600160a01b03166200092a60201b62000d7f1760201c565b15620008dc57604051630a85bd0160e11b81526001600160a01b0385169063150b7a0290620007da9033908990889088906004016200141b565b602060405180830381600087803b158015620007f557600080fd5b505af192505050801562000828575060408051601f3d908101601f19168201909252620008259181019062001496565b60015b620008c1573d80801562000859576040519150601f19603f3d011682016040523d82523d6000602084013e6200085e565b606091505b508051620008b95760405162461bcd60e51b81526020600482015260326024820152600080516020620047c183398151915260448201527131b2b4bb32b91034b6b83632b6b2b73a32b960711b6064820152608401620003c6565b805181602001fd5b6001600160e01b031916630a85bd0160e11b149050620008e0565b5060015b949350505050565b620008f2620003dd565b6200090b848484846200093960201b62000d8e1760201c565b50505050565b6200090b8484848462000a9d60201b62000ece1760201c565b6001600160a01b03163b151590565b620009528484848462000ac360201b62000ede1760201c565b6001811115620009cb5760405162461bcd60e51b815260206004820152603560248201527f455243373231456e756d657261626c653a20636f6e736563757469766520747260448201527f616e7366657273206e6f7420737570706f7274656400000000000000000000006064820152608401620003c6565b816001600160a01b03851662000a2a5762000a2481600880546000838152600960205260408120829055600182018355919091527ff3f7a9fe364faab93b216da50a3214154f22a0a2b415b23a84c8169e8b636ee30155565b62000a50565b836001600160a01b0316856001600160a01b03161462000a505762000a50858262000b52565b6001600160a01b03841662000a705762000a6a8162000bff565b62000a96565b846001600160a01b0316846001600160a01b03161462000a965762000a96848262000cb9565b5050505050565b62000aaa84848362000d0a565b6200090b848484846200090b60201b62000ac91760201c565b60018111156200090b576001600160a01b0384161562000b0d576001600160a01b0384166000908152600360205260408120805483929062000b07908490620014c2565b90915550505b6001600160a01b038316156200090b576001600160a01b0383166000908152600360205260408120805483929062000b47908490620014dc565b909155505050505050565b6000600162000b6c8462000db260201b6200092b1760201c565b62000b789190620014c2565b60008381526007602052604090205490915080821462000bcc576001600160a01b03841660009081526006602090815260408083208584528252808320548484528184208190558352600790915290208190555b5060009182526007602090815260408084208490556001600160a01b039094168352600681528383209183525290812055565b60085460009062000c1390600190620014c2565b6000838152600960205260408120546008805493945090928490811062000c3e5762000c3e620014f7565b90600052602060002001549050806008838154811062000c625762000c62620014f7565b600091825260208083209091019290925582815260099091526040808220849055858252812055600880548062000c9d5762000c9d6200150d565b6001900381819060005260206000200160009055905550505050565b600062000cd18362000db260201b6200092b1760201c565b6001600160a01b039093166000908152600660209081526040808320868452825280832085905593825260079052919091209190915550565b6001600160a01b03831662000d445762000d4162000e3a60201b62000f661782600e62000e4f60201b62000f72179092919060201c565b50505b6001600160a01b03821662000d7e5762000d7b62000e8960201b62000faa1782600e62000e4f60201b62000f72179092919060201c565b50505b6001600160a01b038381166000908152600c6020526040808220548584168352912054620004f89291821691168362000e97565b60006001600160a01b03821662000e1e5760405162461bcd60e51b815260206004820152602960248201527f4552433732313a2061646472657373207a65726f206973206e6f7420612076616044820152683634b21037bbb732b960b91b6064820152608401620003c6565b506001600160a01b031660009081526003602052604090205490565b600062000e488284620014dc565b9392505050565b60008062000e7c8562000e7662000e668262000fe8565b6001600160e01b0316868860201c565b62001035565b915091505b935093915050565b600062000e488284620014c2565b816001600160a01b0316836001600160a01b03161415801562000eba5750600081115b15620004f8576001600160a01b0383161562000f52576001600160a01b0383166000908152600d602090815260408220829162000f0f919062000faa62000e89821b1790869062000f7262000e4f821b17901c565b91509150846001600160a01b0316600080516020620047e1833981519152838360405162000f47929190918252602082015260400190565b60405180910390a250505b6001600160a01b03821615620004f8576001600160a01b0382166000908152600d602090815260408220829162000fa1919062000f6662000e3a821b1790869062000f7262000e4f821b17901c565b91509150836001600160a01b0316600080516020620047e1833981519152838360405162000fd9929190918252602082015260400190565b60405180910390a25050505050565b805460009080156200102c57620010148362001006600184620014c2565b600091825260209091200190565b5464010000000090046001600160e01b031662000e48565b60009392505050565b600080620010728460000162001056436200108860201b62000fb61760201c565b6200106c86620010f360201b6200101f1760201c565b6200115e565b6001600160e01b03918216969116945092505050565b600063ffffffff821115620010ef5760405162461bcd60e51b815260206004820152602660248201527f53616665436173743a2076616c756520646f65736e27742066697420696e203360448201526532206269747360d01b6064820152608401620003c6565b5090565b60006001600160e01b03821115620010ef5760405162461bcd60e51b815260206004820152602760248201527f53616665436173743a2076616c756520646f65736e27742066697420696e20326044820152663234206269747360c81b6064820152608401620003c6565b825460009081908015620012ba576000620011808762001006600185620014c2565b60408051808201909152905463ffffffff8082168084526401000000009092046001600160e01b031660208401529192509087161015620012045760405162461bcd60e51b815260206004820152601760248201527f436865636b706f696e743a20696e76616c6964206b65790000000000000000006044820152606401620003c6565b8563ffffffff16816000015163ffffffff161415620012595784620012308862001006600186620014c2565b80546001600160e01b03929092166401000000000263ffffffff909216919091179055620012a9565b6040805180820190915263ffffffff80881682526001600160e01b0380881660208085019182528b54600181018d5560008d81529190912094519151909216640100000000029216919091179101555b60200151925083915062000e819050565b50506040805180820190915263ffffffff80851682526001600160e01b0380851660208085019182528854600181018a5560008a81529182209551925190931664010000000002919093161792019190915590508162000e81565b828054620013239062001523565b90600052602060002090601f01602090048101928262001347576000855562001392565b82601f106200136257805160ff191683800117855562001392565b8280016001018555821562001392579182015b828111156200139257825182559160200191906001019062001375565b50620010ef9291505b80821115620010ef57600081556001016200139b565b600060208284031215620013c457600080fd5b81516001600160a01b038116811462000e4857600080fd5b634e487b7160e01b600052601160045260246000fd5b600061ffff808316818516808303821115620014125762001412620013dc565b01949350505050565b600060018060a01b038087168352602081871681850152856040850152608060608501528451915081608085015260005b828110156200146a5785810182015185820160a0015281016200144c565b828111156200147d57600060a084870101525b5050601f01601f19169190910160a00195945050505050565b600060208284031215620014a957600080fd5b81516001600160e01b03198116811462000e4857600080fd5b600082821015620014d757620014d7620013dc565b500390565b60008219821115620014f257620014f2620013dc565b500190565b634e487b7160e01b600052603260045260246000fd5b634e487b7160e01b600052603160045260246000fd5b600181811c908216806200153857607f821691505b602082108114156200155a57634e487b7160e01b600052602260045260246000fd5b50919050565b60805160a05160c05160e0516101005161012051613211620015b060003960006113fc0152600061144b015260006114260152600061137f015260006113a9015260006113d301526132116000f3fe608060405234801561001057600080fd5b50600436106102065760003560e01c80636acb2b131161011a5780639ab24eb0116100ad578063c772745a1161007c578063c772745a1461044d578063c87b56dd14610460578063e985e9c514610473578063ed9ec888146104af578063f2fde38b146104d357600080fd5b80639ab24eb014610401578063a22cb46514610414578063b88d4fde14610427578063c3cda5201461043a57600080fd5b80638456cb59116100e95780638456cb59146103c85780638da5cb5b146103d05780638e539e8c146103e657806395d89b41146103f957600080fd5b80636acb2b131461037957806370a082311461039a578063715018a6146103ad5780637ecebe00146103b557600080fd5b80633a46b1a81161019d5780634f6ccce71161016c5780634f6ccce714610309578063587cde1e1461031c5780635c19a95c146103485780635c975abb1461035b5780636352211e1461036657600080fd5b80633a46b1a8146102c85780633f4ba83a146102db57806342842e0e146102e357806342966c68146102f657600080fd5b806318160ddd116101d957806318160ddd1461028857806323b872dd1461029a5780632f745c59146102ad5780633644e515146102c057600080fd5b806301ffc9a71461020b57806306fdde0314610233578063081812fc14610248578063095ea7b314610273575b600080fd5b61021e610219366004612bdd565b6104e6565b60405190151581526020015b60405180910390f35b61023b6104f7565b60405161022a9190612c52565b61025b610256366004612c65565b610589565b6040516001600160a01b03909116815260200161022a565b610286610281366004612c9a565b6105b0565b005b6008545b60405190815260200161022a565b6102866102a8366004612cc4565b6106cb565b61028c6102bb366004612c9a565b6106fd565b61028c610793565b61028c6102d6366004612c9a565b6107a2565b6102866107cb565b6102866102f1366004612cc4565b6107dd565b610286610304366004612c65565b6107f8565b61028c610317366004612c65565b610829565b61025b61032a366004612d00565b6001600160a01b039081166000908152600c60205260409020541690565b610286610356366004612d00565b6108bc565b600b5460ff1661021e565b61025b610374366004612c65565b6108cb565b6011546103879061ffff1681565b60405161ffff909116815260200161022a565b61028c6103a8366004612d00565b61092b565b6102866109b1565b61028c6103c3366004612d00565b6109c3565b6102866109e1565b600b5461010090046001600160a01b031661025b565b61028c6103f4366004612c65565b6109f1565b61023b610a4d565b61028c61040f366004612d00565b610a5c565b610286610422366004612d1b565b610a8c565b610286610435366004612de3565b610a97565b610286610448366004612e5f565b610acf565b61028661045b366004612ebf565b610bfc565b61023b61046e366004612c65565b610cf1565b61021e610481366004612f2a565b6001600160a01b03918216600090815260056020908152604080832093909416825291909152205460ff1690565b6103876104bd366004612d00565b60126020526000908152604090205461ffff1681565b6102866104e1366004612d00565b610cfc565b60006104f182611088565b92915050565b60606000805461050690612f5d565b80601f016020809104026020016040519081016040528092919081815260200182805461053290612f5d565b801561057f5780601f106105545761010080835404028352916020019161057f565b820191906000526020600020905b81548152906001019060200180831161056257829003601f168201915b5050505050905090565b6000610594826110ad565b506000908152600460205260409020546001600160a01b031690565b60006105bb826108cb565b9050806001600160a01b0316836001600160a01b0316141561062e5760405162461bcd60e51b815260206004820152602160248201527f4552433732313a20617070726f76616c20746f2063757272656e74206f776e656044820152603960f91b60648201526084015b60405180910390fd5b336001600160a01b038216148061064a575061064a8133610481565b6106bc5760405162461bcd60e51b815260206004820152603d60248201527f4552433732313a20617070726f76652063616c6c6572206973206e6f7420746f60448201527f6b656e206f776e6572206f7220617070726f76656420666f7220616c6c0000006064820152608401610625565b6106c6838361110c565b505050565b6106d6335b8261117a565b6106f25760405162461bcd60e51b815260040161062590612f92565b6106c68383836111f9565b60006107088361092b565b821061076a5760405162461bcd60e51b815260206004820152602b60248201527f455243373231456e756d657261626c653a206f776e657220696e646578206f7560448201526a74206f6620626f756e647360a81b6064820152608401610625565b506001600160a01b03919091166000908152600660209081526040808320938352929052205490565b600061079d611372565b905090565b6001600160a01b0382166000908152600d602052604081206107c49083611499565b9392505050565b6107d36115b5565b6107db611615565b565b6106c683838360405180602001604052806000815250610a97565b610801336106d0565b61081d5760405162461bcd60e51b815260040161062590612f92565b61082681611667565b50565b600061083460085490565b82106108975760405162461bcd60e51b815260206004820152602c60248201527f455243373231456e756d657261626c653a20676c6f62616c20696e646578206f60448201526b7574206f6620626f756e647360a01b6064820152608401610625565b600882815481106108aa576108aa612fdf565b90600052602060002001549050919050565b336108c78183611670565b5050565b6000818152600260205260408120546001600160a01b0316806104f15760405162461bcd60e51b8152602060048201526018602482015277115490cdcc8c4e881a5b9d985b1a59081d1bdad95b88125160421b6044820152606401610625565b60006001600160a01b0382166109955760405162461bcd60e51b815260206004820152602960248201527f4552433732313a2061646472657373207a65726f206973206e6f7420612076616044820152683634b21037bbb732b960b91b6064820152608401610625565b506001600160a01b031660009081526003602052604090205490565b6109b96115b5565b6107db60006116e2565b6001600160a01b0381166000908152600f60205260408120546104f1565b6109e96115b5565b6107db61173c565b6000438210610a425760405162461bcd60e51b815260206004820152601a60248201527f566f7465733a20626c6f636b206e6f7420796574206d696e65640000000000006044820152606401610625565b6104f1600e83611499565b60606001805461050690612f5d565b6001600160a01b0381166000908152600d60205260408120610a7d90611779565b6001600160e01b031692915050565b6108c73383836117b3565b610aa1338361117a565b610abd5760405162461bcd60e51b815260040161062590612f92565b610ac984848484611882565b50505050565b83421115610b1f5760405162461bcd60e51b815260206004820152601860248201527f566f7465733a207369676e6174757265206578706972656400000000000000006044820152606401610625565b604080517fe48329057bfd03d55e49b547132e39cffd9c1820ad7b9d4c5307691425d15adf60208201526001600160a01b038816918101919091526060810186905260808101859052600090610b9990610b919060a001604051602081830303815290604052805190602001206118b5565b858585611903565b9050610ba48161192b565b8614610be95760405162461bcd60e51b8152602060048201526014602482015273566f7465733a20696e76616c6964206e6f6e636560601b6044820152606401610625565b610bf38188611670565b50505050505050565b610c04611953565b60008181526002602052604090205481906001600160a01b0316610c2757600080fd5b6000818152600260205260409020546001600160a01b0316338114610c4b57600080fd5b6000610c5660105490565b9050610c66601080546001019055565b6001600160a01b03861660009081526012602052604090205460115461ffff9182169116811115610c9657600080fd5b610ca08783611999565b6001600160a01b0387166000908152601260205260408120805460019290610ccd90849061ffff1661300b565b92506101000a81548161ffff021916908361ffff160217905550610bf382876119b3565b60606104f182611a4d565b610d046115b5565b6001600160a01b038116610d695760405162461bcd60e51b815260206004820152602660248201527f4f776e61626c653a206e6577206f776e657220697320746865207a65726f206160448201526564647265737360d01b6064820152608401610625565b610826816116e2565b5490565b80546001019055565b6001600160a01b03163b151590565b610d9a84848484610ede565b6001811115610e095760405162461bcd60e51b815260206004820152603560248201527f455243373231456e756d657261626c653a20636f6e7365637574697665207472604482015274185b9cd9995c9cc81b9bdd081cdd5c1c1bdc9d1959605a1b6064820152608401610625565b816001600160a01b038516610e6557610e6081600880546000838152600960205260408120829055600182018355919091527ff3f7a9fe364faab93b216da50a3214154f22a0a2b415b23a84c8169e8b636ee30155565b610e88565b836001600160a01b0316856001600160a01b031614610e8857610e888582611b56565b6001600160a01b038416610ea457610e9f81611bf3565b610ec7565b846001600160a01b0316846001600160a01b031614610ec757610ec78482611ca2565b5050505050565b610ed9848483611ce6565b610ac9565b6001811115610ac9576001600160a01b03841615610f24576001600160a01b03841660009081526003602052604081208054839290610f1e908490613031565b90915550505b6001600160a01b03831615610ac9576001600160a01b03831660009081526003602052604081208054839290610f5b908490613048565b909155505050505050565b60006107c48284613048565b600080610f9d85610f98610f8588611779565b6001600160e01b0316868863ffffffff16565b611d56565b915091505b935093915050565b60006107c48284613031565b600063ffffffff82111561101b5760405162461bcd60e51b815260206004820152602660248201527f53616665436173743a2076616c756520646f65736e27742066697420696e203360448201526532206269747360d01b6064820152608401610625565b5090565b60006001600160e01b0382111561101b5760405162461bcd60e51b815260206004820152602760248201527f53616665436173743a2076616c756520646f65736e27742066697420696e20326044820152663234206269747360c81b6064820152608401610625565b60006001600160e01b0319821663780e9d6360e01b14806104f157506104f182611d8a565b6000818152600260205260409020546001600160a01b03166108265760405162461bcd60e51b8152602060048201526018602482015277115490cdcc8c4e881a5b9d985b1a59081d1bdad95b88125160421b6044820152606401610625565b600081815260046020526040902080546001600160a01b0319166001600160a01b0384169081179091558190611141826108cb565b6001600160a01b03167f8c5be1e5ebec7d5bd14f71427d1e84f3dd0314c0f7b2291e5b200ac8c7c3b92560405160405180910390a45050565b600080611186836108cb565b9050806001600160a01b0316846001600160a01b031614806111cd57506001600160a01b0380821660009081526005602090815260408083209388168352929052205460ff165b806111f15750836001600160a01b03166111e684610589565b6001600160a01b0316145b949350505050565b826001600160a01b031661120c826108cb565b6001600160a01b0316146112325760405162461bcd60e51b815260040161062590613060565b6001600160a01b0382166112945760405162461bcd60e51b8152602060048201526024808201527f4552433732313a207472616e7366657220746f20746865207a65726f206164646044820152637265737360e01b6064820152608401610625565b6112a18383836001611dda565b826001600160a01b03166112b4826108cb565b6001600160a01b0316146112da5760405162461bcd60e51b815260040161062590613060565b600081815260046020908152604080832080546001600160a01b03199081169091556001600160a01b0387811680865260038552838620805460001901905590871680865283862080546001019055868652600290945282852080549092168417909155905184937fddf252ad1be2c89b69c2b068fc378daa952ba7f163c4a11628f55a4df523b3ef91a46106c68383836001611dee565b6000306001600160a01b037f0000000000000000000000000000000000000000000000000000000000000000161480156113cb57507f000000000000000000000000000000000000000000000000000000000000000046145b156113f557507f000000000000000000000000000000000000000000000000000000000000000090565b50604080517f00000000000000000000000000000000000000000000000000000000000000006020808301919091527f0000000000000000000000000000000000000000000000000000000000000000828401527f000000000000000000000000000000000000000000000000000000000000000060608301524660808301523060a0808401919091528351808403909101815260c0909201909252805191012090565b60004382106114ea5760405162461bcd60e51b815260206004820181905260248201527f436865636b706f696e74733a20626c6f636b206e6f7420796574206d696e65646044820152606401610625565b60006114f583610fb6565b8454909150600081600581111561155357600061151184611dfa565b61151b9085613031565b60008981526020902090915081015463ffffffff908116908616101561154357809150611551565b61154e816001613048565b92505b505b600061156188868585611edf565b9050801561159d5761158688611578600184613031565b600091825260209091200190565b5464010000000090046001600160e01b03166115a0565b60005b6001600160e01b031698975050505050505050565b600b546001600160a01b036101009091041633146107db5760405162461bcd60e51b815260206004820181905260248201527f4f776e61626c653a2063616c6c6572206973206e6f7420746865206f776e65726044820152606401610625565b61161d611f3d565b600b805460ff191690557f5db9ee0a495bf2e6ff9c91a7834c1ba4fdd244a5e8aa4e537bd38aeae4b073aa335b6040516001600160a01b03909116815260200160405180910390a1565b61082681611f86565b6001600160a01b038281166000818152600c602052604080822080548686166001600160a01b0319821681179092559151919094169392849290917f3134e8a2e6d97e929a7e54011ea5485d7d196dd5f0ba4d4ef95803e8e3fc257f9190a46106c681836116dd86611fc6565b611fd1565b600b80546001600160a01b03838116610100818102610100600160a81b031985161790945560405193909204169182907f8be0079c531659141344cd1fd0a4f28419497f9722a3daafe3b4186f6b6457e090600090a35050565b611744611953565b600b805460ff191660011790557f62e78cea01bee320cd4e420270b5ea74000d11b0c9f74754ebdbfc544b05a25861164a3390565b805460009080156117aa5761179383611578600184613031565b5464010000000090046001600160e01b03166107c4565b60009392505050565b816001600160a01b0316836001600160a01b031614156118155760405162461bcd60e51b815260206004820152601960248201527f4552433732313a20617070726f766520746f2063616c6c6572000000000000006044820152606401610625565b6001600160a01b03838116600081815260056020908152604080832094871680845294825291829020805460ff191686151590811790915591519182527f17307eab39ab6107e8899845ad3d59bd9653f200f220920489ca2b5937696c31910160405180910390a3505050565b61188d8484846111f9565b6118998484848461210e565b610ac95760405162461bcd60e51b8152600401610625906130a5565b60006104f16118c2611372565b8360405161190160f01b6020820152602281018390526042810182905260009060620160405160208183030381529060405280519060200120905092915050565b600080600061191487878787612218565b91509150611921816122dc565b5095945050505050565b6001600160a01b0381166000908152600f602052604090208054600181018255905b50919050565b600b5460ff16156107db5760405162461bcd60e51b815260206004820152601060248201526f14185d5cd8589b194e881c185d5cd95960821b6044820152606401610625565b6108c782826040518060200160405280600081525061242a565b6000828152600260205260409020546001600160a01b0316611a2e5760405162461bcd60e51b815260206004820152602e60248201527f45524337323155524953746f726167653a2055524920736574206f66206e6f6e60448201526d32bc34b9ba32b73a103a37b5b2b760911b6064820152608401610625565b6000828152600a6020908152604090912082516106c692840190612afc565b6060611a58826110ad565b6000828152600a602052604081208054611a7190612f5d565b80601f0160208091040260200160405190810160405280929190818152602001828054611a9d90612f5d565b8015611aea5780601f10611abf57610100808354040283529160200191611aea565b820191906000526020600020905b815481529060010190602001808311611acd57829003601f168201915b505050505090506000611b0860408051602081019091526000815290565b9050805160001415611b1b575092915050565b815115611b4d578082604051602001611b359291906130f7565b60405160208183030381529060405292505050919050565b6111f18461245d565b60006001611b638461092b565b611b6d9190613031565b600083815260076020526040902054909150808214611bc0576001600160a01b03841660009081526006602090815260408083208584528252808320548484528184208190558352600790915290208190555b5060009182526007602090815260408084208490556001600160a01b039094168352600681528383209183525290812055565b600854600090611c0590600190613031565b60008381526009602052604081205460088054939450909284908110611c2d57611c2d612fdf565b906000526020600020015490508060088381548110611c4e57611c4e612fdf565b6000918252602080832090910192909255828152600990915260408082208490558582528120556008805480611c8657611c8661311d565b6001900381819060005260206000200160009055905550505050565b6000611cad8361092b565b6001600160a01b039093166000908152600660209081526040808320868452825280832085905593825260079052919091209190915550565b6001600160a01b038316611d0557611d02600e610f6683610f72565b50505b6001600160a01b038216611d2457611d21600e610faa83610f72565b50505b6001600160a01b038381166000908152600c60205260408082205485841683529120546106c692918216911683611fd1565b600080611d7484611d6643610fb6565b611d6f8661101f565b6124d0565b6001600160e01b03918216969116945092505050565b60006001600160e01b031982166380ac58cd60e01b1480611dbb57506001600160e01b03198216635b5e139f60e01b145b806104f157506301ffc9a760e01b6001600160e01b03198316146104f1565b611de2611953565b610ac984848484610d8e565b610ac984848484610ece565b600081611e0957506000919050565b60006001611e168461267a565b901c6001901b90506001818481611e2f57611e2f613133565b048201901c90506001818481611e4757611e47613133565b048201901c90506001818481611e5f57611e5f613133565b048201901c90506001818481611e7757611e77613133565b048201901c90506001818481611e8f57611e8f613133565b048201901c90506001818481611ea757611ea7613133565b048201901c90506001818481611ebf57611ebf613133565b048201901c90506107c481828581611ed957611ed9613133565b0461270e565b60005b81831015611f35576000611ef68484612724565b60008781526020902090915063ffffffff86169082015463ffffffff161115611f2157809250611f2f565b611f2c816001613048565b93505b50611ee2565b509392505050565b600b5460ff166107db5760405162461bcd60e51b815260206004820152601460248201527314185d5cd8589b194e881b9bdd081c185d5cd95960621b6044820152606401610625565b611f8f8161273f565b6000818152600a602052604090208054611fa890612f5d565b159050610826576000818152600a6020526040812061082691612b7c565b60006104f18261092b565b816001600160a01b0316836001600160a01b031614158015611ff35750600081115b156106c6576001600160a01b03831615612081576001600160a01b0383166000908152600d60205260408120819061202e90610faa85610f72565b91509150846001600160a01b03167fdec2bacdd2f05b59de34da9b523dff8be42e5e38e818c82fdb0bae774387a7248383604051612076929190918252602082015260400190565b60405180910390a250505b6001600160a01b038216156106c6576001600160a01b0382166000908152600d6020526040812081906120b790610f6685610f72565b91509150836001600160a01b03167fdec2bacdd2f05b59de34da9b523dff8be42e5e38e818c82fdb0bae774387a72483836040516120ff929190918252602082015260400190565b60405180910390a25050505050565b60006001600160a01b0384163b1561221057604051630a85bd0160e11b81526001600160a01b0385169063150b7a0290612152903390899088908890600401613149565b602060405180830381600087803b15801561216c57600080fd5b505af192505050801561219c575060408051601f3d908101601f1916820190925261219991810190613186565b60015b6121f6573d8080156121ca576040519150601f19603f3d011682016040523d82523d6000602084013e6121cf565b606091505b5080516121ee5760405162461bcd60e51b8152600401610625906130a5565b805181602001fd5b6001600160e01b031916630a85bd0160e11b1490506111f1565b5060016111f1565b6000807f7fffffffffffffffffffffffffffffff5d576e7357a4501ddfe92f46681b20a083111561224f57506000905060036122d3565b6040805160008082526020820180845289905260ff881692820192909252606081018690526080810185905260019060a0016020604051602081039080840390855afa1580156122a3573d6000803e3d6000fd5b5050604051601f1901519150506001600160a01b0381166122cc576000600192509250506122d3565b9150600090505b94509492505050565b60008160048111156122f0576122f06131a3565b14156122f95750565b600181600481111561230d5761230d6131a3565b141561235b5760405162461bcd60e51b815260206004820152601860248201527f45434453413a20696e76616c6964207369676e617475726500000000000000006044820152606401610625565b600281600481111561236f5761236f6131a3565b14156123bd5760405162461bcd60e51b815260206004820152601f60248201527f45434453413a20696e76616c6964207369676e6174757265206c656e677468006044820152606401610625565b60038160048111156123d1576123d16131a3565b14156108265760405162461bcd60e51b815260206004820152602260248201527f45434453413a20696e76616c6964207369676e6174757265202773272076616c604482015261756560f01b6064820152608401610625565b61243483836127ec565b612441600084848461210e565b6106c65760405162461bcd60e51b8152600401610625906130a5565b6060612468826110ad565b600061247f60408051602081019091526000815290565b9050600081511161249f57604051806020016040528060008152506107c4565b806124a98461298f565b6040516020016124ba9291906130f7565b6040516020818303038152906040529392505050565b8254600090819080156126205760006124ee87611578600185613031565b60408051808201909152905463ffffffff8082168084526401000000009092046001600160e01b0316602084015291925090871610156125705760405162461bcd60e51b815260206004820152601760248201527f436865636b706f696e743a20696e76616c6964206b65790000000000000000006044820152606401610625565b8563ffffffff16816000015163ffffffff1614156125c0578461259888611578600186613031565b80546001600160e01b03929092166401000000000263ffffffff909216919091179055612610565b6040805180820190915263ffffffff80881682526001600160e01b0380881660208085019182528b54600181018d5560008d81529190912094519151909216640100000000029216919091179101555b602001519250839150610fa29050565b50506040805180820190915263ffffffff80851682526001600160e01b0380851660208085019182528854600181018a5560008a815291822095519251909316640100000000029190931617920191909155905081610fa2565b600080608083901c1561268f57608092831c92015b604083901c156126a157604092831c92015b602083901c156126b357602092831c92015b601083901c156126c557601092831c92015b600883901c156126d757600892831c92015b600483901c156126e957600492831c92015b600283901c156126fb57600292831c92015b600183901c156104f15760010192915050565b600081831061271d57816107c4565b5090919050565b600061273360028484186131b9565b6107c490848416613048565b600061274a826108cb565b905061275a816000846001611dda565b612763826108cb565b600083815260046020908152604080832080546001600160a01b03199081169091556001600160a01b0385168085526003845282852080546000190190558785526002909352818420805490911690555192935084927fddf252ad1be2c89b69c2b068fc378daa952ba7f163c4a11628f55a4df523b3ef908390a46108c7816000846001611dee565b6001600160a01b0382166128425760405162461bcd60e51b815260206004820181905260248201527f4552433732313a206d696e7420746f20746865207a65726f20616464726573736044820152606401610625565b6000818152600260205260409020546001600160a01b0316156128a75760405162461bcd60e51b815260206004820152601c60248201527f4552433732313a20746f6b656e20616c7265616479206d696e746564000000006044820152606401610625565b6128b5600083836001611dda565b6000818152600260205260409020546001600160a01b03161561291a5760405162461bcd60e51b815260206004820152601c60248201527f4552433732313a20746f6b656e20616c7265616479206d696e746564000000006044820152606401610625565b6001600160a01b038216600081815260036020908152604080832080546001019055848352600290915280822080546001600160a01b0319168417905551839291907fddf252ad1be2c89b69c2b068fc378daa952ba7f163c4a11628f55a4df523b3ef908290a46108c7600083836001611dee565b6060600061299c83612a24565b600101905060008167ffffffffffffffff8111156129bc576129bc612d57565b6040519080825280601f01601f1916602001820160405280156129e6576020820181803683370190505b5090508181016020015b600019016f181899199a1a9b1b9c1cb0b131b232b360811b600a86061a8153600a8504945084612a1f57611f35565b6129f0565b60008072184f03e93ff9f4daa797ed6e38ed64bf6a1f0160401b8310612a635772184f03e93ff9f4daa797ed6e38ed64bf6a1f0160401b830492506040015b6d04ee2d6d415b85acef81000000008310612a8f576d04ee2d6d415b85acef8100000000830492506020015b662386f26fc100008310612aad57662386f26fc10000830492506010015b6305f5e1008310612ac5576305f5e100830492506008015b6127108310612ad957612710830492506004015b60648310612aeb576064830492506002015b600a83106104f15760010192915050565b828054612b0890612f5d565b90600052602060002090601f016020900481019282612b2a5760008555612b70565b82601f10612b4357805160ff1916838001178555612b70565b82800160010185558215612b70579182015b82811115612b70578251825591602001919060010190612b55565b5061101b929150612bb2565b508054612b8890612f5d565b6000825580601f10612b98575050565b601f01602090049060005260206000209081019061082691905b5b8082111561101b5760008155600101612bb3565b6001600160e01b03198116811461082657600080fd5b600060208284031215612bef57600080fd5b81356107c481612bc7565b60005b83811015612c15578181015183820152602001612bfd565b83811115610ac95750506000910152565b60008151808452612c3e816020860160208601612bfa565b601f01601f19169290920160200192915050565b6020815260006107c46020830184612c26565b600060208284031215612c7757600080fd5b5035919050565b80356001600160a01b0381168114612c9557600080fd5b919050565b60008060408385031215612cad57600080fd5b612cb683612c7e565b946020939093013593505050565b600080600060608486031215612cd957600080fd5b612ce284612c7e565b9250612cf060208501612c7e565b9150604084013590509250925092565b600060208284031215612d1257600080fd5b6107c482612c7e565b60008060408385031215612d2e57600080fd5b612d3783612c7e565b915060208301358015158114612d4c57600080fd5b809150509250929050565b634e487b7160e01b600052604160045260246000fd5b600067ffffffffffffffff80841115612d8857612d88612d57565b604051601f8501601f19908116603f01168101908282118183101715612db057612db0612d57565b81604052809350858152868686011115612dc957600080fd5b858560208301376000602087830101525050509392505050565b60008060008060808587031215612df957600080fd5b612e0285612c7e565b9350612e1060208601612c7e565b925060408501359150606085013567ffffffffffffffff811115612e3357600080fd5b8501601f81018713612e4457600080fd5b612e5387823560208401612d6d565b91505092959194509250565b60008060008060008060c08789031215612e7857600080fd5b612e8187612c7e565b95506020870135945060408701359350606087013560ff81168114612ea557600080fd5b9598949750929560808101359460a0909101359350915050565b600080600060608486031215612ed457600080fd5b612edd84612c7e565b9250602084013567ffffffffffffffff811115612ef957600080fd5b8401601f81018613612f0a57600080fd5b612f1986823560208401612d6d565b925050604084013590509250925092565b60008060408385031215612f3d57600080fd5b612f4683612c7e565b9150612f5460208401612c7e565b90509250929050565b600181811c90821680612f7157607f821691505b6020821081141561194d57634e487b7160e01b600052602260045260246000fd5b6020808252602d908201527f4552433732313a2063616c6c6572206973206e6f7420746f6b656e206f776e6560408201526c1c881bdc88185c1c1c9bdd9959609a1b606082015260800190565b634e487b7160e01b600052603260045260246000fd5b634e487b7160e01b600052601160045260246000fd5b600061ffff80831681851680830382111561302857613028612ff5565b01949350505050565b60008282101561304357613043612ff5565b500390565b6000821982111561305b5761305b612ff5565b500190565b60208082526025908201527f4552433732313a207472616e736665722066726f6d20696e636f72726563742060408201526437bbb732b960d91b606082015260800190565b60208082526032908201527f4552433732313a207472616e7366657220746f206e6f6e20455243373231526560408201527131b2b4bb32b91034b6b83632b6b2b73a32b960711b606082015260800190565b60008351613109818460208801612bfa565b835190830190613028818360208801612bfa565b634e487b7160e01b600052603160045260246000fd5b634e487b7160e01b600052601260045260246000fd5b6001600160a01b038581168252841660208201526040810183905260806060820181905260009061317c90830184612c26565b9695505050505050565b60006020828403121561319857600080fd5b81516107c481612bc7565b634e487b7160e01b600052602160045260246000fd5b6000826131d657634e487b7160e01b600052601260045260246000fd5b50049056fea264697066735822122034aac17e81ab817ac567c0252a70b5c5a266ddaa6b8d789272aa77d56ead30c564736f6c634300080900334552433732313a207472616e7366657220746f206e6f6e204552433732315265dec2bacdd2f05b59de34da9b523dff8be42e5e38e818c82fdb0bae774387a724",
  "linkReferences": {},
  "deployedLinkReferences": {}
}