{
  "_format": "hh-sol-artifact-1",
  "contractName": "Family",
  "sourceName": "contracts/ERC721/Family.sol",
  "abi": [
    {
      "inputs": [],
      "stateMutability": "nonpayable",
      "type": "constructor"
    },
    {
      "anonymous": false,
      "inputs": [
        {
          "indexed": false,
          "internalType": "address",
          "name": "previousAdmin",
          "type": "address"
        },
        {
          "indexed": false,
          "internalType": "address",
          "name": "newAdmin",
          "type": "address"
        }
      ],
      "name": "AdminChanged",
      "type": "event"
    },
    {
      "anonymous": false,
      "inputs": [
        {
          "indexed": true,
          "internalType": "address",
          "name": "owner",
          "type": "address"
        },
        {
          "indexed": true,
          "internalType": "address",
          "name": "approved",
          "type": "address"
        },
        {
          "indexed": true,
          "internalType": "uint256",
          "name": "tokenId",
          "type": "uint256"
        }
      ],
      "name": "Approval",
      "type": "event"
    },
    {
      "anonymous": false,
      "inputs": [
        {
          "indexed": true,
          "internalType": "address",
          "name": "owner",
          "type": "address"
        },
        {
          "indexed": true,
          "internalType": "address",
          "name": "operator",
          "type": "address"
        },
        {
          "indexed": false,
          "internalType": "bool",
          "name": "approved",
          "type": "bool"
        }
      ],
      "name": "ApprovalForAll",
      "type": "event"
    },
    {
      "anonymous": false,
      "inputs": [
        {
          "indexed": true,
          "internalType": "address",
          "name": "beacon",
          "type": "address"
        }
      ],
      "name": "BeaconUpgraded",
      "type": "event"
    },
    {
      "anonymous": false,
      "inputs": [
        {
          "indexed": false,
          "internalType": "uint8",
          "name": "version",
          "type": "uint8"
        }
      ],
      "name": "Initialized",
      "type": "event"
    },
    {
      "anonymous": false,
      "inputs": [
        {
          "indexed": true,
          "internalType": "address",
          "name": "previousOwner",
          "type": "address"
        },
        {
          "indexed": true,
          "internalType": "address",
          "name": "newOwner",
          "type": "address"
        }
      ],
      "name": "OwnershipTransferred",
      "type": "event"
    },
    {
      "anonymous": false,
      "inputs": [
        {
          "indexed": true,
          "internalType": "address",
          "name": "from",
          "type": "address"
        },
        {
          "indexed": true,
          "internalType": "address",
          "name": "to",
          "type": "address"
        },
        {
          "indexed": true,
          "internalType": "uint256",
          "name": "tokenId",
          "type": "uint256"
        }
      ],
      "name": "Transfer",
      "type": "event"
    },
    {
      "anonymous": false,
      "inputs": [
        {
          "indexed": true,
          "internalType": "address",
          "name": "implementation",
          "type": "address"
        }
      ],
      "name": "Upgraded",
      "type": "event"
    },
    {
      "inputs": [
        {
          "internalType": "address",
          "name": "to",
          "type": "address"
        },
        {
          "internalType": "uint256",
          "name": "tokenId",
          "type": "uint256"
        }
      ],
      "name": "approve",
      "outputs": [],
      "stateMutability": "nonpayable",
      "type": "function"
    },
    {
      "inputs": [
        {
          "internalType": "address",
          "name": "owner",
          "type": "address"
        }
      ],
      "name": "balanceOf",
      "outputs": [
        {
          "internalType": "uint256",
          "name": "",
          "type": "uint256"
        }
      ],
      "stateMutability": "view",
      "type": "function"
    },
    {
      "inputs": [
        {
          "internalType": "address",
          "name": "member",
          "type": "address"
        },
        {
          "internalType": "address",
          "name": "childNFT",
          "type": "address"
        },
        {
          "internalType": "bytes32",
          "name": "role",
          "type": "bytes32"
        }
      ],
      "name": "familyImpact",
      "outputs": [
        {
          "internalType": "uint256",
          "name": "",
          "type": "uint256"
        }
      ],
      "stateMutability": "nonpayable",
      "type": "function"
    },
    {
      "inputs": [
        {
          "internalType": "uint256",
          "name": "tokenId",
          "type": "uint256"
        }
      ],
      "name": "getApproved",
      "outputs": [
        {
          "internalType": "address",
          "name": "",
          "type": "address"
        }
      ],
      "stateMutability": "view",
      "type": "function"
    },
    {
      "inputs": [],
      "name": "initialize",
      "outputs": [],
      "stateMutability": "nonpayable",
      "type": "function"
    },
    {
      "inputs": [
        {
          "internalType": "address",
          "name": "owner",
          "type": "address"
        },
        {
          "internalType": "address",
          "name": "operator",
          "type": "address"
        }
      ],
      "name": "isApprovedForAll",
      "outputs": [
        {
          "internalType": "bool",
          "name": "",
          "type": "bool"
        }
      ],
      "stateMutability": "view",
      "type": "function"
    },
    {
      "inputs": [],
      "name": "name",
      "outputs": [
        {
          "internalType": "string",
          "name": "",
          "type": "string"
        }
      ],
      "stateMutability": "view",
      "type": "function"
    },
    {
      "inputs": [],
      "name": "owner",
      "outputs": [
        {
          "internalType": "address",
          "name": "",
          "type": "address"
        }
      ],
      "stateMutability": "view",
      "type": "function"
    },
    {
      "inputs": [
        {
          "internalType": "uint256",
          "name": "tokenId",
          "type": "uint256"
        }
      ],
      "name": "ownerOf",
      "outputs": [
        {
          "internalType": "address",
          "name": "",
          "type": "address"
        }
      ],
      "stateMutability": "view",
      "type": "function"
    },
    {
      "inputs": [],
      "name": "proxiableUUID",
      "outputs": [
        {
          "internalType": "bytes32",
          "name": "",
          "type": "bytes32"
        }
      ],
      "stateMutability": "view",
      "type": "function"
    },
    {
      "inputs": [],
      "name": "renounceOwnership",
      "outputs": [],
      "stateMutability": "nonpayable",
      "type": "function"
    },
    {
      "inputs": [
        {
          "internalType": "address",
          "name": "to",
          "type": "address"
        },
        {
          "internalType": "string",
          "name": "uri",
          "type": "string"
        }
      ],
      "name": "safeMint",
      "outputs": [],
      "stateMutability": "nonpayable",
      "type": "function"
    },
    {
      "inputs": [
        {
          "internalType": "address",
          "name": "from",
          "type": "address"
        },
        {
          "internalType": "address",
          "name": "to",
          "type": "address"
        },
        {
          "internalType": "uint256",
          "name": "tokenId",
          "type": "uint256"
        }
      ],
      "name": "safeTransferFrom",
      "outputs": [],
      "stateMutability": "nonpayable",
      "type": "function"
    },
    {
      "inputs": [
        {
          "internalType": "address",
          "name": "from",
          "type": "address"
        },
        {
          "internalType": "address",
          "name": "to",
          "type": "address"
        },
        {
          "internalType": "uint256",
          "name": "tokenId",
          "type": "uint256"
        },
        {
          "internalType": "bytes",
          "name": "data",
          "type": "bytes"
        }
      ],
      "name": "safeTransferFrom",
      "outputs": [],
      "stateMutability": "nonpayable",
      "type": "function"
    },
    {
      "inputs": [
        {
          "internalType": "address",
          "name": "operator",
          "type": "address"
        },
        {
          "internalType": "bool",
          "name": "approved",
          "type": "bool"
        }
      ],
      "name": "setApprovalForAll",
      "outputs": [],
      "stateMutability": "nonpayable",
      "type": "function"
    },
    {
      "inputs": [
        {
          "internalType": "bytes4",
          "name": "interfaceId",
          "type": "bytes4"
        }
      ],
      "name": "supportsInterface",
      "outputs": [
        {
          "internalType": "bool",
          "name": "",
          "type": "bool"
        }
      ],
      "stateMutability": "view",
      "type": "function"
    },
    {
      "inputs": [],
      "name": "symbol",
      "outputs": [
        {
          "internalType": "string",
          "name": "",
          "type": "string"
        }
      ],
      "stateMutability": "view",
      "type": "function"
    },
    {
      "inputs": [
        {
          "internalType": "uint256",
          "name": "tokenId",
          "type": "uint256"
        }
      ],
      "name": "tokenURI",
      "outputs": [
        {
          "internalType": "string",
          "name": "",
          "type": "string"
        }
      ],
      "stateMutability": "view",
      "type": "function"
    },
    {
      "inputs": [
        {
          "internalType": "address",
          "name": "from",
          "type": "address"
        },
        {
          "internalType": "address",
          "name": "to",
          "type": "address"
        },
        {
          "internalType": "uint256",
          "name": "tokenId",
          "type": "uint256"
        }
      ],
      "name": "transferFrom",
      "outputs": [],
      "stateMutability": "nonpayable",
      "type": "function"
    },
    {
      "inputs": [
        {
          "internalType": "address",
          "name": "newOwner",
          "type": "address"
        }
      ],
      "name": "transferOwnership",
      "outputs": [],
      "stateMutability": "nonpayable",
      "type": "function"
    },
    {
      "inputs": [
        {
          "internalType": "address",
          "name": "newImplementation",
          "type": "address"
        }
      ],
      "name": "upgradeTo",
      "outputs": [],
      "stateMutability": "nonpayable",
      "type": "function"
    },
    {
      "inputs": [
        {
          "internalType": "address",
          "name": "newImplementation",
          "type": "address"
        },
        {
          "internalType": "bytes",
          "name": "data",
          "type": "bytes"
        }
      ],
      "name": "upgradeToAndCall",
      "outputs": [],
      "stateMutability": "payable",
      "type": "function"
    },
    {
      "inputs": [
        {
          "internalType": "address",
          "name": "member",
          "type": "address"
        },
        {
          "internalType": "address",
          "name": "",
          "type": "address"
        }
      ],
      "name": "verifyFamily",
      "outputs": [
        {
          "internalType": "bool",
          "name": "",
          "type": "bool"
        }
      ],
      "stateMutability": "pure",
      "type": "function"
    }
  ],
  "bytecode": "0x60a06040523060805234801561001457600080fd5b5061001d610022565b6100e2565b600054610100900460ff161561008e5760405162461bcd60e51b815260206004820152602760248201527f496e697469616c697a61626c653a20636f6e747261637420697320696e697469604482015266616c697a696e6760c81b606482015260840160405180910390fd5b60005460ff90811610156100e0576000805460ff191660ff9081179091556040519081527f7f26b83ff96e1f2b6a682f133852f6798a09c465da95921460cefb38474024989060200160405180910390a15b565b6080516124616200011a600039600081816106bb015281816106fb015281816107b6015281816107f6015261088901526124616000f3fe6080604052600436106101405760003560e01c80636352211e116100b6578063a22cb4651161006f578063a22cb46514610370578063b88d4fde14610390578063c87b56dd146103b0578063d204c45e146103d0578063e985e9c5146103f0578063f2fde38b1461043957600080fd5b80636352211e146102d357806370a08231146102f3578063715018a6146103135780638129fc1c146103285780638da5cb5b1461033d57806395d89b411461035b57600080fd5b80632568eaca116101085780632568eaca146102165780633659cfe61461024857806342842e0e146102685780634b9f8fe0146102885780634f1ef286146102ab57806352d1902d146102be57600080fd5b806301ffc9a71461014557806306fdde031461017a578063081812fc1461019c578063095ea7b3146101d457806323b872dd146101f6575b600080fd5b34801561015157600080fd5b50610165610160366004611d78565b610459565b60405190151581526020015b60405180910390f35b34801561018657600080fd5b5061018f6104ab565b6040516101719190611ded565b3480156101a857600080fd5b506101bc6101b7366004611e00565b61053d565b6040516001600160a01b039091168152602001610171565b3480156101e057600080fd5b506101f46101ef366004611e35565b610564565b005b34801561020257600080fd5b506101f4610211366004611e5f565b61067f565b34801561022257600080fd5b5061023a610231366004611e5f565b60009392505050565b604051908152602001610171565b34801561025457600080fd5b506101f4610263366004611e9b565b6106b0565b34801561027457600080fd5b506101f4610283366004611e5f565b610790565b34801561029457600080fd5b506101656102a3366004611eb6565b600192915050565b6101f46102b9366004611f95565b6107ab565b3480156102ca57600080fd5b5061023a61087c565b3480156102df57600080fd5b506101bc6102ee366004611e00565b61092f565b3480156102ff57600080fd5b5061023a61030e366004611e9b565b61098f565b34801561031f57600080fd5b506101f4610a15565b34801561033457600080fd5b506101f4610a29565b34801561034957600080fd5b5060c9546001600160a01b03166101bc565b34801561036757600080fd5b5061018f610b8c565b34801561037c57600080fd5b506101f461038b366004611fe3565b610b9b565b34801561039c57600080fd5b506101f46103ab36600461201f565b610ba6565b3480156103bc57600080fd5b5061018f6103cb366004611e00565b610bde565b3480156103dc57600080fd5b506101f46103eb366004612087565b610be9565b3480156103fc57600080fd5b5061016561040b366004611eb6565b6001600160a01b039182166000908152606a6020908152604080832093909416825291909152205460ff1690565b34801561044557600080fd5b506101f4610454366004611e9b565b610c22565b60006001600160e01b031982166380ac58cd60e01b148061048a57506001600160e01b03198216635b5e139f60e01b145b806104a557506301ffc9a760e01b6001600160e01b03198316145b92915050565b6060606580546104ba906120df565b80601f01602080910402602001604051908101604052809291908181526020018280546104e6906120df565b80156105335780601f1061050857610100808354040283529160200191610533565b820191906000526020600020905b81548152906001019060200180831161051657829003601f168201915b5050505050905090565b600061054882610c98565b506000908152606960205260409020546001600160a01b031690565b600061056f8261092f565b9050806001600160a01b0316836001600160a01b031614156105e25760405162461bcd60e51b815260206004820152602160248201527f4552433732313a20617070726f76616c20746f2063757272656e74206f776e656044820152603960f91b60648201526084015b60405180910390fd5b336001600160a01b03821614806105fe57506105fe813361040b565b6106705760405162461bcd60e51b815260206004820152603d60248201527f4552433732313a20617070726f76652063616c6c6572206973206e6f7420746f60448201527f6b656e206f776e6572206f7220617070726f76656420666f7220616c6c00000060648201526084016105d9565b61067a8383610cf7565b505050565b6106893382610d65565b6106a55760405162461bcd60e51b81526004016105d99061211a565b61067a838383610de4565b306001600160a01b037f00000000000000000000000000000000000000000000000000000000000000001614156106f95760405162461bcd60e51b81526004016105d990612167565b7f00000000000000000000000000000000000000000000000000000000000000006001600160a01b03166107426000805160206123e5833981519152546001600160a01b031690565b6001600160a01b0316146107685760405162461bcd60e51b81526004016105d9906121b3565b61077181610f55565b6040805160008082526020820190925261078d91839190610f5d565b50565b61067a83838360405180602001604052806000815250610ba6565b306001600160a01b037f00000000000000000000000000000000000000000000000000000000000000001614156107f45760405162461bcd60e51b81526004016105d990612167565b7f00000000000000000000000000000000000000000000000000000000000000006001600160a01b031661083d6000805160206123e5833981519152546001600160a01b031690565b6001600160a01b0316146108635760405162461bcd60e51b81526004016105d9906121b3565b61086c82610f55565b61087882826001610f5d565b5050565b6000306001600160a01b037f0000000000000000000000000000000000000000000000000000000000000000161461091c5760405162461bcd60e51b815260206004820152603860248201527f555550535570677261646561626c653a206d757374206e6f742062652063616c60448201527f6c6564207468726f7567682064656c656761746563616c6c000000000000000060648201526084016105d9565b506000805160206123e583398151915290565b6000818152606760205260408120546001600160a01b0316806104a55760405162461bcd60e51b8152602060048201526018602482015277115490cdcc8c4e881a5b9d985b1a59081d1bdad95b88125160421b60448201526064016105d9565b60006001600160a01b0382166109f95760405162461bcd60e51b815260206004820152602960248201527f4552433732313a2061646472657373207a65726f206973206e6f7420612076616044820152683634b21037bbb732b960b91b60648201526084016105d9565b506001600160a01b031660009081526068602052604090205490565b610a1d6110d7565b610a276000611131565b565b600054610100900460ff1615808015610a495750600054600160ff909116105b80610a635750303b158015610a63575060005460ff166001145b610ac65760405162461bcd60e51b815260206004820152602e60248201527f496e697469616c697a61626c653a20636f6e747261637420697320616c72656160448201526d191e481a5b9a5d1a585b1a5e995960921b60648201526084016105d9565b6000805460ff191660011790558015610ae9576000805461ff0019166101001790555b610b2c6040518060400160405280600681526020016546616d696c7960d01b8152506040518060400160405280600381526020016246414d60e81b815250611183565b610b346111b4565b610b3c6111db565b610b446111b4565b801561078d576000805461ff0019169055604051600181527f7f26b83ff96e1f2b6a682f133852f6798a09c465da95921460cefb38474024989060200160405180910390a150565b6060606680546104ba906120df565b61087833838361120a565b610bb03383610d65565b610bcc5760405162461bcd60e51b81526004016105d99061211a565b610bd8848484846112d9565b50505050565b60606104a58261130c565b610bf16110d7565b6000610bfd61015f5490565b9050610c0e61015f80546001019055565b610c188382611415565b61067a818361142f565b610c2a6110d7565b6001600160a01b038116610c8f5760405162461bcd60e51b815260206004820152602660248201527f4f776e61626c653a206e6577206f776e657220697320746865207a65726f206160448201526564647265737360d01b60648201526084016105d9565b61078d81611131565b6000818152606760205260409020546001600160a01b031661078d5760405162461bcd60e51b8152602060048201526018602482015277115490cdcc8c4e881a5b9d985b1a59081d1bdad95b88125160421b60448201526064016105d9565b600081815260696020526040902080546001600160a01b0319166001600160a01b0384169081179091558190610d2c8261092f565b6001600160a01b03167f8c5be1e5ebec7d5bd14f71427d1e84f3dd0314c0f7b2291e5b200ac8c7c3b92560405160405180910390a45050565b600080610d718361092f565b9050806001600160a01b0316846001600160a01b03161480610db857506001600160a01b038082166000908152606a602090815260408083209388168352929052205460ff165b80610ddc5750836001600160a01b0316610dd18461053d565b6001600160a01b0316145b949350505050565b826001600160a01b0316610df78261092f565b6001600160a01b031614610e1d5760405162461bcd60e51b81526004016105d9906121ff565b6001600160a01b038216610e7f5760405162461bcd60e51b8152602060048201526024808201527f4552433732313a207472616e7366657220746f20746865207a65726f206164646044820152637265737360e01b60648201526084016105d9565b610e8c83838360016114c9565b826001600160a01b0316610e9f8261092f565b6001600160a01b031614610ec55760405162461bcd60e51b81526004016105d9906121ff565b600081815260696020908152604080832080546001600160a01b03199081169091556001600160a01b0387811680865260688552838620805460001901905590871680865283862080546001019055868652606790945282852080549092168417909155905184937fddf252ad1be2c89b69c2b068fc378daa952ba7f163c4a11628f55a4df523b3ef91a4505050565b61078d6110d7565b7f4910fdfa16fed3260ed0e7147f7cc6da11a60208b5b9406d12a635614ffd91435460ff1615610f905761067a83611551565b826001600160a01b03166352d1902d6040518163ffffffff1660e01b815260040160206040518083038186803b158015610fc957600080fd5b505afa925050508015610ff9575060408051601f3d908101601f19168201909252610ff691810190612244565b60015b61105c5760405162461bcd60e51b815260206004820152602e60248201527f45524331393637557067726164653a206e657720696d706c656d656e7461746960448201526d6f6e206973206e6f74205555505360901b60648201526084016105d9565b6000805160206123e583398151915281146110cb5760405162461bcd60e51b815260206004820152602960248201527f45524331393637557067726164653a20756e737570706f727465642070726f786044820152681a58589b195555525160ba1b60648201526084016105d9565b5061067a8383836115ed565b60c9546001600160a01b03163314610a275760405162461bcd60e51b815260206004820181905260248201527f4f776e61626c653a2063616c6c6572206973206e6f7420746865206f776e657260448201526064016105d9565b60c980546001600160a01b038381166001600160a01b0319831681179093556040519116919082907f8be0079c531659141344cd1fd0a4f28419497f9722a3daafe3b4186f6b6457e090600090a35050565b600054610100900460ff166111aa5760405162461bcd60e51b81526004016105d99061225d565b6108788282611612565b600054610100900460ff16610a275760405162461bcd60e51b81526004016105d99061225d565b600054610100900460ff166112025760405162461bcd60e51b81526004016105d99061225d565b610a27611660565b816001600160a01b0316836001600160a01b0316141561126c5760405162461bcd60e51b815260206004820152601960248201527f4552433732313a20617070726f766520746f2063616c6c65720000000000000060448201526064016105d9565b6001600160a01b038381166000818152606a6020908152604080832094871680845294825291829020805460ff191686151590811790915591519182527f17307eab39ab6107e8899845ad3d59bd9653f200f220920489ca2b5937696c31910160405180910390a3505050565b6112e4848484610de4565b6112f084848484611690565b610bd85760405162461bcd60e51b81526004016105d9906122a8565b606061131782610c98565b60008281526097602052604081208054611330906120df565b80601f016020809104026020016040519081016040528092919081815260200182805461135c906120df565b80156113a95780601f1061137e576101008083540402835291602001916113a9565b820191906000526020600020905b81548152906001019060200180831161138c57829003601f168201915b5050505050905060006113c760408051602081019091526000815290565b90508051600014156113da575092915050565b81511561140c5780826040516020016113f49291906122fa565b60405160208183030381529060405292505050919050565b610ddc8461179d565b610878828260405180602001604052806000815250611811565b6000828152606760205260409020546001600160a01b03166114aa5760405162461bcd60e51b815260206004820152602e60248201527f45524337323155524953746f726167653a2055524920736574206f66206e6f6e60448201526d32bc34b9ba32b73a103a37b5b2b760911b60648201526084016105d9565b6000828152609760209081526040909120825161067a92840190611cc9565b6001811115610bd8576001600160a01b0384161561150f576001600160a01b0384166000908152606860205260408120805483929061150990849061233f565b90915550505b6001600160a01b03831615610bd8576001600160a01b03831660009081526068602052604081208054839290611546908490612356565b909155505050505050565b6001600160a01b0381163b6115be5760405162461bcd60e51b815260206004820152602d60248201527f455243313936373a206e657720696d706c656d656e746174696f6e206973206e60448201526c1bdd08184818dbdb9d1c9858dd609a1b60648201526084016105d9565b6000805160206123e583398151915280546001600160a01b0319166001600160a01b0392909216919091179055565b6115f683611844565b6000825111806116035750805b1561067a57610bd88383611884565b600054610100900460ff166116395760405162461bcd60e51b81526004016105d99061225d565b815161164c906065906020850190611cc9565b50805161067a906066906020840190611cc9565b600054610100900460ff166116875760405162461bcd60e51b81526004016105d99061225d565b610a2733611131565b60006001600160a01b0384163b1561179257604051630a85bd0160e11b81526001600160a01b0385169063150b7a02906116d490339089908890889060040161236e565b602060405180830381600087803b1580156116ee57600080fd5b505af192505050801561171e575060408051601f3d908101601f1916820190925261171b918101906123ab565b60015b611778573d80801561174c576040519150601f19603f3d011682016040523d82523d6000602084013e611751565b606091505b5080516117705760405162461bcd60e51b81526004016105d9906122a8565b805181602001fd5b6001600160e01b031916630a85bd0160e11b149050610ddc565b506001949350505050565b60606117a882610c98565b60006117bf60408051602081019091526000815290565b905060008151116117df576040518060200160405280600081525061180a565b806117e984611978565b6040516020016117fa9291906122fa565b6040516020818303038152906040525b9392505050565b61181b8383611a15565b6118286000848484611690565b61067a5760405162461bcd60e51b81526004016105d9906122a8565b61184d81611551565b6040516001600160a01b038216907fbc7cd75a20ee27fd9adebab32041f755214dbc6bffa90cc0225b39da2e5c2d3b90600090a250565b60606001600160a01b0383163b6118ec5760405162461bcd60e51b815260206004820152602660248201527f416464726573733a2064656c65676174652063616c6c20746f206e6f6e2d636f6044820152651b9d1c9858dd60d21b60648201526084016105d9565b600080846001600160a01b03168460405161190791906123c8565b600060405180830381855af49150503d8060008114611942576040519150601f19603f3d011682016040523d82523d6000602084013e611947565b606091505b509150915061196f828260405180606001604052806027815260200161240560279139611bae565b95945050505050565b6060600061198583611bc7565b600101905060008167ffffffffffffffff8111156119a5576119a5611ee9565b6040519080825280601f01601f1916602001820160405280156119cf576020820181803683370190505b5090508181016020015b600019016f181899199a1a9b1b9c1cb0b131b232b360811b600a86061a8153600a8504945084611a0857611a0d565b6119d9565b509392505050565b6001600160a01b038216611a6b5760405162461bcd60e51b815260206004820181905260248201527f4552433732313a206d696e7420746f20746865207a65726f206164647265737360448201526064016105d9565b6000818152606760205260409020546001600160a01b031615611ad05760405162461bcd60e51b815260206004820152601c60248201527f4552433732313a20746f6b656e20616c7265616479206d696e7465640000000060448201526064016105d9565b611ade6000838360016114c9565b6000818152606760205260409020546001600160a01b031615611b435760405162461bcd60e51b815260206004820152601c60248201527f4552433732313a20746f6b656e20616c7265616479206d696e7465640000000060448201526064016105d9565b6001600160a01b038216600081815260686020908152604080832080546001019055848352606790915280822080546001600160a01b0319168417905551839291907fddf252ad1be2c89b69c2b068fc378daa952ba7f163c4a11628f55a4df523b3ef908290a45050565b60608315611bbd57508161180a565b61180a8383611c9f565b60008072184f03e93ff9f4daa797ed6e38ed64bf6a1f0160401b8310611c065772184f03e93ff9f4daa797ed6e38ed64bf6a1f0160401b830492506040015b6d04ee2d6d415b85acef81000000008310611c32576d04ee2d6d415b85acef8100000000830492506020015b662386f26fc100008310611c5057662386f26fc10000830492506010015b6305f5e1008310611c68576305f5e100830492506008015b6127108310611c7c57612710830492506004015b60648310611c8e576064830492506002015b600a83106104a55760010192915050565b815115611caf5781518083602001fd5b8060405162461bcd60e51b81526004016105d99190611ded565b828054611cd5906120df565b90600052602060002090601f016020900481019282611cf75760008555611d3d565b82601f10611d1057805160ff1916838001178555611d3d565b82800160010185558215611d3d579182015b82811115611d3d578251825591602001919060010190611d22565b50611d49929150611d4d565b5090565b5b80821115611d495760008155600101611d4e565b6001600160e01b03198116811461078d57600080fd5b600060208284031215611d8a57600080fd5b813561180a81611d62565b60005b83811015611db0578181015183820152602001611d98565b83811115610bd85750506000910152565b60008151808452611dd9816020860160208601611d95565b601f01601f19169290920160200192915050565b60208152600061180a6020830184611dc1565b600060208284031215611e1257600080fd5b5035919050565b80356001600160a01b0381168114611e3057600080fd5b919050565b60008060408385031215611e4857600080fd5b611e5183611e19565b946020939093013593505050565b600080600060608486031215611e7457600080fd5b611e7d84611e19565b9250611e8b60208501611e19565b9150604084013590509250925092565b600060208284031215611ead57600080fd5b61180a82611e19565b60008060408385031215611ec957600080fd5b611ed283611e19565b9150611ee060208401611e19565b90509250929050565b634e487b7160e01b600052604160045260246000fd5b600067ffffffffffffffff80841115611f1a57611f1a611ee9565b604051601f8501601f19908116603f01168101908282118183101715611f4257611f42611ee9565b81604052809350858152868686011115611f5b57600080fd5b858560208301376000602087830101525050509392505050565b600082601f830112611f8657600080fd5b61180a83833560208501611eff565b60008060408385031215611fa857600080fd5b611fb183611e19565b9150602083013567ffffffffffffffff811115611fcd57600080fd5b611fd985828601611f75565b9150509250929050565b60008060408385031215611ff657600080fd5b611fff83611e19565b91506020830135801515811461201457600080fd5b809150509250929050565b6000806000806080858703121561203557600080fd5b61203e85611e19565b935061204c60208601611e19565b925060408501359150606085013567ffffffffffffffff81111561206f57600080fd5b61207b87828801611f75565b91505092959194509250565b6000806040838503121561209a57600080fd5b6120a383611e19565b9150602083013567ffffffffffffffff8111156120bf57600080fd5b8301601f810185136120d057600080fd5b611fd985823560208401611eff565b600181811c908216806120f357607f821691505b6020821081141561211457634e487b7160e01b600052602260045260246000fd5b50919050565b6020808252602d908201527f4552433732313a2063616c6c6572206973206e6f7420746f6b656e206f776e6560408201526c1c881bdc88185c1c1c9bdd9959609a1b606082015260800190565b6020808252602c908201527f46756e6374696f6e206d7573742062652063616c6c6564207468726f7567682060408201526b19195b1959d85d1958d85b1b60a21b606082015260800190565b6020808252602c908201527f46756e6374696f6e206d7573742062652063616c6c6564207468726f7567682060408201526b6163746976652070726f787960a01b606082015260800190565b60208082526025908201527f4552433732313a207472616e736665722066726f6d20696e636f72726563742060408201526437bbb732b960d91b606082015260800190565b60006020828403121561225657600080fd5b5051919050565b6020808252602b908201527f496e697469616c697a61626c653a20636f6e7472616374206973206e6f74206960408201526a6e697469616c697a696e6760a81b606082015260800190565b60208082526032908201527f4552433732313a207472616e7366657220746f206e6f6e20455243373231526560408201527131b2b4bb32b91034b6b83632b6b2b73a32b960711b606082015260800190565b6000835161230c818460208801611d95565b835190830190612320818360208801611d95565b01949350505050565b634e487b7160e01b600052601160045260246000fd5b60008282101561235157612351612329565b500390565b6000821982111561236957612369612329565b500190565b6001600160a01b03858116825284166020820152604081018390526080606082018190526000906123a190830184611dc1565b9695505050505050565b6000602082840312156123bd57600080fd5b815161180a81611d62565b600082516123da818460208701611d95565b919091019291505056fe360894a13ba1a3210667c828492db98dca3e2076cc3735a920a3ca505d382bbc416464726573733a206c6f772d6c6576656c2064656c65676174652063616c6c206661696c6564a2646970667358221220adf71c4b3b440b512ab5131dff074431c64b12c52caed2e219eb6088ff91cc0f64736f6c63430008090033",
  "linkReferences": {},
  "deployedLinkReferences": {}
}