{
  "_format": "hh-sol-artifact-1",
  "contractName": "VerifyVoucher",
  "sourceName": "contracts/governance/VerifyVoucher.sol",
  "abi": [
    {
      "inputs": [],
      "stateMutability": "nonpayable",
      "type": "constructor"
    },
    {
      "inputs": [
        {
          "components": [
            {
              "components": [
                {
                  "internalType": "uint256",
                  "name": "needId",
                  "type": "uint256"
                },
                {
                  "internalType": "uint256",
                  "name": "paid",
                  "type": "uint256"
                },
                {
                  "components": [
                    {
                      "internalType": "uint256",
                      "name": "ngoId",
                      "type": "uint256"
                    },
                    {
                      "internalType": "string",
                      "name": "name",
                      "type": "string"
                    },
                    {
                      "internalType": "string",
                      "name": "contact",
                      "type": "string"
                    }
                  ],
                  "internalType": "struct NeedStorage.NGO",
                  "name": "ngo",
                  "type": "tuple"
                },
                {
                  "components": [
                    {
                      "internalType": "uint256",
                      "name": "swId",
                      "type": "uint256"
                    },
                    {
                      "components": [
                        {
                          "internalType": "uint256",
                          "name": "ngoId",
                          "type": "uint256"
                        },
                        {
                          "internalType": "string",
                          "name": "name",
                          "type": "string"
                        },
                        {
                          "internalType": "string",
                          "name": "contact",
                          "type": "string"
                        }
                      ],
                      "internalType": "struct NeedStorage.NGO",
                      "name": "ngo",
                      "type": "tuple"
                    },
                    {
                      "internalType": "address",
                      "name": "wallet",
                      "type": "address"
                    }
                  ],
                  "internalType": "struct NeedStorage.SocialWorker",
                  "name": "socialWorker",
                  "type": "tuple"
                },
                {
                  "components": [
                    {
                      "internalType": "uint256",
                      "name": "childId",
                      "type": "uint256"
                    },
                    {
                      "internalType": "string",
                      "name": "SayName",
                      "type": "string"
                    },
                    {
                      "internalType": "uint8",
                      "name": "age",
                      "type": "uint8"
                    },
                    {
                      "internalType": "string",
                      "name": "country",
                      "type": "string"
                    },
                    {
                      "internalType": "string",
                      "name": "city",
                      "type": "string"
                    },
                    {
                      "internalType": "string",
                      "name": "voiceIpfsHash",
                      "type": "string"
                    },
                    {
                      "internalType": "string",
                      "name": "avatarIpfsHash",
                      "type": "string"
                    }
                  ],
                  "internalType": "struct NeedStorage.TheChild",
                  "name": "child",
                  "type": "tuple"
                },
                {
                  "components": [
                    {
                      "internalType": "uint256",
                      "name": "userId",
                      "type": "uint256"
                    },
                    {
                      "internalType": "address",
                      "name": "wallet",
                      "type": "address"
                    }
                  ],
                  "internalType": "struct NeedStorage.FamilyMember[]",
                  "name": "payers",
                  "type": "tuple[]"
                },
                {
                  "components": [
                    {
                      "internalType": "string",
                      "name": "name",
                      "type": "string"
                    },
                    {
                      "internalType": "string",
                      "name": "website",
                      "type": "string"
                    }
                  ],
                  "internalType": "struct NeedStorage.ServiceProvider",
                  "name": "serviceProvider",
                  "type": "tuple"
                },
                {
                  "internalType": "string[]",
                  "name": "IpfsReceipts",
                  "type": "string[]"
                },
                {
                  "components": [
                    {
                      "internalType": "enum NeedStorage.NeedType",
                      "name": "needType",
                      "type": "uint8"
                    },
                    {
                      "internalType": "enum NeedStorage.NeedDifficulty",
                      "name": "difficulty",
                      "type": "uint8"
                    },
                    {
                      "internalType": "uint256",
                      "name": "socialWorkerShare",
                      "type": "uint256"
                    },
                    {
                      "internalType": "uint256",
                      "name": "supervisor",
                      "type": "uint256"
                    },
                    {
                      "internalType": "uint256",
                      "name": "contributorShare",
                      "type": "uint256"
                    }
                  ],
                  "internalType": "struct NeedStorage.NeedDetails",
                  "name": "details",
                  "type": "tuple"
                }
              ],
              "internalType": "struct NeedStorage.Need",
              "name": "need",
              "type": "tuple"
            },
            {
              "internalType": "address",
              "name": "familyMember",
              "type": "address"
            },
            {
              "internalType": "address",
              "name": "socialWorker",
              "type": "address"
            },
            {
              "internalType": "bytes",
              "name": "signature",
              "type": "bytes"
            },
            {
              "internalType": "uint256",
              "name": "mintAmount",
              "type": "uint256"
            },
            {
              "internalType": "string",
              "name": "tokenUri",
              "type": "string"
            },
            {
              "internalType": "string",
              "name": "content",
              "type": "string"
            }
          ],
          "internalType": "struct NeedStorage.Voucher",
          "name": "_voucher",
          "type": "tuple"
        }
      ],
      "name": "_verify",
      "outputs": [
        {
          "internalType": "address",
          "name": "",
          "type": "address"
        }
      ],
      "stateMutability": "view",
      "type": "function"
    },
    {
      "inputs": [],
      "name": "getChainID",
      "outputs": [
        {
          "internalType": "uint256",
          "name": "",
          "type": "uint256"
        }
      ],
      "stateMutability": "view",
      "type": "function"
    }
  ],
  "bytecode": "0x61014060405234801561001157600080fd5b5060408051808201825260078152665341592d44414f60c81b6020808301918252835180850190945260018452603160f81b908401528151902060e08190527fc89efdaa54c0f20c7adf612882df0950f5a951637e0307cdcb4c672f298b8bc66101008190524660a0529192917f8b73c3c69bb8fe3d512ecc4cf759cc79239f7b179b0ffacaa9a75d522b39400f6100ee8184846040805160208101859052908101839052606081018290524660808201523060a082015260009060c0016040516020818303038152906040528051906020012090509392505050565b6080523060c052610120525061010392505050565b60805160a05160c05160e051610100516101205161069761015260003960006104370152600061048601526000610461015260006103ba015260006103e40152600061040e01526106976000f3fe608060405234801561001057600080fd5b50600436106100365760003560e01c8063564b81ef1461003b578063a07ee5be1461004e575b600080fd5b6040514681526020015b60405180910390f35b61006161005c366004610598565b610079565b6040516001600160a01b039091168152602001610045565b600080610085836100d9565b90506100d28161009860608601866105d3565b8080601f01602080910402602001604051908101604052809392919081815260200183838082843760009201919091525061019f92505050565b9392505050565b60006101997fac90f94ca54ca1eb067432ccf09a889c0d00f5bc2ebd14221473a3b7fd33ce6b610109848061061a565b35608085013561011c60a08701876105d3565b60405161012a92919061063b565b60405190819003902061014060c08801886105d3565b60405161014e92919061063b565b6040805191829003822060208301969096528101939093526060830191909152608082015260a081019190915260c001604051602081830303815290604052805190602001206101c3565b92915050565b60008060006101ae8585610211565b915091506101bb81610257565b509392505050565b60006101996101d06103ad565b8360405161190160f01b6020820152602281018390526042810182905260009060620160405160208183030381529060405280519060200120905092915050565b6000808251604114156102485760208301516040840151606085015160001a61023c878285856104d4565b94509450505050610250565b506000905060025b9250929050565b600081600481111561026b5761026b61064b565b14156102745750565b60018160048111156102885761028861064b565b14156102db5760405162461bcd60e51b815260206004820152601860248201527f45434453413a20696e76616c6964207369676e6174757265000000000000000060448201526064015b60405180910390fd5b60028160048111156102ef576102ef61064b565b141561033d5760405162461bcd60e51b815260206004820152601f60248201527f45434453413a20696e76616c6964207369676e6174757265206c656e6774680060448201526064016102d2565b60038160048111156103515761035161064b565b14156103aa5760405162461bcd60e51b815260206004820152602260248201527f45434453413a20696e76616c6964207369676e6174757265202773272076616c604482015261756560f01b60648201526084016102d2565b50565b6000306001600160a01b037f00000000000000000000000000000000000000000000000000000000000000001614801561040657507f000000000000000000000000000000000000000000000000000000000000000046145b1561043057507f000000000000000000000000000000000000000000000000000000000000000090565b50604080517f00000000000000000000000000000000000000000000000000000000000000006020808301919091527f0000000000000000000000000000000000000000000000000000000000000000828401527f000000000000000000000000000000000000000000000000000000000000000060608301524660808301523060a0808401919091528351808403909101815260c0909201909252805191012090565b6000807f7fffffffffffffffffffffffffffffff5d576e7357a4501ddfe92f46681b20a083111561050b575060009050600361058f565b6040805160008082526020820180845289905260ff881692820192909252606081018690526080810185905260019060a0016020604051602081039080840390855afa15801561055f573d6000803e3d6000fd5b5050604051601f1901519150506001600160a01b0381166105885760006001925092505061058f565b9150600090505b94509492505050565b6000602082840312156105aa57600080fd5b813567ffffffffffffffff8111156105c157600080fd5b820160e081850312156100d257600080fd5b6000808335601e198436030181126105ea57600080fd5b83018035915067ffffffffffffffff82111561060557600080fd5b60200191503681900382131561025057600080fd5b6000823561019e1983360301811261063157600080fd5b9190910192915050565b8183823760009101908152919050565b634e487b7160e01b600052602160045260246000fdfea2646970667358221220f1a8a727f4887095b310cf35dba00baebc4a25815dc5879d45645fd388c23d6464736f6c63430008090033",
  "linkReferences": {},
  "deployedLinkReferences": {}
}