{
  "_format": "hh-sol-artifact-1",
  "contractName": "VerifyVoucher",
  "sourceName": "contracts/governance/VerifyVoucher.sol",
  "abi": [
    {
      "inputs": [],
      "stateMutability": "nonpayable",
      "type": "constructor"
    },
    {
      "inputs": [
        {
          "components": [
            {
              "components": [
                {
                  "internalType": "uint256",
                  "name": "needId",
                  "type": "uint256"
                },
                {
                  "components": [
                    {
                      "internalType": "uint256",
                      "name": "ngoId",
                      "type": "uint256"
                    },
                    {
                      "internalType": "string",
                      "name": "name",
                      "type": "string"
                    },
                    {
                      "internalType": "string",
                      "name": "url",
                      "type": "string"
                    }
                  ],
                  "internalType": "struct NeedStorage.NGO",
                  "name": "ngo",
                  "type": "tuple"
                },
                {
                  "components": [
                    {
                      "internalType": "uint256",
                      "name": "id",
                      "type": "uint256"
                    },
                    {
                      "internalType": "enum NeedStorage.ContributorType",
                      "name": "role",
                      "type": "uint8"
                    },
                    {
                      "components": [
                        {
                          "internalType": "uint256",
                          "name": "ngoId",
                          "type": "uint256"
                        },
                        {
                          "internalType": "string",
                          "name": "name",
                          "type": "string"
                        },
                        {
                          "internalType": "string",
                          "name": "url",
                          "type": "string"
                        }
                      ],
                      "internalType": "struct NeedStorage.NGO",
                      "name": "ngo",
                      "type": "tuple"
                    },
                    {
                      "internalType": "address",
                      "name": "wallet",
                      "type": "address"
                    }
                  ],
                  "internalType": "struct NeedStorage.Contributor",
                  "name": "socialWorker",
                  "type": "tuple"
                },
                {
                  "components": [
                    {
                      "internalType": "uint256",
                      "name": "id",
                      "type": "uint256"
                    },
                    {
                      "internalType": "enum NeedStorage.ContributorType",
                      "name": "role",
                      "type": "uint8"
                    },
                    {
                      "components": [
                        {
                          "internalType": "uint256",
                          "name": "ngoId",
                          "type": "uint256"
                        },
                        {
                          "internalType": "string",
                          "name": "name",
                          "type": "string"
                        },
                        {
                          "internalType": "string",
                          "name": "url",
                          "type": "string"
                        }
                      ],
                      "internalType": "struct NeedStorage.NGO",
                      "name": "ngo",
                      "type": "tuple"
                    },
                    {
                      "internalType": "address",
                      "name": "wallet",
                      "type": "address"
                    }
                  ],
                  "internalType": "struct NeedStorage.Contributor",
                  "name": "auditor",
                  "type": "tuple"
                },
                {
                  "components": [
                    {
                      "internalType": "uint256",
                      "name": "id",
                      "type": "uint256"
                    },
                    {
                      "internalType": "enum NeedStorage.ContributorType",
                      "name": "role",
                      "type": "uint8"
                    },
                    {
                      "components": [
                        {
                          "internalType": "uint256",
                          "name": "ngoId",
                          "type": "uint256"
                        },
                        {
                          "internalType": "string",
                          "name": "name",
                          "type": "string"
                        },
                        {
                          "internalType": "string",
                          "name": "url",
                          "type": "string"
                        }
                      ],
                      "internalType": "struct NeedStorage.NGO",
                      "name": "ngo",
                      "type": "tuple"
                    },
                    {
                      "internalType": "address",
                      "name": "wallet",
                      "type": "address"
                    }
                  ],
                  "internalType": "struct NeedStorage.Contributor",
                  "name": "purchaser",
                  "type": "tuple"
                },
                {
                  "components": [
                    {
                      "internalType": "address",
                      "name": "wallet",
                      "type": "address"
                    }
                  ],
                  "internalType": "struct NeedStorage.Miner",
                  "name": "minter",
                  "type": "tuple"
                },
                {
                  "components": [
                    {
                      "internalType": "string",
                      "name": "SayName",
                      "type": "string"
                    },
                    {
                      "internalType": "string",
                      "name": "voiceIpfsHash",
                      "type": "string"
                    },
                    {
                      "internalType": "string",
                      "name": "avatarIpfsHash",
                      "type": "string"
                    }
                  ],
                  "internalType": "struct NeedStorage.TheChild",
                  "name": "child",
                  "type": "tuple"
                },
                {
                  "components": [
                    {
                      "internalType": "string",
                      "name": "name",
                      "type": "string"
                    },
                    {
                      "internalType": "string",
                      "name": "url",
                      "type": "string"
                    }
                  ],
                  "internalType": "struct NeedStorage.ServiceProvider",
                  "name": "serviceProvider",
                  "type": "tuple"
                },
                {
                  "components": [
                    {
                      "internalType": "enum NeedStorage.NeedType",
                      "name": "needType",
                      "type": "uint8"
                    },
                    {
                      "internalType": "enum NeedStorage.NeedDifficulty",
                      "name": "difficulty",
                      "type": "uint8"
                    },
                    {
                      "internalType": "uint256",
                      "name": "transparency",
                      "type": "uint256"
                    },
                    {
                      "internalType": "uint256",
                      "name": "socialWorkerShare",
                      "type": "uint256"
                    },
                    {
                      "internalType": "uint256",
                      "name": "auditorShare",
                      "type": "uint256"
                    },
                    {
                      "internalType": "uint256",
                      "name": "purchaserShare",
                      "type": "uint256"
                    },
                    {
                      "internalType": "string[]",
                      "name": "IpfsReceipts",
                      "type": "string[]"
                    }
                  ],
                  "internalType": "struct NeedStorage.NeedDetails",
                  "name": "details",
                  "type": "tuple"
                }
              ],
              "internalType": "struct NeedStorage.Need",
              "name": "need",
              "type": "tuple"
            },
            {
              "internalType": "bytes",
              "name": "signature",
              "type": "bytes"
            },
            {
              "internalType": "uint256",
              "name": "mintAmount",
              "type": "uint256"
            },
            {
              "internalType": "string",
              "name": "content",
              "type": "string"
            }
          ],
          "internalType": "struct NeedStorage.SocialWorkerVoucher",
          "name": "_voucher",
          "type": "tuple"
        }
      ],
      "name": "_verify",
      "outputs": [
        {
          "internalType": "address",
          "name": "",
          "type": "address"
        }
      ],
      "stateMutability": "view",
      "type": "function"
    },
    {
      "inputs": [],
      "name": "getChainID",
      "outputs": [
        {
          "internalType": "uint256",
          "name": "",
          "type": "uint256"
        }
      ],
      "stateMutability": "view",
      "type": "function"
    }
  ],
  "bytecode": "0x61014060405234801561001157600080fd5b5060408051808201825260078152665341592d44414f60c81b6020808301918252835180850190945260018452603160f81b908401528151902060e08190527fc89efdaa54c0f20c7adf612882df0950f5a951637e0307cdcb4c672f298b8bc66101008190524660a0529192917f8b73c3c69bb8fe3d512ecc4cf759cc79239f7b179b0ffacaa9a75d522b39400f6100ee8184846040805160208101859052908101839052606081018290524660808201523060a082015260009060c0016040516020818303038152906040528051906020012090509392505050565b6080523060c052610120525061010392505050565b60805160a05160c05160e05161010051610120516107136101526000396000610474015260006104c30152600061049e015260006103f7015260006104210152600061044b01526107136000f3fe608060405234801561001057600080fd5b50600436106100365760003560e01c80632340239e1461003b578063564b81ef1461006b575b600080fd5b61004e6100493660046105d5565b610079565b6040516001600160a01b0390911681526020015b60405180910390f35b604051468152602001610062565b600080610085836100d9565b90506100d2816100986020860186610610565b8080601f0160208091040260200160405190810160405280939291908181526020018383808284376000920191909152506101dc92505050565b9392505050565b60006101d67fac90f94ca54ca1eb067432ccf09a889c0d00f5bc2ebd14221473a3b7fd33ce6b6101098480610657565b356101148580610657565b610122906040810190610678565b61013390608081019060600161068e565b61013d8680610657565b61014b906060810190610678565b61015c90608081019060600161068e565b604087013561016e6060890189610610565b60405161017c9291906106b7565b6040805191829003822060208301979097528101949094526001600160a01b0392831660608501529116608083015260a082015260c081019190915260e00160405160208183030381529060405280519060200120610200565b92915050565b60008060006101eb858561024e565b915091506101f881610294565b509392505050565b60006101d661020d6103ea565b8360405161190160f01b6020820152602281018390526042810182905260009060620160405160208183030381529060405280519060200120905092915050565b6000808251604114156102855760208301516040840151606085015160001a61027987828585610511565b9450945050505061028d565b506000905060025b9250929050565b60008160048111156102a8576102a86106c7565b14156102b15750565b60018160048111156102c5576102c56106c7565b14156103185760405162461bcd60e51b815260206004820152601860248201527f45434453413a20696e76616c6964207369676e6174757265000000000000000060448201526064015b60405180910390fd5b600281600481111561032c5761032c6106c7565b141561037a5760405162461bcd60e51b815260206004820152601f60248201527f45434453413a20696e76616c6964207369676e6174757265206c656e67746800604482015260640161030f565b600381600481111561038e5761038e6106c7565b14156103e75760405162461bcd60e51b815260206004820152602260248201527f45434453413a20696e76616c6964207369676e6174757265202773272076616c604482015261756560f01b606482015260840161030f565b50565b6000306001600160a01b037f00000000000000000000000000000000000000000000000000000000000000001614801561044357507f000000000000000000000000000000000000000000000000000000000000000046145b1561046d57507f000000000000000000000000000000000000000000000000000000000000000090565b50604080517f00000000000000000000000000000000000000000000000000000000000000006020808301919091527f0000000000000000000000000000000000000000000000000000000000000000828401527f000000000000000000000000000000000000000000000000000000000000000060608301524660808301523060a0808401919091528351808403909101815260c0909201909252805191012090565b6000807f7fffffffffffffffffffffffffffffff5d576e7357a4501ddfe92f46681b20a083111561054857506000905060036105cc565b6040805160008082526020820180845289905260ff881692820192909252606081018690526080810185905260019060a0016020604051602081039080840390855afa15801561059c573d6000803e3d6000fd5b5050604051601f1901519150506001600160a01b0381166105c5576000600192509250506105cc565b9150600090505b94509492505050565b6000602082840312156105e757600080fd5b813567ffffffffffffffff8111156105fe57600080fd5b8201608081850312156100d257600080fd5b6000808335601e1984360301811261062757600080fd5b83018035915067ffffffffffffffff82111561064257600080fd5b60200191503681900382131561028d57600080fd5b6000823561011e1983360301811261066e57600080fd5b9190910192915050565b60008235607e1983360301811261066e57600080fd5b6000602082840312156106a057600080fd5b81356001600160a01b03811681146100d257600080fd5b8183823760009101908152919050565b634e487b7160e01b600052602160045260246000fdfea2646970667358221220b93ed097f2e67cb0690a0c59220c29530cfb91c5a8f1824eb46e8593791feed864736f6c63430008090033",
  "linkReferences": {},
  "deployedLinkReferences": {}
}