{
  "_format": "hh-sol-artifact-1",
  "contractName": "SAY",
  "sourceName": "contracts/tokens/ERC20/SayToken.sol",
  "abi": [
    {
      "inputs": [],
      "stateMutability": "nonpayable",
      "type": "constructor"
    },
    {
      "anonymous": false,
      "inputs": [
        {
          "indexed": false,
          "internalType": "address",
          "name": "previousAdmin",
          "type": "address"
        },
        {
          "indexed": false,
          "internalType": "address",
          "name": "newAdmin",
          "type": "address"
        }
      ],
      "name": "AdminChanged",
      "type": "event"
    },
    {
      "anonymous": false,
      "inputs": [
        {
          "indexed": true,
          "internalType": "address",
          "name": "owner",
          "type": "address"
        },
        {
          "indexed": true,
          "internalType": "address",
          "name": "spender",
          "type": "address"
        },
        {
          "indexed": false,
          "internalType": "uint256",
          "name": "value",
          "type": "uint256"
        }
      ],
      "name": "Approval",
      "type": "event"
    },
    {
      "anonymous": false,
      "inputs": [
        {
          "indexed": true,
          "internalType": "address",
          "name": "beacon",
          "type": "address"
        }
      ],
      "name": "BeaconUpgraded",
      "type": "event"
    },
    {
      "anonymous": false,
      "inputs": [
        {
          "indexed": false,
          "internalType": "uint8",
          "name": "version",
          "type": "uint8"
        }
      ],
      "name": "Initialized",
      "type": "event"
    },
    {
      "anonymous": false,
      "inputs": [
        {
          "indexed": true,
          "internalType": "address",
          "name": "previousOwner",
          "type": "address"
        },
        {
          "indexed": true,
          "internalType": "address",
          "name": "newOwner",
          "type": "address"
        }
      ],
      "name": "OwnershipTransferred",
      "type": "event"
    },
    {
      "anonymous": false,
      "inputs": [
        {
          "indexed": false,
          "internalType": "address",
          "name": "account",
          "type": "address"
        }
      ],
      "name": "Paused",
      "type": "event"
    },
    {
      "anonymous": false,
      "inputs": [
        {
          "indexed": true,
          "internalType": "address",
          "name": "from",
          "type": "address"
        },
        {
          "indexed": true,
          "internalType": "address",
          "name": "to",
          "type": "address"
        },
        {
          "indexed": false,
          "internalType": "uint256",
          "name": "value",
          "type": "uint256"
        }
      ],
      "name": "Transfer",
      "type": "event"
    },
    {
      "anonymous": false,
      "inputs": [
        {
          "indexed": false,
          "internalType": "address",
          "name": "account",
          "type": "address"
        }
      ],
      "name": "Unpaused",
      "type": "event"
    },
    {
      "anonymous": false,
      "inputs": [
        {
          "indexed": true,
          "internalType": "address",
          "name": "implementation",
          "type": "address"
        }
      ],
      "name": "Upgraded",
      "type": "event"
    },
    {
      "inputs": [
        {
          "internalType": "address",
          "name": "owner",
          "type": "address"
        },
        {
          "internalType": "address",
          "name": "spender",
          "type": "address"
        }
      ],
      "name": "allowance",
      "outputs": [
        {
          "internalType": "uint256",
          "name": "",
          "type": "uint256"
        }
      ],
      "stateMutability": "view",
      "type": "function"
    },
    {
      "inputs": [
        {
          "internalType": "address",
          "name": "spender",
          "type": "address"
        },
        {
          "internalType": "uint256",
          "name": "amount",
          "type": "uint256"
        }
      ],
      "name": "approve",
      "outputs": [
        {
          "internalType": "bool",
          "name": "",
          "type": "bool"
        }
      ],
      "stateMutability": "nonpayable",
      "type": "function"
    },
    {
      "inputs": [
        {
          "internalType": "address",
          "name": "account",
          "type": "address"
        }
      ],
      "name": "balanceOf",
      "outputs": [
        {
          "internalType": "uint256",
          "name": "",
          "type": "uint256"
        }
      ],
      "stateMutability": "view",
      "type": "function"
    },
    {
      "inputs": [
        {
          "internalType": "uint256",
          "name": "amount",
          "type": "uint256"
        }
      ],
      "name": "burn",
      "outputs": [],
      "stateMutability": "nonpayable",
      "type": "function"
    },
    {
      "inputs": [
        {
          "internalType": "address",
          "name": "account",
          "type": "address"
        },
        {
          "internalType": "uint256",
          "name": "amount",
          "type": "uint256"
        }
      ],
      "name": "burnFrom",
      "outputs": [],
      "stateMutability": "nonpayable",
      "type": "function"
    },
    {
      "inputs": [],
      "name": "decimals",
      "outputs": [
        {
          "internalType": "uint8",
          "name": "",
          "type": "uint8"
        }
      ],
      "stateMutability": "view",
      "type": "function"
    },
    {
      "inputs": [
        {
          "internalType": "address",
          "name": "spender",
          "type": "address"
        },
        {
          "internalType": "uint256",
          "name": "subtractedValue",
          "type": "uint256"
        }
      ],
      "name": "decreaseAllowance",
      "outputs": [
        {
          "internalType": "bool",
          "name": "",
          "type": "bool"
        }
      ],
      "stateMutability": "nonpayable",
      "type": "function"
    },
    {
      "inputs": [
        {
          "internalType": "address",
          "name": "spender",
          "type": "address"
        },
        {
          "internalType": "uint256",
          "name": "addedValue",
          "type": "uint256"
        }
      ],
      "name": "increaseAllowance",
      "outputs": [
        {
          "internalType": "bool",
          "name": "",
          "type": "bool"
        }
      ],
      "stateMutability": "nonpayable",
      "type": "function"
    },
    {
      "inputs": [],
      "name": "initialize",
      "outputs": [],
      "stateMutability": "nonpayable",
      "type": "function"
    },
    {
      "inputs": [
        {
          "internalType": "address",
          "name": "to",
          "type": "address"
        },
        {
          "internalType": "uint256",
          "name": "amount",
          "type": "uint256"
        }
      ],
      "name": "mint",
      "outputs": [],
      "stateMutability": "nonpayable",
      "type": "function"
    },
    {
      "inputs": [],
      "name": "name",
      "outputs": [
        {
          "internalType": "string",
          "name": "",
          "type": "string"
        }
      ],
      "stateMutability": "view",
      "type": "function"
    },
    {
      "inputs": [],
      "name": "owner",
      "outputs": [
        {
          "internalType": "address",
          "name": "",
          "type": "address"
        }
      ],
      "stateMutability": "view",
      "type": "function"
    },
    {
      "inputs": [],
      "name": "pause",
      "outputs": [],
      "stateMutability": "nonpayable",
      "type": "function"
    },
    {
      "inputs": [],
      "name": "paused",
      "outputs": [
        {
          "internalType": "bool",
          "name": "",
          "type": "bool"
        }
      ],
      "stateMutability": "view",
      "type": "function"
    },
    {
      "inputs": [],
      "name": "proxiableUUID",
      "outputs": [
        {
          "internalType": "bytes32",
          "name": "",
          "type": "bytes32"
        }
      ],
      "stateMutability": "view",
      "type": "function"
    },
    {
      "inputs": [],
      "name": "renounceOwnership",
      "outputs": [],
      "stateMutability": "nonpayable",
      "type": "function"
    },
    {
      "inputs": [],
      "name": "symbol",
      "outputs": [
        {
          "internalType": "string",
          "name": "",
          "type": "string"
        }
      ],
      "stateMutability": "view",
      "type": "function"
    },
    {
      "inputs": [],
      "name": "totalSupply",
      "outputs": [
        {
          "internalType": "uint256",
          "name": "",
          "type": "uint256"
        }
      ],
      "stateMutability": "view",
      "type": "function"
    },
    {
      "inputs": [
        {
          "internalType": "address",
          "name": "to",
          "type": "address"
        },
        {
          "internalType": "uint256",
          "name": "amount",
          "type": "uint256"
        }
      ],
      "name": "transfer",
      "outputs": [
        {
          "internalType": "bool",
          "name": "",
          "type": "bool"
        }
      ],
      "stateMutability": "nonpayable",
      "type": "function"
    },
    {
      "inputs": [
        {
          "internalType": "address",
          "name": "from",
          "type": "address"
        },
        {
          "internalType": "address",
          "name": "to",
          "type": "address"
        },
        {
          "internalType": "uint256",
          "name": "amount",
          "type": "uint256"
        }
      ],
      "name": "transferFrom",
      "outputs": [
        {
          "internalType": "bool",
          "name": "",
          "type": "bool"
        }
      ],
      "stateMutability": "nonpayable",
      "type": "function"
    },
    {
      "inputs": [
        {
          "internalType": "address",
          "name": "newOwner",
          "type": "address"
        }
      ],
      "name": "transferOwnership",
      "outputs": [],
      "stateMutability": "nonpayable",
      "type": "function"
    },
    {
      "inputs": [],
      "name": "unpause",
      "outputs": [],
      "stateMutability": "nonpayable",
      "type": "function"
    },
    {
      "inputs": [
        {
          "internalType": "address",
          "name": "newImplementation",
          "type": "address"
        }
      ],
      "name": "upgradeTo",
      "outputs": [],
      "stateMutability": "nonpayable",
      "type": "function"
    },
    {
      "inputs": [
        {
          "internalType": "address",
          "name": "newImplementation",
          "type": "address"
        },
        {
          "internalType": "bytes",
          "name": "data",
          "type": "bytes"
        }
      ],
      "name": "upgradeToAndCall",
      "outputs": [],
      "stateMutability": "payable",
      "type": "function"
    }
  ],
  "bytecode": "0x60a06040523060805234801561001457600080fd5b5061001d610022565b6100e2565b600054610100900460ff161561008e5760405162461bcd60e51b815260206004820152602760248201527f496e697469616c697a61626c653a20636f6e747261637420697320696e697469604482015266616c697a696e6760c81b606482015260840160405180910390fd5b60005460ff90811610156100e0576000805460ff191660ff9081179091556040519081527f7f26b83ff96e1f2b6a682f133852f6798a09c465da95921460cefb38474024989060200160405180910390a15b565b608051611c176101196000396000818161050a01528181610553015281816106470152818161068701526107160152611c176000f3fe60806040526004361061014b5760003560e01c80635c975abb116100b65780638da5cb5b1161006f5780638da5cb5b1461037257806395d89b411461039a578063a457c2d7146103af578063a9059cbb146103cf578063dd62ed3e146103ef578063f2fde38b1461040f57600080fd5b80635c975abb146102c557806370a08231146102dd578063715018a61461031357806379cc6790146103285780638129fc1c146103485780638456cb591461035d57600080fd5b8063395093511161010857806339509351146102285780633f4ba83a1461024857806340c10f191461025d57806342966c681461027d5780634f1ef2861461029d57806352d1902d146102b057600080fd5b806306fdde0314610150578063095ea7b31461017b57806318160ddd146101ab57806323b872dd146101ca578063313ce567146101ea5780633659cfe614610206575b600080fd5b34801561015c57600080fd5b5061016561042f565b604051610172919061180e565b60405180910390f35b34801561018757600080fd5b5061019b61019636600461185d565b6104c1565b6040519015158152602001610172565b3480156101b757600080fd5b506035545b604051908152602001610172565b3480156101d657600080fd5b5061019b6101e5366004611887565b6104d9565b3480156101f657600080fd5b5060405160128152602001610172565b34801561021257600080fd5b506102266102213660046118c3565b6104ff565b005b34801561023457600080fd5b5061019b61024336600461185d565b6105e8565b34801561025457600080fd5b5061022661060a565b34801561026957600080fd5b5061022661027836600461185d565b61061c565b34801561028957600080fd5b506102266102983660046118de565b610632565b6102266102ab36600461190d565b61063c565b3480156102bc57600080fd5b506101bc610709565b3480156102d157600080fd5b5060975460ff1661019b565b3480156102e957600080fd5b506101bc6102f83660046118c3565b6001600160a01b031660009081526033602052604090205490565b34801561031f57600080fd5b506102266107bc565b34801561033457600080fd5b5061022661034336600461185d565b6107ce565b34801561035457600080fd5b506102266107e3565b34801561036957600080fd5b5061022661094b565b34801561037e57600080fd5b5060c9546040516001600160a01b039091168152602001610172565b3480156103a657600080fd5b5061016561095b565b3480156103bb57600080fd5b5061019b6103ca36600461185d565b61096a565b3480156103db57600080fd5b5061019b6103ea36600461185d565b6109f0565b3480156103fb57600080fd5b506101bc61040a3660046119cf565b6109fe565b34801561041b57600080fd5b5061022661042a3660046118c3565b610a29565b60606036805461043e90611a02565b80601f016020809104026020016040519081016040528092919081815260200182805461046a90611a02565b80156104b75780601f1061048c576101008083540402835291602001916104b7565b820191906000526020600020905b81548152906001019060200180831161049a57829003601f168201915b5050505050905090565b6000336104cf818585610a9f565b5060019392505050565b6000336104e7858285610bc3565b6104f2858585610c3d565b60019150505b9392505050565b306001600160a01b037f00000000000000000000000000000000000000000000000000000000000000001614156105515760405162461bcd60e51b815260040161054890611a3d565b60405180910390fd5b7f00000000000000000000000000000000000000000000000000000000000000006001600160a01b031661059a600080516020611b9b833981519152546001600160a01b031690565b6001600160a01b0316146105c05760405162461bcd60e51b815260040161054890611a89565b6105c981610e16565b604080516000808252602082019092526105e591839190610e1e565b50565b6000336104cf8185856105fb83836109fe565b6106059190611aeb565b610a9f565b610612610f9d565b61061a610ff7565b565b610624610f9d565b61062e8282611049565b5050565b6105e53382611134565b306001600160a01b037f00000000000000000000000000000000000000000000000000000000000000001614156106855760405162461bcd60e51b815260040161054890611a3d565b7f00000000000000000000000000000000000000000000000000000000000000006001600160a01b03166106ce600080516020611b9b833981519152546001600160a01b031690565b6001600160a01b0316146106f45760405162461bcd60e51b815260040161054890611a89565b6106fd82610e16565b61062e82826001610e1e565b6000306001600160a01b037f000000000000000000000000000000000000000000000000000000000000000016146107a95760405162461bcd60e51b815260206004820152603860248201527f555550535570677261646561626c653a206d757374206e6f742062652063616c60448201527f6c6564207468726f7567682064656c656761746563616c6c00000000000000006064820152608401610548565b50600080516020611b9b83398151915290565b6107c4610f9d565b61061a600061128e565b6107d9823383610bc3565b61062e8282611134565b600054610100900460ff16158080156108035750600054600160ff909116105b8061081d5750303b15801561081d575060005460ff166001145b6108805760405162461bcd60e51b815260206004820152602e60248201527f496e697469616c697a61626c653a20636f6e747261637420697320616c72656160448201526d191e481a5b9a5d1a585b1a5e995960921b6064820152608401610548565b6000805460ff1916600117905580156108a3576000805461ff0019166101001790555b6108e36040518060400160405280600381526020016253415960e81b8152506040518060400160405280600381526020016253415960e81b8152506112e0565b6108eb611311565b6108f3611338565b6108fb611367565b610903611311565b80156105e5576000805461ff0019169055604051600181527f7f26b83ff96e1f2b6a682f133852f6798a09c465da95921460cefb38474024989060200160405180910390a150565b610953610f9d565b61061a611396565b60606037805461043e90611a02565b6000338161097882866109fe565b9050838110156109d85760405162461bcd60e51b815260206004820152602560248201527f45524332303a2064656372656173656420616c6c6f77616e63652062656c6f77604482015264207a65726f60d81b6064820152608401610548565b6109e58286868403610a9f565b506001949350505050565b6000336104cf818585610c3d565b6001600160a01b03918216600090815260346020908152604080832093909416825291909152205490565b610a31610f9d565b6001600160a01b038116610a965760405162461bcd60e51b815260206004820152602660248201527f4f776e61626c653a206e6577206f776e657220697320746865207a65726f206160448201526564647265737360d01b6064820152608401610548565b6105e58161128e565b6001600160a01b038316610b015760405162461bcd60e51b8152602060048201526024808201527f45524332303a20617070726f76652066726f6d20746865207a65726f206164646044820152637265737360e01b6064820152608401610548565b6001600160a01b038216610b625760405162461bcd60e51b815260206004820152602260248201527f45524332303a20617070726f766520746f20746865207a65726f206164647265604482015261737360f01b6064820152608401610548565b6001600160a01b0383811660008181526034602090815260408083209487168084529482529182902085905590518481527f8c5be1e5ebec7d5bd14f71427d1e84f3dd0314c0f7b2291e5b200ac8c7c3b925910160405180910390a3505050565b6000610bcf84846109fe565b90506000198114610c375781811015610c2a5760405162461bcd60e51b815260206004820152601d60248201527f45524332303a20696e73756666696369656e7420616c6c6f77616e63650000006044820152606401610548565b610c378484848403610a9f565b50505050565b6001600160a01b038316610ca15760405162461bcd60e51b815260206004820152602560248201527f45524332303a207472616e736665722066726f6d20746865207a65726f206164604482015264647265737360d81b6064820152608401610548565b6001600160a01b038216610d035760405162461bcd60e51b815260206004820152602360248201527f45524332303a207472616e7366657220746f20746865207a65726f206164647260448201526265737360e81b6064820152608401610548565b610d0e8383836113d3565b6001600160a01b03831660009081526033602052604090205481811015610d865760405162461bcd60e51b815260206004820152602660248201527f45524332303a207472616e7366657220616d6f756e7420657863656564732062604482015265616c616e636560d01b6064820152608401610548565b6001600160a01b03808516600090815260336020526040808220858503905591851681529081208054849290610dbd908490611aeb565b92505081905550826001600160a01b0316846001600160a01b03167fddf252ad1be2c89b69c2b068fc378daa952ba7f163c4a11628f55a4df523b3ef84604051610e0991815260200190565b60405180910390a3610c37565b6105e5610f9d565b7f4910fdfa16fed3260ed0e7147f7cc6da11a60208b5b9406d12a635614ffd91435460ff1615610e5657610e51836113db565b505050565b826001600160a01b03166352d1902d6040518163ffffffff1660e01b815260040160206040518083038186803b158015610e8f57600080fd5b505afa925050508015610ebf575060408051601f3d908101601f19168201909252610ebc91810190611b03565b60015b610f225760405162461bcd60e51b815260206004820152602e60248201527f45524331393637557067726164653a206e657720696d706c656d656e7461746960448201526d6f6e206973206e6f74205555505360901b6064820152608401610548565b600080516020611b9b8339815191528114610f915760405162461bcd60e51b815260206004820152602960248201527f45524331393637557067726164653a20756e737570706f727465642070726f786044820152681a58589b195555525160ba1b6064820152608401610548565b50610e51838383611477565b60c9546001600160a01b0316331461061a5760405162461bcd60e51b815260206004820181905260248201527f4f776e61626c653a2063616c6c6572206973206e6f7420746865206f776e65726044820152606401610548565b610fff61149c565b6097805460ff191690557f5db9ee0a495bf2e6ff9c91a7834c1ba4fdd244a5e8aa4e537bd38aeae4b073aa335b6040516001600160a01b03909116815260200160405180910390a1565b6001600160a01b03821661109f5760405162461bcd60e51b815260206004820152601f60248201527f45524332303a206d696e7420746f20746865207a65726f2061646472657373006044820152606401610548565b6110ab600083836113d3565b80603560008282546110bd9190611aeb565b90915550506001600160a01b038216600090815260336020526040812080548392906110ea908490611aeb565b90915550506040518181526001600160a01b038316906000907fddf252ad1be2c89b69c2b068fc378daa952ba7f163c4a11628f55a4df523b3ef9060200160405180910390a35050565b6001600160a01b0382166111945760405162461bcd60e51b815260206004820152602160248201527f45524332303a206275726e2066726f6d20746865207a65726f206164647265736044820152607360f81b6064820152608401610548565b6111a0826000836113d3565b6001600160a01b038216600090815260336020526040902054818110156112145760405162461bcd60e51b815260206004820152602260248201527f45524332303a206275726e20616d6f756e7420657863656564732062616c616e604482015261636560f01b6064820152608401610548565b6001600160a01b0383166000908152603360205260408120838303905560358054849290611243908490611b1c565b90915550506040518281526000906001600160a01b038516907fddf252ad1be2c89b69c2b068fc378daa952ba7f163c4a11628f55a4df523b3ef9060200160405180910390a3505050565b60c980546001600160a01b038381166001600160a01b0319831681179093556040519116919082907f8be0079c531659141344cd1fd0a4f28419497f9722a3daafe3b4186f6b6457e090600090a35050565b600054610100900460ff166113075760405162461bcd60e51b815260040161054890611b33565b61062e82826114e5565b600054610100900460ff1661061a5760405162461bcd60e51b815260040161054890611b33565b600054610100900460ff1661135f5760405162461bcd60e51b815260040161054890611b33565b61061a611533565b600054610100900460ff1661138e5760405162461bcd60e51b815260040161054890611b33565b61061a611566565b61139e611596565b6097805460ff191660011790557f62e78cea01bee320cd4e420270b5ea74000d11b0c9f74754ebdbfc544b05a25861102c3390565b610e51611596565b6001600160a01b0381163b6114485760405162461bcd60e51b815260206004820152602d60248201527f455243313936373a206e657720696d706c656d656e746174696f6e206973206e60448201526c1bdd08184818dbdb9d1c9858dd609a1b6064820152608401610548565b600080516020611b9b83398151915280546001600160a01b0319166001600160a01b0392909216919091179055565b611480836115dc565b60008251118061148d5750805b15610e5157610c37838361161c565b60975460ff1661061a5760405162461bcd60e51b815260206004820152601460248201527314185d5cd8589b194e881b9bdd081c185d5cd95960621b6044820152606401610548565b600054610100900460ff1661150c5760405162461bcd60e51b815260040161054890611b33565b815161151f906036906020850190611749565b508051610e51906037906020840190611749565b600054610100900460ff1661155a5760405162461bcd60e51b815260040161054890611b33565b6097805460ff19169055565b600054610100900460ff1661158d5760405162461bcd60e51b815260040161054890611b33565b61061a3361128e565b60975460ff161561061a5760405162461bcd60e51b815260206004820152601060248201526f14185d5cd8589b194e881c185d5cd95960821b6044820152606401610548565b6115e5816113db565b6040516001600160a01b038216907fbc7cd75a20ee27fd9adebab32041f755214dbc6bffa90cc0225b39da2e5c2d3b90600090a250565b60606001600160a01b0383163b6116845760405162461bcd60e51b815260206004820152602660248201527f416464726573733a2064656c65676174652063616c6c20746f206e6f6e2d636f6044820152651b9d1c9858dd60d21b6064820152608401610548565b600080846001600160a01b03168460405161169f9190611b7e565b600060405180830381855af49150503d80600081146116da576040519150601f19603f3d011682016040523d82523d6000602084013e6116df565b606091505b50915091506117078282604051806060016040528060278152602001611bbb60279139611710565b95945050505050565b6060831561171f5750816104f8565b82511561172f5782518084602001fd5b8160405162461bcd60e51b8152600401610548919061180e565b82805461175590611a02565b90600052602060002090601f01602090048101928261177757600085556117bd565b82601f1061179057805160ff19168380011785556117bd565b828001600101855582156117bd579182015b828111156117bd5782518255916020019190600101906117a2565b506117c99291506117cd565b5090565b5b808211156117c957600081556001016117ce565b60005b838110156117fd5781810151838201526020016117e5565b83811115610c375750506000910152565b602081526000825180602084015261182d8160408501602087016117e2565b601f01601f19169190910160400192915050565b80356001600160a01b038116811461185857600080fd5b919050565b6000806040838503121561187057600080fd5b61187983611841565b946020939093013593505050565b60008060006060848603121561189c57600080fd5b6118a584611841565b92506118b360208501611841565b9150604084013590509250925092565b6000602082840312156118d557600080fd5b6104f882611841565b6000602082840312156118f057600080fd5b5035919050565b634e487b7160e01b600052604160045260246000fd5b6000806040838503121561192057600080fd5b61192983611841565b9150602083013567ffffffffffffffff8082111561194657600080fd5b818501915085601f83011261195a57600080fd5b81358181111561196c5761196c6118f7565b604051601f8201601f19908116603f01168101908382118183101715611994576119946118f7565b816040528281528860208487010111156119ad57600080fd5b8260208601602083013760006020848301015280955050505050509250929050565b600080604083850312156119e257600080fd5b6119eb83611841565b91506119f960208401611841565b90509250929050565b600181811c90821680611a1657607f821691505b60208210811415611a3757634e487b7160e01b600052602260045260246000fd5b50919050565b6020808252602c908201527f46756e6374696f6e206d7573742062652063616c6c6564207468726f7567682060408201526b19195b1959d85d1958d85b1b60a21b606082015260800190565b6020808252602c908201527f46756e6374696f6e206d7573742062652063616c6c6564207468726f7567682060408201526b6163746976652070726f787960a01b606082015260800190565b634e487b7160e01b600052601160045260246000fd5b60008219821115611afe57611afe611ad5565b500190565b600060208284031215611b1557600080fd5b5051919050565b600082821015611b2e57611b2e611ad5565b500390565b6020808252602b908201527f496e697469616c697a61626c653a20636f6e7472616374206973206e6f74206960408201526a6e697469616c697a696e6760a81b606082015260800190565b60008251611b908184602087016117e2565b919091019291505056fe360894a13ba1a3210667c828492db98dca3e2076cc3735a920a3ca505d382bbc416464726573733a206c6f772d6c6576656c2064656c65676174652063616c6c206661696c6564a26469706673582212204b1daafe1e9c601b499afcf4ca2371d34d4a08b662c245711ea273e1887c16f364736f6c63430008090033",
  "linkReferences": {},
  "deployedLinkReferences": {}
}