{
  "_format": "hh-sol-artifact-1",
  "contractName": "Child",
  "sourceName": "contracts/ERC721/Child.sol",
  "abi": [
    {
      "inputs": [],
      "stateMutability": "nonpayable",
      "type": "constructor"
    },
    {
      "anonymous": false,
      "inputs": [
        {
          "indexed": false,
          "internalType": "address",
          "name": "previousAdmin",
          "type": "address"
        },
        {
          "indexed": false,
          "internalType": "address",
          "name": "newAdmin",
          "type": "address"
        }
      ],
      "name": "AdminChanged",
      "type": "event"
    },
    {
      "anonymous": false,
      "inputs": [
        {
          "indexed": true,
          "internalType": "address",
          "name": "owner",
          "type": "address"
        },
        {
          "indexed": true,
          "internalType": "address",
          "name": "approved",
          "type": "address"
        },
        {
          "indexed": true,
          "internalType": "uint256",
          "name": "tokenId",
          "type": "uint256"
        }
      ],
      "name": "Approval",
      "type": "event"
    },
    {
      "anonymous": false,
      "inputs": [
        {
          "indexed": true,
          "internalType": "address",
          "name": "owner",
          "type": "address"
        },
        {
          "indexed": true,
          "internalType": "address",
          "name": "operator",
          "type": "address"
        },
        {
          "indexed": false,
          "internalType": "bool",
          "name": "approved",
          "type": "bool"
        }
      ],
      "name": "ApprovalForAll",
      "type": "event"
    },
    {
      "anonymous": false,
      "inputs": [
        {
          "indexed": true,
          "internalType": "address",
          "name": "beacon",
          "type": "address"
        }
      ],
      "name": "BeaconUpgraded",
      "type": "event"
    },
    {
      "anonymous": false,
      "inputs": [
        {
          "indexed": false,
          "internalType": "uint8",
          "name": "version",
          "type": "uint8"
        }
      ],
      "name": "Initialized",
      "type": "event"
    },
    {
      "anonymous": false,
      "inputs": [
        {
          "indexed": true,
          "internalType": "address",
          "name": "previousOwner",
          "type": "address"
        },
        {
          "indexed": true,
          "internalType": "address",
          "name": "newOwner",
          "type": "address"
        }
      ],
      "name": "OwnershipTransferred",
      "type": "event"
    },
    {
      "anonymous": false,
      "inputs": [
        {
          "indexed": true,
          "internalType": "address",
          "name": "from",
          "type": "address"
        },
        {
          "indexed": true,
          "internalType": "address",
          "name": "to",
          "type": "address"
        },
        {
          "indexed": true,
          "internalType": "uint256",
          "name": "tokenId",
          "type": "uint256"
        }
      ],
      "name": "Transfer",
      "type": "event"
    },
    {
      "anonymous": false,
      "inputs": [
        {
          "indexed": true,
          "internalType": "address",
          "name": "implementation",
          "type": "address"
        }
      ],
      "name": "Upgraded",
      "type": "event"
    },
    {
      "inputs": [
        {
          "internalType": "address",
          "name": "to",
          "type": "address"
        },
        {
          "internalType": "uint256",
          "name": "tokenId",
          "type": "uint256"
        }
      ],
      "name": "approve",
      "outputs": [],
      "stateMutability": "nonpayable",
      "type": "function"
    },
    {
      "inputs": [
        {
          "internalType": "address",
          "name": "owner",
          "type": "address"
        }
      ],
      "name": "balanceOf",
      "outputs": [
        {
          "internalType": "uint256",
          "name": "",
          "type": "uint256"
        }
      ],
      "stateMutability": "view",
      "type": "function"
    },
    {
      "inputs": [
        {
          "internalType": "uint256",
          "name": "tokenId",
          "type": "uint256"
        }
      ],
      "name": "getApproved",
      "outputs": [
        {
          "internalType": "address",
          "name": "",
          "type": "address"
        }
      ],
      "stateMutability": "view",
      "type": "function"
    },
    {
      "inputs": [],
      "name": "initialize",
      "outputs": [],
      "stateMutability": "nonpayable",
      "type": "function"
    },
    {
      "inputs": [
        {
          "internalType": "address",
          "name": "owner",
          "type": "address"
        },
        {
          "internalType": "address",
          "name": "operator",
          "type": "address"
        }
      ],
      "name": "isApprovedForAll",
      "outputs": [
        {
          "internalType": "bool",
          "name": "",
          "type": "bool"
        }
      ],
      "stateMutability": "view",
      "type": "function"
    },
    {
      "inputs": [],
      "name": "name",
      "outputs": [
        {
          "internalType": "string",
          "name": "",
          "type": "string"
        }
      ],
      "stateMutability": "view",
      "type": "function"
    },
    {
      "inputs": [],
      "name": "owner",
      "outputs": [
        {
          "internalType": "address",
          "name": "",
          "type": "address"
        }
      ],
      "stateMutability": "view",
      "type": "function"
    },
    {
      "inputs": [
        {
          "internalType": "uint256",
          "name": "tokenId",
          "type": "uint256"
        }
      ],
      "name": "ownerOf",
      "outputs": [
        {
          "internalType": "address",
          "name": "",
          "type": "address"
        }
      ],
      "stateMutability": "view",
      "type": "function"
    },
    {
      "inputs": [],
      "name": "proxiableUUID",
      "outputs": [
        {
          "internalType": "bytes32",
          "name": "",
          "type": "bytes32"
        }
      ],
      "stateMutability": "view",
      "type": "function"
    },
    {
      "inputs": [],
      "name": "renounceOwnership",
      "outputs": [],
      "stateMutability": "nonpayable",
      "type": "function"
    },
    {
      "inputs": [
        {
          "internalType": "address",
          "name": "to",
          "type": "address"
        },
        {
          "internalType": "string",
          "name": "uri",
          "type": "string"
        }
      ],
      "name": "safeMint",
      "outputs": [],
      "stateMutability": "nonpayable",
      "type": "function"
    },
    {
      "inputs": [
        {
          "internalType": "address",
          "name": "from",
          "type": "address"
        },
        {
          "internalType": "address",
          "name": "to",
          "type": "address"
        },
        {
          "internalType": "uint256",
          "name": "tokenId",
          "type": "uint256"
        }
      ],
      "name": "safeTransferFrom",
      "outputs": [],
      "stateMutability": "nonpayable",
      "type": "function"
    },
    {
      "inputs": [
        {
          "internalType": "address",
          "name": "from",
          "type": "address"
        },
        {
          "internalType": "address",
          "name": "to",
          "type": "address"
        },
        {
          "internalType": "uint256",
          "name": "tokenId",
          "type": "uint256"
        },
        {
          "internalType": "bytes",
          "name": "data",
          "type": "bytes"
        }
      ],
      "name": "safeTransferFrom",
      "outputs": [],
      "stateMutability": "nonpayable",
      "type": "function"
    },
    {
      "inputs": [
        {
          "internalType": "address",
          "name": "operator",
          "type": "address"
        },
        {
          "internalType": "bool",
          "name": "approved",
          "type": "bool"
        }
      ],
      "name": "setApprovalForAll",
      "outputs": [],
      "stateMutability": "nonpayable",
      "type": "function"
    },
    {
      "inputs": [
        {
          "internalType": "bytes4",
          "name": "interfaceId",
          "type": "bytes4"
        }
      ],
      "name": "supportsInterface",
      "outputs": [
        {
          "internalType": "bool",
          "name": "",
          "type": "bool"
        }
      ],
      "stateMutability": "view",
      "type": "function"
    },
    {
      "inputs": [],
      "name": "symbol",
      "outputs": [
        {
          "internalType": "string",
          "name": "",
          "type": "string"
        }
      ],
      "stateMutability": "view",
      "type": "function"
    },
    {
      "inputs": [
        {
          "internalType": "uint256",
          "name": "tokenId",
          "type": "uint256"
        }
      ],
      "name": "tokenURI",
      "outputs": [
        {
          "internalType": "string",
          "name": "",
          "type": "string"
        }
      ],
      "stateMutability": "view",
      "type": "function"
    },
    {
      "inputs": [
        {
          "internalType": "address",
          "name": "from",
          "type": "address"
        },
        {
          "internalType": "address",
          "name": "to",
          "type": "address"
        },
        {
          "internalType": "uint256",
          "name": "tokenId",
          "type": "uint256"
        }
      ],
      "name": "transferFrom",
      "outputs": [],
      "stateMutability": "nonpayable",
      "type": "function"
    },
    {
      "inputs": [
        {
          "internalType": "address",
          "name": "newOwner",
          "type": "address"
        }
      ],
      "name": "transferOwnership",
      "outputs": [],
      "stateMutability": "nonpayable",
      "type": "function"
    },
    {
      "inputs": [
        {
          "internalType": "address",
          "name": "newImplementation",
          "type": "address"
        }
      ],
      "name": "upgradeTo",
      "outputs": [],
      "stateMutability": "nonpayable",
      "type": "function"
    },
    {
      "inputs": [
        {
          "internalType": "address",
          "name": "newImplementation",
          "type": "address"
        },
        {
          "internalType": "bytes",
          "name": "data",
          "type": "bytes"
        }
      ],
      "name": "upgradeToAndCall",
      "outputs": [],
      "stateMutability": "payable",
      "type": "function"
    }
  ],
  "bytecode": "0x60a06040523060805234801561001457600080fd5b5061001d610022565b6100e2565b600054610100900460ff161561008e5760405162461bcd60e51b815260206004820152602760248201527f496e697469616c697a61626c653a20636f6e747261637420697320696e697469604482015266616c697a696e6760c81b606482015260840160405180910390fd5b60005460ff90811610156100e0576000805460ff191660ff9081179091556040519081527f7f26b83ff96e1f2b6a682f133852f6798a09c465da95921460cefb38474024989060200160405180910390a15b565b6080516124056200011a6000396000818161065e0152818161069e0152818161075901528181610799015261082c01526124056000f3fe60806040526004361061012a5760003560e01c806370a08231116100ab578063a22cb4651161006f578063a22cb46514610313578063b88d4fde14610333578063c87b56dd14610353578063d204c45e14610373578063e985e9c514610393578063f2fde38b146103dc57600080fd5b806370a0823114610296578063715018a6146102b65780638129fc1c146102cb5780638da5cb5b146102e057806395d89b41146102fe57600080fd5b80633659cfe6116100f25780633659cfe61461020057806342842e0e146102205780634f1ef2861461024057806352d1902d146102535780636352211e1461027657600080fd5b806301ffc9a71461012f57806306fdde0314610164578063081812fc14610186578063095ea7b3146101be57806323b872dd146101e0575b600080fd5b34801561013b57600080fd5b5061014f61014a366004611d1c565b6103fc565b60405190151581526020015b60405180910390f35b34801561017057600080fd5b5061017961044e565b60405161015b9190611d91565b34801561019257600080fd5b506101a66101a1366004611da4565b6104e0565b6040516001600160a01b03909116815260200161015b565b3480156101ca57600080fd5b506101de6101d9366004611dd9565b610507565b005b3480156101ec57600080fd5b506101de6101fb366004611e03565b610622565b34801561020c57600080fd5b506101de61021b366004611e3f565b610653565b34801561022c57600080fd5b506101de61023b366004611e03565b610733565b6101de61024e366004611f06565b61074e565b34801561025f57600080fd5b5061026861081f565b60405190815260200161015b565b34801561028257600080fd5b506101a6610291366004611da4565b6108d2565b3480156102a257600080fd5b506102686102b1366004611e3f565b610932565b3480156102c257600080fd5b506101de6109b8565b3480156102d757600080fd5b506101de6109cc565b3480156102ec57600080fd5b5060c9546001600160a01b03166101a6565b34801561030a57600080fd5b50610179610b30565b34801561031f57600080fd5b506101de61032e366004611f54565b610b3f565b34801561033f57600080fd5b506101de61034e366004611f90565b610b4a565b34801561035f57600080fd5b5061017961036e366004611da4565b610b82565b34801561037f57600080fd5b506101de61038e366004611ff8565b610b8d565b34801561039f57600080fd5b5061014f6103ae366004612050565b6001600160a01b039182166000908152606a6020908152604080832093909416825291909152205460ff1690565b3480156103e857600080fd5b506101de6103f7366004611e3f565b610bc6565b60006001600160e01b031982166380ac58cd60e01b148061042d57506001600160e01b03198216635b5e139f60e01b145b8061044857506301ffc9a760e01b6001600160e01b03198316145b92915050565b60606065805461045d90612083565b80601f016020809104026020016040519081016040528092919081815260200182805461048990612083565b80156104d65780601f106104ab576101008083540402835291602001916104d6565b820191906000526020600020905b8154815290600101906020018083116104b957829003601f168201915b5050505050905090565b60006104eb82610c3c565b506000908152606960205260409020546001600160a01b031690565b6000610512826108d2565b9050806001600160a01b0316836001600160a01b031614156105855760405162461bcd60e51b815260206004820152602160248201527f4552433732313a20617070726f76616c20746f2063757272656e74206f776e656044820152603960f91b60648201526084015b60405180910390fd5b336001600160a01b03821614806105a157506105a181336103ae565b6106135760405162461bcd60e51b815260206004820152603d60248201527f4552433732313a20617070726f76652063616c6c6572206973206e6f7420746f60448201527f6b656e206f776e6572206f7220617070726f76656420666f7220616c6c000000606482015260840161057c565b61061d8383610c9b565b505050565b61062c3382610d09565b6106485760405162461bcd60e51b815260040161057c906120be565b61061d838383610d88565b306001600160a01b037f000000000000000000000000000000000000000000000000000000000000000016141561069c5760405162461bcd60e51b815260040161057c9061210b565b7f00000000000000000000000000000000000000000000000000000000000000006001600160a01b03166106e5600080516020612389833981519152546001600160a01b031690565b6001600160a01b03161461070b5760405162461bcd60e51b815260040161057c90612157565b61071481610ef9565b6040805160008082526020820190925261073091839190610f01565b50565b61061d83838360405180602001604052806000815250610b4a565b306001600160a01b037f00000000000000000000000000000000000000000000000000000000000000001614156107975760405162461bcd60e51b815260040161057c9061210b565b7f00000000000000000000000000000000000000000000000000000000000000006001600160a01b03166107e0600080516020612389833981519152546001600160a01b031690565b6001600160a01b0316146108065760405162461bcd60e51b815260040161057c90612157565b61080f82610ef9565b61081b82826001610f01565b5050565b6000306001600160a01b037f000000000000000000000000000000000000000000000000000000000000000016146108bf5760405162461bcd60e51b815260206004820152603860248201527f555550535570677261646561626c653a206d757374206e6f742062652063616c60448201527f6c6564207468726f7567682064656c656761746563616c6c0000000000000000606482015260840161057c565b5060008051602061238983398151915290565b6000818152606760205260408120546001600160a01b0316806104485760405162461bcd60e51b8152602060048201526018602482015277115490cdcc8c4e881a5b9d985b1a59081d1bdad95b88125160421b604482015260640161057c565b60006001600160a01b03821661099c5760405162461bcd60e51b815260206004820152602960248201527f4552433732313a2061646472657373207a65726f206973206e6f7420612076616044820152683634b21037bbb732b960b91b606482015260840161057c565b506001600160a01b031660009081526068602052604090205490565b6109c061107b565b6109ca60006110d5565b565b600054610100900460ff16158080156109ec5750600054600160ff909116105b80610a065750303b158015610a06575060005460ff166001145b610a695760405162461bcd60e51b815260206004820152602e60248201527f496e697469616c697a61626c653a20636f6e747261637420697320616c72656160448201526d191e481a5b9a5d1a585b1a5e995960921b606482015260840161057c565b6000805460ff191660011790558015610a8c576000805461ff0019166101001790555b610ad06040518060400160405280600581526020016410da1a5b1960da1b8152506040518060400160405280600581526020016410d212531160da1b815250611127565b610ad8611158565b610ae061117f565b610ae8611158565b8015610730576000805461ff0019169055604051600181527f7f26b83ff96e1f2b6a682f133852f6798a09c465da95921460cefb38474024989060200160405180910390a150565b60606066805461045d90612083565b61081b3383836111ae565b610b543383610d09565b610b705760405162461bcd60e51b815260040161057c906120be565b610b7c8484848461127d565b50505050565b6060610448826112b0565b610b9561107b565b6000610ba161015f5490565b9050610bb261015f80546001019055565b610bbc83826113b9565b61061d81836113d3565b610bce61107b565b6001600160a01b038116610c335760405162461bcd60e51b815260206004820152602660248201527f4f776e61626c653a206e6577206f776e657220697320746865207a65726f206160448201526564647265737360d01b606482015260840161057c565b610730816110d5565b6000818152606760205260409020546001600160a01b03166107305760405162461bcd60e51b8152602060048201526018602482015277115490cdcc8c4e881a5b9d985b1a59081d1bdad95b88125160421b604482015260640161057c565b600081815260696020526040902080546001600160a01b0319166001600160a01b0384169081179091558190610cd0826108d2565b6001600160a01b03167f8c5be1e5ebec7d5bd14f71427d1e84f3dd0314c0f7b2291e5b200ac8c7c3b92560405160405180910390a45050565b600080610d15836108d2565b9050806001600160a01b0316846001600160a01b03161480610d5c57506001600160a01b038082166000908152606a602090815260408083209388168352929052205460ff165b80610d805750836001600160a01b0316610d75846104e0565b6001600160a01b0316145b949350505050565b826001600160a01b0316610d9b826108d2565b6001600160a01b031614610dc15760405162461bcd60e51b815260040161057c906121a3565b6001600160a01b038216610e235760405162461bcd60e51b8152602060048201526024808201527f4552433732313a207472616e7366657220746f20746865207a65726f206164646044820152637265737360e01b606482015260840161057c565b610e30838383600161146d565b826001600160a01b0316610e43826108d2565b6001600160a01b031614610e695760405162461bcd60e51b815260040161057c906121a3565b600081815260696020908152604080832080546001600160a01b03199081169091556001600160a01b0387811680865260688552838620805460001901905590871680865283862080546001019055868652606790945282852080549092168417909155905184937fddf252ad1be2c89b69c2b068fc378daa952ba7f163c4a11628f55a4df523b3ef91a4505050565b61073061107b565b7f4910fdfa16fed3260ed0e7147f7cc6da11a60208b5b9406d12a635614ffd91435460ff1615610f345761061d836114f5565b826001600160a01b03166352d1902d6040518163ffffffff1660e01b815260040160206040518083038186803b158015610f6d57600080fd5b505afa925050508015610f9d575060408051601f3d908101601f19168201909252610f9a918101906121e8565b60015b6110005760405162461bcd60e51b815260206004820152602e60248201527f45524331393637557067726164653a206e657720696d706c656d656e7461746960448201526d6f6e206973206e6f74205555505360901b606482015260840161057c565b600080516020612389833981519152811461106f5760405162461bcd60e51b815260206004820152602960248201527f45524331393637557067726164653a20756e737570706f727465642070726f786044820152681a58589b195555525160ba1b606482015260840161057c565b5061061d838383611591565b60c9546001600160a01b031633146109ca5760405162461bcd60e51b815260206004820181905260248201527f4f776e61626c653a2063616c6c6572206973206e6f7420746865206f776e6572604482015260640161057c565b60c980546001600160a01b038381166001600160a01b0319831681179093556040519116919082907f8be0079c531659141344cd1fd0a4f28419497f9722a3daafe3b4186f6b6457e090600090a35050565b600054610100900460ff1661114e5760405162461bcd60e51b815260040161057c90612201565b61081b82826115b6565b600054610100900460ff166109ca5760405162461bcd60e51b815260040161057c90612201565b600054610100900460ff166111a65760405162461bcd60e51b815260040161057c90612201565b6109ca611604565b816001600160a01b0316836001600160a01b031614156112105760405162461bcd60e51b815260206004820152601960248201527f4552433732313a20617070726f766520746f2063616c6c657200000000000000604482015260640161057c565b6001600160a01b038381166000818152606a6020908152604080832094871680845294825291829020805460ff191686151590811790915591519182527f17307eab39ab6107e8899845ad3d59bd9653f200f220920489ca2b5937696c31910160405180910390a3505050565b611288848484610d88565b61129484848484611634565b610b7c5760405162461bcd60e51b815260040161057c9061224c565b60606112bb82610c3c565b600082815260976020526040812080546112d490612083565b80601f016020809104026020016040519081016040528092919081815260200182805461130090612083565b801561134d5780601f106113225761010080835404028352916020019161134d565b820191906000526020600020905b81548152906001019060200180831161133057829003601f168201915b50505050509050600061136b60408051602081019091526000815290565b905080516000141561137e575092915050565b8151156113b057808260405160200161139892919061229e565b60405160208183030381529060405292505050919050565b610d8084611741565b61081b8282604051806020016040528060008152506117b5565b6000828152606760205260409020546001600160a01b031661144e5760405162461bcd60e51b815260206004820152602e60248201527f45524337323155524953746f726167653a2055524920736574206f66206e6f6e60448201526d32bc34b9ba32b73a103a37b5b2b760911b606482015260840161057c565b6000828152609760209081526040909120825161061d92840190611c6d565b6001811115610b7c576001600160a01b038416156114b3576001600160a01b038416600090815260686020526040812080548392906114ad9084906122e3565b90915550505b6001600160a01b03831615610b7c576001600160a01b038316600090815260686020526040812080548392906114ea9084906122fa565b909155505050505050565b6001600160a01b0381163b6115625760405162461bcd60e51b815260206004820152602d60248201527f455243313936373a206e657720696d706c656d656e746174696f6e206973206e60448201526c1bdd08184818dbdb9d1c9858dd609a1b606482015260840161057c565b60008051602061238983398151915280546001600160a01b0319166001600160a01b0392909216919091179055565b61159a836117e8565b6000825111806115a75750805b1561061d57610b7c8383611828565b600054610100900460ff166115dd5760405162461bcd60e51b815260040161057c90612201565b81516115f0906065906020850190611c6d565b50805161061d906066906020840190611c6d565b600054610100900460ff1661162b5760405162461bcd60e51b815260040161057c90612201565b6109ca336110d5565b60006001600160a01b0384163b1561173657604051630a85bd0160e11b81526001600160a01b0385169063150b7a0290611678903390899088908890600401612312565b602060405180830381600087803b15801561169257600080fd5b505af19250505080156116c2575060408051601f3d908101601f191682019092526116bf9181019061234f565b60015b61171c573d8080156116f0576040519150601f19603f3d011682016040523d82523d6000602084013e6116f5565b606091505b5080516117145760405162461bcd60e51b815260040161057c9061224c565b805181602001fd5b6001600160e01b031916630a85bd0160e11b149050610d80565b506001949350505050565b606061174c82610c3c565b600061176360408051602081019091526000815290565b9050600081511161178357604051806020016040528060008152506117ae565b8061178d8461191c565b60405160200161179e92919061229e565b6040516020818303038152906040525b9392505050565b6117bf83836119b9565b6117cc6000848484611634565b61061d5760405162461bcd60e51b815260040161057c9061224c565b6117f1816114f5565b6040516001600160a01b038216907fbc7cd75a20ee27fd9adebab32041f755214dbc6bffa90cc0225b39da2e5c2d3b90600090a250565b60606001600160a01b0383163b6118905760405162461bcd60e51b815260206004820152602660248201527f416464726573733a2064656c65676174652063616c6c20746f206e6f6e2d636f6044820152651b9d1c9858dd60d21b606482015260840161057c565b600080846001600160a01b0316846040516118ab919061236c565b600060405180830381855af49150503d80600081146118e6576040519150601f19603f3d011682016040523d82523d6000602084013e6118eb565b606091505b509150915061191382826040518060600160405280602781526020016123a960279139611b52565b95945050505050565b6060600061192983611b6b565b600101905060008167ffffffffffffffff81111561194957611949611e5a565b6040519080825280601f01601f191660200182016040528015611973576020820181803683370190505b5090508181016020015b600019016f181899199a1a9b1b9c1cb0b131b232b360811b600a86061a8153600a85049450846119ac576119b1565b61197d565b509392505050565b6001600160a01b038216611a0f5760405162461bcd60e51b815260206004820181905260248201527f4552433732313a206d696e7420746f20746865207a65726f2061646472657373604482015260640161057c565b6000818152606760205260409020546001600160a01b031615611a745760405162461bcd60e51b815260206004820152601c60248201527f4552433732313a20746f6b656e20616c7265616479206d696e74656400000000604482015260640161057c565b611a8260008383600161146d565b6000818152606760205260409020546001600160a01b031615611ae75760405162461bcd60e51b815260206004820152601c60248201527f4552433732313a20746f6b656e20616c7265616479206d696e74656400000000604482015260640161057c565b6001600160a01b038216600081815260686020908152604080832080546001019055848352606790915280822080546001600160a01b0319168417905551839291907fddf252ad1be2c89b69c2b068fc378daa952ba7f163c4a11628f55a4df523b3ef908290a45050565b60608315611b615750816117ae565b6117ae8383611c43565b60008072184f03e93ff9f4daa797ed6e38ed64bf6a1f0160401b8310611baa5772184f03e93ff9f4daa797ed6e38ed64bf6a1f0160401b830492506040015b6d04ee2d6d415b85acef81000000008310611bd6576d04ee2d6d415b85acef8100000000830492506020015b662386f26fc100008310611bf457662386f26fc10000830492506010015b6305f5e1008310611c0c576305f5e100830492506008015b6127108310611c2057612710830492506004015b60648310611c32576064830492506002015b600a83106104485760010192915050565b815115611c535781518083602001fd5b8060405162461bcd60e51b815260040161057c9190611d91565b828054611c7990612083565b90600052602060002090601f016020900481019282611c9b5760008555611ce1565b82601f10611cb457805160ff1916838001178555611ce1565b82800160010185558215611ce1579182015b82811115611ce1578251825591602001919060010190611cc6565b50611ced929150611cf1565b5090565b5b80821115611ced5760008155600101611cf2565b6001600160e01b03198116811461073057600080fd5b600060208284031215611d2e57600080fd5b81356117ae81611d06565b60005b83811015611d54578181015183820152602001611d3c565b83811115610b7c5750506000910152565b60008151808452611d7d816020860160208601611d39565b601f01601f19169290920160200192915050565b6020815260006117ae6020830184611d65565b600060208284031215611db657600080fd5b5035919050565b80356001600160a01b0381168114611dd457600080fd5b919050565b60008060408385031215611dec57600080fd5b611df583611dbd565b946020939093013593505050565b600080600060608486031215611e1857600080fd5b611e2184611dbd565b9250611e2f60208501611dbd565b9150604084013590509250925092565b600060208284031215611e5157600080fd5b6117ae82611dbd565b634e487b7160e01b600052604160045260246000fd5b600067ffffffffffffffff80841115611e8b57611e8b611e5a565b604051601f8501601f19908116603f01168101908282118183101715611eb357611eb3611e5a565b81604052809350858152868686011115611ecc57600080fd5b858560208301376000602087830101525050509392505050565b600082601f830112611ef757600080fd5b6117ae83833560208501611e70565b60008060408385031215611f1957600080fd5b611f2283611dbd565b9150602083013567ffffffffffffffff811115611f3e57600080fd5b611f4a85828601611ee6565b9150509250929050565b60008060408385031215611f6757600080fd5b611f7083611dbd565b915060208301358015158114611f8557600080fd5b809150509250929050565b60008060008060808587031215611fa657600080fd5b611faf85611dbd565b9350611fbd60208601611dbd565b925060408501359150606085013567ffffffffffffffff811115611fe057600080fd5b611fec87828801611ee6565b91505092959194509250565b6000806040838503121561200b57600080fd5b61201483611dbd565b9150602083013567ffffffffffffffff81111561203057600080fd5b8301601f8101851361204157600080fd5b611f4a85823560208401611e70565b6000806040838503121561206357600080fd5b61206c83611dbd565b915061207a60208401611dbd565b90509250929050565b600181811c9082168061209757607f821691505b602082108114156120b857634e487b7160e01b600052602260045260246000fd5b50919050565b6020808252602d908201527f4552433732313a2063616c6c6572206973206e6f7420746f6b656e206f776e6560408201526c1c881bdc88185c1c1c9bdd9959609a1b606082015260800190565b6020808252602c908201527f46756e6374696f6e206d7573742062652063616c6c6564207468726f7567682060408201526b19195b1959d85d1958d85b1b60a21b606082015260800190565b6020808252602c908201527f46756e6374696f6e206d7573742062652063616c6c6564207468726f7567682060408201526b6163746976652070726f787960a01b606082015260800190565b60208082526025908201527f4552433732313a207472616e736665722066726f6d20696e636f72726563742060408201526437bbb732b960d91b606082015260800190565b6000602082840312156121fa57600080fd5b5051919050565b6020808252602b908201527f496e697469616c697a61626c653a20636f6e7472616374206973206e6f74206960408201526a6e697469616c697a696e6760a81b606082015260800190565b60208082526032908201527f4552433732313a207472616e7366657220746f206e6f6e20455243373231526560408201527131b2b4bb32b91034b6b83632b6b2b73a32b960711b606082015260800190565b600083516122b0818460208801611d39565b8351908301906122c4818360208801611d39565b01949350505050565b634e487b7160e01b600052601160045260246000fd5b6000828210156122f5576122f56122cd565b500390565b6000821982111561230d5761230d6122cd565b500190565b6001600160a01b038581168252841660208201526040810183905260806060820181905260009061234590830184611d65565b9695505050505050565b60006020828403121561236157600080fd5b81516117ae81611d06565b6000825161237e818460208701611d39565b919091019291505056fe360894a13ba1a3210667c828492db98dca3e2076cc3735a920a3ca505d382bbc416464726573733a206c6f772d6c6576656c2064656c65676174652063616c6c206661696c6564a26469706673582212209ce25a52e835419896a32fc0548da094df8f971abfdbc5557fc7b03150d1877564736f6c63430008090033",
  "linkReferences": {},
  "deployedLinkReferences": {}
}