{
  "_format": "hh-sol-artifact-1",
  "contractName": "GovernanceTokenV2",
  "sourceName": "contracts/tokens/ERC721/GovernanceTokenV2.sol",
  "abi": [
    {
      "anonymous": false,
      "inputs": [
        {
          "indexed": false,
          "internalType": "address",
          "name": "previousAdmin",
          "type": "address"
        },
        {
          "indexed": false,
          "internalType": "address",
          "name": "newAdmin",
          "type": "address"
        }
      ],
      "name": "AdminChanged",
      "type": "event"
    },
    {
      "anonymous": false,
      "inputs": [
        {
          "indexed": true,
          "internalType": "address",
          "name": "owner",
          "type": "address"
        },
        {
          "indexed": true,
          "internalType": "address",
          "name": "approved",
          "type": "address"
        },
        {
          "indexed": true,
          "internalType": "uint256",
          "name": "tokenId",
          "type": "uint256"
        }
      ],
      "name": "Approval",
      "type": "event"
    },
    {
      "anonymous": false,
      "inputs": [
        {
          "indexed": true,
          "internalType": "address",
          "name": "owner",
          "type": "address"
        },
        {
          "indexed": true,
          "internalType": "address",
          "name": "operator",
          "type": "address"
        },
        {
          "indexed": false,
          "internalType": "bool",
          "name": "approved",
          "type": "bool"
        }
      ],
      "name": "ApprovalForAll",
      "type": "event"
    },
    {
      "anonymous": false,
      "inputs": [
        {
          "indexed": true,
          "internalType": "address",
          "name": "beacon",
          "type": "address"
        }
      ],
      "name": "BeaconUpgraded",
      "type": "event"
    },
    {
      "anonymous": false,
      "inputs": [
        {
          "indexed": true,
          "internalType": "address",
          "name": "delegator",
          "type": "address"
        },
        {
          "indexed": true,
          "internalType": "address",
          "name": "fromDelegate",
          "type": "address"
        },
        {
          "indexed": true,
          "internalType": "address",
          "name": "toDelegate",
          "type": "address"
        }
      ],
      "name": "DelegateChanged",
      "type": "event"
    },
    {
      "anonymous": false,
      "inputs": [
        {
          "indexed": true,
          "internalType": "address",
          "name": "delegate",
          "type": "address"
        },
        {
          "indexed": false,
          "internalType": "uint256",
          "name": "previousBalance",
          "type": "uint256"
        },
        {
          "indexed": false,
          "internalType": "uint256",
          "name": "newBalance",
          "type": "uint256"
        }
      ],
      "name": "DelegateVotesChanged",
      "type": "event"
    },
    {
      "anonymous": false,
      "inputs": [
        {
          "indexed": false,
          "internalType": "uint8",
          "name": "version",
          "type": "uint8"
        }
      ],
      "name": "Initialized",
      "type": "event"
    },
    {
      "anonymous": false,
      "inputs": [
        {
          "indexed": false,
          "internalType": "uint256",
          "name": "needId",
          "type": "uint256"
        },
        {
          "indexed": false,
          "internalType": "uint256",
          "name": "tokenId",
          "type": "uint256"
        },
        {
          "indexed": false,
          "internalType": "uint256",
          "name": "tokenId2",
          "type": "uint256"
        },
        {
          "indexed": false,
          "internalType": "address",
          "name": "familyMember",
          "type": "address"
        },
        {
          "indexed": false,
          "internalType": "address",
          "name": "friend",
          "type": "address"
        }
      ],
      "name": "Minted",
      "type": "event"
    },
    {
      "anonymous": false,
      "inputs": [
        {
          "indexed": true,
          "internalType": "bytes32",
          "name": "role",
          "type": "bytes32"
        },
        {
          "indexed": true,
          "internalType": "bytes32",
          "name": "previousAdminRole",
          "type": "bytes32"
        },
        {
          "indexed": true,
          "internalType": "bytes32",
          "name": "newAdminRole",
          "type": "bytes32"
        }
      ],
      "name": "RoleAdminChanged",
      "type": "event"
    },
    {
      "anonymous": false,
      "inputs": [
        {
          "indexed": true,
          "internalType": "bytes32",
          "name": "role",
          "type": "bytes32"
        },
        {
          "indexed": true,
          "internalType": "address",
          "name": "account",
          "type": "address"
        },
        {
          "indexed": true,
          "internalType": "address",
          "name": "sender",
          "type": "address"
        }
      ],
      "name": "RoleGranted",
      "type": "event"
    },
    {
      "anonymous": false,
      "inputs": [
        {
          "indexed": true,
          "internalType": "bytes32",
          "name": "role",
          "type": "bytes32"
        },
        {
          "indexed": true,
          "internalType": "address",
          "name": "account",
          "type": "address"
        },
        {
          "indexed": true,
          "internalType": "address",
          "name": "sender",
          "type": "address"
        }
      ],
      "name": "RoleRevoked",
      "type": "event"
    },
    {
      "anonymous": false,
      "inputs": [
        {
          "indexed": true,
          "internalType": "address",
          "name": "from",
          "type": "address"
        },
        {
          "indexed": true,
          "internalType": "address",
          "name": "to",
          "type": "address"
        },
        {
          "indexed": true,
          "internalType": "uint256",
          "name": "tokenId",
          "type": "uint256"
        }
      ],
      "name": "Transfer",
      "type": "event"
    },
    {
      "anonymous": false,
      "inputs": [
        {
          "indexed": true,
          "internalType": "address",
          "name": "implementation",
          "type": "address"
        }
      ],
      "name": "Upgraded",
      "type": "event"
    },
    {
      "inputs": [],
      "name": "DEFAULT_ADMIN_ROLE",
      "outputs": [
        {
          "internalType": "bytes32",
          "name": "",
          "type": "bytes32"
        }
      ],
      "stateMutability": "view",
      "type": "function"
    },
    {
      "inputs": [],
      "name": "DOMAIN_SEPARATOR",
      "outputs": [
        {
          "internalType": "bytes32",
          "name": "",
          "type": "bytes32"
        }
      ],
      "stateMutability": "view",
      "type": "function"
    },
    {
      "inputs": [],
      "name": "SAY_ADMIN_ROLE",
      "outputs": [
        {
          "internalType": "bytes32",
          "name": "",
          "type": "bytes32"
        }
      ],
      "stateMutability": "view",
      "type": "function"
    },
    {
      "inputs": [],
      "name": "UPGRADER_ROLE",
      "outputs": [
        {
          "internalType": "bytes32",
          "name": "",
          "type": "bytes32"
        }
      ],
      "stateMutability": "view",
      "type": "function"
    },
    {
      "inputs": [
        {
          "internalType": "address",
          "name": "to",
          "type": "address"
        },
        {
          "internalType": "uint256",
          "name": "tokenId",
          "type": "uint256"
        }
      ],
      "name": "approve",
      "outputs": [],
      "stateMutability": "nonpayable",
      "type": "function"
    },
    {
      "inputs": [
        {
          "internalType": "address",
          "name": "owner",
          "type": "address"
        }
      ],
      "name": "balanceOf",
      "outputs": [
        {
          "internalType": "uint256",
          "name": "",
          "type": "uint256"
        }
      ],
      "stateMutability": "view",
      "type": "function"
    },
    {
      "inputs": [
        {
          "internalType": "address",
          "name": "delegatee",
          "type": "address"
        }
      ],
      "name": "delegate",
      "outputs": [],
      "stateMutability": "nonpayable",
      "type": "function"
    },
    {
      "inputs": [
        {
          "internalType": "address",
          "name": "delegatee",
          "type": "address"
        },
        {
          "internalType": "uint256",
          "name": "nonce",
          "type": "uint256"
        },
        {
          "internalType": "uint256",
          "name": "expiry",
          "type": "uint256"
        },
        {
          "internalType": "uint8",
          "name": "v",
          "type": "uint8"
        },
        {
          "internalType": "bytes32",
          "name": "r",
          "type": "bytes32"
        },
        {
          "internalType": "bytes32",
          "name": "s",
          "type": "bytes32"
        }
      ],
      "name": "delegateBySig",
      "outputs": [],
      "stateMutability": "nonpayable",
      "type": "function"
    },
    {
      "inputs": [
        {
          "internalType": "address",
          "name": "account",
          "type": "address"
        }
      ],
      "name": "delegates",
      "outputs": [
        {
          "internalType": "address",
          "name": "",
          "type": "address"
        }
      ],
      "stateMutability": "view",
      "type": "function"
    },
    {
      "inputs": [
        {
          "internalType": "uint256",
          "name": "tokenId",
          "type": "uint256"
        }
      ],
      "name": "getApproved",
      "outputs": [
        {
          "internalType": "address",
          "name": "",
          "type": "address"
        }
      ],
      "stateMutability": "view",
      "type": "function"
    },
    {
      "inputs": [
        {
          "internalType": "uint256",
          "name": "blockNumber",
          "type": "uint256"
        }
      ],
      "name": "getPastTotalSupply",
      "outputs": [
        {
          "internalType": "uint256",
          "name": "",
          "type": "uint256"
        }
      ],
      "stateMutability": "view",
      "type": "function"
    },
    {
      "inputs": [
        {
          "internalType": "address",
          "name": "account",
          "type": "address"
        },
        {
          "internalType": "uint256",
          "name": "blockNumber",
          "type": "uint256"
        }
      ],
      "name": "getPastVotes",
      "outputs": [
        {
          "internalType": "uint256",
          "name": "",
          "type": "uint256"
        }
      ],
      "stateMutability": "view",
      "type": "function"
    },
    {
      "inputs": [
        {
          "internalType": "bytes32",
          "name": "role",
          "type": "bytes32"
        }
      ],
      "name": "getRoleAdmin",
      "outputs": [
        {
          "internalType": "bytes32",
          "name": "",
          "type": "bytes32"
        }
      ],
      "stateMutability": "view",
      "type": "function"
    },
    {
      "inputs": [
        {
          "internalType": "address",
          "name": "account",
          "type": "address"
        }
      ],
      "name": "getVotes",
      "outputs": [
        {
          "internalType": "uint256",
          "name": "",
          "type": "uint256"
        }
      ],
      "stateMutability": "view",
      "type": "function"
    },
    {
      "inputs": [
        {
          "internalType": "bytes32",
          "name": "role",
          "type": "bytes32"
        },
        {
          "internalType": "address",
          "name": "account",
          "type": "address"
        }
      ],
      "name": "grantRole",
      "outputs": [],
      "stateMutability": "nonpayable",
      "type": "function"
    },
    {
      "inputs": [
        {
          "internalType": "bytes32",
          "name": "role",
          "type": "bytes32"
        },
        {
          "internalType": "address",
          "name": "account",
          "type": "address"
        }
      ],
      "name": "hasRole",
      "outputs": [
        {
          "internalType": "bool",
          "name": "",
          "type": "bool"
        }
      ],
      "stateMutability": "view",
      "type": "function"
    },
    {
      "inputs": [
        {
          "internalType": "address",
          "name": "sayAdmin",
          "type": "address"
        },
        {
          "internalType": "address",
          "name": "voucherContract",
          "type": "address"
        }
      ],
      "name": "initialize",
      "outputs": [],
      "stateMutability": "nonpayable",
      "type": "function"
    },
    {
      "inputs": [
        {
          "internalType": "address",
          "name": "owner",
          "type": "address"
        },
        {
          "internalType": "address",
          "name": "operator",
          "type": "address"
        }
      ],
      "name": "isApprovedForAll",
      "outputs": [
        {
          "internalType": "bool",
          "name": "",
          "type": "bool"
        }
      ],
      "stateMutability": "view",
      "type": "function"
    },
    {
      "inputs": [],
      "name": "name",
      "outputs": [
        {
          "internalType": "string",
          "name": "",
          "type": "string"
        }
      ],
      "stateMutability": "view",
      "type": "function"
    },
    {
      "inputs": [
        {
          "internalType": "address",
          "name": "owner",
          "type": "address"
        }
      ],
      "name": "nonces",
      "outputs": [
        {
          "internalType": "uint256",
          "name": "",
          "type": "uint256"
        }
      ],
      "stateMutability": "view",
      "type": "function"
    },
    {
      "inputs": [
        {
          "internalType": "uint256",
          "name": "tokenId",
          "type": "uint256"
        }
      ],
      "name": "ownerOf",
      "outputs": [
        {
          "internalType": "address",
          "name": "",
          "type": "address"
        }
      ],
      "stateMutability": "view",
      "type": "function"
    },
    {
      "inputs": [],
      "name": "proxiableUUID",
      "outputs": [
        {
          "internalType": "bytes32",
          "name": "",
          "type": "bytes32"
        }
      ],
      "stateMutability": "view",
      "type": "function"
    },
    {
      "inputs": [
        {
          "internalType": "bytes32",
          "name": "role",
          "type": "bytes32"
        },
        {
          "internalType": "address",
          "name": "account",
          "type": "address"
        }
      ],
      "name": "renounceRole",
      "outputs": [],
      "stateMutability": "nonpayable",
      "type": "function"
    },
    {
      "inputs": [
        {
          "internalType": "bytes32",
          "name": "role",
          "type": "bytes32"
        },
        {
          "internalType": "address",
          "name": "account",
          "type": "address"
        }
      ],
      "name": "revokeRole",
      "outputs": [],
      "stateMutability": "nonpayable",
      "type": "function"
    },
    {
      "inputs": [
        {
          "internalType": "uint256",
          "name": "_needId",
          "type": "uint256"
        },
        {
          "internalType": "address",
          "name": "_needContract",
          "type": "address"
        },
        {
          "components": [
            {
              "internalType": "uint256",
              "name": "needId",
              "type": "uint256"
            },
            {
              "internalType": "uint256",
              "name": "mintValue",
              "type": "uint256"
            },
            {
              "internalType": "string",
              "name": "tokenUri",
              "type": "string"
            },
            {
              "internalType": "string",
              "name": "content",
              "type": "string"
            },
            {
              "internalType": "bytes",
              "name": "signature",
              "type": "bytes"
            }
          ],
          "internalType": "struct Voucher",
          "name": "_voucher",
          "type": "tuple"
        }
      ],
      "name": "safeFamilyMint",
      "outputs": [],
      "stateMutability": "payable",
      "type": "function"
    },
    {
      "inputs": [],
      "name": "safeSocialWorkerMint",
      "outputs": [],
      "stateMutability": "payable",
      "type": "function"
    },
    {
      "inputs": [
        {
          "internalType": "address",
          "name": "from",
          "type": "address"
        },
        {
          "internalType": "address",
          "name": "to",
          "type": "address"
        },
        {
          "internalType": "uint256",
          "name": "tokenId",
          "type": "uint256"
        }
      ],
      "name": "safeTransferFrom",
      "outputs": [],
      "stateMutability": "nonpayable",
      "type": "function"
    },
    {
      "inputs": [
        {
          "internalType": "address",
          "name": "from",
          "type": "address"
        },
        {
          "internalType": "address",
          "name": "to",
          "type": "address"
        },
        {
          "internalType": "uint256",
          "name": "tokenId",
          "type": "uint256"
        },
        {
          "internalType": "bytes",
          "name": "data",
          "type": "bytes"
        }
      ],
      "name": "safeTransferFrom",
      "outputs": [],
      "stateMutability": "nonpayable",
      "type": "function"
    },
    {
      "inputs": [
        {
          "internalType": "address",
          "name": "operator",
          "type": "address"
        },
        {
          "internalType": "bool",
          "name": "approved",
          "type": "bool"
        }
      ],
      "name": "setApprovalForAll",
      "outputs": [],
      "stateMutability": "nonpayable",
      "type": "function"
    },
    {
      "inputs": [
        {
          "internalType": "address",
          "name": "newAddress",
          "type": "address"
        }
      ],
      "name": "setVoucherVerifier",
      "outputs": [],
      "stateMutability": "nonpayable",
      "type": "function"
    },
    {
      "inputs": [
        {
          "internalType": "bytes4",
          "name": "interfaceId",
          "type": "bytes4"
        }
      ],
      "name": "supportsInterface",
      "outputs": [
        {
          "internalType": "bool",
          "name": "",
          "type": "bool"
        }
      ],
      "stateMutability": "view",
      "type": "function"
    },
    {
      "inputs": [],
      "name": "symbol",
      "outputs": [
        {
          "internalType": "string",
          "name": "",
          "type": "string"
        }
      ],
      "stateMutability": "view",
      "type": "function"
    },
    {
      "inputs": [
        {
          "internalType": "uint256",
          "name": "tokenId",
          "type": "uint256"
        }
      ],
      "name": "tokenURI",
      "outputs": [
        {
          "internalType": "string",
          "name": "",
          "type": "string"
        }
      ],
      "stateMutability": "view",
      "type": "function"
    },
    {
      "inputs": [
        {
          "internalType": "address",
          "name": "from",
          "type": "address"
        },
        {
          "internalType": "address",
          "name": "to",
          "type": "address"
        },
        {
          "internalType": "uint256",
          "name": "tokenId",
          "type": "uint256"
        }
      ],
      "name": "transferFrom",
      "outputs": [],
      "stateMutability": "nonpayable",
      "type": "function"
    },
    {
      "inputs": [
        {
          "internalType": "address",
          "name": "newImplementation",
          "type": "address"
        }
      ],
      "name": "upgradeTo",
      "outputs": [],
      "stateMutability": "nonpayable",
      "type": "function"
    },
    {
      "inputs": [
        {
          "internalType": "address",
          "name": "newImplementation",
          "type": "address"
        },
        {
          "internalType": "bytes",
          "name": "data",
          "type": "bytes"
        }
      ],
      "name": "upgradeToAndCall",
      "outputs": [],
      "stateMutability": "payable",
      "type": "function"
    },
    {
      "inputs": [],
      "name": "version",
      "outputs": [
        {
          "internalType": "string",
          "name": "",
          "type": "string"
        }
      ],
      "stateMutability": "pure",
      "type": "function"
    },
    {
      "inputs": [],
      "name": "voucherAddress",
      "outputs": [
        {
          "internalType": "address",
          "name": "",
          "type": "address"
        }
      ],
      "stateMutability": "view",
      "type": "function"
    }
  ],
  "bytecode": "0x60a0604052306080523480156200001557600080fd5b506200002062000026565b620000e8565b600054610100900460ff1615620000935760405162461bcd60e51b815260206004820152602760248201527f496e697469616c697a61626c653a20636f6e747261637420697320696e697469604482015266616c697a696e6760c81b606482015260840160405180910390fd5b60005460ff9081161015620000e6576000805460ff191660ff9081179091556040519081527f7f26b83ff96e1f2b6a682f133852f6798a09c465da95921460cefb38474024989060200160405180910390a15b565b6080516139706200012060003960008181610a2401528181610a6401528181610d6c01528181610dac0152610e3b01526139706000f3fe6080604052600436106102255760003560e01c80636199719411610123578063a22cb465116100ab578063d547741f1161006f578063d547741f14610678578063d9b6304114610698578063e985e9c5146106cc578063ea19101314610715578063f72c0d8b1461071d57600080fd5b8063a22cb465146105d8578063b88d4fde146105f8578063c3cda52014610618578063c87b56dd14610638578063d402f02f1461065857600080fd5b80638e539e8c116100f25780638e539e8c1461054e57806391d148541461056e57806395d89b411461058e5780639ab24eb0146105a3578063a217fddf146105c357600080fd5b806361997194146104db5780636352211e146104ee57806370a082311461050e5780637ecebe001461052e57600080fd5b806336568abe116101b15780634f1ef286116101755780634f1ef2861461042f57806352d1902d1461044257806354fd4d5014610457578063587cde1e146104825780635c19a95c146104bb57600080fd5b806336568abe1461038f5780633659cfe6146103af5780633a46b1a8146103cf57806342842e0e146103ef578063485cc9551461040f57600080fd5b8063100575b2116101f8578063100575b2146102db57806323b872dd146102fc578063248a9ca31461031c5780632f2ff15d1461035a5780633644e5151461037a57600080fd5b806301ffc9a71461022a57806306fdde031461025f578063081812fc14610281578063095ea7b3146102b9575b600080fd5b34801561023657600080fd5b5061024a610245366004612fda565b610751565b60405190151581526020015b60405180910390f35b34801561026b57600080fd5b50610274610762565b604051610256919061304f565b34801561028d57600080fd5b506102a161029c366004613062565b6107f4565b6040516001600160a01b039091168152602001610256565b3480156102c557600080fd5b506102d96102d4366004613090565b61081b565b005b3480156102e757600080fd5b506101c6546102a1906001600160a01b031681565b34801561030857600080fd5b506102d96103173660046130bc565b610936565b34801561032857600080fd5b5061034c610337366004613062565b60009081526097602052604090206001015490565b604051908152602001610256565b34801561036657600080fd5b506102d96103753660046130fd565b610967565b34801561038657600080fd5b5061034c61098c565b34801561039b57600080fd5b506102d96103aa3660046130fd565b61099b565b3480156103bb57600080fd5b506102d96103ca36600461312d565b610a19565b3480156103db57600080fd5b5061034c6103ea366004613090565b610af9565b3480156103fb57600080fd5b506102d961040a3660046130bc565b610b22565b34801561041b57600080fd5b506102d961042a36600461314a565b610b3d565b6102d961043d36600461321b565b610d61565b34801561044e57600080fd5b5061034c610e2e565b34801561046357600080fd5b506040805180820190915260028152613b1960f11b6020820152610274565b34801561048e57600080fd5b506102a161049d36600461312d565b6001600160a01b03908116600090815260fd60205260409020541690565b3480156104c757600080fd5b506102d96104d636600461312d565b610ee1565b6102d96104e936600461326b565b610eec565b3480156104fa57600080fd5b506102a1610509366004613062565b611152565b34801561051a57600080fd5b5061034c61052936600461312d565b6111b2565b34801561053a57600080fd5b5061034c61054936600461312d565b611238565b34801561055a57600080fd5b5061034c610569366004613062565b611257565b34801561057a57600080fd5b5061024a6105893660046130fd565b6112b3565b34801561059a57600080fd5b506102746112de565b3480156105af57600080fd5b5061034c6105be36600461312d565b6112ed565b3480156105cf57600080fd5b5061034c600081565b3480156105e457600080fd5b506102d96105f33660046132d9565b61130e565b34801561060457600080fd5b506102d9610613366004613307565b611319565b34801561062457600080fd5b506102d9610633366004613373565b611351565b34801561064457600080fd5b50610274610653366004613062565b611475565b34801561066457600080fd5b506102d961067336600461312d565b611480565b34801561068457600080fd5b506102d96106933660046130fd565b6114ce565b3480156106a457600080fd5b5061034c7ffa4ac835fcfa16c9e62e7bb10d9c714aa0ffb94fecd1dff14e1970e78abf919581565b3480156106d857600080fd5b5061024a6106e736600461314a565b6001600160a01b039182166000908152606a6020908152604080832093909416825291909152205460ff1690565b6102d96114f3565b34801561072957600080fd5b5061034c7f189ab7a9244df0848122154315af71fe140f3db0fe014031783b0946b8c9d2e381565b600061075c8261150e565b92915050565b606060658054610771906133d5565b80601f016020809104026020016040519081016040528092919081815260200182805461079d906133d5565b80156107ea5780601f106107bf576101008083540402835291602001916107ea565b820191906000526020600020905b8154815290600101906020018083116107cd57829003601f168201915b5050505050905090565b60006107ff82611533565b506000908152606960205260409020546001600160a01b031690565b600061082682611152565b9050806001600160a01b0316836001600160a01b031614156108995760405162461bcd60e51b815260206004820152602160248201527f4552433732313a20617070726f76616c20746f2063757272656e74206f776e656044820152603960f91b60648201526084015b60405180910390fd5b336001600160a01b03821614806108b557506108b581336106e7565b6109275760405162461bcd60e51b815260206004820152603e60248201527f4552433732313a20617070726f76652063616c6c6572206973206e6f7420746f60448201527f6b656e206f776e6572206e6f7220617070726f76656420666f7220616c6c00006064820152608401610890565b6109318383611592565b505050565b6109403382611600565b61095c5760405162461bcd60e51b81526004016108909061340a565b61093183838361167f565b60008281526097602052604090206001015461098281611821565b610931838361182b565b60006109966118b1565b905090565b6001600160a01b0381163314610a0b5760405162461bcd60e51b815260206004820152602f60248201527f416363657373436f6e74726f6c3a2063616e206f6e6c792072656e6f756e636560448201526e103937b632b9903337b91039b2b63360891b6064820152608401610890565b610a15828261192c565b5050565b306001600160a01b037f0000000000000000000000000000000000000000000000000000000000000000161415610a625760405162461bcd60e51b815260040161089090613458565b7f00000000000000000000000000000000000000000000000000000000000000006001600160a01b0316610aab6000805160206138f4833981519152546001600160a01b031690565b6001600160a01b031614610ad15760405162461bcd60e51b8152600401610890906134a4565b610ada81611993565b60408051600080825260208201909252610af6918391906119bd565b50565b6001600160a01b038216600090815260fe60205260408120610b1b9083611b37565b9392505050565b61093183838360405180602001604052806000815250611319565b600054610100900460ff1615808015610b5d5750600054600160ff909116105b80610b775750303b158015610b77575060005460ff166001145b610bda5760405162461bcd60e51b815260206004820152602e60248201527f496e697469616c697a61626c653a20636f6e747261637420697320616c72656160448201526d191e481a5b9a5d1a585b1a5e995960921b6064820152608401610890565b6000805460ff191660011790558015610bfd576000805461ff0019166101001790555b610c4a6040518060400160405280600f81526020016e23b7bb32b93730b731b2aa37b5b2b760891b815250604051806040016040528060048152602001636753415960e01b815250611c46565b610c8c604051806040016040528060078152602001665341592d44414f60c81b815250604051806040016040528060018152602001603160f81b815250611c77565b610c94611ca8565b610c9c611ca8565b610ca760003361182b565b610cd17f189ab7a9244df0848122154315af71fe140f3db0fe014031783b0946b8c9d2e33361182b565b610cfb7ffa4ac835fcfa16c9e62e7bb10d9c714aa0ffb94fecd1dff14e1970e78abf91958461182b565b6101c680546001600160a01b0319166001600160a01b0384161790558015610931576000805461ff0019169055604051600181527f7f26b83ff96e1f2b6a682f133852f6798a09c465da95921460cefb38474024989060200160405180910390a1505050565b306001600160a01b037f0000000000000000000000000000000000000000000000000000000000000000161415610daa5760405162461bcd60e51b815260040161089090613458565b7f00000000000000000000000000000000000000000000000000000000000000006001600160a01b0316610df36000805160206138f4833981519152546001600160a01b031690565b6001600160a01b031614610e195760405162461bcd60e51b8152600401610890906134a4565b610e2282611993565b610a15828260016119bd565b6000306001600160a01b037f00000000000000000000000000000000000000000000000000000000000000001614610ece5760405162461bcd60e51b815260206004820152603860248201527f555550535570677261646561626c653a206d757374206e6f742062652063616c60448201527f6c6564207468726f7567682064656c656761746563616c6c00000000000000006064820152608401610890565b506000805160206138f483398151915290565b33610a158183611cd1565b604051639e60e75360e01b8152600481018490528390839081906000906001600160a01b03831690639e60e75390602401602060405180830381600087803b158015610f3757600080fd5b505af1158015610f4b573d6000803e3d6000fd5b505050506040513d601f19601f82011682018060405250810190610f6f91906134f0565b90508015611101576101c65460405163cf1e8fa760e01b81526001600160a01b0390911690600090829063cf1e8fa790610fad908a9060040161357c565b60206040518083038186803b158015610fc557600080fd5b505afa158015610fd9573d6000803e3d6000fd5b505050506040513d601f19601f82011682018060405250810190610ffd9190613610565b905034876020013511156110535760405162461bcd60e51b815260206004820152601e60248201527f596f75206d757374207061792074686520766f75636865722076616c756500006044820152606401610890565b6110626101c580546001019055565b600061106e6101c55490565b905061107a8282611d43565b6110896101c580546001019055565b60006110956101c55490565b90506110a13382611d43565b604080518a358152602081018490529081018290526001600160a01b03841660608201523360808201527fc21247e7e8f72b583ed1500f6fb2de4267948d89cd06c59d50a71bef5431c2d79060a00160405180910390a150505050611149565b60405162461bcd60e51b815260206004820152601b60248201527f54686973204e656564206973206e6f74206d696e617461626c652100000000006044820152606401610890565b50505050505050565b6000818152606760205260408120546001600160a01b03168061075c5760405162461bcd60e51b8152602060048201526018602482015277115490cdcc8c4e881a5b9d985b1a59081d1bdad95b88125160421b6044820152606401610890565b60006001600160a01b03821661121c5760405162461bcd60e51b815260206004820152602960248201527f4552433732313a2061646472657373207a65726f206973206e6f7420612076616044820152683634b21037bbb732b960b91b6064820152608401610890565b506001600160a01b031660009081526068602052604090205490565b6001600160a01b0381166000908152610100602052604081205461075c565b60004382106112a85760405162461bcd60e51b815260206004820152601a60248201527f566f7465733a20626c6f636b206e6f7420796574206d696e65640000000000006044820152606401610890565b61075c60ff83611b37565b60009182526097602090815260408084206001600160a01b0393909316845291905290205460ff1690565b606060668054610771906133d5565b6001600160a01b038116600090815260fe6020526040812061075c90611d5d565b610a15338383611db9565b6113233383611600565b61133f5760405162461bcd60e51b81526004016108909061340a565b61134b84848484611e88565b50505050565b834211156113a15760405162461bcd60e51b815260206004820152601860248201527f566f7465733a207369676e6174757265206578706972656400000000000000006044820152606401610890565b604080517fe48329057bfd03d55e49b547132e39cffd9c1820ad7b9d4c5307691425d15adf60208201526001600160a01b03881691810191909152606081018690526080810185905260009061141b906114139060a00160405160208183030381529060405280519060200120611ebb565b858585611f09565b905061142681611f31565b861461146b5760405162461bcd60e51b8152602060048201526014602482015273566f7465733a20696e76616c6964206e6f6e636560601b6044820152606401610890565b6111498188611cd1565b606061075c82611f5a565b7ffa4ac835fcfa16c9e62e7bb10d9c714aa0ffb94fecd1dff14e1970e78abf91956114aa81611821565b506101c680546001600160a01b0319166001600160a01b0392909216919091179055565b6000828152609760205260409020600101546114e981611821565b610931838361192c565b6115026101c580546001019055565b6000610a156101c55490565b60006001600160e01b03198216637965db0b60e01b148061075c575061075c82611fcd565b6000818152606760205260409020546001600160a01b0316610af65760405162461bcd60e51b8152602060048201526018602482015277115490cdcc8c4e881a5b9d985b1a59081d1bdad95b88125160421b6044820152606401610890565b600081815260696020526040902080546001600160a01b0319166001600160a01b03841690811790915581906115c782611152565b6001600160a01b03167f8c5be1e5ebec7d5bd14f71427d1e84f3dd0314c0f7b2291e5b200ac8c7c3b92560405160405180910390a45050565b60008061160c83611152565b9050806001600160a01b0316846001600160a01b0316148061165357506001600160a01b038082166000908152606a602090815260408083209388168352929052205460ff165b806116775750836001600160a01b031661166c846107f4565b6001600160a01b0316145b949350505050565b826001600160a01b031661169282611152565b6001600160a01b0316146116f65760405162461bcd60e51b815260206004820152602560248201527f4552433732313a207472616e736665722066726f6d20696e636f72726563742060448201526437bbb732b960d91b6064820152608401610890565b6001600160a01b0382166117585760405162461bcd60e51b8152602060048201526024808201527f4552433732313a207472616e7366657220746f20746865207a65726f206164646044820152637265737360e01b6064820152608401610890565b611763600082611592565b6001600160a01b038316600090815260686020526040812080546001929061178c908490613643565b90915550506001600160a01b03821660009081526068602052604081208054600192906117ba90849061365a565b909155505060008181526067602052604080822080546001600160a01b0319166001600160a01b0386811691821790925591518493918716917fddf252ad1be2c89b69c2b068fc378daa952ba7f163c4a11628f55a4df523b3ef91a461093183838361201d565b610af68133612028565b61183582826112b3565b610a155760008281526097602090815260408083206001600160a01b03851684529091529020805460ff1916600117905561186d3390565b6001600160a01b0316816001600160a01b0316837f2f8788117e7eff1d82e926ec794901d17c78024a50270940304540a733656f0d60405160405180910390a45050565b60006109967f8b73c3c69bb8fe3d512ecc4cf759cc79239f7b179b0ffacaa9a75d522b39400f6118e060c95490565b60ca546040805160208101859052908101839052606081018290524660808201523060a082015260009060c0016040516020818303038152906040528051906020012090509392505050565b61193682826112b3565b15610a155760008281526097602090815260408083206001600160a01b0385168085529252808320805460ff1916905551339285917ff6391f5c32d9c69d2a47ea670b442974b53935d1edc7fd64eb21e047a839171b9190a45050565b7f189ab7a9244df0848122154315af71fe140f3db0fe014031783b0946b8c9d2e3610a1581611821565b7f4910fdfa16fed3260ed0e7147f7cc6da11a60208b5b9406d12a635614ffd91435460ff16156119f0576109318361208c565b826001600160a01b03166352d1902d6040518163ffffffff1660e01b815260040160206040518083038186803b158015611a2957600080fd5b505afa925050508015611a59575060408051601f3d908101601f19168201909252611a5691810190613672565b60015b611abc5760405162461bcd60e51b815260206004820152602e60248201527f45524331393637557067726164653a206e657720696d706c656d656e7461746960448201526d6f6e206973206e6f74205555505360901b6064820152608401610890565b6000805160206138f48339815191528114611b2b5760405162461bcd60e51b815260206004820152602960248201527f45524331393637557067726164653a20756e737570706f727465642070726f786044820152681a58589b195555525160ba1b6064820152608401610890565b50610931838383612128565b6000438210611b885760405162461bcd60e51b815260206004820181905260248201527f436865636b706f696e74733a20626c6f636b206e6f7420796574206d696e65646044820152606401610890565b825460005b81811015611bed576000611ba1828461214d565b905084866000018281548110611bb957611bb961368b565b60009182526020909120015463ffffffff161115611bd957809250611be7565b611be481600161365a565b91505b50611b8d565b8115611c315784611bff600184613643565b81548110611c0f57611c0f61368b565b60009182526020909120015464010000000090046001600160e01b0316611c34565b60005b6001600160e01b031695945050505050565b600054610100900460ff16611c6d5760405162461bcd60e51b8152600401610890906136a1565b610a158282612168565b600054610100900460ff16611c9e5760405162461bcd60e51b8152600401610890906136a1565b610a1582826121b6565b600054610100900460ff16611ccf5760405162461bcd60e51b8152600401610890906136a1565b565b6001600160a01b03828116600081815260fd602052604080822080548686166001600160a01b0319821681179092559151919094169392849290917f3134e8a2e6d97e929a7e54011ea5485d7d196dd5f0ba4d4ef95803e8e3fc257f9190a46109318183611d3e866121f7565b612202565b610a1582826040518060200160405280600081525061233f565b80546000908015611da65782611d74600183613643565b81548110611d8457611d8461368b565b60009182526020909120015464010000000090046001600160e01b0316611da9565b60005b6001600160e01b03169392505050565b816001600160a01b0316836001600160a01b03161415611e1b5760405162461bcd60e51b815260206004820152601960248201527f4552433732313a20617070726f766520746f2063616c6c6572000000000000006044820152606401610890565b6001600160a01b038381166000818152606a6020908152604080832094871680845294825291829020805460ff191686151590811790915591519182527f17307eab39ab6107e8899845ad3d59bd9653f200f220920489ca2b5937696c31910160405180910390a3505050565b611e9384848461167f565b611e9f84848484612372565b61134b5760405162461bcd60e51b8152600401610890906136ec565b600061075c611ec86118b1565b8360405161190160f01b6020820152602281018390526042810182905260009060620160405160208183030381529060405280519060200120905092915050565b6000806000611f1a8787878761247c565b91509150611f2781612569565b5095945050505050565b6001600160a01b0381166000908152610100602052604090208054600181018255905b50919050565b6060611f6582611533565b6000611f7c60408051602081019091526000815290565b90506000815111611f9c5760405180602001604052806000815250610b1b565b80611fa684612724565b604051602001611fb792919061373e565b6040516020818303038152906040529392505050565b60006001600160e01b031982166380ac58cd60e01b1480611ffe57506001600160e01b03198216635b5e139f60e01b145b8061075c57506301ffc9a760e01b6001600160e01b031983161461075c565b610931838383612822565b61203282826112b3565b610a155761204a816001600160a01b0316601461282e565b61205583602061282e565b60405160200161206692919061376d565b60408051601f198184030181529082905262461bcd60e51b82526108909160040161304f565b6001600160a01b0381163b6120f95760405162461bcd60e51b815260206004820152602d60248201527f455243313936373a206e657720696d706c656d656e746174696f6e206973206e60448201526c1bdd08184818dbdb9d1c9858dd609a1b6064820152608401610890565b6000805160206138f483398151915280546001600160a01b0319166001600160a01b0392909216919091179055565b612131836129ca565b60008251118061213e5750805b156109315761134b8383612a0a565b600061215c60028484186137f8565b610b1b9084841661365a565b600054610100900460ff1661218f5760405162461bcd60e51b8152600401610890906136a1565b81516121a2906065906020850190612f34565b508051610931906066906020840190612f34565b600054610100900460ff166121dd5760405162461bcd60e51b8152600401610890906136a1565b81516020928301208151919092012060c99190915560ca55565b600061075c826111b2565b816001600160a01b0316836001600160a01b0316141580156122245750600081115b15610931576001600160a01b038316156122b2576001600160a01b038316600090815260fe60205260408120819061225f90612afe85612b0a565b91509150846001600160a01b03167fdec2bacdd2f05b59de34da9b523dff8be42e5e38e818c82fdb0bae774387a72483836040516122a7929190918252602082015260400190565b60405180910390a250505b6001600160a01b03821615610931576001600160a01b038216600090815260fe6020526040812081906122e890612b3885612b0a565b91509150836001600160a01b03167fdec2bacdd2f05b59de34da9b523dff8be42e5e38e818c82fdb0bae774387a7248383604051612330929190918252602082015260400190565b60405180910390a25050505050565b6123498383612b44565b6123566000848484612372565b6109315760405162461bcd60e51b8152600401610890906136ec565b60006001600160a01b0384163b1561247457604051630a85bd0160e11b81526001600160a01b0385169063150b7a02906123b690339089908890889060040161380c565b602060405180830381600087803b1580156123d057600080fd5b505af1925050508015612400575060408051601f3d908101601f191682019092526123fd9181019061383f565b60015b61245a573d80801561242e576040519150601f19603f3d011682016040523d82523d6000602084013e612433565b606091505b5080516124525760405162461bcd60e51b8152600401610890906136ec565b805181602001fd5b6001600160e01b031916630a85bd0160e11b149050611677565b506001611677565b6000807f7fffffffffffffffffffffffffffffff5d576e7357a4501ddfe92f46681b20a08311156124b35750600090506003612560565b8460ff16601b141580156124cb57508460ff16601c14155b156124dc5750600090506004612560565b6040805160008082526020820180845289905260ff881692820192909252606081018690526080810185905260019060a0016020604051602081039080840390855afa158015612530573d6000803e3d6000fd5b5050604051601f1901519150506001600160a01b03811661255957600060019250925050612560565b9150600090505b94509492505050565b600081600481111561257d5761257d61385c565b14156125865750565b600181600481111561259a5761259a61385c565b14156125e85760405162461bcd60e51b815260206004820152601860248201527f45434453413a20696e76616c6964207369676e617475726500000000000000006044820152606401610890565b60028160048111156125fc576125fc61385c565b141561264a5760405162461bcd60e51b815260206004820152601f60248201527f45434453413a20696e76616c6964207369676e6174757265206c656e677468006044820152606401610890565b600381600481111561265e5761265e61385c565b14156126b75760405162461bcd60e51b815260206004820152602260248201527f45434453413a20696e76616c6964207369676e6174757265202773272076616c604482015261756560f01b6064820152608401610890565b60048160048111156126cb576126cb61385c565b1415610af65760405162461bcd60e51b815260206004820152602260248201527f45434453413a20696e76616c6964207369676e6174757265202776272076616c604482015261756560f01b6064820152608401610890565b6060816127485750506040805180820190915260018152600360fc1b602082015290565b8160005b8115612772578061275c81613872565b915061276b9050600a836137f8565b915061274c565b60008167ffffffffffffffff81111561278d5761278d613178565b6040519080825280601f01601f1916602001820160405280156127b7576020820181803683370190505b5090505b8415611677576127cc600183613643565b91506127d9600a8661388d565b6127e490603061365a565b60f81b8183815181106127f9576127f961368b565b60200101906001600160f81b031916908160001a90535061281b600a866137f8565b94506127bb565b61093183836001612c8e565b6060600061283d8360026138a1565b61284890600261365a565b67ffffffffffffffff81111561286057612860613178565b6040519080825280601f01601f19166020018201604052801561288a576020820181803683370190505b509050600360fc1b816000815181106128a5576128a561368b565b60200101906001600160f81b031916908160001a905350600f60fb1b816001815181106128d4576128d461368b565b60200101906001600160f81b031916908160001a90535060006128f88460026138a1565b61290390600161365a565b90505b600181111561297b576f181899199a1a9b1b9c1cb0b131b232b360811b85600f16601081106129375761293761368b565b1a60f81b82828151811061294d5761294d61368b565b60200101906001600160f81b031916908160001a90535060049490941c93612974816138c0565b9050612906565b508315610b1b5760405162461bcd60e51b815260206004820181905260248201527f537472696e67733a20686578206c656e67746820696e73756666696369656e746044820152606401610890565b6129d38161208c565b6040516001600160a01b038216907fbc7cd75a20ee27fd9adebab32041f755214dbc6bffa90cc0225b39da2e5c2d3b90600090a250565b60606001600160a01b0383163b612a725760405162461bcd60e51b815260206004820152602660248201527f416464726573733a2064656c65676174652063616c6c20746f206e6f6e2d636f6044820152651b9d1c9858dd60d21b6064820152608401610890565b600080846001600160a01b031684604051612a8d91906138d7565b600060405180830381855af49150503d8060008114612ac8576040519150601f19603f3d011682016040523d82523d6000602084013e612acd565b606091505b5091509150612af5828260405180606001604052806027815260200161391460279139612cfe565b95945050505050565b6000610b1b8284613643565b600080612b2c85612b27612b1d88611d5d565b868863ffffffff16565b612d37565b91509150935093915050565b6000610b1b828461365a565b6001600160a01b038216612b9a5760405162461bcd60e51b815260206004820181905260248201527f4552433732313a206d696e7420746f20746865207a65726f20616464726573736044820152606401610890565b6000818152606760205260409020546001600160a01b031615612bff5760405162461bcd60e51b815260206004820152601c60248201527f4552433732313a20746f6b656e20616c7265616479206d696e746564000000006044820152606401610890565b6001600160a01b0382166000908152606860205260408120805460019290612c2890849061365a565b909155505060008181526067602052604080822080546001600160a01b0319166001600160a01b03861690811790915590518392907fddf252ad1be2c89b69c2b068fc378daa952ba7f163c4a11628f55a4df523b3ef908290a4610a156000838361201d565b6001600160a01b038316612cad57612caa60ff612b3883612b0a565b50505b6001600160a01b038216612ccc57612cc960ff612afe83612b0a565b50505b6001600160a01b03838116600090815260fd602052604080822054858416835291205461093192918216911683612202565b60608315612d0d575081610b1b565b825115612d1d5782518084602001fd5b8160405162461bcd60e51b8152600401610890919061304f565b8154600090819081612d4886611d5d565b9050600082118015612d8657504386612d62600185613643565b81548110612d7257612d7261368b565b60009182526020909120015463ffffffff16145b15612de657612d9485612e62565b86612da0600185613643565b81548110612db057612db061368b565b9060005260206000200160000160046101000a8154816001600160e01b0302191690836001600160e01b03160217905550612e54565b856000016040518060400160405280612dfe43612ecf565b63ffffffff168152602001612e1288612e62565b6001600160e01b0390811690915282546001810184556000938452602093849020835194909301519091166401000000000263ffffffff909316929092179101555b9250839150505b9250929050565b60006001600160e01b03821115612ecb5760405162461bcd60e51b815260206004820152602760248201527f53616665436173743a2076616c756520646f65736e27742066697420696e20326044820152663234206269747360c81b6064820152608401610890565b5090565b600063ffffffff821115612ecb5760405162461bcd60e51b815260206004820152602660248201527f53616665436173743a2076616c756520646f65736e27742066697420696e203360448201526532206269747360d01b6064820152608401610890565b828054612f40906133d5565b90600052602060002090601f016020900481019282612f625760008555612fa8565b82601f10612f7b57805160ff1916838001178555612fa8565b82800160010185558215612fa8579182015b82811115612fa8578251825591602001919060010190612f8d565b50612ecb9291505b80821115612ecb5760008155600101612fb0565b6001600160e01b031981168114610af657600080fd5b600060208284031215612fec57600080fd5b8135610b1b81612fc4565b60005b83811015613012578181015183820152602001612ffa565b8381111561134b5750506000910152565b6000815180845261303b816020860160208601612ff7565b601f01601f19169290920160200192915050565b602081526000610b1b6020830184613023565b60006020828403121561307457600080fd5b5035919050565b6001600160a01b0381168114610af657600080fd5b600080604083850312156130a357600080fd5b82356130ae8161307b565b946020939093013593505050565b6000806000606084860312156130d157600080fd5b83356130dc8161307b565b925060208401356130ec8161307b565b929592945050506040919091013590565b6000806040838503121561311057600080fd5b8235915060208301356131228161307b565b809150509250929050565b60006020828403121561313f57600080fd5b8135610b1b8161307b565b6000806040838503121561315d57600080fd5b82356131688161307b565b915060208301356131228161307b565b634e487b7160e01b600052604160045260246000fd5b600082601f83011261319f57600080fd5b813567ffffffffffffffff808211156131ba576131ba613178565b604051601f8301601f19908116603f011681019082821181831017156131e2576131e2613178565b816040528381528660208588010111156131fb57600080fd5b836020870160208301376000602085830101528094505050505092915050565b6000806040838503121561322e57600080fd5b82356132398161307b565b9150602083013567ffffffffffffffff81111561325557600080fd5b6132618582860161318e565b9150509250929050565b60008060006060848603121561328057600080fd5b8335925060208401356132928161307b565b9150604084013567ffffffffffffffff8111156132ae57600080fd5b840160a081870312156132c057600080fd5b809150509250925092565b8015158114610af657600080fd5b600080604083850312156132ec57600080fd5b82356132f78161307b565b91506020830135613122816132cb565b6000806000806080858703121561331d57600080fd5b84356133288161307b565b935060208501356133388161307b565b925060408501359150606085013567ffffffffffffffff81111561335b57600080fd5b6133678782880161318e565b91505092959194509250565b60008060008060008060c0878903121561338c57600080fd5b86356133978161307b565b95506020870135945060408701359350606087013560ff811681146133bb57600080fd5b9598949750929560808101359460a0909101359350915050565b600181811c908216806133e957607f821691505b60208210811415611f5457634e487b7160e01b600052602260045260246000fd5b6020808252602e908201527f4552433732313a2063616c6c6572206973206e6f7420746f6b656e206f776e6560408201526d1c881b9bdc88185c1c1c9bdd995960921b606082015260800190565b6020808252602c908201527f46756e6374696f6e206d7573742062652063616c6c6564207468726f7567682060408201526b19195b1959d85d1958d85b1b60a21b606082015260800190565b6020808252602c908201527f46756e6374696f6e206d7573742062652063616c6c6564207468726f7567682060408201526b6163746976652070726f787960a01b606082015260800190565b60006020828403121561350257600080fd5b8151610b1b816132cb565b6000808335601e1984360301811261352457600080fd5b830160208101925035905067ffffffffffffffff81111561354457600080fd5b803603831315612e5b57600080fd5b81835281816020850137506000828201602090810191909152601f909101601f19169091010190565b60208152813560208201526020820135604082015260006135a0604084018461350d565b60a060608501526135b560c085018284613553565b9150506135c5606085018561350d565b601f19808685030160808701526135dd848385613553565b93506135ec608088018861350d565b93509150808685030160a087015250613606838383613553565b9695505050505050565b60006020828403121561362257600080fd5b8151610b1b8161307b565b634e487b7160e01b600052601160045260246000fd5b6000828210156136555761365561362d565b500390565b6000821982111561366d5761366d61362d565b500190565b60006020828403121561368457600080fd5b5051919050565b634e487b7160e01b600052603260045260246000fd5b6020808252602b908201527f496e697469616c697a61626c653a20636f6e7472616374206973206e6f74206960408201526a6e697469616c697a696e6760a81b606082015260800190565b60208082526032908201527f4552433732313a207472616e7366657220746f206e6f6e20455243373231526560408201527131b2b4bb32b91034b6b83632b6b2b73a32b960711b606082015260800190565b60008351613750818460208801612ff7565b835190830190613764818360208801612ff7565b01949350505050565b7f416363657373436f6e74726f6c3a206163636f756e74200000000000000000008152600083516137a5816017850160208801612ff7565b7001034b99036b4b9b9b4b733903937b6329607d1b60179184019182015283516137d6816028840160208801612ff7565b01602801949350505050565b634e487b7160e01b600052601260045260246000fd5b600082613807576138076137e2565b500490565b6001600160a01b038581168252841660208201526040810183905260806060820181905260009061360690830184613023565b60006020828403121561385157600080fd5b8151610b1b81612fc4565b634e487b7160e01b600052602160045260246000fd5b60006000198214156138865761388661362d565b5060010190565b60008261389c5761389c6137e2565b500690565b60008160001904831182151516156138bb576138bb61362d565b500290565b6000816138cf576138cf61362d565b506000190190565b600082516138e9818460208701612ff7565b919091019291505056fe360894a13ba1a3210667c828492db98dca3e2076cc3735a920a3ca505d382bbc416464726573733a206c6f772d6c6576656c2064656c65676174652063616c6c206661696c6564a2646970667358221220887e80d8265ddc05575802e4b2610d73af5d45ad33da51843d3a7f09bff92a5f64736f6c63430008090033",
  "linkReferences": {},
  "deployedLinkReferences": {}
}