{
  "_format": "hh-sol-artifact-1",
  "contractName": "GovernorContract",
  "sourceName": "contracts/governance/GovernorContract.sol",
  "abi": [
    {
      "inputs": [],
      "stateMutability": "nonpayable",
      "type": "constructor"
    },
    {
      "inputs": [],
      "name": "Empty",
      "type": "error"
    },
    {
      "anonymous": false,
      "inputs": [
        {
          "indexed": false,
          "internalType": "address",
          "name": "previousAdmin",
          "type": "address"
        },
        {
          "indexed": false,
          "internalType": "address",
          "name": "newAdmin",
          "type": "address"
        }
      ],
      "name": "AdminChanged",
      "type": "event"
    },
    {
      "anonymous": false,
      "inputs": [
        {
          "indexed": true,
          "internalType": "address",
          "name": "beacon",
          "type": "address"
        }
      ],
      "name": "BeaconUpgraded",
      "type": "event"
    },
    {
      "anonymous": false,
      "inputs": [
        {
          "indexed": false,
          "internalType": "uint8",
          "name": "version",
          "type": "uint8"
        }
      ],
      "name": "Initialized",
      "type": "event"
    },
    {
      "anonymous": false,
      "inputs": [
        {
          "indexed": true,
          "internalType": "address",
          "name": "previousOwner",
          "type": "address"
        },
        {
          "indexed": true,
          "internalType": "address",
          "name": "newOwner",
          "type": "address"
        }
      ],
      "name": "OwnershipTransferred",
      "type": "event"
    },
    {
      "anonymous": false,
      "inputs": [
        {
          "indexed": false,
          "internalType": "uint256",
          "name": "proposalId",
          "type": "uint256"
        }
      ],
      "name": "ProposalCanceled",
      "type": "event"
    },
    {
      "anonymous": false,
      "inputs": [
        {
          "indexed": false,
          "internalType": "uint256",
          "name": "proposalId",
          "type": "uint256"
        },
        {
          "indexed": false,
          "internalType": "address",
          "name": "proposer",
          "type": "address"
        },
        {
          "indexed": false,
          "internalType": "address[]",
          "name": "targets",
          "type": "address[]"
        },
        {
          "indexed": false,
          "internalType": "uint256[]",
          "name": "values",
          "type": "uint256[]"
        },
        {
          "indexed": false,
          "internalType": "string[]",
          "name": "signatures",
          "type": "string[]"
        },
        {
          "indexed": false,
          "internalType": "bytes[]",
          "name": "calldatas",
          "type": "bytes[]"
        },
        {
          "indexed": false,
          "internalType": "uint256",
          "name": "startBlock",
          "type": "uint256"
        },
        {
          "indexed": false,
          "internalType": "uint256",
          "name": "endBlock",
          "type": "uint256"
        },
        {
          "indexed": false,
          "internalType": "string",
          "name": "description",
          "type": "string"
        }
      ],
      "name": "ProposalCreated",
      "type": "event"
    },
    {
      "anonymous": false,
      "inputs": [
        {
          "indexed": false,
          "internalType": "uint256",
          "name": "proposalId",
          "type": "uint256"
        }
      ],
      "name": "ProposalExecuted",
      "type": "event"
    },
    {
      "anonymous": false,
      "inputs": [
        {
          "indexed": false,
          "internalType": "uint256",
          "name": "proposalId",
          "type": "uint256"
        },
        {
          "indexed": false,
          "internalType": "uint256",
          "name": "eta",
          "type": "uint256"
        }
      ],
      "name": "ProposalQueued",
      "type": "event"
    },
    {
      "anonymous": false,
      "inputs": [
        {
          "indexed": false,
          "internalType": "uint256",
          "name": "oldProposalThreshold",
          "type": "uint256"
        },
        {
          "indexed": false,
          "internalType": "uint256",
          "name": "newProposalThreshold",
          "type": "uint256"
        }
      ],
      "name": "ProposalThresholdSet",
      "type": "event"
    },
    {
      "anonymous": false,
      "inputs": [
        {
          "indexed": false,
          "internalType": "uint256",
          "name": "oldQuorumNumerator",
          "type": "uint256"
        },
        {
          "indexed": false,
          "internalType": "uint256",
          "name": "newQuorumNumerator",
          "type": "uint256"
        }
      ],
      "name": "QuorumNumeratorUpdated",
      "type": "event"
    },
    {
      "anonymous": false,
      "inputs": [
        {
          "indexed": false,
          "internalType": "address",
          "name": "oldTimelock",
          "type": "address"
        },
        {
          "indexed": false,
          "internalType": "address",
          "name": "newTimelock",
          "type": "address"
        }
      ],
      "name": "TimelockChange",
      "type": "event"
    },
    {
      "anonymous": false,
      "inputs": [
        {
          "indexed": true,
          "internalType": "address",
          "name": "implementation",
          "type": "address"
        }
      ],
      "name": "Upgraded",
      "type": "event"
    },
    {
      "anonymous": false,
      "inputs": [
        {
          "indexed": true,
          "internalType": "address",
          "name": "voter",
          "type": "address"
        },
        {
          "indexed": false,
          "internalType": "uint256",
          "name": "proposalId",
          "type": "uint256"
        },
        {
          "indexed": false,
          "internalType": "uint8",
          "name": "support",
          "type": "uint8"
        },
        {
          "indexed": false,
          "internalType": "uint256",
          "name": "weight",
          "type": "uint256"
        },
        {
          "indexed": false,
          "internalType": "string",
          "name": "reason",
          "type": "string"
        }
      ],
      "name": "VoteCast",
      "type": "event"
    },
    {
      "anonymous": false,
      "inputs": [
        {
          "indexed": true,
          "internalType": "address",
          "name": "voter",
          "type": "address"
        },
        {
          "indexed": false,
          "internalType": "uint256",
          "name": "proposalId",
          "type": "uint256"
        },
        {
          "indexed": false,
          "internalType": "uint8",
          "name": "support",
          "type": "uint8"
        },
        {
          "indexed": false,
          "internalType": "uint256",
          "name": "weight",
          "type": "uint256"
        },
        {
          "indexed": false,
          "internalType": "string",
          "name": "reason",
          "type": "string"
        },
        {
          "indexed": false,
          "internalType": "bytes",
          "name": "params",
          "type": "bytes"
        }
      ],
      "name": "VoteCastWithParams",
      "type": "event"
    },
    {
      "anonymous": false,
      "inputs": [
        {
          "indexed": false,
          "internalType": "uint256",
          "name": "oldVotingDelay",
          "type": "uint256"
        },
        {
          "indexed": false,
          "internalType": "uint256",
          "name": "newVotingDelay",
          "type": "uint256"
        }
      ],
      "name": "VotingDelaySet",
      "type": "event"
    },
    {
      "anonymous": false,
      "inputs": [
        {
          "indexed": false,
          "internalType": "uint256",
          "name": "oldVotingPeriod",
          "type": "uint256"
        },
        {
          "indexed": false,
          "internalType": "uint256",
          "name": "newVotingPeriod",
          "type": "uint256"
        }
      ],
      "name": "VotingPeriodSet",
      "type": "event"
    },
    {
      "inputs": [],
      "name": "BALLOT_TYPEHASH",
      "outputs": [
        {
          "internalType": "bytes32",
          "name": "",
          "type": "bytes32"
        }
      ],
      "stateMutability": "view",
      "type": "function"
    },
    {
      "inputs": [],
      "name": "COUNTING_MODE",
      "outputs": [
        {
          "internalType": "string",
          "name": "",
          "type": "string"
        }
      ],
      "stateMutability": "pure",
      "type": "function"
    },
    {
      "inputs": [],
      "name": "EXTENDED_BALLOT_TYPEHASH",
      "outputs": [
        {
          "internalType": "bytes32",
          "name": "",
          "type": "bytes32"
        }
      ],
      "stateMutability": "view",
      "type": "function"
    },
    {
      "inputs": [
        {
          "internalType": "uint256",
          "name": "proposalId",
          "type": "uint256"
        },
        {
          "internalType": "uint8",
          "name": "support",
          "type": "uint8"
        }
      ],
      "name": "castVote",
      "outputs": [
        {
          "internalType": "uint256",
          "name": "",
          "type": "uint256"
        }
      ],
      "stateMutability": "nonpayable",
      "type": "function"
    },
    {
      "inputs": [
        {
          "internalType": "uint256",
          "name": "proposalId",
          "type": "uint256"
        },
        {
          "internalType": "uint8",
          "name": "support",
          "type": "uint8"
        },
        {
          "internalType": "uint8",
          "name": "v",
          "type": "uint8"
        },
        {
          "internalType": "bytes32",
          "name": "r",
          "type": "bytes32"
        },
        {
          "internalType": "bytes32",
          "name": "s",
          "type": "bytes32"
        }
      ],
      "name": "castVoteBySig",
      "outputs": [
        {
          "internalType": "uint256",
          "name": "",
          "type": "uint256"
        }
      ],
      "stateMutability": "nonpayable",
      "type": "function"
    },
    {
      "inputs": [
        {
          "internalType": "uint256",
          "name": "proposalId",
          "type": "uint256"
        },
        {
          "internalType": "uint8",
          "name": "support",
          "type": "uint8"
        },
        {
          "internalType": "string",
          "name": "reason",
          "type": "string"
        }
      ],
      "name": "castVoteWithReason",
      "outputs": [
        {
          "internalType": "uint256",
          "name": "",
          "type": "uint256"
        }
      ],
      "stateMutability": "nonpayable",
      "type": "function"
    },
    {
      "inputs": [
        {
          "internalType": "uint256",
          "name": "proposalId",
          "type": "uint256"
        },
        {
          "internalType": "uint8",
          "name": "support",
          "type": "uint8"
        },
        {
          "internalType": "string",
          "name": "reason",
          "type": "string"
        },
        {
          "internalType": "bytes",
          "name": "params",
          "type": "bytes"
        }
      ],
      "name": "castVoteWithReasonAndParams",
      "outputs": [
        {
          "internalType": "uint256",
          "name": "",
          "type": "uint256"
        }
      ],
      "stateMutability": "nonpayable",
      "type": "function"
    },
    {
      "inputs": [
        {
          "internalType": "uint256",
          "name": "proposalId",
          "type": "uint256"
        },
        {
          "internalType": "uint8",
          "name": "support",
          "type": "uint8"
        },
        {
          "internalType": "string",
          "name": "reason",
          "type": "string"
        },
        {
          "internalType": "bytes",
          "name": "params",
          "type": "bytes"
        },
        {
          "internalType": "uint8",
          "name": "v",
          "type": "uint8"
        },
        {
          "internalType": "bytes32",
          "name": "r",
          "type": "bytes32"
        },
        {
          "internalType": "bytes32",
          "name": "s",
          "type": "bytes32"
        }
      ],
      "name": "castVoteWithReasonAndParamsBySig",
      "outputs": [
        {
          "internalType": "uint256",
          "name": "",
          "type": "uint256"
        }
      ],
      "stateMutability": "nonpayable",
      "type": "function"
    },
    {
      "inputs": [
        {
          "internalType": "address[]",
          "name": "targets",
          "type": "address[]"
        },
        {
          "internalType": "uint256[]",
          "name": "values",
          "type": "uint256[]"
        },
        {
          "internalType": "bytes[]",
          "name": "calldatas",
          "type": "bytes[]"
        },
        {
          "internalType": "bytes32",
          "name": "descriptionHash",
          "type": "bytes32"
        }
      ],
      "name": "execute",
      "outputs": [
        {
          "internalType": "uint256",
          "name": "",
          "type": "uint256"
        }
      ],
      "stateMutability": "payable",
      "type": "function"
    },
    {
      "inputs": [
        {
          "internalType": "address",
          "name": "account",
          "type": "address"
        },
        {
          "internalType": "uint256",
          "name": "blockNumber",
          "type": "uint256"
        }
      ],
      "name": "getVotes",
      "outputs": [
        {
          "internalType": "uint256",
          "name": "",
          "type": "uint256"
        }
      ],
      "stateMutability": "view",
      "type": "function"
    },
    {
      "inputs": [
        {
          "internalType": "address",
          "name": "account",
          "type": "address"
        },
        {
          "internalType": "uint256",
          "name": "blockNumber",
          "type": "uint256"
        },
        {
          "internalType": "bytes",
          "name": "params",
          "type": "bytes"
        }
      ],
      "name": "getVotesWithParams",
      "outputs": [
        {
          "internalType": "uint256",
          "name": "",
          "type": "uint256"
        }
      ],
      "stateMutability": "view",
      "type": "function"
    },
    {
      "inputs": [
        {
          "internalType": "uint256",
          "name": "proposalId",
          "type": "uint256"
        },
        {
          "internalType": "address",
          "name": "account",
          "type": "address"
        }
      ],
      "name": "hasVoted",
      "outputs": [
        {
          "internalType": "bool",
          "name": "",
          "type": "bool"
        }
      ],
      "stateMutability": "view",
      "type": "function"
    },
    {
      "inputs": [
        {
          "internalType": "address[]",
          "name": "targets",
          "type": "address[]"
        },
        {
          "internalType": "uint256[]",
          "name": "values",
          "type": "uint256[]"
        },
        {
          "internalType": "bytes[]",
          "name": "calldatas",
          "type": "bytes[]"
        },
        {
          "internalType": "bytes32",
          "name": "descriptionHash",
          "type": "bytes32"
        }
      ],
      "name": "hashProposal",
      "outputs": [
        {
          "internalType": "uint256",
          "name": "",
          "type": "uint256"
        }
      ],
      "stateMutability": "pure",
      "type": "function"
    },
    {
      "inputs": [
        {
          "internalType": "contract IVotesUpgradeable",
          "name": "_token",
          "type": "address"
        },
        {
          "internalType": "contract TimelockControllerUpgradeable",
          "name": "_timelock",
          "type": "address"
        },
        {
          "internalType": "uint256",
          "name": "_votingDelay",
          "type": "uint256"
        },
        {
          "internalType": "uint256",
          "name": "_votingPeriod",
          "type": "uint256"
        },
        {
          "internalType": "uint256",
          "name": "_votingThreshold",
          "type": "uint256"
        },
        {
          "internalType": "uint256",
          "name": "_quorumPercentage",
          "type": "uint256"
        }
      ],
      "name": "initialize",
      "outputs": [],
      "stateMutability": "nonpayable",
      "type": "function"
    },
    {
      "inputs": [],
      "name": "name",
      "outputs": [
        {
          "internalType": "string",
          "name": "",
          "type": "string"
        }
      ],
      "stateMutability": "view",
      "type": "function"
    },
    {
      "inputs": [
        {
          "internalType": "address",
          "name": "",
          "type": "address"
        },
        {
          "internalType": "address",
          "name": "",
          "type": "address"
        },
        {
          "internalType": "uint256[]",
          "name": "",
          "type": "uint256[]"
        },
        {
          "internalType": "uint256[]",
          "name": "",
          "type": "uint256[]"
        },
        {
          "internalType": "bytes",
          "name": "",
          "type": "bytes"
        }
      ],
      "name": "onERC1155BatchReceived",
      "outputs": [
        {
          "internalType": "bytes4",
          "name": "",
          "type": "bytes4"
        }
      ],
      "stateMutability": "nonpayable",
      "type": "function"
    },
    {
      "inputs": [
        {
          "internalType": "address",
          "name": "",
          "type": "address"
        },
        {
          "internalType": "address",
          "name": "",
          "type": "address"
        },
        {
          "internalType": "uint256",
          "name": "",
          "type": "uint256"
        },
        {
          "internalType": "uint256",
          "name": "",
          "type": "uint256"
        },
        {
          "internalType": "bytes",
          "name": "",
          "type": "bytes"
        }
      ],
      "name": "onERC1155Received",
      "outputs": [
        {
          "internalType": "bytes4",
          "name": "",
          "type": "bytes4"
        }
      ],
      "stateMutability": "nonpayable",
      "type": "function"
    },
    {
      "inputs": [
        {
          "internalType": "address",
          "name": "",
          "type": "address"
        },
        {
          "internalType": "address",
          "name": "",
          "type": "address"
        },
        {
          "internalType": "uint256",
          "name": "",
          "type": "uint256"
        },
        {
          "internalType": "bytes",
          "name": "",
          "type": "bytes"
        }
      ],
      "name": "onERC721Received",
      "outputs": [
        {
          "internalType": "bytes4",
          "name": "",
          "type": "bytes4"
        }
      ],
      "stateMutability": "nonpayable",
      "type": "function"
    },
    {
      "inputs": [],
      "name": "owner",
      "outputs": [
        {
          "internalType": "address",
          "name": "",
          "type": "address"
        }
      ],
      "stateMutability": "view",
      "type": "function"
    },
    {
      "inputs": [
        {
          "internalType": "uint256",
          "name": "proposalId",
          "type": "uint256"
        }
      ],
      "name": "proposalDeadline",
      "outputs": [
        {
          "internalType": "uint256",
          "name": "",
          "type": "uint256"
        }
      ],
      "stateMutability": "view",
      "type": "function"
    },
    {
      "inputs": [
        {
          "internalType": "uint256",
          "name": "proposalId",
          "type": "uint256"
        }
      ],
      "name": "proposalEta",
      "outputs": [
        {
          "internalType": "uint256",
          "name": "",
          "type": "uint256"
        }
      ],
      "stateMutability": "view",
      "type": "function"
    },
    {
      "inputs": [
        {
          "internalType": "uint256",
          "name": "proposalId",
          "type": "uint256"
        }
      ],
      "name": "proposalSnapshot",
      "outputs": [
        {
          "internalType": "uint256",
          "name": "",
          "type": "uint256"
        }
      ],
      "stateMutability": "view",
      "type": "function"
    },
    {
      "inputs": [],
      "name": "proposalThreshold",
      "outputs": [
        {
          "internalType": "uint256",
          "name": "",
          "type": "uint256"
        }
      ],
      "stateMutability": "view",
      "type": "function"
    },
    {
      "inputs": [
        {
          "internalType": "uint256",
          "name": "proposalId",
          "type": "uint256"
        }
      ],
      "name": "proposalVotes",
      "outputs": [
        {
          "internalType": "uint256",
          "name": "againstVotes",
          "type": "uint256"
        },
        {
          "internalType": "uint256",
          "name": "forVotes",
          "type": "uint256"
        },
        {
          "internalType": "uint256",
          "name": "abstainVotes",
          "type": "uint256"
        }
      ],
      "stateMutability": "view",
      "type": "function"
    },
    {
      "inputs": [
        {
          "internalType": "address[]",
          "name": "targets",
          "type": "address[]"
        },
        {
          "internalType": "uint256[]",
          "name": "values",
          "type": "uint256[]"
        },
        {
          "internalType": "bytes[]",
          "name": "calldatas",
          "type": "bytes[]"
        },
        {
          "internalType": "string",
          "name": "description",
          "type": "string"
        }
      ],
      "name": "propose",
      "outputs": [
        {
          "internalType": "uint256",
          "name": "",
          "type": "uint256"
        }
      ],
      "stateMutability": "nonpayable",
      "type": "function"
    },
    {
      "inputs": [],
      "name": "proxiableUUID",
      "outputs": [
        {
          "internalType": "bytes32",
          "name": "",
          "type": "bytes32"
        }
      ],
      "stateMutability": "view",
      "type": "function"
    },
    {
      "inputs": [
        {
          "internalType": "address[]",
          "name": "targets",
          "type": "address[]"
        },
        {
          "internalType": "uint256[]",
          "name": "values",
          "type": "uint256[]"
        },
        {
          "internalType": "bytes[]",
          "name": "calldatas",
          "type": "bytes[]"
        },
        {
          "internalType": "bytes32",
          "name": "descriptionHash",
          "type": "bytes32"
        }
      ],
      "name": "queue",
      "outputs": [
        {
          "internalType": "uint256",
          "name": "",
          "type": "uint256"
        }
      ],
      "stateMutability": "nonpayable",
      "type": "function"
    },
    {
      "inputs": [
        {
          "internalType": "uint256",
          "name": "blockNumber",
          "type": "uint256"
        }
      ],
      "name": "quorum",
      "outputs": [
        {
          "internalType": "uint256",
          "name": "",
          "type": "uint256"
        }
      ],
      "stateMutability": "view",
      "type": "function"
    },
    {
      "inputs": [],
      "name": "quorumDenominator",
      "outputs": [
        {
          "internalType": "uint256",
          "name": "",
          "type": "uint256"
        }
      ],
      "stateMutability": "view",
      "type": "function"
    },
    {
      "inputs": [
        {
          "internalType": "uint256",
          "name": "blockNumber",
          "type": "uint256"
        }
      ],
      "name": "quorumNumerator",
      "outputs": [
        {
          "internalType": "uint256",
          "name": "",
          "type": "uint256"
        }
      ],
      "stateMutability": "view",
      "type": "function"
    },
    {
      "inputs": [],
      "name": "quorumNumerator",
      "outputs": [
        {
          "internalType": "uint256",
          "name": "",
          "type": "uint256"
        }
      ],
      "stateMutability": "view",
      "type": "function"
    },
    {
      "inputs": [
        {
          "internalType": "address",
          "name": "target",
          "type": "address"
        },
        {
          "internalType": "uint256",
          "name": "value",
          "type": "uint256"
        },
        {
          "internalType": "bytes",
          "name": "data",
          "type": "bytes"
        }
      ],
      "name": "relay",
      "outputs": [],
      "stateMutability": "nonpayable",
      "type": "function"
    },
    {
      "inputs": [],
      "name": "renounceOwnership",
      "outputs": [],
      "stateMutability": "nonpayable",
      "type": "function"
    },
    {
      "inputs": [
        {
          "internalType": "uint256",
          "name": "newProposalThreshold",
          "type": "uint256"
        }
      ],
      "name": "setProposalThreshold",
      "outputs": [],
      "stateMutability": "nonpayable",
      "type": "function"
    },
    {
      "inputs": [
        {
          "internalType": "uint256",
          "name": "newVotingDelay",
          "type": "uint256"
        }
      ],
      "name": "setVotingDelay",
      "outputs": [],
      "stateMutability": "nonpayable",
      "type": "function"
    },
    {
      "inputs": [
        {
          "internalType": "uint256",
          "name": "newVotingPeriod",
          "type": "uint256"
        }
      ],
      "name": "setVotingPeriod",
      "outputs": [],
      "stateMutability": "nonpayable",
      "type": "function"
    },
    {
      "inputs": [
        {
          "internalType": "uint256",
          "name": "proposalId",
          "type": "uint256"
        }
      ],
      "name": "state",
      "outputs": [
        {
          "internalType": "enum IGovernorUpgradeable.ProposalState",
          "name": "",
          "type": "uint8"
        }
      ],
      "stateMutability": "view",
      "type": "function"
    },
    {
      "inputs": [
        {
          "internalType": "bytes4",
          "name": "interfaceId",
          "type": "bytes4"
        }
      ],
      "name": "supportsInterface",
      "outputs": [
        {
          "internalType": "bool",
          "name": "",
          "type": "bool"
        }
      ],
      "stateMutability": "view",
      "type": "function"
    },
    {
      "inputs": [],
      "name": "timelock",
      "outputs": [
        {
          "internalType": "address",
          "name": "",
          "type": "address"
        }
      ],
      "stateMutability": "view",
      "type": "function"
    },
    {
      "inputs": [],
      "name": "token",
      "outputs": [
        {
          "internalType": "contract IVotesUpgradeable",
          "name": "",
          "type": "address"
        }
      ],
      "stateMutability": "view",
      "type": "function"
    },
    {
      "inputs": [
        {
          "internalType": "address",
          "name": "newOwner",
          "type": "address"
        }
      ],
      "name": "transferOwnership",
      "outputs": [],
      "stateMutability": "nonpayable",
      "type": "function"
    },
    {
      "inputs": [
        {
          "internalType": "uint256",
          "name": "newQuorumNumerator",
          "type": "uint256"
        }
      ],
      "name": "updateQuorumNumerator",
      "outputs": [],
      "stateMutability": "nonpayable",
      "type": "function"
    },
    {
      "inputs": [
        {
          "internalType": "contract TimelockControllerUpgradeable",
          "name": "newTimelock",
          "type": "address"
        }
      ],
      "name": "updateTimelock",
      "outputs": [],
      "stateMutability": "nonpayable",
      "type": "function"
    },
    {
      "inputs": [
        {
          "internalType": "address",
          "name": "newImplementation",
          "type": "address"
        }
      ],
      "name": "upgradeTo",
      "outputs": [],
      "stateMutability": "nonpayable",
      "type": "function"
    },
    {
      "inputs": [
        {
          "internalType": "address",
          "name": "newImplementation",
          "type": "address"
        },
        {
          "internalType": "bytes",
          "name": "data",
          "type": "bytes"
        }
      ],
      "name": "upgradeToAndCall",
      "outputs": [],
      "stateMutability": "payable",
      "type": "function"
    },
    {
      "inputs": [],
      "name": "version",
      "outputs": [
        {
          "internalType": "string",
          "name": "",
          "type": "string"
        }
      ],
      "stateMutability": "view",
      "type": "function"
    },
    {
      "inputs": [],
      "name": "votingDelay",
      "outputs": [
        {
          "internalType": "uint256",
          "name": "",
          "type": "uint256"
        }
      ],
      "stateMutability": "view",
      "type": "function"
    },
    {
      "inputs": [],
      "name": "votingPeriod",
      "outputs": [
        {
          "internalType": "uint256",
          "name": "",
          "type": "uint256"
        }
      ],
      "stateMutability": "view",
      "type": "function"
    },
    {
      "stateMutability": "payable",
      "type": "receive"
    }
  ],
  "bytecode": "0x60a0604052306080523480156200001557600080fd5b506200002062000026565b620000e8565b600054610100900460ff1615620000935760405162461bcd60e51b815260206004820152602760248201527f496e697469616c697a61626c653a20636f6e747261637420697320696e697469604482015266616c697a696e6760c81b606482015260840160405180910390fd5b60005460ff9081161015620000e6576000805460ff191660ff9081179091556040519081527f7f26b83ff96e1f2b6a682f133852f6798a09c465da95921460cefb38474024989060200160405180910390a15b565b608051614ab46200012060003960008181610f4001528181610f80015281816110aa015281816110ea015261117d0152614ab46000f3fe6080604052600436106102975760003560e01c80637b3c71d31161015a578063c28bc2fa116100c1578063eb9019d41161007a578063eb9019d4146108c4578063ece40cc1146108e4578063f23a6e6114610904578063f2fde38b14610930578063f8ce560a14610950578063fc0c546a1461097057600080fd5b8063c28bc2fa146107cb578063c59057e4146107eb578063d33219b41461080b578063dd4e2ba51461082a578063deaaa7cc14610870578063ea0217cf146108a457600080fd5b8063a7713a7011610113578063a7713a7014610715578063a890c9101461072a578063ab58fb8e1461074a578063b58131b01461076a578063bc197c811461077f578063c01f9e37146107ab57600080fd5b80637b3c71d31461064e5780637d5e81e21461066e57806386489ba91461068e5780638da5cb5b146106ae57806397c3d334146106e15780639a802a6d146106f557600080fd5b80633bccf4fd116101fe57806354fd4d50116101b757806354fd4d501461058f57806356781388146105b95780635f398a14146105d957806360c4247f146105f957806370b0f66014610619578063715018a61461063957600080fd5b80633bccf4fd146104795780633e4f49e61461049957806343859632146104c65780634f1ef2861461051157806352d1902d14610524578063544ffc9c1461053957600080fd5b8063160cbed711610250578063160cbed7146103bd5780632656227d146103dd5780632d63f693146103f05780632fe3e261146104105780633659cfe6146104445780633932abb11461046457600080fd5b806301ffc9a7146102bf57806302a251a3146102f4578063034201811461031757806306f3f9e61461033757806306fdde0314610357578063150b7a021461037957600080fd5b366102ba57306102a5610991565b6001600160a01b0316146102b857600080fd5b005b600080fd5b3480156102cb57600080fd5b506102df6102da3660046139f0565b6109ab565b60405190151581526020015b60405180910390f35b34801561030057600080fd5b506103096109bc565b6040519081526020016102eb565b34801561032357600080fd5b50610309610332366004613b2e565b6109c8565b34801561034357600080fd5b506102b8610352366004613bd4565b610ac0565b34801561036357600080fd5b5061036c610b58565b6040516102eb9190613c45565b34801561038557600080fd5b506103a4610394366004613c6d565b630a85bd0160e11b949350505050565b6040516001600160e01b031990911681526020016102eb565b3480156103c957600080fd5b506103096103d8366004613e49565b610bea565b6103096103eb366004613e49565b610e0c565b3480156103fc57600080fd5b5061030961040b366004613bd4565b610efe565b34801561041c57600080fd5b506103097fb3b3f3b703cd84ce352197dcff232b1b5d3cfb2025ce47cf04742d0651f1af8881565b34801561045057600080fd5b506102b861045f366004613ed8565b610f35565b34801561047057600080fd5b50610309611012565b34801561048557600080fd5b50610309610494366004613ef5565b61101e565b3480156104a557600080fd5b506104b96104b4366004613bd4565b611094565b6040516102eb9190613f59565b3480156104d257600080fd5b506102df6104e1366004613f81565b6000828152610161602090815260408083206001600160a01b038516845260030190915290205460ff1692915050565b6102b861051f366004613fb1565b61109f565b34801561053057600080fd5b50610309611170565b34801561054557600080fd5b50610574610554366004613bd4565b600090815261016160205260409020805460018201546002909201549092565b604080519384526020840192909252908201526060016102eb565b34801561059b57600080fd5b506040805180820190915260018152603160f81b602082015261036c565b3480156105c557600080fd5b506103096105d4366004614000565b611223565b3480156105e557600080fd5b506103096105f436600461402c565b61124c565b34801561060557600080fd5b50610309610614366004613bd4565b611296565b34801561062557600080fd5b506102b8610634366004613bd4565b611330565b34801561064557600080fd5b506102b86113bc565b34801561065a57600080fd5b506103096106693660046140af565b6113d0565b34801561067a57600080fd5b50610309610689366004614108565b611422565b34801561069a57600080fd5b506102b86106a93660046141bc565b611439565b3480156106ba57600080fd5b5061022a546001600160a01b03165b6040516001600160a01b0390911681526020016102eb565b3480156106ed57600080fd5b506064610309565b34801561070157600080fd5b50610309610710366004614215565b6115b7565b34801561072157600080fd5b506103096115ce565b34801561073657600080fd5b506102b8610745366004613ed8565b6115ed565b34801561075657600080fd5b50610309610765366004613bd4565b611679565b34801561077657600080fd5b50610309611724565b34801561078b57600080fd5b506103a461079a36600461426d565b63bc197c8160e01b95945050505050565b3480156107b757600080fd5b506103096107c6366004613bd4565b611730565b3480156107d757600080fd5b506102b86107e6366004614300565b61175f565b3480156107f757600080fd5b50610309610806366004613e49565b61182b565b34801561081757600080fd5b506101f8546001600160a01b03166106c9565b34801561083657600080fd5b506040805180820190915260208082527f737570706f72743d627261766f2671756f72756d3d666f722c6162737461696e9082015261036c565b34801561087c57600080fd5b506103097f150214d74d59b7d1e90c73fc22ef3d991dd0a76b046543d4d80ab92d2a50328f81565b3480156108b057600080fd5b506102b86108bf366004613bd4565b611865565b3480156108d057600080fd5b506103096108df366004614343565b6118f1565b3480156108f057600080fd5b506102b86108ff366004613bd4565b611912565b34801561091057600080fd5b506103a461091f36600461436f565b63f23a6e6160e01b95945050505050565b34801561093c57600080fd5b506102b861094b366004613ed8565b61199e565b34801561095c57600080fd5b5061030961096b366004613bd4565b611a14565b34801561097c57600080fd5b50610193546106c9906001600160a01b031681565b60006109a66101f8546001600160a01b031690565b905090565b60006109b682611a1f565b92915050565b60006109a66101305490565b600080610a6c610a647fb3b3f3b703cd84ce352197dcff232b1b5d3cfb2025ce47cf04742d0651f1af888c8c8c8c604051610a049291906143d7565b60405180910390208b80519060200120604051602001610a49959493929190948552602085019390935260ff9190911660408401526060830152608082015260a00190565b60405160208183030381529060405280519060200120611a44565b868686611a92565b9050610ab28a828b8b8b8080601f0160208091040260200160405190810160405280939291908181526020018383808284376000920191909152508d9250611ab0915050565b9a9950505050505050505050565b610ac8610991565b6001600160a01b0316336001600160a01b031614610b015760405162461bcd60e51b8152600401610af8906143e7565b60405180910390fd5b30610b0a610991565b6001600160a01b031614610b4c5760008036604051610b2a9291906143d7565b604051809103902090505b80610b4060ff611c11565b14610b4a57610b35565b505b610b5581611c90565b50565b606060fd8054610b679061441e565b80601f0160208091040260200160405190810160405280929190818152602001828054610b939061441e565b8015610be05780601f10610bb557610100808354040283529160200191610be0565b820191906000526020600020905b815481529060010190602001808311610bc357829003601f168201915b5050505050905090565b600080610bf98686868661182b565b90506004610c0682611094565b6007811115610c1757610c17613f43565b14610c345760405162461bcd60e51b8152600401610af890614459565b6101f8546040805163793d064960e11b815290516000926001600160a01b03169163f27a0c92916004808301926020929190829003018186803b158015610c7a57600080fd5b505afa158015610c8e573d6000803e3d6000fd5b505050506040513d601f19601f82011682018060405250810190610cb2919061449a565b6101f85460405163b1c5f42760e01b81529192506001600160a01b03169063b1c5f42790610ced908a908a908a906000908b9060040161457c565b60206040518083038186803b158015610d0557600080fd5b505afa158015610d19573d6000803e3d6000fd5b505050506040513d601f19601f82011682018060405250810190610d3d919061449a565b60008381526101f96020526040808220929092556101f85491516308f2a0bb60e41b81526001600160a01b0390921691638f2a0bb091610d8a918b918b918b91908b9089906004016145ca565b600060405180830381600087803b158015610da457600080fd5b505af1158015610db8573d6000803e3d6000fd5b505050507f9a2e42fd6722813d69113e7d0079d3d940171428df7373df9c7f7617cfda2892828242610dea9190614638565b6040805192835260208301919091520160405180910390a15095945050505050565b600080610e1b8686868661182b565b90506000610e2882611094565b90506004816007811115610e3e57610e3e613f43565b1480610e5b57506005816007811115610e5957610e59613f43565b145b610e775760405162461bcd60e51b8152600401610af890614459565b600082815260fe602052604090819020600201805460ff19166001179055517f712ae1383f79ac853f8d882153778e0260ef8f03b504e2866e0593e04d2b291f90610ec59084815260200190565b60405180910390a1610eda8288888888611de0565b610ee78288888888611e82565b610ef48288888888611e8f565b5095945050505050565b600081815260fe602090815260408083208151928301909152546001600160401b0316908190525b6001600160401b031692915050565b306001600160a01b037f0000000000000000000000000000000000000000000000000000000000000000161415610f7e5760405162461bcd60e51b8152600401610af890614650565b7f00000000000000000000000000000000000000000000000000000000000000006001600160a01b0316610fc7600080516020614a0f833981519152546001600160a01b031690565b6001600160a01b031614610fed5760405162461bcd60e51b8152600401610af89061469c565b610ff681611ec8565b60408051600080825260208201909252610b5591839190611ed0565b60006109a661012f5490565b604080517f150214d74d59b7d1e90c73fc22ef3d991dd0a76b046543d4d80ab92d2a50328f602082015290810186905260ff85166060820152600090819061106c90610a6490608001610a49565b90506110898782886040518060200160405280600081525061204f565b979650505050505050565b60006109b682612072565b306001600160a01b037f00000000000000000000000000000000000000000000000000000000000000001614156110e85760405162461bcd60e51b8152600401610af890614650565b7f00000000000000000000000000000000000000000000000000000000000000006001600160a01b0316611131600080516020614a0f833981519152546001600160a01b031690565b6001600160a01b0316146111575760405162461bcd60e51b8152600401610af89061469c565b61116082611ec8565b61116c82826001611ed0565b5050565b6000306001600160a01b037f000000000000000000000000000000000000000000000000000000000000000016146112105760405162461bcd60e51b815260206004820152603860248201527f555550535570677261646561626c653a206d757374206e6f742062652063616c60448201527f6c6564207468726f7567682064656c656761746563616c6c00000000000000006064820152608401610af8565b50600080516020614a0f83398151915290565b6000803390506112448482856040518060200160405280600081525061204f565b949350505050565b60008033905061108987828888888080601f0160208091040260200160405190810160405280939291908181526020018383808284376000920191909152508a9250611ab0915050565b6101c754600090806112ad5750506101c654919050565b60006101c76112bd6001846146e8565b815481106112cd576112cd6146ff565b60009182526020918290206040805180820190915291015463ffffffff81168083526401000000009091046001600160e01b0316928201929092529150841061132457602001516001600160e01b03169392505050565b6112446101c7856121dd565b611338610991565b6001600160a01b0316336001600160a01b0316146113685760405162461bcd60e51b8152600401610af8906143e7565b30611371610991565b6001600160a01b0316146113b357600080366040516113919291906143d7565b604051809103902090505b806113a760ff611c11565b146113b15761139c565b505b610b55816122ec565b6113c461232f565b6113ce600061238a565b565b60008033905061141886828787878080601f01602080910402602001604051908101604052809392919081815260200183838082843760009201919091525061204f92505050565b9695505050505050565b6000611430858585856123dd565b95945050505050565b600054610100900460ff16158080156114595750600054600160ff909116105b806114735750303b158015611473575060005460ff166001145b6114d65760405162461bcd60e51b815260206004820152602e60248201527f496e697469616c697a61626c653a20636f6e747261637420697320616c72656160448201526d191e481a5b9a5d1a585b1a5e995960921b6064820152608401610af8565b6000805460ff1916600117905580156114f9576000805461ff0019166101001790555b61152a6040518060400160405280601081526020016f11dbdd995c9b9bdc90dbdb9d1c9858dd60821b8152506126a0565b6115358585856126f7565b61153d612729565b61154687612750565b61154f82612780565b611558866127b0565b6115606127e0565b611568612729565b80156115ae576000805461ff0019169055604051600181527f7f26b83ff96e1f2b6a682f133852f6798a09c465da95921460cefb38474024989060200160405180910390a15b50505050505050565b60006115c484848461280f565b90505b9392505050565b6101c754600090156115e5576109a66101c7612895565b506101c65490565b6115f5610991565b6001600160a01b0316336001600160a01b0316146116255760405162461bcd60e51b8152600401610af8906143e7565b3061162e610991565b6001600160a01b031614611670576000803660405161164e9291906143d7565b604051809103902090505b8061166460ff611c11565b1461166e57611659565b505b610b55816128f1565b6101f85460008281526101f9602052604080822054905163d45c443560e01b81526004810191909152909182916001600160a01b039091169063d45c44359060240160206040518083038186803b1580156116d357600080fd5b505afa1580156116e7573d6000803e3d6000fd5b505050506040513d601f19601f8201168201806040525081019061170b919061449a565b90508060011461171b57806115c7565b60009392505050565b60006109a66101315490565b600081815260fe602090815260408083208151928301909152600101546001600160401b031690819052610f26565b611767610991565b6001600160a01b0316336001600160a01b0316146117975760405162461bcd60e51b8152600401610af8906143e7565b306117a0610991565b6001600160a01b0316146117e257600080366040516117c09291906143d7565b604051809103902090505b806117d660ff611c11565b146117e0576117cb565b505b6118248483838080601f01602080910402602001604051908101604052809392919081815260200183838082843760009201919091525088925061295c915050565b5050505050565b6000848484846040516020016118449493929190614715565b60408051601f19818403018152919052805160209091012095945050505050565b61186d610991565b6001600160a01b0316336001600160a01b03161461189d5760405162461bcd60e51b8152600401610af8906143e7565b306118a6610991565b6001600160a01b0316146118e857600080366040516118c69291906143d7565b604051809103902090505b806118dc60ff611c11565b146118e6576118d1565b505b610b5581612982565b60006115c7838361190d60408051602081019091526000815290565b61280f565b61191a610991565b6001600160a01b0316336001600160a01b03161461194a5760405162461bcd60e51b8152600401610af8906143e7565b30611953610991565b6001600160a01b03161461199557600080366040516119739291906143d7565b604051809103902090505b8061198960ff611c11565b146119935761197e565b505b610b5581612a25565b6119a661232f565b6001600160a01b038116611a0b5760405162461bcd60e51b815260206004820152602660248201527f4f776e61626c653a206e6577206f776e657220697320746865207a65726f206160448201526564647265737360d01b6064820152608401610af8565b610b558161238a565b60006109b682612a68565b60006001600160e01b03198216636e665ced60e01b14806109b657506109b682612b06565b60006109b6611a51612b71565b8360405161190160f01b6020820152602281018390526042810182905260009060620160405160208183030381529060405280519060200120905092915050565b6000806000611aa387878787612bec565b91509150610ef481612cd9565b600085815260fe602052604081206001611ac988611094565b6007811115611ada57611ada613f43565b14611b335760405162461bcd60e51b815260206004820152602360248201527f476f7665726e6f723a20766f7465206e6f742063757272656e746c792061637460448201526269766560e81b6064820152608401610af8565b604080516020810190915281546001600160401b031690819052600090611b5c9088908661280f565b9050611b6b8888888488612e94565b8351611bbd57866001600160a01b03167fb8e138887d0aa13bab447e82de9d5c1777041ecd21ca36ba824ff1e6c07ddda489888489604051611bb09493929190614760565b60405180910390a2611089565b866001600160a01b03167fe2babfbac5889a709b63bb7f598b324e08bc5a4fb9ec647fb3cbc9ec07eb87128988848989604051611bfe959493929190614788565b60405180910390a2979650505050505050565b6000611c2c8254600f81810b600160801b909204900b131590565b15611c4a57604051631ed9509560e11b815260040160405180910390fd5b508054600f0b6000818152600180840160205260408220805492905583546fffffffffffffffffffffffffffffffff191692016001600160801b03169190911790915590565b6064811115611d135760405162461bcd60e51b815260206004820152604360248201527f476f7665726e6f72566f74657351756f72756d4672616374696f6e3a2071756f60448201527f72756d4e756d657261746f72206f7665722071756f72756d44656e6f6d696e616064820152623a37b960e91b608482015260a401610af8565b6000611d1d6115ce565b90508015801590611d2f57506101c754155b15611d955760408051808201909152600081526101c79060208101611d5384613014565b6001600160e01b0390811690915282546001810184556000938452602093849020835194909301519091166401000000000263ffffffff909316929092179101555b611da16101c783613081565b505060408051828152602081018490527f0553476bf02ef2726e8ce5ced78d63e26e602e4a2257b1f559418e24b4633997910160405180910390a15050565b30611de9610991565b6001600160a01b0316146118245760005b8451811015611e7a57306001600160a01b0316858281518110611e1f57611e1f6146ff565b60200260200101516001600160a01b03161415611e6a57611e6a838281518110611e4b57611e4b6146ff565b60200260200101518051906020012060ff6131ac90919063ffffffff16565b611e73816147ce565b9050611dfa565b505050505050565b61182485858585856131e8565b30611e98610991565b6001600160a01b0316146118245760ff54600f81810b600160801b909204900b131561182457600060ff55611824565b610b5561232f565b7f4910fdfa16fed3260ed0e7147f7cc6da11a60208b5b9406d12a635614ffd91435460ff1615611f0857611f038361325d565b505050565b826001600160a01b03166352d1902d6040518163ffffffff1660e01b815260040160206040518083038186803b158015611f4157600080fd5b505afa925050508015611f71575060408051601f3d908101601f19168201909252611f6e9181019061449a565b60015b611fd45760405162461bcd60e51b815260206004820152602e60248201527f45524331393637557067726164653a206e657720696d706c656d656e7461746960448201526d6f6e206973206e6f74205555505360901b6064820152608401610af8565b600080516020614a0f83398151915281146120435760405162461bcd60e51b815260206004820152602960248201527f45524331393637557067726164653a20756e737570706f727465642070726f786044820152681a58589b195555525160ba1b6064820152608401610af8565b50611f038383836132f9565b60006114308585858561206d60408051602081019091526000815290565b611ab0565b60008061207e83613324565b9050600481600781111561209457612094613f43565b1461209f5792915050565b60008381526101f96020526040902054806120bb575092915050565b6101f854604051632ab0f52960e01b8152600481018390526001600160a01b0390911690632ab0f5299060240160206040518083038186803b15801561210057600080fd5b505afa158015612114573d6000803e3d6000fd5b505050506040513d601f19601f8201168201806040525081019061213891906147e9565b15612147575060079392505050565b6101f854604051632c258a9f60e11b8152600481018390526001600160a01b039091169063584b153e9060240160206040518083038186803b15801561218c57600080fd5b505afa1580156121a0573d6000803e3d6000fd5b505050506040513d601f19601f820116820180604052508101906121c491906147e9565b156121d3575060059392505050565b5060029392505050565b600043821061222e5760405162461bcd60e51b815260206004820181905260248201527f436865636b706f696e74733a20626c6f636b206e6f7420796574206d696e65646044820152606401610af8565b825460005b818110156122935760006122478284613431565b90508486600001828154811061225f5761225f6146ff565b60009182526020909120015463ffffffff16111561227f5780925061228d565b61228a816001614638565b91505b50612233565b81156122d757846122a56001846146e8565b815481106122b5576122b56146ff565b60009182526020909120015464010000000090046001600160e01b03166122da565b60005b6001600160e01b031695945050505050565b61012f5460408051918252602082018390527fc565b045403dc03c2eea82b81a0465edad9e2e7fc4d97e11421c209da93d7a93910160405180910390a161012f55565b61022a546001600160a01b031633146113ce5760405162461bcd60e51b815260206004820181905260248201527f4f776e61626c653a2063616c6c6572206973206e6f7420746865206f776e65726044820152606401610af8565b61022a80546001600160a01b038381166001600160a01b0319831681179093556040519116919082907f8be0079c531659141344cd1fd0a4f28419497f9722a3daafe3b4186f6b6457e090600090a35050565b60006123e7611724565b6123f6336108df6001436146e8565b101561245e5760405162461bcd60e51b815260206004820152603160248201527f476f7665726e6f723a2070726f706f73657220766f7465732062656c6f7720706044820152701c9bdc1bdcd85b081d1a1c995cda1bdb19607a1b6064820152608401610af8565b6000612473868686868051906020012061182b565b905084518651146124965760405162461bcd60e51b8152600401610af89061480b565b83518651146124b75760405162461bcd60e51b8152600401610af89061480b565b60008651116125085760405162461bcd60e51b815260206004820152601860248201527f476f7665726e6f723a20656d7074792070726f706f73616c00000000000000006044820152606401610af8565b600081815260fe6020908152604091829020825191820190925281546001600160401b031690819052156125885760405162461bcd60e51b815260206004820152602160248201527f476f7665726e6f723a2070726f706f73616c20616c72656164792065786973746044820152607360f81b6064820152608401610af8565b600061259a612595611012565b61344c565b6125a34361344c565b6125ad919061484c565b905060006125bc6125956109bc565b6125c6908361484c565b835467ffffffffffffffff19166001600160401b038416178455905060018301805467ffffffffffffffff19166001600160401b0383161790557f7d84a6263ae0d98d3329bd7b46bb4e8d6f98cd35a7adb45c274c8b7fd5ebd5e084338b8b8d516001600160401b0381111561263e5761263e613a71565b60405190808252806020026020018201604052801561267157816020015b606081526020019060019003908161265c5790505b508c88888e60405161268b99989796959493929190614877565b60405180910390a15091979650505050505050565b600054610100900460ff166126c75760405162461bcd60e51b8152600401610af890614966565b6126ee816126e96040805180820190915260018152603160f81b602082015290565b6134b4565b610b55816134f5565b600054610100900460ff1661271e5760405162461bcd60e51b8152600401610af890614966565b611f0383838361352f565b600054610100900460ff166113ce5760405162461bcd60e51b8152600401610af890614966565b600054610100900460ff166127775760405162461bcd60e51b8152600401610af890614966565b610b5581613571565b600054610100900460ff166127a75760405162461bcd60e51b8152600401610af890614966565b610b55816135bb565b600054610100900460ff166127d75760405162461bcd60e51b8152600401610af890614966565b610b55816135e2565b600054610100900460ff166128075760405162461bcd60e51b8152600401610af890614966565b6113ce613609565b61019354604051630748d63560e31b81526001600160a01b038581166004830152602482018590526000921690633a46b1a89060440160206040518083038186803b15801561285d57600080fd5b505afa158015612871573d6000803e3d6000fd5b505050506040513d601f19601f820116820180604052508101906115c4919061449a565b805460009080156128de57826128ac6001836146e8565b815481106128bc576128bc6146ff565b60009182526020909120015464010000000090046001600160e01b03166128e1565b60005b6001600160e01b03169392505050565b6101f854604080516001600160a01b03928316815291831660208301527f08f74ea46ef7894f65eabfb5e6e695de773a000b47c529ab559178069b226401910160405180910390a16101f880546001600160a01b0319166001600160a01b0392909216919091179055565b60606115c4848484604051806060016040528060298152602001614a2f60299139613639565b600081116129e25760405162461bcd60e51b815260206004820152602760248201527f476f7665726e6f7253657474696e67733a20766f74696e6720706572696f6420604482015266746f6f206c6f7760c81b6064820152608401610af8565b6101305460408051918252602082018390527f7e3f7f0708a84de9203036abaa450dccc85ad5ff52f78c170f3edb55cf5e8828910160405180910390a161013055565b6101315460408051918252602082018390527fccb45da8d5717e6c4544694297c4ba5cf151d455c9bb0ed4fc7a38411bc05461910160405180910390a161013155565b60006064612a7583611296565b61019354604051632394e7a360e21b8152600481018690526001600160a01b0390911690638e539e8c9060240160206040518083038186803b158015612aba57600080fd5b505afa158015612ace573d6000803e3d6000fd5b505050506040513d601f19601f82011682018060405250810190612af2919061449a565b612afc91906149b1565b6109b691906149d0565b60006001600160e01b0319821663bf26d89760e01b1480612b3757506001600160e01b031982166379dd796f60e01b145b80612b5257506001600160e01b03198216630271189760e51b145b806109b657506301ffc9a760e01b6001600160e01b03198316146109b6565b60006109a67f8b73c3c69bb8fe3d512ecc4cf759cc79239f7b179b0ffacaa9a75d522b39400f612ba060655490565b6066546040805160208101859052908101839052606081018290524660808201523060a082015260009060c0016040516020818303038152906040528051906020012090509392505050565b6000807f7fffffffffffffffffffffffffffffff5d576e7357a4501ddfe92f46681b20a0831115612c235750600090506003612cd0565b8460ff16601b14158015612c3b57508460ff16601c14155b15612c4c5750600090506004612cd0565b6040805160008082526020820180845289905260ff881692820192909252606081018690526080810185905260019060a0016020604051602081039080840390855afa158015612ca0573d6000803e3d6000fd5b5050604051601f1901519150506001600160a01b038116612cc957600060019250925050612cd0565b9150600090505b94509492505050565b6000816004811115612ced57612ced613f43565b1415612cf65750565b6001816004811115612d0a57612d0a613f43565b1415612d585760405162461bcd60e51b815260206004820152601860248201527f45434453413a20696e76616c6964207369676e617475726500000000000000006044820152606401610af8565b6002816004811115612d6c57612d6c613f43565b1415612dba5760405162461bcd60e51b815260206004820152601f60248201527f45434453413a20696e76616c6964207369676e6174757265206c656e677468006044820152606401610af8565b6003816004811115612dce57612dce613f43565b1415612e275760405162461bcd60e51b815260206004820152602260248201527f45434453413a20696e76616c6964207369676e6174757265202773272076616c604482015261756560f01b6064820152608401610af8565b6004816004811115612e3b57612e3b613f43565b1415610b555760405162461bcd60e51b815260206004820152602260248201527f45434453413a20696e76616c6964207369676e6174757265202776272076616c604482015261756560f01b6064820152608401610af8565b6000858152610161602090815260408083206001600160a01b0388168452600381019092529091205460ff1615612f1d5760405162461bcd60e51b815260206004820152602760248201527f476f7665726e6f72566f74696e6753696d706c653a20766f746520616c726561604482015266191e4818d85cdd60ca1b6064820152608401610af8565b6001600160a01b03851660009081526003820160205260408120805460ff1916600117905560ff168460ff161415612f6e5782816000016000828254612f639190614638565b90915550611e7a9050565b60ff841660011415612f8e5782816001016000828254612f639190614638565b60ff841660021415612fae5782816002016000828254612f639190614638565b60405162461bcd60e51b815260206004820152603560248201527f476f7665726e6f72566f74696e6753696d706c653a20696e76616c69642076616044820152746c756520666f7220656e756d20566f74655479706560581b6064820152608401610af8565b60006001600160e01b0382111561307d5760405162461bcd60e51b815260206004820152602760248201527f53616665436173743a2076616c756520646f65736e27742066697420696e20326044820152663234206269747360c81b6064820152608401610af8565b5090565b815460009081908161309286612895565b90506000821180156130d0575043866130ac6001856146e8565b815481106130bc576130bc6146ff565b60009182526020909120015463ffffffff16145b15613130576130de85613014565b866130ea6001856146e8565b815481106130fa576130fa6146ff565b9060005260206000200160000160046101000a8154816001600160e01b0302191690836001600160e01b0316021790555061319e565b8560000160405180604001604052806131484361375f565b63ffffffff16815260200161315c88613014565b6001600160e01b0390811690915282546001810184556000938452602093849020835194909301519091166401000000000263ffffffff909316929092179101555b9250839150505b9250929050565b8154600160801b90819004600f0b6000818152600180860160205260409091209390935583546001600160801b03908116939091011602179055565b6101f85460405163e38335e560e01b81526001600160a01b039091169063e38335e590349061322490889088908890600090899060040161457c565b6000604051808303818588803b15801561323d57600080fd5b505af1158015613251573d6000803e3d6000fd5b50505050505050505050565b6001600160a01b0381163b6132ca5760405162461bcd60e51b815260206004820152602d60248201527f455243313936373a206e657720696d706c656d656e746174696f6e206973206e60448201526c1bdd08184818dbdb9d1c9858dd609a1b6064820152608401610af8565b600080516020614a0f83398151915280546001600160a01b0319166001600160a01b0392909216919091179055565b613302836137c4565b60008251118061330f5750805b15611f035761331e8383613804565b50505050565b600081815260fe60205260408120600281015460ff16156133485750600792915050565b6002810154610100900460ff16156133635750600292915050565b600061336e84610efe565b9050806133bd5760405162461bcd60e51b815260206004820152601d60248201527f476f7665726e6f723a20756e6b6e6f776e2070726f706f73616c2069640000006044820152606401610af8565b4381106133ce575060009392505050565b60006133d985611730565b90504381106133ed57506001949350505050565b6133f6856138ef565b801561341657506000858152610161602052604090208054600190910154115b1561342657506004949350505050565b506003949350505050565b600061344060028484186149d0565b6115c790848416614638565b60006001600160401b0382111561307d5760405162461bcd60e51b815260206004820152602660248201527f53616665436173743a2076616c756520646f65736e27742066697420696e203660448201526534206269747360d01b6064820152608401610af8565b600054610100900460ff166134db5760405162461bcd60e51b8152600401610af890614966565b815160209283012081519190920120606591909155606655565b600054610100900460ff1661351c5760405162461bcd60e51b8152600401610af890614966565b805161116c9060fd906020840190613960565b600054610100900460ff166135565760405162461bcd60e51b8152600401610af890614966565b61355f836122ec565b61356882612982565b611f0381612a25565b600054610100900460ff166135985760405162461bcd60e51b8152600401610af890614966565b61019380546001600160a01b0319166001600160a01b0392909216919091179055565b600054610100900460ff16610b4c5760405162461bcd60e51b8152600401610af890614966565b600054610100900460ff166116705760405162461bcd60e51b8152600401610af890614966565b600054610100900460ff166136305760405162461bcd60e51b8152600401610af890614966565b6113ce3361238a565b60608247101561369a5760405162461bcd60e51b815260206004820152602660248201527f416464726573733a20696e73756666696369656e742062616c616e636520666f6044820152651c8818d85b1b60d21b6064820152608401610af8565b6001600160a01b0385163b6136f15760405162461bcd60e51b815260206004820152601d60248201527f416464726573733a2063616c6c20746f206e6f6e2d636f6e74726163740000006044820152606401610af8565b600080866001600160a01b0316858760405161370d91906149f2565b60006040518083038185875af1925050503d806000811461374a576040519150601f19603f3d011682016040523d82523d6000602084013e61374f565b606091505b5091509150611089828286613927565b600063ffffffff82111561307d5760405162461bcd60e51b815260206004820152602660248201527f53616665436173743a2076616c756520646f65736e27742066697420696e203360448201526532206269747360d01b6064820152608401610af8565b6137cd8161325d565b6040516001600160a01b038216907fbc7cd75a20ee27fd9adebab32041f755214dbc6bffa90cc0225b39da2e5c2d3b90600090a250565b60606001600160a01b0383163b61386c5760405162461bcd60e51b815260206004820152602660248201527f416464726573733a2064656c65676174652063616c6c20746f206e6f6e2d636f6044820152651b9d1c9858dd60d21b6064820152608401610af8565b600080846001600160a01b03168460405161388791906149f2565b600060405180830381855af49150503d80600081146138c2576040519150601f19603f3d011682016040523d82523d6000602084013e6138c7565b606091505b50915091506114308282604051806060016040528060278152602001614a5860279139613927565b600081815261016160205260408120600281015460018201546139129190614638565b61391e61096b85610efe565b11159392505050565b606083156139365750816115c7565b8251156139465782518084602001fd5b8160405162461bcd60e51b8152600401610af89190613c45565b82805461396c9061441e565b90600052602060002090601f01602090048101928261398e57600085556139d4565b82601f106139a757805160ff19168380011785556139d4565b828001600101855582156139d4579182015b828111156139d45782518255916020019190600101906139b9565b5061307d9291505b8082111561307d57600081556001016139dc565b600060208284031215613a0257600080fd5b81356001600160e01b0319811681146115c757600080fd5b803560ff81168114613a2b57600080fd5b919050565b60008083601f840112613a4257600080fd5b5081356001600160401b03811115613a5957600080fd5b6020830191508360208285010111156131a557600080fd5b634e487b7160e01b600052604160045260246000fd5b604051601f8201601f191681016001600160401b0381118282101715613aaf57613aaf613a71565b604052919050565b60006001600160401b03831115613ad057613ad0613a71565b613ae3601f8401601f1916602001613a87565b9050828152838383011115613af757600080fd5b828260208301376000602084830101529392505050565b600082601f830112613b1f57600080fd5b6115c783833560208501613ab7565b60008060008060008060008060e0898b031215613b4a57600080fd5b88359750613b5a60208a01613a1a565b965060408901356001600160401b0380821115613b7657600080fd5b613b828c838d01613a30565b909850965060608b0135915080821115613b9b57600080fd5b50613ba88b828c01613b0e565b945050613bb760808a01613a1a565b925060a0890135915060c089013590509295985092959890939650565b600060208284031215613be657600080fd5b5035919050565b60005b83811015613c08578181015183820152602001613bf0565b8381111561331e5750506000910152565b60008151808452613c31816020860160208601613bed565b601f01601f19169290920160200192915050565b6020815260006115c76020830184613c19565b6001600160a01b0381168114610b5557600080fd5b60008060008060808587031215613c8357600080fd5b8435613c8e81613c58565b93506020850135613c9e81613c58565b92506040850135915060608501356001600160401b03811115613cc057600080fd5b613ccc87828801613b0e565b91505092959194509250565b60006001600160401b03821115613cf157613cf1613a71565b5060051b60200190565b600082601f830112613d0c57600080fd5b81356020613d21613d1c83613cd8565b613a87565b82815260059290921b84018101918181019086841115613d4057600080fd5b8286015b84811015613d64578035613d5781613c58565b8352918301918301613d44565b509695505050505050565b600082601f830112613d8057600080fd5b81356020613d90613d1c83613cd8565b82815260059290921b84018101918181019086841115613daf57600080fd5b8286015b84811015613d645780358352918301918301613db3565b600082601f830112613ddb57600080fd5b81356020613deb613d1c83613cd8565b82815260059290921b84018101918181019086841115613e0a57600080fd5b8286015b84811015613d645780356001600160401b03811115613e2d5760008081fd5b613e3b8986838b0101613b0e565b845250918301918301613e0e565b60008060008060808587031215613e5f57600080fd5b84356001600160401b0380821115613e7657600080fd5b613e8288838901613cfb565b95506020870135915080821115613e9857600080fd5b613ea488838901613d6f565b94506040870135915080821115613eba57600080fd5b50613ec787828801613dca565b949793965093946060013593505050565b600060208284031215613eea57600080fd5b81356115c781613c58565b600080600080600060a08688031215613f0d57600080fd5b85359450613f1d60208701613a1a565b9350613f2b60408701613a1a565b94979396509394606081013594506080013592915050565b634e487b7160e01b600052602160045260246000fd5b6020810160088310613f7b57634e487b7160e01b600052602160045260246000fd5b91905290565b60008060408385031215613f9457600080fd5b823591506020830135613fa681613c58565b809150509250929050565b60008060408385031215613fc457600080fd5b8235613fcf81613c58565b915060208301356001600160401b03811115613fea57600080fd5b613ff685828601613b0e565b9150509250929050565b6000806040838503121561401357600080fd5b8235915061402360208401613a1a565b90509250929050565b60008060008060006080868803121561404457600080fd5b8535945061405460208701613a1a565b935060408601356001600160401b038082111561407057600080fd5b61407c89838a01613a30565b9095509350606088013591508082111561409557600080fd5b506140a288828901613b0e565b9150509295509295909350565b600080600080606085870312156140c557600080fd5b843593506140d560208601613a1a565b925060408501356001600160401b038111156140f057600080fd5b6140fc87828801613a30565b95989497509550505050565b6000806000806080858703121561411e57600080fd5b84356001600160401b038082111561413557600080fd5b61414188838901613cfb565b9550602087013591508082111561415757600080fd5b61416388838901613d6f565b9450604087013591508082111561417957600080fd5b61418588838901613dca565b9350606087013591508082111561419b57600080fd5b508501601f810187136141ad57600080fd5b613ccc87823560208401613ab7565b60008060008060008060c087890312156141d557600080fd5b86356141e081613c58565b955060208701356141f081613c58565b95989597505050506040840135936060810135936080820135935060a0909101359150565b60008060006060848603121561422a57600080fd5b833561423581613c58565b92506020840135915060408401356001600160401b0381111561425757600080fd5b61426386828701613b0e565b9150509250925092565b600080600080600060a0868803121561428557600080fd5b853561429081613c58565b945060208601356142a081613c58565b935060408601356001600160401b03808211156142bc57600080fd5b6142c889838a01613d6f565b945060608801359150808211156142de57600080fd5b6142ea89838a01613d6f565b9350608088013591508082111561409557600080fd5b6000806000806060858703121561431657600080fd5b843561432181613c58565b93506020850135925060408501356001600160401b038111156140f057600080fd5b6000806040838503121561435657600080fd5b823561436181613c58565b946020939093013593505050565b600080600080600060a0868803121561438757600080fd5b853561439281613c58565b945060208601356143a281613c58565b9350604086013592506060860135915060808601356001600160401b038111156143cb57600080fd5b6140a288828901613b0e565b8183823760009101908152919050565b60208082526018908201527f476f7665726e6f723a206f6e6c79476f7665726e616e63650000000000000000604082015260600190565b600181811c9082168061443257607f821691505b6020821081141561445357634e487b7160e01b600052602260045260246000fd5b50919050565b60208082526021908201527f476f7665726e6f723a2070726f706f73616c206e6f74207375636365737366756040820152601b60fa1b606082015260800190565b6000602082840312156144ac57600080fd5b5051919050565b600081518084526020808501945080840160005b838110156144ec5781516001600160a01b0316875295820195908201906001016144c7565b509495945050505050565b600081518084526020808501945080840160005b838110156144ec5781518752958201959082019060010161450b565b600081518084526020808501808196508360051b8101915082860160005b8581101561456f57828403895261455d848351613c19565b98850198935090840190600101614545565b5091979650505050505050565b60a08152600061458f60a08301886144b3565b82810360208401526145a181886144f7565b905082810360408401526145b58187614527565b60608401959095525050608001529392505050565b60c0815260006145dd60c08301896144b3565b82810360208401526145ef81896144f7565b905082810360408401526146038188614527565b60608401969096525050608081019290925260a0909101529392505050565b634e487b7160e01b600052601160045260246000fd5b6000821982111561464b5761464b614622565b500190565b6020808252602c908201527f46756e6374696f6e206d7573742062652063616c6c6564207468726f7567682060408201526b19195b1959d85d1958d85b1b60a21b606082015260800190565b6020808252602c908201527f46756e6374696f6e206d7573742062652063616c6c6564207468726f7567682060408201526b6163746976652070726f787960a01b606082015260800190565b6000828210156146fa576146fa614622565b500390565b634e487b7160e01b600052603260045260246000fd5b60808152600061472860808301876144b3565b828103602084015261473a81876144f7565b9050828103604084015261474e8186614527565b91505082606083015295945050505050565b84815260ff841660208201528260408201526080606082015260006114186080830184613c19565b85815260ff8516602082015283604082015260a0606082015260006147b060a0830185613c19565b82810360808401526147c28185613c19565b98975050505050505050565b60006000198214156147e2576147e2614622565b5060010190565b6000602082840312156147fb57600080fd5b815180151581146115c757600080fd5b60208082526021908201527f476f7665726e6f723a20696e76616c69642070726f706f73616c206c656e67746040820152600d60fb1b606082015260800190565b60006001600160401b0380831681851680830382111561486e5761486e614622565b01949350505050565b60006101208b8352602060018060a01b038c16818501528160408501526148a08285018c6144b3565b915083820360608501526148b4828b6144f7565b915083820360808501528189518084528284019150828160051b850101838c0160005b8381101561490557601f198784030185526148f3838351613c19565b948601949250908501906001016148d7565b505086810360a0880152614919818c614527565b94505050505061493460c08401876001600160401b03169052565b6001600160401b03851660e08401528281036101008401526149568185613c19565b9c9b505050505050505050505050565b6020808252602b908201527f496e697469616c697a61626c653a20636f6e7472616374206973206e6f74206960408201526a6e697469616c697a696e6760a81b606082015260800190565b60008160001904831182151516156149cb576149cb614622565b500290565b6000826149ed57634e487b7160e01b600052601260045260246000fd5b500490565b60008251614a04818460208701613bed565b919091019291505056fe360894a13ba1a3210667c828492db98dca3e2076cc3735a920a3ca505d382bbc416464726573733a206c6f772d6c6576656c2063616c6c20776974682076616c7565206661696c6564416464726573733a206c6f772d6c6576656c2064656c65676174652063616c6c206661696c6564a264697066735822122091629f0f6731e633924d6c153c0ab1a2e5fe1f217db78168137030d4534a92e464736f6c63430008090033",
  "linkReferences": {},
  "deployedLinkReferences": {}
}