{
  "_format": "hh-sol-artifact-1",
  "contractName": "TimeLock",
  "sourceName": "contracts/governance/TimeLock.sol",
  "abi": [
    {
      "inputs": [],
      "stateMutability": "nonpayable",
      "type": "constructor"
    },
    {
      "anonymous": false,
      "inputs": [
        {
          "indexed": false,
          "internalType": "address",
          "name": "previousAdmin",
          "type": "address"
        },
        {
          "indexed": false,
          "internalType": "address",
          "name": "newAdmin",
          "type": "address"
        }
      ],
      "name": "AdminChanged",
      "type": "event"
    },
    {
      "anonymous": false,
      "inputs": [
        {
          "indexed": true,
          "internalType": "address",
          "name": "beacon",
          "type": "address"
        }
      ],
      "name": "BeaconUpgraded",
      "type": "event"
    },
    {
      "anonymous": false,
      "inputs": [
        {
          "indexed": true,
          "internalType": "bytes32",
          "name": "id",
          "type": "bytes32"
        },
        {
          "indexed": true,
          "internalType": "uint256",
          "name": "index",
          "type": "uint256"
        },
        {
          "indexed": false,
          "internalType": "address",
          "name": "target",
          "type": "address"
        },
        {
          "indexed": false,
          "internalType": "uint256",
          "name": "value",
          "type": "uint256"
        },
        {
          "indexed": false,
          "internalType": "bytes",
          "name": "data",
          "type": "bytes"
        }
      ],
      "name": "CallExecuted",
      "type": "event"
    },
    {
      "anonymous": false,
      "inputs": [
        {
          "indexed": true,
          "internalType": "bytes32",
          "name": "id",
          "type": "bytes32"
        },
        {
          "indexed": true,
          "internalType": "uint256",
          "name": "index",
          "type": "uint256"
        },
        {
          "indexed": false,
          "internalType": "address",
          "name": "target",
          "type": "address"
        },
        {
          "indexed": false,
          "internalType": "uint256",
          "name": "value",
          "type": "uint256"
        },
        {
          "indexed": false,
          "internalType": "bytes",
          "name": "data",
          "type": "bytes"
        },
        {
          "indexed": false,
          "internalType": "bytes32",
          "name": "predecessor",
          "type": "bytes32"
        },
        {
          "indexed": false,
          "internalType": "uint256",
          "name": "delay",
          "type": "uint256"
        }
      ],
      "name": "CallScheduled",
      "type": "event"
    },
    {
      "anonymous": false,
      "inputs": [
        {
          "indexed": true,
          "internalType": "bytes32",
          "name": "id",
          "type": "bytes32"
        }
      ],
      "name": "Cancelled",
      "type": "event"
    },
    {
      "anonymous": false,
      "inputs": [
        {
          "indexed": false,
          "internalType": "uint8",
          "name": "version",
          "type": "uint8"
        }
      ],
      "name": "Initialized",
      "type": "event"
    },
    {
      "anonymous": false,
      "inputs": [
        {
          "indexed": false,
          "internalType": "uint256",
          "name": "oldDuration",
          "type": "uint256"
        },
        {
          "indexed": false,
          "internalType": "uint256",
          "name": "newDuration",
          "type": "uint256"
        }
      ],
      "name": "MinDelayChange",
      "type": "event"
    },
    {
      "anonymous": false,
      "inputs": [
        {
          "indexed": true,
          "internalType": "address",
          "name": "previousOwner",
          "type": "address"
        },
        {
          "indexed": true,
          "internalType": "address",
          "name": "newOwner",
          "type": "address"
        }
      ],
      "name": "OwnershipTransferred",
      "type": "event"
    },
    {
      "anonymous": false,
      "inputs": [
        {
          "indexed": true,
          "internalType": "bytes32",
          "name": "role",
          "type": "bytes32"
        },
        {
          "indexed": true,
          "internalType": "bytes32",
          "name": "previousAdminRole",
          "type": "bytes32"
        },
        {
          "indexed": true,
          "internalType": "bytes32",
          "name": "newAdminRole",
          "type": "bytes32"
        }
      ],
      "name": "RoleAdminChanged",
      "type": "event"
    },
    {
      "anonymous": false,
      "inputs": [
        {
          "indexed": true,
          "internalType": "bytes32",
          "name": "role",
          "type": "bytes32"
        },
        {
          "indexed": true,
          "internalType": "address",
          "name": "account",
          "type": "address"
        },
        {
          "indexed": true,
          "internalType": "address",
          "name": "sender",
          "type": "address"
        }
      ],
      "name": "RoleGranted",
      "type": "event"
    },
    {
      "anonymous": false,
      "inputs": [
        {
          "indexed": true,
          "internalType": "bytes32",
          "name": "role",
          "type": "bytes32"
        },
        {
          "indexed": true,
          "internalType": "address",
          "name": "account",
          "type": "address"
        },
        {
          "indexed": true,
          "internalType": "address",
          "name": "sender",
          "type": "address"
        }
      ],
      "name": "RoleRevoked",
      "type": "event"
    },
    {
      "anonymous": false,
      "inputs": [
        {
          "indexed": true,
          "internalType": "address",
          "name": "implementation",
          "type": "address"
        }
      ],
      "name": "Upgraded",
      "type": "event"
    },
    {
      "inputs": [],
      "name": "CANCELLER_ROLE",
      "outputs": [
        {
          "internalType": "bytes32",
          "name": "",
          "type": "bytes32"
        }
      ],
      "stateMutability": "view",
      "type": "function"
    },
    {
      "inputs": [],
      "name": "DEFAULT_ADMIN_ROLE",
      "outputs": [
        {
          "internalType": "bytes32",
          "name": "",
          "type": "bytes32"
        }
      ],
      "stateMutability": "view",
      "type": "function"
    },
    {
      "inputs": [],
      "name": "EXECUTOR_ROLE",
      "outputs": [
        {
          "internalType": "bytes32",
          "name": "",
          "type": "bytes32"
        }
      ],
      "stateMutability": "view",
      "type": "function"
    },
    {
      "inputs": [],
      "name": "PROPOSER_ROLE",
      "outputs": [
        {
          "internalType": "bytes32",
          "name": "",
          "type": "bytes32"
        }
      ],
      "stateMutability": "view",
      "type": "function"
    },
    {
      "inputs": [],
      "name": "TIMELOCK_ADMIN_ROLE",
      "outputs": [
        {
          "internalType": "bytes32",
          "name": "",
          "type": "bytes32"
        }
      ],
      "stateMutability": "view",
      "type": "function"
    },
    {
      "inputs": [
        {
          "internalType": "bytes32",
          "name": "id",
          "type": "bytes32"
        }
      ],
      "name": "cancel",
      "outputs": [],
      "stateMutability": "nonpayable",
      "type": "function"
    },
    {
      "inputs": [
        {
          "internalType": "address",
          "name": "target",
          "type": "address"
        },
        {
          "internalType": "uint256",
          "name": "value",
          "type": "uint256"
        },
        {
          "internalType": "bytes",
          "name": "payload",
          "type": "bytes"
        },
        {
          "internalType": "bytes32",
          "name": "predecessor",
          "type": "bytes32"
        },
        {
          "internalType": "bytes32",
          "name": "salt",
          "type": "bytes32"
        }
      ],
      "name": "execute",
      "outputs": [],
      "stateMutability": "payable",
      "type": "function"
    },
    {
      "inputs": [
        {
          "internalType": "address[]",
          "name": "targets",
          "type": "address[]"
        },
        {
          "internalType": "uint256[]",
          "name": "values",
          "type": "uint256[]"
        },
        {
          "internalType": "bytes[]",
          "name": "payloads",
          "type": "bytes[]"
        },
        {
          "internalType": "bytes32",
          "name": "predecessor",
          "type": "bytes32"
        },
        {
          "internalType": "bytes32",
          "name": "salt",
          "type": "bytes32"
        }
      ],
      "name": "executeBatch",
      "outputs": [],
      "stateMutability": "payable",
      "type": "function"
    },
    {
      "inputs": [],
      "name": "getMinDelay",
      "outputs": [
        {
          "internalType": "uint256",
          "name": "duration",
          "type": "uint256"
        }
      ],
      "stateMutability": "view",
      "type": "function"
    },
    {
      "inputs": [
        {
          "internalType": "bytes32",
          "name": "role",
          "type": "bytes32"
        }
      ],
      "name": "getRoleAdmin",
      "outputs": [
        {
          "internalType": "bytes32",
          "name": "",
          "type": "bytes32"
        }
      ],
      "stateMutability": "view",
      "type": "function"
    },
    {
      "inputs": [
        {
          "internalType": "bytes32",
          "name": "id",
          "type": "bytes32"
        }
      ],
      "name": "getTimestamp",
      "outputs": [
        {
          "internalType": "uint256",
          "name": "timestamp",
          "type": "uint256"
        }
      ],
      "stateMutability": "view",
      "type": "function"
    },
    {
      "inputs": [
        {
          "internalType": "bytes32",
          "name": "role",
          "type": "bytes32"
        },
        {
          "internalType": "address",
          "name": "account",
          "type": "address"
        }
      ],
      "name": "grantRole",
      "outputs": [],
      "stateMutability": "nonpayable",
      "type": "function"
    },
    {
      "inputs": [
        {
          "internalType": "bytes32",
          "name": "role",
          "type": "bytes32"
        },
        {
          "internalType": "address",
          "name": "account",
          "type": "address"
        }
      ],
      "name": "hasRole",
      "outputs": [
        {
          "internalType": "bool",
          "name": "",
          "type": "bool"
        }
      ],
      "stateMutability": "view",
      "type": "function"
    },
    {
      "inputs": [
        {
          "internalType": "address",
          "name": "target",
          "type": "address"
        },
        {
          "internalType": "uint256",
          "name": "value",
          "type": "uint256"
        },
        {
          "internalType": "bytes",
          "name": "data",
          "type": "bytes"
        },
        {
          "internalType": "bytes32",
          "name": "predecessor",
          "type": "bytes32"
        },
        {
          "internalType": "bytes32",
          "name": "salt",
          "type": "bytes32"
        }
      ],
      "name": "hashOperation",
      "outputs": [
        {
          "internalType": "bytes32",
          "name": "hash",
          "type": "bytes32"
        }
      ],
      "stateMutability": "pure",
      "type": "function"
    },
    {
      "inputs": [
        {
          "internalType": "address[]",
          "name": "targets",
          "type": "address[]"
        },
        {
          "internalType": "uint256[]",
          "name": "values",
          "type": "uint256[]"
        },
        {
          "internalType": "bytes[]",
          "name": "payloads",
          "type": "bytes[]"
        },
        {
          "internalType": "bytes32",
          "name": "predecessor",
          "type": "bytes32"
        },
        {
          "internalType": "bytes32",
          "name": "salt",
          "type": "bytes32"
        }
      ],
      "name": "hashOperationBatch",
      "outputs": [
        {
          "internalType": "bytes32",
          "name": "hash",
          "type": "bytes32"
        }
      ],
      "stateMutability": "pure",
      "type": "function"
    },
    {
      "inputs": [
        {
          "internalType": "uint256",
          "name": "minDelay",
          "type": "uint256"
        },
        {
          "internalType": "address[]",
          "name": "proposers",
          "type": "address[]"
        },
        {
          "internalType": "address[]",
          "name": "executors",
          "type": "address[]"
        }
      ],
      "name": "initialize",
      "outputs": [],
      "stateMutability": "nonpayable",
      "type": "function"
    },
    {
      "inputs": [
        {
          "internalType": "bytes32",
          "name": "id",
          "type": "bytes32"
        }
      ],
      "name": "isOperation",
      "outputs": [
        {
          "internalType": "bool",
          "name": "registered",
          "type": "bool"
        }
      ],
      "stateMutability": "view",
      "type": "function"
    },
    {
      "inputs": [
        {
          "internalType": "bytes32",
          "name": "id",
          "type": "bytes32"
        }
      ],
      "name": "isOperationDone",
      "outputs": [
        {
          "internalType": "bool",
          "name": "done",
          "type": "bool"
        }
      ],
      "stateMutability": "view",
      "type": "function"
    },
    {
      "inputs": [
        {
          "internalType": "bytes32",
          "name": "id",
          "type": "bytes32"
        }
      ],
      "name": "isOperationPending",
      "outputs": [
        {
          "internalType": "bool",
          "name": "pending",
          "type": "bool"
        }
      ],
      "stateMutability": "view",
      "type": "function"
    },
    {
      "inputs": [
        {
          "internalType": "bytes32",
          "name": "id",
          "type": "bytes32"
        }
      ],
      "name": "isOperationReady",
      "outputs": [
        {
          "internalType": "bool",
          "name": "ready",
          "type": "bool"
        }
      ],
      "stateMutability": "view",
      "type": "function"
    },
    {
      "inputs": [
        {
          "internalType": "address",
          "name": "",
          "type": "address"
        },
        {
          "internalType": "address",
          "name": "",
          "type": "address"
        },
        {
          "internalType": "uint256[]",
          "name": "",
          "type": "uint256[]"
        },
        {
          "internalType": "uint256[]",
          "name": "",
          "type": "uint256[]"
        },
        {
          "internalType": "bytes",
          "name": "",
          "type": "bytes"
        }
      ],
      "name": "onERC1155BatchReceived",
      "outputs": [
        {
          "internalType": "bytes4",
          "name": "",
          "type": "bytes4"
        }
      ],
      "stateMutability": "nonpayable",
      "type": "function"
    },
    {
      "inputs": [
        {
          "internalType": "address",
          "name": "",
          "type": "address"
        },
        {
          "internalType": "address",
          "name": "",
          "type": "address"
        },
        {
          "internalType": "uint256",
          "name": "",
          "type": "uint256"
        },
        {
          "internalType": "uint256",
          "name": "",
          "type": "uint256"
        },
        {
          "internalType": "bytes",
          "name": "",
          "type": "bytes"
        }
      ],
      "name": "onERC1155Received",
      "outputs": [
        {
          "internalType": "bytes4",
          "name": "",
          "type": "bytes4"
        }
      ],
      "stateMutability": "nonpayable",
      "type": "function"
    },
    {
      "inputs": [
        {
          "internalType": "address",
          "name": "",
          "type": "address"
        },
        {
          "internalType": "address",
          "name": "",
          "type": "address"
        },
        {
          "internalType": "uint256",
          "name": "",
          "type": "uint256"
        },
        {
          "internalType": "bytes",
          "name": "",
          "type": "bytes"
        }
      ],
      "name": "onERC721Received",
      "outputs": [
        {
          "internalType": "bytes4",
          "name": "",
          "type": "bytes4"
        }
      ],
      "stateMutability": "nonpayable",
      "type": "function"
    },
    {
      "inputs": [],
      "name": "owner",
      "outputs": [
        {
          "internalType": "address",
          "name": "",
          "type": "address"
        }
      ],
      "stateMutability": "view",
      "type": "function"
    },
    {
      "inputs": [],
      "name": "proxiableUUID",
      "outputs": [
        {
          "internalType": "bytes32",
          "name": "",
          "type": "bytes32"
        }
      ],
      "stateMutability": "view",
      "type": "function"
    },
    {
      "inputs": [],
      "name": "renounceOwnership",
      "outputs": [],
      "stateMutability": "nonpayable",
      "type": "function"
    },
    {
      "inputs": [
        {
          "internalType": "bytes32",
          "name": "role",
          "type": "bytes32"
        },
        {
          "internalType": "address",
          "name": "account",
          "type": "address"
        }
      ],
      "name": "renounceRole",
      "outputs": [],
      "stateMutability": "nonpayable",
      "type": "function"
    },
    {
      "inputs": [
        {
          "internalType": "bytes32",
          "name": "role",
          "type": "bytes32"
        },
        {
          "internalType": "address",
          "name": "account",
          "type": "address"
        }
      ],
      "name": "revokeRole",
      "outputs": [],
      "stateMutability": "nonpayable",
      "type": "function"
    },
    {
      "inputs": [
        {
          "internalType": "address",
          "name": "target",
          "type": "address"
        },
        {
          "internalType": "uint256",
          "name": "value",
          "type": "uint256"
        },
        {
          "internalType": "bytes",
          "name": "data",
          "type": "bytes"
        },
        {
          "internalType": "bytes32",
          "name": "predecessor",
          "type": "bytes32"
        },
        {
          "internalType": "bytes32",
          "name": "salt",
          "type": "bytes32"
        },
        {
          "internalType": "uint256",
          "name": "delay",
          "type": "uint256"
        }
      ],
      "name": "schedule",
      "outputs": [],
      "stateMutability": "nonpayable",
      "type": "function"
    },
    {
      "inputs": [
        {
          "internalType": "address[]",
          "name": "targets",
          "type": "address[]"
        },
        {
          "internalType": "uint256[]",
          "name": "values",
          "type": "uint256[]"
        },
        {
          "internalType": "bytes[]",
          "name": "payloads",
          "type": "bytes[]"
        },
        {
          "internalType": "bytes32",
          "name": "predecessor",
          "type": "bytes32"
        },
        {
          "internalType": "bytes32",
          "name": "salt",
          "type": "bytes32"
        },
        {
          "internalType": "uint256",
          "name": "delay",
          "type": "uint256"
        }
      ],
      "name": "scheduleBatch",
      "outputs": [],
      "stateMutability": "nonpayable",
      "type": "function"
    },
    {
      "inputs": [
        {
          "internalType": "bytes4",
          "name": "interfaceId",
          "type": "bytes4"
        }
      ],
      "name": "supportsInterface",
      "outputs": [
        {
          "internalType": "bool",
          "name": "",
          "type": "bool"
        }
      ],
      "stateMutability": "view",
      "type": "function"
    },
    {
      "inputs": [
        {
          "internalType": "address",
          "name": "newOwner",
          "type": "address"
        }
      ],
      "name": "transferOwnership",
      "outputs": [],
      "stateMutability": "nonpayable",
      "type": "function"
    },
    {
      "inputs": [
        {
          "internalType": "uint256",
          "name": "newDelay",
          "type": "uint256"
        }
      ],
      "name": "updateDelay",
      "outputs": [],
      "stateMutability": "nonpayable",
      "type": "function"
    },
    {
      "inputs": [
        {
          "internalType": "address",
          "name": "newImplementation",
          "type": "address"
        }
      ],
      "name": "upgradeTo",
      "outputs": [],
      "stateMutability": "nonpayable",
      "type": "function"
    },
    {
      "inputs": [
        {
          "internalType": "address",
          "name": "newImplementation",
          "type": "address"
        },
        {
          "internalType": "bytes",
          "name": "data",
          "type": "bytes"
        }
      ],
      "name": "upgradeToAndCall",
      "outputs": [],
      "stateMutability": "payable",
      "type": "function"
    },
    {
      "stateMutability": "payable",
      "type": "receive"
    }
  ],
  "bytecode": "0x60a0604052306080523480156200001557600080fd5b506200002062000026565b620000e8565b600054610100900460ff1615620000935760405162461bcd60e51b815260206004820152602760248201527f496e697469616c697a61626c653a20636f6e747261637420697320696e697469604482015266616c697a696e6760c81b606482015260840160405180910390fd5b60005460ff9081161015620000e6576000805460ff191660ff9081179091556040519081527f7f26b83ff96e1f2b6a682f133852f6798a09c465da95921460cefb38474024989060200160405180910390a15b565b608051612c89620001206000396000818161090701528181610947015281816109e701528181610a270152610ab60152612c896000f3fe6080604052600436106102085760003560e01c8063715018a611610118578063b1c5f427116100a0578063d547741f1161006f578063d547741f1461062b578063e38335e51461064b578063f23a6e611461065e578063f27a0c921461068a578063f2fde38b1461069f57600080fd5b8063b1c5f42714610592578063bc197c81146105b2578063c4d252f5146105de578063d45c4435146105fe57600080fd5b80638f2a0bb0116100e75780638f2a0bb0146104f95780638f61f4f51461051957806391d148541461053b578063a217fddf1461055b578063b08e51c01461057057600080fd5b8063715018a61461047c5780637fbc79c6146104915780638065657f146104b15780638da5cb5b146104d157600080fd5b80632ab0f5291161019b5780633659cfe61161016a5780633659cfe6146103f45780634f1ef2861461041457806352d1902d14610427578063584b153e1461043c57806364d623531461045c57600080fd5b80632ab0f529146103645780632f2ff15d1461039457806331d50750146103b457806336568abe146103d457600080fd5b8063134008d3116101d7578063134008d3146102bd57806313bc9f20146102d0578063150b7a02146102f0578063248a9ca31461033457600080fd5b806301d5062a1461021457806301ffc9a71461023657806307bd02651461026b5780630d3cf6fc1461029b57600080fd5b3661020f57005b600080fd5b34801561022057600080fd5b5061023461022f366004611f7d565b6106bf565b005b34801561024257600080fd5b50610256610251366004611ff1565b610742565b60405190151581526020015b60405180910390f35b34801561027757600080fd5b5061028d600080516020612c1483398151915281565b604051908152602001610262565b3480156102a757600080fd5b5061028d600080516020612bad83398151915281565b6102346102cb36600461201b565b61076d565b3480156102dc57600080fd5b506102566102eb366004612086565b610810565b3480156102fc57600080fd5b5061031b61030b366004612154565b630a85bd0160e11b949350505050565b6040516001600160e01b03199091168152602001610262565b34801561034057600080fd5b5061028d61034f366004612086565b60009081526065602052604090206001015490565b34801561037057600080fd5b5061025661037f366004612086565b60009081526097602052604090205460011490565b3480156103a057600080fd5b506102346103af3660046121bb565b610836565b3480156103c057600080fd5b506102566103cf366004612086565b610860565b3480156103e057600080fd5b506102346103ef3660046121bb565b610879565b34801561040057600080fd5b5061023461040f3660046121e7565b6108fc565b610234610422366004612202565b6109dc565b34801561043357600080fd5b5061028d610aa9565b34801561044857600080fd5b50610256610457366004612086565b610b5c565b34801561046857600080fd5b50610234610477366004612086565b610b73565b34801561048857600080fd5b50610234610c17565b34801561049d57600080fd5b506102346104ac3660046122e4565b610c2b565b3480156104bd57600080fd5b5061028d6104cc36600461201b565b610d52565b3480156104dd57600080fd5b5060c9546040516001600160a01b039091168152602001610262565b34801561050557600080fd5b50610234610514366004612394565b610d91565b34801561052557600080fd5b5061028d600080516020612bf483398151915281565b34801561054757600080fd5b506102566105563660046121bb565b610ed1565b34801561056757600080fd5b5061028d600081565b34801561057c57600080fd5b5061028d600080516020612c3483398151915281565b34801561059e57600080fd5b5061028d6105ad366004612445565b610efc565b3480156105be57600080fd5b5061031b6105cd366004612548565b63bc197c8160e01b95945050505050565b3480156105ea57600080fd5b506102346105f9366004612086565b610f41565b34801561060a57600080fd5b5061028d610619366004612086565b60009081526097602052604090205490565b34801561063757600080fd5b506102346106463660046121bb565b611004565b610234610659366004612445565b611029565b34801561066a57600080fd5b5061031b6106793660046125f1565b63f23a6e6160e01b95945050505050565b34801561069657600080fd5b5060985461028d565b3480156106ab57600080fd5b506102346106ba3660046121e7565b6111a1565b600080516020612bf48339815191526106d781611217565b60006106e7898989898989610d52565b90506106f38184611221565b6000817f4cf4410cc57040e44862ef0f45f3dd5a5e02db8eb8add648d4b0e236f1d07dca8b8b8b8b8b8a60405161072f9695949392919061267e565b60405180910390a3505050505050505050565b60006001600160e01b03198216630271189760e51b1480610767575061076782611310565b92915050565b600080516020612c14833981519152610787816000610ed1565b610795576107958133611345565b60006107a5888888888888610d52565b90506107b181856113a9565b6107bd88888888611444565b6000817fc2617efa69bab66782fa219543714338489c4e9e178271560a91b82c3f612b588a8a8a8a6040516107f594939291906126bb565b60405180910390a361080681611517565b5050505050505050565b60008181526097602052604081205460018111801561082f5750428111155b9392505050565b60008281526065602052604090206001015461085181611217565b61085b8383611550565b505050565b60008181526097602052604081205481905b1192915050565b6001600160a01b03811633146108ee5760405162461bcd60e51b815260206004820152602f60248201527f416363657373436f6e74726f6c3a2063616e206f6e6c792072656e6f756e636560448201526e103937b632b9903337b91039b2b63360891b60648201526084015b60405180910390fd5b6108f882826115d6565b5050565b306001600160a01b037f00000000000000000000000000000000000000000000000000000000000000001614156109455760405162461bcd60e51b81526004016108e5906126ed565b7f00000000000000000000000000000000000000000000000000000000000000006001600160a01b031661098e600080516020612b8d833981519152546001600160a01b031690565b6001600160a01b0316146109b45760405162461bcd60e51b81526004016108e590612739565b6109bd8161163d565b604080516000808252602082019092526109d991839190611645565b50565b306001600160a01b037f0000000000000000000000000000000000000000000000000000000000000000161415610a255760405162461bcd60e51b81526004016108e5906126ed565b7f00000000000000000000000000000000000000000000000000000000000000006001600160a01b0316610a6e600080516020612b8d833981519152546001600160a01b031690565b6001600160a01b031614610a945760405162461bcd60e51b81526004016108e590612739565b610a9d8261163d565b6108f882826001611645565b6000306001600160a01b037f00000000000000000000000000000000000000000000000000000000000000001614610b495760405162461bcd60e51b815260206004820152603860248201527f555550535570677261646561626c653a206d757374206e6f742062652063616c60448201527f6c6564207468726f7567682064656c656761746563616c6c000000000000000060648201526084016108e5565b50600080516020612b8d83398151915290565b600081815260976020526040812054600190610872565b333014610bd65760405162461bcd60e51b815260206004820152602b60248201527f54696d656c6f636b436f6e74726f6c6c65723a2063616c6c6572206d7573742060448201526a62652074696d656c6f636b60a81b60648201526084016108e5565b60985460408051918252602082018390527f11c24f4ead16507c69ac467fbd5e4eed5fb5c699626d2cc6d66421df253886d5910160405180910390a1609855565b610c1f6117bf565b610c296000611819565b565b600054610100900460ff1615808015610c4b5750600054600160ff909116105b80610c655750303b158015610c65575060005460ff166001145b610cc85760405162461bcd60e51b815260206004820152602e60248201527f496e697469616c697a61626c653a20636f6e747261637420697320616c72656160448201526d191e481a5b9a5d1a585b1a5e995960921b60648201526084016108e5565b6000805460ff191660011790558015610ceb576000805461ff0019166101001790555b610cf684848461186b565b610cfe61189d565b610d066118cc565b8015610d4c576000805461ff0019169055604051600181527f7f26b83ff96e1f2b6a682f133852f6798a09c465da95921460cefb38474024989060200160405180910390a15b50505050565b6000868686868686604051602001610d6f9695949392919061267e565b6040516020818303038152906040528051906020012090509695505050505050565b600080516020612bf4833981519152610da981611217565b888714610dc85760405162461bcd60e51b81526004016108e590612785565b888514610de75760405162461bcd60e51b81526004016108e590612785565b6000610df98b8b8b8b8b8b8b8b610efc565b9050610e058184611221565b60005b8a811015610ec35780827f4cf4410cc57040e44862ef0f45f3dd5a5e02db8eb8add648d4b0e236f1d07dca8e8e85818110610e4557610e456127c8565b9050602002016020810190610e5a91906121e7565b8d8d86818110610e6c57610e6c6127c8565b905060200201358c8c87818110610e8557610e856127c8565b9050602002810190610e9791906127de565b8c8b604051610eab9695949392919061267e565b60405180910390a3610ebc8161283a565b9050610e08565b505050505050505050505050565b60009182526065602090815260408084206001600160a01b0393909316845291905290205460ff1690565b60008888888888888888604051602001610f1d9897969594939291906128e5565b60405160208183030381529060405280519060200120905098975050505050505050565b600080516020612c34833981519152610f5981611217565b610f6282610b5c565b610fc85760405162461bcd60e51b815260206004820152603160248201527f54696d656c6f636b436f6e74726f6c6c65723a206f7065726174696f6e2063616044820152701b9b9bdd0818994818d85b98d95b1b1959607a1b60648201526084016108e5565b6000828152609760205260408082208290555183917fbaa1eb22f2a492ba1a5fea61b8df4d27c6c8b5f3971e63bb58fa14ff72eedb7091a25050565b60008281526065602052604090206001015461101f81611217565b61085b83836115d6565b600080516020612c14833981519152611043816000610ed1565b611051576110518133611345565b8786146110705760405162461bcd60e51b81526004016108e590612785565b87841461108f5760405162461bcd60e51b81526004016108e590612785565b60006110a18a8a8a8a8a8a8a8a610efc565b90506110ad81856113a9565b60005b8981101561118b5760008b8b838181106110cc576110cc6127c8565b90506020020160208101906110e191906121e7565b905060008a8a848181106110f7576110f76127c8565b9050602002013590503660008a8a86818110611115576111156127c8565b905060200281019061112791906127de565b9150915061113784848484611444565b84867fc2617efa69bab66782fa219543714338489c4e9e178271560a91b82c3f612b588686868660405161116e94939291906126bb565b60405180910390a350505050806111849061283a565b90506110b0565b5061119581611517565b50505050505050505050565b6111a96117bf565b6001600160a01b03811661120e5760405162461bcd60e51b815260206004820152602660248201527f4f776e61626c653a206e6577206f776e657220697320746865207a65726f206160448201526564647265737360d01b60648201526084016108e5565b6109d981611819565b6109d98133611345565b61122a82610860565b1561128f5760405162461bcd60e51b815260206004820152602f60248201527f54696d656c6f636b436f6e74726f6c6c65723a206f7065726174696f6e20616c60448201526e1c9958591e481cd8da19591d5b1959608a1b60648201526084016108e5565b6098548110156112f05760405162461bcd60e51b815260206004820152602660248201527f54696d656c6f636b436f6e74726f6c6c65723a20696e73756666696369656e746044820152652064656c617960d01b60648201526084016108e5565b6112fa8142612990565b6000928352609760205260409092209190915550565b60006001600160e01b03198216637965db0b60e01b148061076757506301ffc9a760e01b6001600160e01b0319831614610767565b61134f8282610ed1565b6108f857611367816001600160a01b031660146118f3565b6113728360206118f3565b6040516020016113839291906129d4565b60408051601f198184030181529082905262461bcd60e51b82526108e591600401612a49565b6113b282610810565b6113ce5760405162461bcd60e51b81526004016108e590612a7c565b8015806113e957506000818152609760205260409020546001145b6108f85760405162461bcd60e51b815260206004820152602660248201527f54696d656c6f636b436f6e74726f6c6c65723a206d697373696e6720646570656044820152656e64656e637960d01b60648201526084016108e5565b6000846001600160a01b0316848484604051611461929190612ac6565b60006040518083038185875af1925050503d806000811461149e576040519150601f19603f3d011682016040523d82523d6000602084013e6114a3565b606091505b50509050806115105760405162461bcd60e51b815260206004820152603360248201527f54696d656c6f636b436f6e74726f6c6c65723a20756e6465726c79696e6720746044820152721c985b9cd858dd1a5bdb881c995d995c9d1959606a1b60648201526084016108e5565b5050505050565b61152081610810565b61153c5760405162461bcd60e51b81526004016108e590612a7c565b600090815260976020526040902060019055565b61155a8282610ed1565b6108f85760008281526065602090815260408083206001600160a01b03851684529091529020805460ff191660011790556115923390565b6001600160a01b0316816001600160a01b0316837f2f8788117e7eff1d82e926ec794901d17c78024a50270940304540a733656f0d60405160405180910390a45050565b6115e08282610ed1565b156108f85760008281526065602090815260408083206001600160a01b0385168085529252808320805460ff1916905551339285917ff6391f5c32d9c69d2a47ea670b442974b53935d1edc7fd64eb21e047a839171b9190a45050565b6109d96117bf565b7f4910fdfa16fed3260ed0e7147f7cc6da11a60208b5b9406d12a635614ffd91435460ff16156116785761085b83611a8e565b826001600160a01b03166352d1902d6040518163ffffffff1660e01b815260040160206040518083038186803b1580156116b157600080fd5b505afa9250505080156116e1575060408051601f3d908101601f191682019092526116de91810190612ad6565b60015b6117445760405162461bcd60e51b815260206004820152602e60248201527f45524331393637557067726164653a206e657720696d706c656d656e7461746960448201526d6f6e206973206e6f74205555505360901b60648201526084016108e5565b600080516020612b8d83398151915281146117b35760405162461bcd60e51b815260206004820152602960248201527f45524331393637557067726164653a20756e737570706f727465642070726f786044820152681a58589b195555525160ba1b60648201526084016108e5565b5061085b838383611b2a565b60c9546001600160a01b03163314610c295760405162461bcd60e51b815260206004820181905260248201527f4f776e61626c653a2063616c6c6572206973206e6f7420746865206f776e657260448201526064016108e5565b60c980546001600160a01b038381166001600160a01b0319831681179093556040519116919082907f8be0079c531659141344cd1fd0a4f28419497f9722a3daafe3b4186f6b6457e090600090a35050565b600054610100900460ff166118925760405162461bcd60e51b81526004016108e590612aef565b61085b838383611b4f565b600054610100900460ff166118c45760405162461bcd60e51b81526004016108e590612aef565b610c29611d27565b600054610100900460ff16610c295760405162461bcd60e51b81526004016108e590612aef565b60606000611902836002612b3a565b61190d906002612990565b6001600160401b038111156119245761192461209f565b6040519080825280601f01601f19166020018201604052801561194e576020820181803683370190505b509050600360fc1b81600081518110611969576119696127c8565b60200101906001600160f81b031916908160001a905350600f60fb1b81600181518110611998576119986127c8565b60200101906001600160f81b031916908160001a90535060006119bc846002612b3a565b6119c7906001612990565b90505b6001811115611a3f576f181899199a1a9b1b9c1cb0b131b232b360811b85600f16601081106119fb576119fb6127c8565b1a60f81b828281518110611a1157611a116127c8565b60200101906001600160f81b031916908160001a90535060049490941c93611a3881612b59565b90506119ca565b50831561082f5760405162461bcd60e51b815260206004820181905260248201527f537472696e67733a20686578206c656e67746820696e73756666696369656e7460448201526064016108e5565b6001600160a01b0381163b611afb5760405162461bcd60e51b815260206004820152602d60248201527f455243313936373a206e657720696d706c656d656e746174696f6e206973206e60448201526c1bdd08184818dbdb9d1c9858dd609a1b60648201526084016108e5565b600080516020612b8d83398151915280546001600160a01b0319166001600160a01b0392909216919091179055565b611b3383611d57565b600082511180611b405750805b1561085b57610d4c8383611d97565b600054610100900460ff16611b765760405162461bcd60e51b81526004016108e590612aef565b611b8e600080516020612bad83398151915280611e8b565b611bb4600080516020612bf4833981519152600080516020612bad833981519152611e8b565b611bda600080516020612c14833981519152600080516020612bad833981519152611e8b565b611c00600080516020612c34833981519152600080516020612bad833981519152611e8b565b611c18600080516020612bad83398151915233611ed6565b611c30600080516020612bad83398151915230611ed6565b60005b8251811015611ca157611c6d600080516020612bf4833981519152848381518110611c6057611c606127c8565b6020026020010151611ed6565b611c91600080516020612c34833981519152848381518110611c6057611c606127c8565b611c9a8161283a565b9050611c33565b5060005b8151811015611ce257611cd2600080516020612c14833981519152838381518110611c6057611c606127c8565b611cdb8161283a565b9050611ca5565b5060988390556040805160008152602081018590527f11c24f4ead16507c69ac467fbd5e4eed5fb5c699626d2cc6d66421df253886d5910160405180910390a1505050565b600054610100900460ff16611d4e5760405162461bcd60e51b81526004016108e590612aef565b610c2933611819565b611d6081611a8e565b6040516001600160a01b038216907fbc7cd75a20ee27fd9adebab32041f755214dbc6bffa90cc0225b39da2e5c2d3b90600090a250565b60606001600160a01b0383163b611dff5760405162461bcd60e51b815260206004820152602660248201527f416464726573733a2064656c65676174652063616c6c20746f206e6f6e2d636f6044820152651b9d1c9858dd60d21b60648201526084016108e5565b600080846001600160a01b031684604051611e1a9190612b70565b600060405180830381855af49150503d8060008114611e55576040519150601f19603f3d011682016040523d82523d6000602084013e611e5a565b606091505b5091509150611e828282604051806060016040528060278152602001612bcd60279139611ee0565b95945050505050565b600082815260656020526040808220600101805490849055905190918391839186917fbd79b86ffe0ab8e8776151514217cd7cacd52c909f66475c3af44e129f0b00ff9190a4505050565b6108f88282611550565b60608315611eef57508161082f565b825115611eff5782518084602001fd5b8160405162461bcd60e51b81526004016108e59190612a49565b80356001600160a01b0381168114611f3057600080fd5b919050565b60008083601f840112611f4757600080fd5b5081356001600160401b03811115611f5e57600080fd5b602083019150836020828501011115611f7657600080fd5b9250929050565b600080600080600080600060c0888a031215611f9857600080fd5b611fa188611f19565b96506020880135955060408801356001600160401b03811115611fc357600080fd5b611fcf8a828b01611f35565b989b979a50986060810135976080820135975060a09091013595509350505050565b60006020828403121561200357600080fd5b81356001600160e01b03198116811461082f57600080fd5b60008060008060008060a0878903121561203457600080fd5b61203d87611f19565b95506020870135945060408701356001600160401b0381111561205f57600080fd5b61206b89828a01611f35565b979a9699509760608101359660809091013595509350505050565b60006020828403121561209857600080fd5b5035919050565b634e487b7160e01b600052604160045260246000fd5b604051601f8201601f191681016001600160401b03811182821017156120dd576120dd61209f565b604052919050565b600082601f8301126120f657600080fd5b81356001600160401b0381111561210f5761210f61209f565b612122601f8201601f19166020016120b5565b81815284602083860101111561213757600080fd5b816020850160208301376000918101602001919091529392505050565b6000806000806080858703121561216a57600080fd5b61217385611f19565b935061218160208601611f19565b92506040850135915060608501356001600160401b038111156121a357600080fd5b6121af878288016120e5565b91505092959194509250565b600080604083850312156121ce57600080fd5b823591506121de60208401611f19565b90509250929050565b6000602082840312156121f957600080fd5b61082f82611f19565b6000806040838503121561221557600080fd5b61221e83611f19565b915060208301356001600160401b0381111561223957600080fd5b612245858286016120e5565b9150509250929050565b60006001600160401b038211156122685761226861209f565b5060051b60200190565b600082601f83011261228357600080fd5b813560206122986122938361224f565b6120b5565b82815260059290921b840181019181810190868411156122b757600080fd5b8286015b848110156122d9576122cc81611f19565b83529183019183016122bb565b509695505050505050565b6000806000606084860312156122f957600080fd5b8335925060208401356001600160401b038082111561231757600080fd5b61232387838801612272565b9350604086013591508082111561233957600080fd5b5061234686828701612272565b9150509250925092565b60008083601f84011261236257600080fd5b5081356001600160401b0381111561237957600080fd5b6020830191508360208260051b8501011115611f7657600080fd5b600080600080600080600080600060c08a8c0312156123b257600080fd5b89356001600160401b03808211156123c957600080fd5b6123d58d838e01612350565b909b50995060208c01359150808211156123ee57600080fd5b6123fa8d838e01612350565b909950975060408c013591508082111561241357600080fd5b506124208c828d01612350565b9a9d999c50979a969997986060880135976080810135975060a0013595509350505050565b60008060008060008060008060a0898b03121561246157600080fd5b88356001600160401b038082111561247857600080fd5b6124848c838d01612350565b909a50985060208b013591508082111561249d57600080fd5b6124a98c838d01612350565b909850965060408b01359150808211156124c257600080fd5b506124cf8b828c01612350565b999c989b509699959896976060870135966080013595509350505050565b600082601f8301126124fe57600080fd5b8135602061250e6122938361224f565b82815260059290921b8401810191818101908684111561252d57600080fd5b8286015b848110156122d95780358352918301918301612531565b600080600080600060a0868803121561256057600080fd5b61256986611f19565b945061257760208701611f19565b935060408601356001600160401b038082111561259357600080fd5b61259f89838a016124ed565b945060608801359150808211156125b557600080fd5b6125c189838a016124ed565b935060808801359150808211156125d757600080fd5b506125e4888289016120e5565b9150509295509295909350565b600080600080600060a0868803121561260957600080fd5b61261286611f19565b945061262060208701611f19565b9350604086013592506060860135915060808601356001600160401b0381111561264957600080fd5b6125e4888289016120e5565b81835281816020850137506000828201602090810191909152601f909101601f19169091010190565b60018060a01b038716815285602082015260a0604082015260006126a660a083018688612655565b60608301949094525060800152949350505050565b60018060a01b03851681528360208201526060604082015260006126e3606083018486612655565b9695505050505050565b6020808252602c908201527f46756e6374696f6e206d7573742062652063616c6c6564207468726f7567682060408201526b19195b1959d85d1958d85b1b60a21b606082015260800190565b6020808252602c908201527f46756e6374696f6e206d7573742062652063616c6c6564207468726f7567682060408201526b6163746976652070726f787960a01b606082015260800190565b60208082526023908201527f54696d656c6f636b436f6e74726f6c6c65723a206c656e677468206d69736d616040820152620e8c6d60eb1b606082015260800190565b634e487b7160e01b600052603260045260246000fd5b6000808335601e198436030181126127f557600080fd5b8301803591506001600160401b0382111561280f57600080fd5b602001915036819003821315611f7657600080fd5b634e487b7160e01b600052601160045260246000fd5b600060001982141561284e5761284e612824565b5060010190565b81835260006020808501808196508560051b810191508460005b878110156128d85782840389528135601e1988360301811261289057600080fd5b870180356001600160401b038111156128a857600080fd5b8036038913156128b757600080fd5b6128c48682898501612655565b9a87019a955050509084019060010161286f565b5091979650505050505050565b60a0808252810188905260008960c08301825b8b811015612926576001600160a01b0361291184611f19565b168252602092830192909101906001016128f8565b5083810360208501528881526001600160fb1b0389111561294657600080fd5b8860051b9150818a60208301378181019150506020810160008152602084830301604085015261297781888a612855565b6060850196909652505050608001529695505050505050565b600082198211156129a3576129a3612824565b500190565b60005b838110156129c35781810151838201526020016129ab565b83811115610d4c5750506000910152565b7f416363657373436f6e74726f6c3a206163636f756e7420000000000000000000815260008351612a0c8160178501602088016129a8565b7001034b99036b4b9b9b4b733903937b6329607d1b6017918401918201528351612a3d8160288401602088016129a8565b01602801949350505050565b6020815260008251806020840152612a688160408501602087016129a8565b601f01601f19169190910160400192915050565b6020808252602a908201527f54696d656c6f636b436f6e74726f6c6c65723a206f7065726174696f6e206973604082015269206e6f7420726561647960b01b606082015260800190565b8183823760009101908152919050565b600060208284031215612ae857600080fd5b5051919050565b6020808252602b908201527f496e697469616c697a61626c653a20636f6e7472616374206973206e6f74206960408201526a6e697469616c697a696e6760a81b606082015260800190565b6000816000190483118215151615612b5457612b54612824565b500290565b600081612b6857612b68612824565b506000190190565b60008251612b828184602087016129a8565b919091019291505056fe360894a13ba1a3210667c828492db98dca3e2076cc3735a920a3ca505d382bbc5f58e3a2316349923ce3780f8d587db2d72378aed66a8261c916544fa6846ca5416464726573733a206c6f772d6c6576656c2064656c65676174652063616c6c206661696c6564b09aa5aeb3702cfd50b6b62bc4532604938f21248a27a1d5ca736082b6819cc1d8aa0f3194971a2a116679f7c2090f6939c8d4e01a2a8d7e41d55e5351469e63fd643c72710c63c0180259aba6b2d05451e3591a24e58b62239378085726f783a26469706673582212203acd3841c8e64ab5c9cf22cf5f5e1658c2190b9c1a83a630884e4b7f2728623164736f6c63430008090033",
  "linkReferences": {},
  "deployedLinkReferences": {}
}